:020000040800F2
:100000000000052099650008EB650008ED65000813
:10001000EF650008F1650008F365000800000000C6
:10002000000000000000000000000000F56500086E
:10003000F765000800000000F9650008FD6500088C
:10004000E9650008E9650008E9650008E965000858
:10005000E9650008E9650008E9650008E965000848
:10006000E9650008E9650008E9650008E965000838
:10007000E9650008E9650008E9650008E965000828
:10008000E9650008E9650008E9650008E965000818
:10009000E9650008E9650008E96500080D660008E3
:1000A000E9650008E9650008E9650008E9650008F8
:1000B000E96500082567000809670008E965000888
:1000C000E9650008E9650008E9650008E9650008D8
:1000D000E9650008E9650008E9650008E9650008C8
:1000E0003D660008E9650008E9650008E965000863
:1000F000E9650008E9650008E9650008E9650008A8
:10010000E9650008E9650008E9650008E965000897
:10011000E9650008E9650008E9650008E965000887
:100120004D66000885660008E9650008E965000875
:10013000E9650008E9650008E9650008E965000867
:10014000E9650008E9650008E965000881670008BD
:10015000E9650008E9650008BD660008E965000872
:10016000E9650008E9650008E9650008E965000837
:10017000E9650008E9650008E9650008000000007D
:10018000E9650008E9650008E9650008E965000817
:10019000E9650008E9650008E9650008E965000807
:1001A000E9650008C1660008E5660008E965000821
:1001B00041670008E9650008E9650008E96500088D
:0801C000E9650008E96500088B
:1001D00010B5054C237833B9044B13B10448AFF381
:1001E00000800123237010BDB00600200000000035
:1001F000304A010808B5034B1BB103490348AFF36C
:10020000008008BD00000000B4060020304A01084C
:10021000034613F8012B002AFBD1181A0138704746
:1002200001F0FF01102A2BDB10F0070F08D010F8A7
:10023000013B013A8B422DD010F0070F42B3F6D1AB
:10024000F0B441EA012141EA014122F007047FF0C4
:1002500000070023F0E80256083C85EA010586EA1B
:10026000010685FA47F5A3FA87F586FA47F6A5FA57
:1002700087F68EB9EED1F0BC01F0FF0102F0070263
:1002800032B110F8013B013A83EA010313B1F8D10E
:100290000020704701387047002D06BF35460338EF
:1002A000073815F0010F07D1013015F4807F02BF28
:1002B000013015F4C03F0130F0BC0138704700BF79
:1002C00081F0004102E000BF83F0004330B54FEA07
:1002D00041044FEA430594EA050F08BF90EA020F74
:1002E0001FBF54EA000C55EA020C7FEA645C7FEA07
:1002F000655C00F0E2804FEA5454D4EB5555B8BF2A
:100300006D420CDD2C4480EA020281EA030382EA9A
:10031000000083EA010180EA020281EA0303362D2C
:1003200088BF30BD11F0004F4FEA01314FF4801CFF
:100330004CEA113102D0404261EB410113F0004F11
:100340004FEA03334CEA133302D0524263EB4303C8
:1003500094EA050F00F0A780A4F10104D5F1200E66
:100360000DDB02FA0EFC22FA05F2801841F10001C1
:1003700003FA0EF2801843FA05F359410EE0A5F195
:1003800020050EF1200E012A03FA0EFC28BF4CF0C6
:10039000020C43FA05F3C01851EBE37101F000457C
:1003A00007D54FF0000EDCF1000C7EEB00006EEB89
:1003B0000101B1F5801F1BD3B1F5001F0CD3490813
:1003C0005FEA30004FEA3C0C04F101044FEA44526A
:1003D00012F5800F80F09A80BCF1004F08BF5FEAF1
:1003E000500C50F1000041EB045141EA050130BDD1
:1003F0005FEA4C0C404141EB010111F4801FA4F174
:100400000104E9D191F0000F04BF01460020B1FAC8
:1004100081F308BF2033A3F10B03B3F120020CDA00
:100420000C3208DD02F1140CC2F10C0201FA0CF0DE
:1004300021FA02F10CE002F11402D8BFC2F1200C43
:1004400001FA02F120FA0CFCDCBF41EA0C019040F9
:10045000E41AA2BF01EB0451294330BD6FEA040442
:100460001F3C1CDA0C340EDC04F11404C4F120022D
:1004700020FA04F001FA02F340EA030021FA04F33F
:1004800045EA030130BDC4F10C04C4F1200220FA96
:1004900002F001FA04F340EA0300294630BD21FAD4
:1004A00004F0294630BD94F0000F83F4801306BF9A
:1004B00081F480110134013D4EE77FEA645C18BF8E
:1004C0007FEA655C29D094EA050F08BF90EA020F25
:1004D00005D054EA000C04BF1946104630BD91EA1D
:1004E000030F1EBF0021002030BD5FEA545C05D120
:1004F0004000494128BF41F0004130BD14F580045F
:100500003CBF01F5801130BD01F0004545F0FE41D2
:1005100041F470014FF0000030BD7FEA645C1ABF07
:10052000194610467FEA655C1CBF0B46024650EA3E
:10053000013406BF52EA033591EA030F41F400216A
:1005400030BD00BF90F0000F04BF0021704730B5F0
:100550004FF4806404F132044FF000054FF00001C5
:1005600050E700BF90F0000F04BF0021704730B586
:100570004FF4806404F1320410F0004548BF40425B
:100580004FF000013EE700BF42004FEAE2014FEAB0
:1005900031014FEA02701FBF12F07F4393F07F4F8B
:1005A00081F06051704792F0000F14BF93F07F4FBD
:1005B000704730B54FF4607401F0004521F0004100
:1005C00020E700BF50EA010208BF704730B54FF086
:1005D00000050AE050EA010208BF704730B511F08B
:1005E000004502D5404261EB41014FF4806404F1C3
:1005F00032045FEA915C3FF4DCAE4FF003025FEA45
:10060000DC0C18BF03325FEADC0C18BF033202EBCC
:10061000DC02C2F1200300FA03FC20FA02F001FA26
:1006200003FE40EA0E0021FA02F11444C1E600BFC5
:1006300070B54FF0FF0C4CF4E06C1CEA11541DBF78
:100640001CEA135594EA0C0F95EA0C0F00F0DEF843
:100650002C4481EA030621EA4C5123EA4C5350EA28
:10066000013518BF52EA033541F4801143F4801379
:1006700038D0A0FB02CE4FF00005E1FB02E506F00A
:100680000042E0FB03E54FF00006E1FB03569CF05F
:10069000000F18BF4EF0010EA4F1FF04B6F5007F65
:1006A00064F5407404D25FEA4E0E6D4146EB0606D7
:1006B00042EAC62141EA55514FEAC52040EA5E5060
:1006C0004FEACE2EB4F1FD0C88BFBCF5E06F1ED80A
:1006D000BEF1004F08BF5FEA500E50F1000041EB41
:1006E000045170BD06F0004646EA010140EA0200EE
:1006F00081EA0301B4EB5C04C2BFD4EB0C0541EA10
:10070000045170BD41F480114FF0000E013C00F324
:10071000AB8014F1360FDEBF002001F0004170BD48
:10072000C4F10004203C35DA0C341BDC04F1140461
:10073000C4F1200500FA05F320FA04F001FA05F2ED
:1007400040EA020001F0004221F0004110EBD370BA
:1007500021FA04F642EB06015EEA430E08BF20EAE6
:10076000D37070BDC4F10C04C4F1200500FA04F389
:1007700020FA05F001FA04F240EA020001F000411B
:1007800010EBD37041F100015EEA430E08BF20EA8E
:10079000D37070BDC4F1200500FA05F24EEA020ED6
:1007A00020FA04F301FA05F243EA020321FA04F005
:1007B00001F0004121FA04F220EA020000EBD370BC
:1007C0005EEA430E08BF20EAD37070BD94F0000FBC
:1007D0000FD101F00046400041EB010111F4801FF0
:1007E00008BF013CF7D041EA060195F0000F18BFA1
:1007F000704703F00046520043EB030313F4801FDD
:1008000008BF013DF7D043EA0603704794EA0C0F96
:100810000CEA135518BF95EA0C0F0CD050EA4106AC
:1008200018BF52EA4306D1D181EA030101F0004129
:100830004FF0000070BD50EA410606BF1046194651
:1008400052EA430619D094EA0C0F02D150EA01365D
:1008500013D195EA0C0F05D152EA03361CBF10469E
:1008600019460AD181EA030101F0004141F0FE413D
:1008700041F470014FF0000070BD41F0FE4141F4C1
:10088000780170BD70B54FF0FF0C4CF4E06C1CEAC1
:1008900011541DBF1CEA135594EA0C0F95EA0C0F76
:1008A00000F0A7F8A4EB050481EA030E52EA033531
:1008B0004FEA013100F088804FEA03334FF0805552
:1008C00045EA131343EA12634FEA022245EA11157F
:1008D00045EA10654FEA00260EF000419D4208BF30
:1008E000964244F1FD0404F5407402D25B084FEADD
:1008F0003202B61A65EB03055B084FEA32024FF489
:1009000080104FF4002CB6EB020E75EB030E22BFE5
:10091000B61A754640EA0C005B084FEA3202B6EBA5
:10092000020E75EB030E22BFB61A754640EA5C0054
:100930005B084FEA3202B6EB020E75EB030E22BFE4
:10094000B61A754640EA9C005B084FEA3202B6EBE5
:10095000020E75EB030E22BFB61A754640EADC00A4
:1009600055EA060E18D04FEA051545EA16754FEA06
:1009700006164FEAC30343EA52734FEAC2025FEA24
:100980001C1CC0D111F4801F0BD141EA00014FF0B3
:1009900000004FF0004CB6E711F4801F04BF014384
:1009A0000020B4F1FD0C88BFBCF5E06F3FF6AFAEA0
:1009B000B5EB030C04BFB6EB020C5FEA500C50F130
:1009C000000041EB045170BD0EF0004E4EEA1131B3
:1009D00014EB5C04C2BFD4EB0C0541EA045170BDBA
:1009E00041F480114FF0000E013C90E645EA060EFE
:1009F0008DE60CEA135594EA0C0F08BF95EA0C0F2C
:100A00003FF43BAF94EA0C0F0AD150EA01347FF473
:100A100034AF95EA0C0F7FF425AF104619462CE74A
:100A200095EA0C0F06D152EA03353FF4FDAE1046AD
:100A3000194622E750EA410618BF52EA43067FF4FE
:100A4000C5AE50EA41047FF40DAF52EA43057FF48E
:100A5000EBAE12E74FF0FF3C06E000BF4FF0010C99
:100A600002E000BF4FF0010C4DF804CD4FEA410CFD
:100A70007FEA6C5C4FEA430C18BF7FEA6C5C1BD0CA
:100A800001B050EA410C0CBF52EA430C91EA030F4B
:100A900002BF90EA020F0020704710F1000F91EAA8
:100AA000030F58BF994208BF90422CBFD8176FEA76
:100AB000E37040F0010070474FEA410C7FEA6C5C44
:100AC00002D150EA013C07D14FEA430C7FEA6C5C4B
:100AD000D6D152EA033CD3D05DF8040B704700BF77
:100AE0008446104662468C461946634600E000BFC5
:100AF00001B5FFF7B7FF002848BF10F1000F01BD97
:100B00004DF808EDFFF7F4FF0CBF012000205DF861
:100B100008FB00BF4DF808EDFFF7EAFF34BF0120E6
:100B200000205DF808FB00BF4DF808EDFFF7E0FF7F
:100B300094BF012000205DF808FB00BF4DF808EDD0
:100B4000FFF7CEFF94BF012000205DF808FB00BF37
:100B50004DF808EDFFF7C4FF34BF012000205DF819
:100B600008FB00BF4FEA410C7FEA6C5C02D150EAFF
:100B7000013C0AD14FEA430C7FEA6C5C02D152EA95
:100B8000033C02D14FF0000070474FF00100704766
:100B90004FEA410212F5001215D211D56FF47873A5
:100BA000B3EB625212D94FEAC12343F0004343EA48
:100BB000505311F0004F23FA02F018BF4042704723
:100BC0004FF00000704750EA013005D111F00040AD
:100BD00008BF6FF0004070474FF00000704700BF43
:100BE0004A0011D212F5001211D20DD56FF47873AC
:100BF000B3EB62520ED44FEAC12343F0004343EA01
:100C0000505323FA02F070474FF00000704750EA4B
:100C1000013002D14FF0FF3070474FF000007047B5
:100C20004FEA4102B2F1E04324BFB3F5001CDCF10E
:100C3000FE5C0DD901F0004C4FEAC0024CEA507046
:100C4000B2F1004F40EB830008BF20F00100704775
:100C500011F0804F21D113F13872BCBF01F0004078
:100C6000704741F480114FEA5252C2F11802C2F1AA
:100C7000200C10FA0CF320FA02F018BF40F001002B
:100C80004FEAC1234FEAD32303FA0CFC40EA0C00DD
:100C900023FA02F34FEA4303CCE77FEA625307D11A
:100CA00050EA01331EBF4FF0FE4040F44000704751
:100CB00001F0004040F0FE4040F40000704700BFEB
:100CC00053B94AB9002908BF00281CBF4FF0FF31B3
:100CD0004FF0FF3000F07AB9ADF1080C6DE904CEA9
:100CE00000F006F8DDF804E0DDE9022304B0704707
:100CF0002DE9F0478C460D460446089E002B51D145
:100D00008A4217466DD9B2FA82FEBEF1000F0BD0AF
:100D1000CEF1200C01FA0EF520FA0CFC02FA0EF7C7
:100D20004CEA050C00FA0EF44FEA174A250CBCFBFE
:100D3000FAF81FFA87F90AFB18CC45EA0C4508FBBC
:100D400009F3AB420AD9ED1908F1FF3280F0238193
:100D5000AB4240F22081A8F102083D44ED1AA4B252
:100D6000B5FBFAF00AFB105544EA054400FB09F90B
:100D7000A14509D9E41900F1FF3380F00A81A145AA
:100D800040F2078102383C44A4EB090440EA0840E1
:100D90000021002E61D024FA0EF400233460736029
:100DA000BDE8F0878B4207D9002E54D0002186E899
:100DB00021000846BDE8F087B3FA83F1002940F02E
:100DC0008E80AB4202D3824200F2FA80841A65EB35
:100DD00003050120AC46002E3FD086E81010BDE888
:100DE000F08712B90127B7FBF2F7B7FA87FEBEF119
:100DF000000F34D1EB1B3A0C1FFA87FC0121B3FB27
:100E0000F2F8250C02FB183345EA03450CFB08F306
:100E1000AB4207D9ED1908F1FF3002D2AB4200F224
:100E2000D1808046ED1AA3B2B5FBF2F002FB10555B
:100E300043EA05440CFB00FCA44507D9E41900F182
:100E4000FF3302D2A44500F2B8801846A4EB0C048C
:100E500040EA08409DE731463046BDE8F087CEF1D4
:100E6000200405FA0EF307FA0EF720FA04F83A0CFC
:100E700025FA04F448EA0308B4FBF2F14FEA1845F6
:100E800002FB11441FFA87FC45EA044501FB0CF301
:100E9000AB4200FA0EF409D9ED1901F1FF3080F0F0
:100EA0008A80AB4240F2878002393D44EB1A1FFA38
:100EB00088F5B3FBF2F002FB103345EA034500FB73
:100EC0000CF3AB4207D9ED1900F1FF386FD2AB42FA
:100ED0006DD902383D44EB1A40EA01418FE7C1F178
:100EE000200722FA07F88B4005FA01F448EA0303C9
:100EF00020FA07FE4FEA134CFD404EEA040EB5FB04
:100F0000FCF94FEA1E440CFB19551FFA83F844EA1A
:100F1000054509FB08F4AC4202FA01F200FA01FAB5
:100F200008D9ED1809F1FF3043D2AC4241D9A9F1FB
:100F300002091D442D1B1FFA8EFEB5FBFCF00CFBB5
:100F400010554EEA054400FB08F8A04507D9E418FF
:100F500000F1FF3529D2A04527D902381C4440EAC8
:100F60000940A4EB0804A0FB02894C45C6464D4647
:100F700015D312D056B1BAEB0E0364EB050404FA94
:100F800007F7CB401F43CC40376074600021BDE8B9
:100F9000F0871846F8E69046E0E6C245EAD2B8EB9C
:100FA000020E69EB03050138E4E72846D7E740461F
:100FB00091E78146BEE7014678E702383C4445E7C1
:100FC000084608E7A8F102083D442BE7704700BF38
:100FD00082B0094B1B680193019BB0F1FF3F00D029
:100FE000013030B1044B1B6813F4803FF9D0013855
:100FF000F7E702B0704700BF10E000E0A64B1B7897
:10100000002B00F065812DE9F041C27883781B0444
:1010100043EA0263427843EA02230278134300243E
:101020009D4A14709D4A934208BF1F2940F0578182
:10103000C37985792D0445EA0365437945EA03259B
:1010400003791D43C37A867A360446EA0366437AF7
:1010500046EA0326037A1E43077BC37B282B00F254
:10106000B680DFE803F0C6B4B46AB4B4B4B4B4B4C0
:10107000B4B4B4B4B4B4B4B415B4B4B4B4B4B4B4CF
:1010800055C6B4B4B4B4B4B4B429B448B4B46C0060
:10109000847CC37C43EA0423242B28BF24231C46DE
:1010A000002304E07E4AD15C7E4A99540133A34276
:1010B000F8D34FF0000E9EE0847DC37D43EA042305
:1010C0000C2B28BF0C231C46002304E0764AD15C7D
:1010D000744A99540133A342F8D34FF0000E8AE0CA
:1010E000724AD15C6F4A99540133072BF8D908240E
:1010F0004FF0000E7FE00023F7E76D4AD15C694AAC
:1011000099540133032BF8D904244FF0000E72E0F8
:101110000023F7E7674AD15C624A99540133132BE5
:10112000F8D9654B1A78654B1A70654B1A78654B80
:101130001A7014244FF0000E5DE00023EFE7437CAB
:10114000817C090441EA0361C37C41EA0321037DF8
:101150001943847DC37D43EA04235A18B2F5805FA6
:101160000CD90522544B1A702122574B1A700022B9
:10117000534B1A7034464FF0010E3CE01C03A6425C
:101180000CD005224C4B1A7024224F4B1A700022AF
:101190004B4B1A7034464FF0010E2CE084B94FF0DF
:1011A000000EBEF1000F26D00222434B1A7004221B
:1011B000454B1A704FF0010E414B83F800E01AE0E6
:1011C00022460903374805F003F98646E9E717F098
:1011D000800F0CD100240522374B1A7020223A4B85
:1011E0001A700022364B1A704FF0010E03E034469D
:1011F000F1E70024A6462346B44228BF3346BEF199
:10120000000F41D1F11A03F1010C264A55209854E0
:101210009C1C53200CF8020003F1030C4FF0420811
:1012200004F802801C1D0CF80200581DA5549C1DDA
:101230004FEA152C00F802C0D81D4FEA154C04F8EF
:1012400002C003F108042D0E855403F10900A154D6
:1012500003F10A040D0A855403F10B000D0CA5548B
:1012600003F10C04090E815403F10D0004F802E0AF
:10127000BEF1000F06D0FF43331C18BF012313EA51
:10128000D71303D1BDE8F0813146BCE70F4B1E6098
:101290006FF00100BDE8F08100000020555342438B
:1012A000484A0108000068C0784A0108704A0108ED
:1012B0006C4A0108844A0108D4060020020068C074
:1012C000CD0600200C0068C0CC060020D00600200F
:1012D000064A1368591A116029B90D2070474FF05A
:1012E000FF30BDE8F0816FF001007047D0060020AC
:1012F0000122014B1A707047000000200020704747
:1013000008B504F09DFF002008BDF8B50E4617464D
:101310001D4605F039F90028FBD10024AC420AD261
:10132000E1194FF48052090306EB043005F050F840
:1013300018B90134F2E70020F8BD0120F8BD000023
:1013400070B50D4616461C4605F01EF90028FBD167
:10135000002303E0E95C084A99540133B3EB043FEE
:10136000F8D322463103044805F098F808B9002064
:1013700070BD012070BD00BF000060C008B501292C
:1013800009D019B103290BD0042008BD05F0FCF8E1
:101390000028FBD108BD4FF480531360002008BD26
:1013A00001231360002008BD10B4C1EB01118C01B2
:1013B000034B234423F810205DF8044B704700BF13
:1013C000000020C00F4B1B6813F0010FFAD10D4B2A
:1013D0000D4A1A6000229A634FF04041D9631A64A3
:1013E00002225A63094A5A649A6842F03F029A609C
:1013F0001A6842F001021A60024B1B6813F0010FD9
:10140000FAD1704700B00240000103001001E00172
:101410000F4B1B6813F0010FFAD10D4B0D4A1A60E8
:1014200098630D4ADA6300221A6402225A630B4A57
:101430005A649A6842F03F029A601A6842F00102C8
:101440001A60034B1B6813F0010FFAD1704700BFFD
:1014500000B0024000010300000040C01001E001A4
:1014600070B41C4C246814F0010FFAD100251A4CFA
:101470002570184C194D2560BDF80C50A563C1EBC3
:10148000011675010544164E06EB4505E563851A00
:1014900005F2DF15256402256563121A01325B1A15
:1014A000013343EA02436364A36843F03F03A3604C
:1014B000236843F001032360064B1B6813F0010F00
:1014C000FAD1054B1B7813B9002070BC70474FF060
:1014D000FF30FAE700B00240E00600200001030000
:1014E000000020C070B4244C246814F0010FFAD11D
:1014F0000025224C2570204C214D25600225656376
:10150000BDF80C50A563C1EB0116750105441D4ED5
:1015100006EB4505E56399421ED0904228D1164A54
:1015200040F2DF1010645B1A013343F480335364DC
:10153000114B9A6842F03F029A601A6842F0010229
:101540001A600D4B1B6813F0010FFAD10B4B1B787F
:101550005BB9002070BC704700232364131A013369
:101560001B0443F001036364E2E74FF0FF30F1E74F
:101570004FF0FF30EEE700BF00B00240E006002071
:1015800000010300000020C0134B1B6813F0010F83
:10159000FAD1114B114A1A60114ADA60114ADA6124
:1015A000114A5A61114A5A624FF04042DA630022EE
:1015B0001A6402225A630E4A5A649A6842F03F0241
:1015C0009A601A6842F001021A60034B1B6813F01C
:1015D000010FFAD1704700BF00B0024000010200C5
:1015E000000020C00200018F000040C0020001FF87
:1015F0001001E0014278007840EA02207047C2788A
:10160000837843EA0222437843EA0223007840EADF
:10161000032070470170090A417070470170C1F3DF
:1016200007234370C1F307438370090EC1707047ED
:10163000002070470020704702394369023B9942FD
:1016400004D2836A408900FB013070470020704754
:1016500070B506460D4601F11A00FFF7CBFF0446B0
:101660003378032B00D070BD05F11400FFF7C2FFE3
:1016700044EA0040F7E770B506460C46154691B2BD
:1016800004F11A00FFF7C6FF3378032B00D070BDBA
:10169000290C04F11400FFF7BDFFF8E710B404684B
:1016A00004B32246511C13780A463A2B18BF202B4C
:1016B000F8D83A2B04D0002318465DF8044B704745
:1016C0002378A3F13002D2B2092A06D80234A1420B
:1016D00001D0012302E0303B00E00123002B04DCB9
:1016E0000160E9E74FF0FF33E6E74FF0FF33E3E750
:1016F00038B50D460446B0B10368B3B11A7822B9C3
:101700000920B0B923682B6038BD8188DA889142FE
:1017100001D00920F5E75878FFF7F0FD10F0010F30
:1017200005D00920EDE70920EBE70920E9E70020D3
:10173000E7E70023E7E738B5C3780BB9002038BDE9
:10174000044600F130050123C26A29464078FFF7BC
:10175000F7FDA0B90023E370E16A236ACB1AA269FE
:1017600093420ED2A378022B01D0002038BD012372
:101770000A4429466078FFF7E3FD002038BD0120C8
:1017800038BD002038BD70B5C36A8B4214D0044602
:101790000D46FFF7D0FF064608B1304670BD012365
:1017A0002A4604F130016078FFF7AFFD10B1012641
:1017B0004FF0FF35E562F0E70026EEE738B5044666
:1017C0000023C3704FF0FF33C362FFF7DCFF08B1A3
:1017D000042038BD04F22E20FFF70CFF054694F8D4
:1017E0003030E92B18BFEB2B07D0E82B05D04AF699
:1017F00055239D4249D0032038BD4AF655239D42CA
:1018000039D004F13B00FFF7F5FE94F83D30421E5D
:101810001042ECD11A1C18BF0122B0F5805FE6D14E
:10182000002AE4D05A1E1342E1D104F13E00FFF732
:10183000E1FE0028DBD094F84030013B012BD6D8E4
:1018400004F14100FFF7D6FE0028D0D004F1430098
:10185000FFF7D0FE7F2806D804F15000FFF7CFFE37
:10186000B0F5803FC3D304F14600FFF7C3FE002864
:10187000BDD0002038BD0822054904F182000EF0D9
:1018800041FC0028BDD1002038BD022038BD00BF7A
:10189000184B010870B584B006460D460021FFF7CD
:1018A0008DFF02281CD0B5FA85F35B09022888BF9A
:1018B00043F0010373BB00240DE006F13000230167
:1018C00003F5E3731844FFF79AFE04AB03EB8403BC
:1018D00043F8100C0134032CEFD91DB16C1E10E03D
:1018E0000024F8E72C460CE03046FFF767FFB5FA16
:1018F00085F35B09012898BF00235BB10134032CF9
:1019000008D804AB03EB840353F8101C0029EBD177
:101910000320ECE704B070BD2DE9F0470E461746F2
:1019200000230B60FFF7BAFE051EC0F21781A04B23
:1019300053F82540002C00F01481346007F0FE07B6
:1019400023788BB16078FFF7D9FC10F0010F0BD131
:10195000002F00F0098110F0040F02D00A20BDE82A
:10196000F0870020BDE8F08700232370E8B26070A4
:10197000FFF7C6FC10F0010F02D00320BDE8F0878E
:101980002FB110F0040F02D00A20BDE8F08700212B
:101990002046FFF77FFF042800F0E980012802D9E4
:1019A0000D20BDE8F087E66A04F13B00FFF722FE58
:1019B000B0F5805F02D00D20BDE8F08704F146004D
:1019C000FFF718FE804620B904F15400FFF717FE18
:1019D0008046C4F8188094F8409084F8029009F189
:1019E000FF33DBB2012B02D90D20BDE8F08709FBE4
:1019F00008F994F83D706781002F00F0BB807B1ED2
:101A00001F4202D00D20BDE8F08704F14100FFF72E
:101A1000F1FD8246208110F07F0F40F0AE8004F18E
:101A20004300FFF7E7FD054620B904F15000FFF73A
:101A3000E6FD054604F13E00FFF7DCFD0246002806
:101A400000F09E8009EB000303EBDA139D42C0F027
:101A50009A80ED1AB5FBF7F5002D00F097805549F7
:101A60008D4269D900274FF6F5718D4200D80227C3
:101A700040F6F5718D4200D80127002F00F08980D3
:101A800002356561E661324422623344A362032F6A
:101A900054D104F15A00FFF7ADFD00287CD1BAF112
:101AA000000F7CD104F15C00FFF7A9FD6062AD007E
:101AB00005F6FF75B8EB153F77D34FF0FF33236181
:101AC000E36080232371032F2CD104F16000FFF722
:101AD00091FD012826D1711C2046FFF754FE08BB5A
:101AE0000023237104F22E20FFF784FD4AF65523CC
:101AF000984217D104F13000FFF781FD2E4B984238
:101B000010D104F50570FFF77AFD2C4B984209D1EE
:101B100004F50670FFF773FD206104F50770FFF709
:101B20006EFDE0602770264A138801339BB2138054
:101B3000E3800020BDE8F087032794E7BAF1000FA7
:101B400030D04A446262022F01D16D00B0E705EB4C
:101B5000450305F0010505EB5305A9E70B20BDE89A
:101B6000F0870C20BDE8F0870020BDE8F087012059
:101B7000BDE8F0870D20BDE8F0870D20BDE8F087B7
:101B80000D20BDE8F0870D20BDE8F0870D20BDE8F1
:101B9000F0870D20BDE8F0870D20BDE8F0870D200F
:101BA000BDE8F0870D20BDE8F0870D20BDE8F08787
:101BB000D8060020F5FFFF0F525261417272416159
:101BC000DC0600202DE9F04701297ED943699942BE
:101BD00001D302257AE017460C4606460378022B0D
:101BE00043D0032B55D0012B01D002256EE001EB31
:101BF0005108016A01EB1831FFF7C5FD05460028C1
:101C000064D106F1300A08F10109C8F30B0814F099
:101C100001041FD01AF9083003F00F033A0102F44F
:101C20007F621343DBB20AF808300123F370316A94
:101C300001EB19313046FFF7A6FD0546002845D1D6
:101C4000C9F30B0944B1C7F307120AF809200123AD
:101C5000F3703BE0FBB2E6E71AF9092022F00F022D
:101C6000C7F303273A43D2B2EFE7016A01EBD4216D
:101C7000FFF789FD054648BB06F1300040F6FE73CC
:101C800003EA4404B9B22044FFF7C4FC0123F37013
:101C90001CE0016A01EB9421FFF775FD0546A8B928
:101CA00027F0704706F1300340F6FC7101EA840426
:101CB0001C442046FFF7A3FC00F070413943204646
:101CC000FFF7ACFC0123F37000E002252846BDE8D5
:101CD000F087F8B50568012960D96B6999425FD230
:101CE0000C462B78022B30D0032B42D0012B01D095
:101CF0000120F8BD01EB5106296A01EB1631284697
:101D0000FFF741FD10B14FF0FF30F8BD771CC6F36F
:101D10000B062E4496F83060296A01EB17312846ED
:101D2000FFF731FD10B14FF0FF30F8BDC7F30B07DF
:101D30003D4495F8300046EA002014F0010F01D030
:101D40000009F8BDC0F30B00F8BD296A01EBD421EE
:101D50002846FFF718FD10B14FF0FF30F8BD05F130
:101D6000300040F6FE7101EA44010844FFF742FCEE
:101D7000F8BD296A01EB94212846FFF704FD10B154
:101D80004FF0FF30F8BD303540F6FC7101EA8401B8
:101D90006818FFF734FC20F07040F8BD0120F8BD52
:101DA0000120F8BD2DE9F0410768B1F5001F02D30D
:101DB0000220BDE8F08106460C4611F01F0F02D04C
:101DC0000220BDE8F081316185681DB93B78022BA6
:101DD00000D97D6A75B93B89B3EB541F02D8022044
:101DE000BDE8F0817B6AB3617561B3690BBB02200A
:101DF000BDE8F081B7F80A804FEA083801E0A4EBAB
:101E0000080444450FD329463046FFF762FF0546D4
:101E1000B0F1FF3F18D0012819D97B699842EED361
:101E20000220BDE8F08129463846FFF705FCB06185
:101E3000DAE703EB1433B3613037C4F30B043C44EB
:101E4000F4610020BDE8F0810120BDE8F0810220AE
:101E5000BDE8F0812DE9F84307460668894631B9A7
:101E6000F5688DB173699D420FD301250DE0FFF731
:101E700030FF804601287CD9B0F1FF3F67D07369FD
:101E8000984264D34D4600E00125D6F81080B8F1A1
:101E9000000F5CD04D4506D04FF00008B8F1000FA0
:101EA00038D12C462DE06C1C73699C4200D302246F
:101EB00021463846FFF70DFF8046B0F1FF3F18BFBF
:101EC000012844D040B1F368012B07D972699342CD
:101ED00007D34FF00008E1E7A046DFE74FF0000826
:101EE000DCE71D464FF00008D8E721463846FFF7EB
:101EF000F0FE70B1B0F1FF3F18BF01283CD0AC42FA
:101F000025D0013473699C42EFD3012D1FD90224DF
:101F1000EBE7A0464FF0FF3241463046FFF752FE56
:101F20000346B0FA80F04009B9F1000F08BF002065
:101F300080B9B3B9C6F80C8032697369023B9A4222
:101F400001D8013A3261337943F0010333714046DD
:101F5000BDE8F883424649463046FFF733FE034664
:101F6000E7E7012B02D04FF00108F0E74FF0FF3810
:101F7000EDE74FF00108EAE78046E8E7F8B50E46DE
:101F80000468012930D90746114663699E4201D38E
:101F900002212AE052B14FF0FF322046FFF712FE35
:101FA000014618B121E02E4695421ED231463846F0
:101FB000FFF78FFE0546D0B101281AD0B0F1FF3FE0
:101FC00019D0002231462046FFF7FCFD014660B9DA
:101FD00023696269901E8342E5D20133236123792C
:101FE00043F001032371DEE702210846F8BD00211A
:101FF000FBE70221F9E70121F7E7F8B505460C46B2
:10200000FFF799FB08B10120F8BD21462846FFF7EC
:1020100013FB0746E86205F130064FF480520021B9
:1020200030460EF089F8002400E001346B899C42B0
:1020300007D20123E21931466878FFF781F90028B9
:10204000F3D06889201A18BF0120F8BD2DE9F843A4
:10205000066805692035B5F5001F01D300238361AB
:10206000836913B90420BDE8F88388460446C5F3A4
:102070000B078FB901338361416941B93389B3EBF0
:10208000551F09D8002383610420BDE8F8837389B4
:10209000013B13EA153307D0256106F130033B44B9
:1020A000E3610020BDE8F883FFF713FE81460128B5
:1020B00028D9B0F1FF3F28D0736998421AD3B8F1FC
:1020C000000F04D10023A3610420BDE8F8836169F7
:1020D0002046FFF7BFFE814610B90720BDE8F88310
:1020E000012815D0B0F1FF3F15D001463046FFF76B
:1020F00084FF98B9C4F8149049463046FFF79CFA1B
:10210000A061C9E70220BDE8F8830120BDE8F8839B
:102110000220BDE8F8830120BDE8F8830120BDE876
:10212000F88370B5044606680021FFF73BFE0546BC
:1021300040B1284670BD00212046FFF787FF0546C5
:102140000028F6D1A1693046FFF71DFB054600289F
:10215000EFD1E06903787BB1C37A03F03F03A37149
:10216000C37A13F0080FE6D10B2204F120010DF021
:10217000C9FF0028DFD1DCE70425DAE7F8B504461B
:102180000F4606680021FFF70DFE0246B8B900258C
:1021900006E0002501212046FFF758FF024670B9EE
:1021A000A1693046FFF7EFFA024640B9E3691B78B0
:1021B000002B18BFE52BECD10135BD42EAD1042A32
:1021C00001D01046F8BD0722FBE700002DE9F04FD3
:1021D00083B083460191D1F8009000F1200A4FF0BE
:1021E00020330362CAF80430CAF8073000252E46AF
:1021F0004FF00808771C19F80640202C1BD95C2CDE
:1022000018BF2F2C11D02E2C18BFA8451ED82E3C3D
:1022100018BF0124B8F10B0F08BF44F0010484B1CA
:10222000062003B0BDE8F08F013719F807305C2BAA
:1022300018BF2F2BF8D04F44019B1F60ADBB062069
:10224000EFE73E4608254FF00B08D3E714F0800F68
:1022500015D12046FFF7ECF9B0B1023619F8077036
:102260003846FFF7E7F9B0B308F1FF339D4234D2A7
:102270006B1C0AF805400AF803700235BAE704F04F
:102280007F04184B1C5DE4E7214617480DF0EBFF77
:1022900028BBA4F16103DBB2192B01D8203CE4B2C6
:1022A0000AF8054001353E46A4E79BF82030E52BAF
:1022B00006D0202C08D93B78202B0AD8042304E030
:1022C00005238BF82030F4E704238BF82B30002013
:1022D000A7E70023F9E70620A3E70620A1E70620E9
:1022E0009FE700BF984A0108244B010830B583B02E
:1022F00004460191056801E001330193019B1A78BE
:102300005C2A18BF2F2AF7D00022A2601B781F2B4F
:102310001ED901A92046FFF759FF034600BB2046FE
:10232000FFF7FFFE94F82B200346E0B912F0040FEC
:1023300016D1A37913F0100F1CD005F130012369D9
:10234000C3F30B0319442846FFF782F9A060E0E7C6
:10235000802384F82B3011462046FFF723FD0346E7
:10236000184603B030BD0428FAD112F0040FF7D19B
:102370000523F5E70523F3E770B504460668012158
:10238000FFF7FCFE054608B1284670BDA16930463E
:10239000FFF7F9F905460028F6D120220021E0696F
:1023A0000DF0CAFEE36954F8201F626819605A6094
:1023B0002189A27A19819A720123F370E4E700005F
:1023C00070B50446FFF7B7F9054648B92378032BE3
:1023D00008D0002211466078FEF7D0FF00B1012539
:1023E000284670BD2379012BF3D104F130064FF458
:1023F0008052002130460DF09FFE4AF6552104F22E
:102400002E20FFF707F90F493046FFF707F90E496D
:1024100004F50570FFF702F9216904F50670FFF76E
:10242000FDF8E16804F50770FFF7F8F8E26901329A
:10243000E262012331466078FEF782FF00232371B8
:10244000C7E700BF52526141727241612DE9F04FFE
:1024500085B0009001919346994603AA0121FEF7A9
:102460008DFF002840F08680DDF80C8008242CB118
:10247000B8FBF4F24FF63E439A4229D804B9FF2440
:102480004FF48052002148460DF056FE09F5DF76E4
:102490003F254FF0000ABAF1030F8CBF0023012340
:1024A000002D08BF00230BB1454514D34AF6552132
:1024B00009F5FF70FFF7AEF80123002249460098A6
:1024C000FEF73EFF002857D0012005B0BDE8F08F91
:1024D0006400E4B2CBE7019B53F82A70642F05D85F
:1024E00046D06423B8FBF3F303FB07F7EB199845D9
:1024F00001D39D4201D9A8EB0507002FD6D029466C
:1025000006F10800FFF78AF8394606F10C00FFF7DC
:1025100085F886F804B03F22B5FBF2F3B3FBF4F183
:1025200004FB1130C3EB8313EB1ADBB20133DBB2D4
:102530007070880800F0C0000343B370F1703D4430
:102540006B1EB3FBF2F2B2FBF4F104FB1120C2EB01
:1025500082129B1ADBB20133DBB270718A0802F07F
:10256000C0021343B371F17110360AF1010A92E708
:102570004746BBE70120A8E70020A6E710B584B0D6
:1025800001900091144604A840F8041DFFF786F856
:10259000002816DB0C4B53F820300BB100221A70C8
:1025A000019B0BB100221A70019A074B43F82020BF
:1025B0000CB9002006E0002201A96846FFF7ACF93B
:1025C00000E00B2004B010BDD80600202DE9F04734
:1025D0008EB00191002800F0FB800546164602F0FF
:1025E0003F073A4602A901A8FFF796F9044628B129
:1025F000002C00F0EE8000232B60EAE0029B0393A6
:10260000019903A8FFF772FE044618B99DF9373007
:10261000002B47DB16F01C0F00F09180002C48D0F7
:10262000042C41D047F0080714B917F0080F4CD11B
:102630004CB917F0080F01D047F04007029BDB6A46
:102640002B620A9B6B62002CD2D1DDF808A0DDF86A
:10265000288041465046FEF7FBFF0646A86008F179
:102660001C00FEF7CCFF8046E860C5F800A0BAF871
:102670000630AB802F7400216974E961696105F14E
:1026800028094FF4805248460DF056FD17F0200FF0
:10269000AED0B8F1000FABD0C5F81480BAF80A700C
:1026A0003F0364E00624B5E703A8FFF765FE044690
:1026B000B8E79DF8123013F0110F04D116F0040F93
:1026C000B2D00824B0E70724AEE7444E31460A985A
:1026D0000E30FEF7A3FF31460A981630FEF79EFF34
:1026E000029EDDF8288041463046FEF7B1FF814664
:1026F000202388F80B3000220A993046FEF7BBFFF2
:1027000000210A981C30FEF789FF0122029BDA7033
:10271000B9F1000F8CD0029BDE6A0022494603A863
:10272000FFF72CFC0446002882D131460298FFF7BF
:102730002AF8044609F1FF33029AD36078E7002CA7
:102740007FF476AF9DF8123013F0100F09D116F018
:10275000020F3FF46DAF13F0010F3FF469AF072490
:1027600066E7042464E702240FE0A8EB0708B4FA44
:1027700084F35B09B84598BF00235BB13146284616
:10278000FFF7A7FA06460128EDD9B6F1FF3FECD1D5
:102790000124EAE7AE61002C7FF42AAFC8F30B03F3
:1027A000002B3FF425AF029F31463846FEF744FF29
:1027B00008B902241CE700EB1832EA6101234946FC
:1027C0007878FEF7A2FD00283FF412AF01240FE74E
:1027D000092420460EB0BDE8F08700BF000021505C
:1027E0002DE9F04F85B004468846164699460023E9
:1027F000C9F80030009003A9FEF77AFF074630B908
:10280000677C27B9237C13F0020F04D107273846D1
:1028100005B0BDE8F08F6369F34260D3DE435EE04C
:1028200000210098FFF716FB6DE0A1690098FFF703
:1028300011FB68E002276774E9E701276774E6E7A0
:102840000123E26904F1280103984078FEF778FD3E
:1028500020B9237C03F07F03237463E001276774AE
:10286000D5E702276774D2E701276774CFE74FF4F3
:10287000805208EB013104F128000DF052FC237C5A
:1028800003F07F0323746FE0E3699B4503D0626923
:10289000E3689A426AD3C4F81CB06369C3F30B03BC
:1028A000C3F58055AE4200D2354604F128002A46D1
:1028B000414618440DF035FC237C63F07F032374FC
:1028C000761BD9F800302B44C9F80030A84463695E
:1028D0001D446561E3689D4238BF1D46E560002EDA
:1028E00051D06369C3F30B02002AD6D1039AB2F820
:1028F0000AA00AF1FF3A1AEA133A0FD1002B94D139
:10290000A06800288CD000283DD0012892D0B0F1DA
:10291000FF3F92D0A061A36803B9A06094F9103082
:10292000002B8DDB039B0193A1691846FEF784FE03
:102930008346002895D0D344350BA5D00AEB050378
:10294000019A5289934201D9A2EB0A052B465A46B5
:10295000414601984078FEF7F3FC002884D1E169F4
:10296000A1EB0B018D4282D82D03A9E701235A4622
:1029700004F1280101984078FEF7C7FC00288AD0AE
:102980000127677443E7237C43F0400323743EE749
:1029900030B583B0044601A9FEF7AAFE034660B92C
:1029A000227C12F0400F08D012F0800F08D1216A6B
:1029B0000198FEF7E8FE034680B1184603B030BD2B
:1029C0000123E26904F1280101984078FEF7B8FC80
:1029D00048BB237C03F07F032374E8E7656AEB7A46
:1029E00043F02003EB72A26829462068FEF743FEFD
:1029F000E16805F11C00FEF711FE0C4905F1160017
:102A0000FEF70CFE002105F11200FEF703FE012285
:102A1000019BDA700198FFF7D3FC0346227C22F079
:102A200040022274C9E70123C7E700BF000021501C
:102A300010B582B00446FFF7ABFF034610B118464D
:102A400002B010BD01A92046FEF752FE0346002841
:102A5000F5D100222260F2E72DE9F04F91B010ACE1
:102A600044F8140D0F4616461D462046FEF716FE86
:102A70000028C0F2EA82B44B53F820300BB1002298
:102A80001A70C4B23FB12046FEF73AFC10F0010FB5
:102A900003D00323DAE2AD4FF5E710F0040F01D0C5
:102AA0000A23D3E27B680F93F3B10F9A531EB3F559
:102AB000004F01D21A4201D001230F9397F800B0C2
:102AC00097F8019009F1FF33DBB2012B01D94FF0E8
:102AD0000109BB685A1EB2F5004F0FD213F07F0FE9
:102AE00017D04FF400780BE00FAA03212046FEF721
:102AF00045FC0028D9D001230F93D6E74FF4007886
:102B0000FF68B7F1807F06D87B1E1F4204D00027E4
:102B100002E09846F4E700273F0B5FEA153A01D13F
:102B2000112393E2002E00F0958210AA002342F8B0
:102B3000083D01212046FEF721FC002840F08C8250
:102B40001BF00803039307D10E9B3F2B0BD93F3B90
:102B50000E933F23009301E0002300930E9A7F2AF7
:102B600004D80E2372E200230093F7E7802F00D9E8
:102B700080271BF0020002D01BF0010F17D01BF0C2
:102B8000010F01D1132361E202230193704BD3188B
:102B900006930894019C09960A95032C0ED0002FE9
:102BA0003AD14FEA123E00214FF0010B2DE00323F2
:102BB0000193EBE71F46F0E70324EEE77FB94FEA06
:102BC000524E00234FF0010B02E001334FEA4B0B52
:102BD000604931F8131019B18E45F6D200E0BB46BA
:102BE000B2FBFBF18B1C9B0003F6FF731E0B5A4BD1
:102BF0000B445A498B4200F23182002302934FF07A
:102C0000200E1AE001314FEA4B0B554B33F81130CF
:102C10001BB19E45F6D200E0BB46B2FBFBF340F68B
:102C2000F5718B4254D902335B0003F6FF731E0B20
:102C3000C8F3D31302934FF0010E009B03EB0E0574
:102C400009FB0651029B1944DDF83CC001EB0C0363
:102C5000013BCCF1000C03EA0C035B1A032C3ED0C1
:102C6000B3FBF9FC09FB1C3CBCF1000F03D0013B9A
:102C70000EF1010E0135B3FBF9F31E4401EB0B130A
:102C800000995B1A9A42C0F0EB81A2EB0E0309FB9C
:102C9000163302995B1AB3FBFBF3032C22D0022CF0
:102CA0003BD14FF6F5718B4229D927B94FEA4B0337
:102CB000402B7FF67FAF00287FF47EAF002F40F0DF
:102CC000D3814FEA4B07802F7FF667AF0E23BDE11C
:102CD00003EB430301335B0803330124A5E79E4460
:102CE0001D44CBE74FF6F5718B42D8D8002F40F04A
:102CF000B9815FEA5B077FF450AF0E23A6E140F68F
:102D0000F5718B4209D8002F40F0B0814FEA4B0794
:102D1000802F7FF642AF0E2398E12146019404955F
:102D2000CDF81CE00596089C0893099E0A9D40F684
:102D3000F572012914BF00210121934298BF00219F
:102D400081B10E2382E100BFD8060020544B010858
:102D500000002150444B01080A00FFFFFFFFFE0F57
:102D6000344B01084FF480573A46002130460DF0AD
:102D7000E3F9C34B03CB306071601A889B783281D2
:102D8000B372394606F10B00FEF744FC86F80DB02D
:102D9000BDF81C1006F10E00FEF73CFC86F8109002
:102DA00006F11100019B032B00F0E2801FFA88F16D
:102DB000FEF730FC0E99B1F5803F80F0DB8089B2E0
:102DC00006F11300FEF726FCF82373753F2106F188
:102DD0001800FEF71FFCFF2106F11A00FEF71AFC8F
:102DE000009906F11C00FEF719FC019B032B40F033
:102DF000C680069906F14300FEF710FC059906F11E
:102E00002400FEF70BFC022106F12C00FEF706FC65
:102E1000012106F13000FEF7FDFB062106F132002C
:102E2000FEF7F8FB802386F84030292386F84230ED
:102E300006F1470E934F0FCFC6F84700CEF80410A7
:102E4000CEF80820CEF80C303A88BB78AEF81020C7
:102E50008EF8123006F5FF774AF655213846FEF710
:102E6000D9FB0123009A31462046FEF769FA002873
:102E700040F0FE80019B032B34D10123009A0632DF
:102E800031462046FEF75CFA4FF48052002130466E
:102E90000DF052F97C493046FEF7C0FB7B4906F540
:102EA000F270FEF7BBFB089B591E06F5F470FEF7A7
:102EB000B5FB022106F5F670FEF7B0FB4AF6552188
:102EC0003846FEF7A7FB0123009F3A4607323146FA
:102ED0002046FEF735FA01233A461A443146204689
:102EE000FEF72EFA6A4A2A40002130460DF024F9F6
:102EF0004FF00008C84566D3019B032B40F09B8030
:102F00005F46DDF810803D46574528BF55462B46A5
:102F1000424631462046FEF713FA002840F0AC80C6
:102F2000A8447F1BEFD1019A032A00F088800E9BF2
:102F3000B3F5803F80F08580022A40F0848004222F
:102F4000039B5BB90E9B0C9300230D9333460CA996
:102F50002046FFF77BFA0346002877D1002211466E
:102F60002046FEF70BFA002800F0888001236DE070
:102F700000211DE706F12000FEF750FB24E706992B
:102F800006F12700FEF74AFBBDF8141006F1160003
:102F9000FEF740FB802386F82430292386F826306C
:102FA00006F12B0E3B4F0FCFC6F82B00CEF80410C6
:102FB000CEF80820CEF80C303A88BB78AEF8102056
:102FC0008EF8123046E7019B032B29D16FF00701E1
:102FD0003046FEF723FB4FF0FF31301DFEF71EFB9E
:102FE0006FF0704106F10800FEF718FB059D2F46B3
:102FF000554528BF57463B46049A31462046FEF7C2
:103000009FF9B8BB4FF48052002130460DF094F880
:10301000049B3B440493ED1BE9D108F1010869E7E7
:10302000019B012B04D11C493046FEF7F7FADDE77E
:103030006FF00701F8E7DDF81080029F63E70C22CC
:103040007EE706227CE701227AE70B23184611B0BF
:10305000BDE8F08F1123F9E70123F7E70E23F5E729
:103060000E23F3E70E23F1E70E23EFE70E23EDE740
:103070000123EBE70123E9E70123E7E70023E5E785
:10308000644B0108704B01085252614172724161F8
:1030900000F0FFFF844B0108F8FFFF00F8B504467D
:1030A0000E461746436823F07F7323F45F3323F4FF
:1030B0007F7323F00303434A0A431343436001F041
:1030C000FFF9054607E00123002B6BD101F0F8F969
:1030D000401B0A2869D8A36913F0020F07D1002307
:1030E0003BB9A36913F0100FEDD10023ECE70123E6
:1030F000F6E7A76201F0E4F9054607E00123002B9B
:1031000055D101F0DDF9401B0A2852D8A36913F00C
:10311000400F07D100233BB9A36913F0100FEDD185
:103120000023ECE70123F6E7636823F07F7323F4C1
:103130005F3323F47F7323F00303234A32431343A3
:10314000636001F0BDF9054606E001239BBB01F079
:10315000B7F9401B0A2830D8A36913F0040F07D130
:1031600000233BB9A36913F0100FEED10023EDE764
:103170000123F6E7656AEDB201F0A2F9064606E022
:10318000012353B901F09CF9801B0A2817D8A369C1
:1031900013F0200FF4D10023F3E7E36943F0200399
:1031A000E36100E0FF252846F8BDFF25FBE7FF258A
:1031B000F9E7FF25F7E7FF25F5E7FF25F3E7FF250B
:1031C000F1E700BF002001800024018282B08D4B16
:1031D0001A6B42F004021A631B6B03F004030193A1
:1031E000019B894B1B68402292FAA2F2002A00F050
:1031F000ED80B2FA82F25200032101FA02F223EAD0
:103200000202402393FAA3F3002B00F0E180B3FA0B
:1032100083F35B00022101FA03F313437A4A13603C
:103220001368802292FAA2F2002A00F0D380B2FA48
:1032300082F25200032101FA02F223EA0202802301
:1032400093FAA3F3002B00F0C780B3FA83F35B007B
:10325000022101FA03F313436B4A1360926840237F
:1032600093FAA3F3002B00F0B980B3FA83F35B0069
:10327000032101FA03F322EA0303634A936092688D
:10328000802393FAA3F3002B00F0AA80B3FA83F310
:103290005B00032101FA03F322EA03035A4A936015
:1032A000536823F0C0035360D368402292FAA2F21D
:1032B000002A00F09780B2FA82F25200032101FA4C
:1032C00002F223EA0202402393FAA3F3002B00F058
:1032D0008B80B3FA83F35B00012101FA03F31343FC
:1032E000494AD360D368802292FAA2F2002A7DD0A4
:1032F000B2FA82F25200032101FA02F223EA020238
:10330000802393FAA3F3002B72D0B3FA83F35B000C
:10331000012101FA03F313433B4AD360136A4022AD
:1033200092FAA2F2002A65D0B2FA82F292000F213C
:1033300001FA02F223EA0202402393FAA3F3002BDC
:103340005AD0B3FA83F39B00032101FA03F313432A
:103350002D4A1362136A802292FAA2F2002A4DD0FB
:10336000B2FA82F292000F2101FA02F223EA02027B
:10337000802393FAA3F3002B42D0B3FA83F39B008C
:10338000032101FA03F313431F4A13621D4B5A6CC6
:1033900042F002025A645B6C03F002030093009B4C
:1033A0001A4B1A6A22F011021A6240F201129A6153
:1033B00002221A6201229A601A6A42F011021A620B
:1033C0001A6842F001021A6002B07047202212E728
:1033D00020231EE720222CE7202338E7202346E77E
:1033E000202355E7202268E7202374E7202281E785
:1033F00020238CE7202299E72023A4E72022B1E7AD
:103400002023BCE7003802400008024000040140CD
:1034100082B00138052804D8DFE800F0120507095A
:103420000C0F2D220DE068220BE0D02209E040F2C3
:10343000A11206E040F2124203E040F6230200E04F
:1034400034220E4B596C41F0010159645B6C03F05E
:1034500001030193019B0A4B196821F001011960D6
:103460004FF40011596000219962013ADA621A683A
:1034700042F001021A6002B0704700BF00380240FB
:103480000000014082B0134B1A6C42F004021A642F
:103490001B6C03F004030193019B0F4B1A6822F08D
:1034A00001021A6042F20F729A6240F2F312DA627B
:1034B000DA6842F00102DA601A6842F001021A602A
:1034C000064B402283F81E234FF080421A6002B060
:1034D000704700BF003802400008004000E100E0F3
:1034E00082B0134B1A6C42F002021A641B6C03F098
:1034F00002030193019B0F4B1A6822F001021A602C
:1035000042F20F729A6240F6C312DA62DA6842F04F
:103510000102DA601A6842F001021A60064B40228A
:1035200083F81D234FF000521A6002B0704700BFAD
:10353000003802400004004000E100E008B5FFF759
:1035400045FE054B93F90000FFF762FFFFF79AFF76
:10355000FFF7C6FF08BD00BF0D00002084B03D4B43
:103560001A6B42F480021A631B6B03F4800301930D
:10357000019B394A136823F001031360364B1B6823
:1035800013F0010FFAD1354A936843F03D0393607D
:10359000314B334A1A6040F294525A60314A9A6071
:1035A000314ADA601A6842F001021A602F4B202279
:1035B00083F838234FF080725A60264B1A6B42F022
:1035C00001021A631B6B03F001030393039B284B57
:1035D0001A68012393FAA3F3002B36D0B3FA83F3CE
:1035E0005B00032101FA03F322EA0302012393FAA9
:1035F000A3F3002B2BD0B3FA83F35B00032101FA72
:1036000003F313431A4A1360124B5A6C42F480724C
:103610005A645B6C03F480730293029B154B9A68A7
:1036200022F001029A604FF000725A60124A9A60CA
:1036300000225A631A614FF48031104A51609A682F
:1036400042F001029A6004B070472023C8E72023AB
:10365000D3E700BF0038024010640240006402401B
:10366000100502004C2001400C08002000E100E0A1
:1036700000000240002001400003001A0023014026
:103680000B4B9A6822F001029A600A4A0A491160BB
:1036900040F294515160116841F0010111601A68C3
:1036A00022F020021A609A6842F001029A60704784
:1036B00000200140106402401005020084B03E4B1F
:1036C0001A6B42F480021A631B6B03F480030193AC
:1036D000019B3A4A136823F001031360374B1B68C0
:1036E00013F0010FFAD1364A936843F47463936080
:1036F000324B344A1A6040F294525A60324A9A600D
:10370000324ADA601A6842F001021A60304B202215
:1037100083F839234FF000725A60274B1A6B42F03E
:1037200020021A631B6B03F020030393039B294BB6
:103730001A684FF4806393FAA3F3002B38D0B3FADE
:1037400083F35B00032101FA03F322EA03024FF43F
:10375000806393FAA3F3002B2CD0B3FA83F35B00BE
:10376000032101FA03F313431A4A1360124B5A6CF4
:1037700042F480625A645B6C03F480630293029BA0
:10378000154B9A6822F001029A604FF000725A605D
:10379000124A9A6008225A6300221A614FF480315B
:1037A0000F4A51609A6842F001029A6004B0704773
:1037B0002023C6E72023D2E70038024028640240D5
:1037C00000640240100502044C220140F82D002044
:1037D00000E100E000140240002201400003001A52
:1037E0000023014008B5FFF7B9FEFFF767FF08BDEA
:1037F0000B4B9A6822F001029A600A4A0A4911604A
:1038000040F294515160116841F0010111601A6851
:1038100022F020021A609A6842F001029A60704712
:1038200000220140286402401005020486B0A44B27
:103830001A6B42F480721A631B6B03F48073059356
:10384000059BA04B1B68022292FAA2F2002A00F00C
:103850001D81B2FA82F25200032101FA02F223EA38
:103860000202022393FAA3F3002B00F01181B3FAB2
:1038700083F35B00012101FA03F31343914A1360C0
:103880009268022393FAA3F3002B00F00381B3FAAA
:1038900083F35B00032101FA03F322EA0303894A5D
:1038A0009360536823F0020353604FF40033936135
:1038B000834B196B41F4807119631B6B03F48073A4
:1038C0000493049B12684FF4006393FAA3F3002B54
:1038D00000F0E280B3FA83F35B00032101FA03F303
:1038E00022EA0303774A136093684FF4006292FA66
:1038F000A2F2002A00F0D280B2FA82F25200032132
:1039000001FA02F223EA02024FF4006393FAA3F3EE
:10391000002B00F0C580B3FA83F35B00032101FAAA
:1039200003F31343674A9360654B5A6C42F4804239
:103930005A645B6C03F480430393039B624B1A69E4
:1039400022F470424FF4704393FAA3F3002B00F07B
:10395000A980B3FA83F3082101FA03F313435A4A07
:1039600013615A4B1A6842F400621A60DA6842F432
:103970000062DA604FF400625A61554BE02283F82E
:1039800028234FF480725A604D4B1A6B42F040026C
:103990001A631B6B03F040030293029B4D4B1A68A2
:1039A000402393FAA3F3002B7ED0B3FA83F35B009A
:1039B000032101FA03F322EA0303464A13609368E2
:1039C000402292FAA2F2002A70D0B2FA82F2520099
:1039D000032101FA02F223EA0202402393FAA3F33D
:1039E000002B65D0B3FA83F35B00032101FA03F3E4
:1039F0001343384A9360D368402292FAA2F2002A15
:103A000058D0B2FA82F25200032101FA02F223EAFC
:103A10000202402393FAA3F3002B4DD0B3FA83F3B1
:103A20005B00012101FA03F313432A4AD360244BBC
:103A30005A6C42F480425A645B6C03F480430193F5
:103A4000019B214BDA6822F470624FF4706393FAA1
:103A5000A3F39BB3B3FA83F3062101FA03F31343F1
:103A6000194AD360194B1A6842F040021A609A68EA
:103A700042F040029A6040225A61154BE02283F8DE
:103A800017234FF400021A6006B070472022E2E6C6
:103A90002023EEE62023FCE620231DE720222DE74D
:103AA00020233AE7202356E7202380E720228EE7D1
:103AB000202399E72022A6E72023B1E72023CBE7A4
:103AC000003802400020024000380140003C014024
:103AD00000E100E000180240F0B486B0984B1A688C
:103AE00022F080521A60D3F8882096491140964AF5
:103AF0000A43C3F88820D3F88C2022F4403242F4E1
:103B00008032C3F88C201A6842F080521A608C4BC5
:103B10001B6813F0005FFAD0894B1A6B42F0100259
:103B20001A631A6B02F010020592059A874A11680F
:103B300021F440711160116841F4007111609168C5
:103B400021F440719160916841F400719160116AB3
:103B500021F470211162116A41F4602111621A6B23
:103B600042F040021A631A6B02F040020492049A77
:103B7000774A116821F040711160116841F00071BD
:103B80001160916821F040719160916841F000717D
:103B90009160516A21F470215162516A41F46021AF
:103BA00051621A6B42F480721A631A6B02F48072CB
:103BB0000392039A67490A68674E32400A600C68AC
:103BC000664D2C430C608868304088608A682A43C0
:103BD0008A60486A624A02404A62486A614A02430D
:103BE0004A621A6B42F400721A631A6B02F4007292
:103BF0000292029A5C4A106800F0407010601468EB
:103C00005A4D2C431460946804F04074946090689A
:103C100028439060106A00201062106A40F0EE3075
:103C20001062506A00F470205062546A5048204379
:103C300050621A6B42F480621A631A6B02F480625B
:103C40000192019A4B4A10684B4F3840106015683A
:103C50004AF62A263543156094683C409460906883
:103C600030439060106A00F470401062146A434858
:103C700020431062086820F040700860086840F037
:103C800080700860106820F0C0001060106840F07C
:103C9000400010604FF480508861082191615A6C97
:103CA00042F080625A645B6C03F080630093009B77
:103CB000334B42F220229A61324A9A60324ADA60E9
:103CC00002F1F07202F588721A6102F500120232F6
:103CD0005A614FF47F02DA62DA6B42F00F02DA6364
:103CE0005A6B42F006025A63284A29495160A1F5ED
:103CF0007A012A39916002211161FF21516140F25C
:103D00000541D1614FF0404191622249D1624FF4A7
:103D100088711163116841F0010111605A6A42F023
:103D200001025A629A6942F001029A611A4B2022FA
:103D300083F859234FF000729A6006B0F0BC7047C8
:103D4000003802403F80FF8F0030005000100240DA
:103D50000018024000200240FFFFC303000028A813
:103D60000FF00F00E00EE0EE00240240AAAAAAA87D
:103D7000EEEEE0EE00280240C000FFFFEE0EEEEE99
:103D800000680140090028000B00350084680140EC
:103D900036001502C303C00300E100E070B588B02F
:103DA0008F4B9A6B42F001029A639A6B02F0010208
:103DB0000792079A1A6B42F004021A631A6B02F018
:103DC00004020692069A874A116821F0C001116028
:103DD000116841F080011160916821F0C00191608B
:103DE000916841F080019160116A21F47041116283
:103DF000116A41F4404111621A6B42F008021A63E1
:103E00001A6B02F008020592059A774A1168774EFC
:103E1000314011601468764D2C4314609068304036
:103E20009060916829439160116A21F0FF0111624D
:103E3000116A41F0CC011162506A6E490140516231
:103E4000506A6D49014351621A6B42F010021A63C5
:103E50001A6B02F010020492049A684A116843F641
:103E6000F07631401160146805F1286505F50045CC
:103E70002C431460906830409060916829439160B1
:103E8000106A5F4901401162106A5E490143116284
:103E9000516A00215162516A41F0CC3151621A6B72
:103EA00042F020021A631A6B02F020020392039A76
:103EB000554A1168554E314011601468544D2C43D9
:103EC0001460906830409060916829439160116A55
:103ED00001F07F411162106A4E4901431162516A3B
:103EE000C1F30B015162506A4B49014351621A6B95
:103EF00042F040021A631A6B02F040020292029AE8
:103F0000464A1168464E314011601468454D2C43B5
:103F10001460906830409060916829439160116A04
:103F200001F0FF211162116A41F0CC111162506A57
:103F30003D4901405162506A3C49014351621A6B4C
:103F400042F080021A631B6B03F080030193019B14
:103F5000374B1A6822F44C621A601A6842F40862FD
:103F60001A609A6822F44C629A609A6842F4086275
:103F70009A60196A2F4A0A401A62196A2E4A0A433D
:103F80001A622E4B41F654121A602D4A9A60112281
:103F90001A612A4B9B6913F0200FFAD10120FDF71B
:103FA00017F81222254B1A61244B9B6913F0200F3E
:103FB000FAD1F322214B1A61204B9B6913F0200F99
:103FC000FAD1204A1D4B1A611C4B9B6913F0200F3C
:103FD000FAD140F60642194B5A6108B070BD00BFD5
:103FE0000038024000080240000C0240F0FFC00F01
:103FF0000A002AA000F0FF00CC0C00CC0010024008
:1040000000FFFF0FCC0000C00014024000F03F0092
:10401000AA0A80AACCCCCC0000C0CCCC00180240AC
:10402000F0F0FC3F0A0A0280F0FFFF0F0C0000C016
:10403000001C0240FF0F0FFF00C0C000400100A0A5
:10404000616311011440040082B0224B1A6B42F4E8
:1040500000021A631B6B03F400030193019B1E4BC8
:104060001B6813F0010FFAD11B4B1C4A1A60002287
:104070009A631B4ADA6302225A631A4A5A649A689C
:1040800042F03F029A601A6842F001021A60124B35
:104090001B6813F0010FFAD10F4B104A1A6000226F
:1040A0009A63A2F17F52DA6302225A630D4A5A647C
:1040B0009A6842F03F029A601A6842F001021A6060
:1040C000094B202283F85A234FF080629A6002B095
:1040D000704700BF0038024000B0024000010300FA
:1040E000000020C01001E00100E100E082B07C4B44
:1040F0001A6B42F080021A631B6B03F0800301937A
:10410000019B784B1B68802292FAA2F2002A00F0F1
:10411000CF80B2FA82F25200032101FA02F223EABE
:104120000202802393FAA3F3002B00F0C380B3FABA
:1041300083F35B00022101FA03F31343694A13601E
:1041400013684FF4807292FAA2F2002A00F0B48051
:10415000B2FA82F25200032101FA02F223EA0202C9
:104160004FF4807393FAA3F3002B00F0A780B3FA07
:1041700083F35B00022101FA03F31343594A1360EE
:104180009368802292FAA2F2002A00F09980B2FA93
:1041900082F25200032101FA02F223EA0202802392
:1041A00093FAA3F3002B00F08D80B3FA83F35B0046
:1041B000022101FA03F313434A4A936093684FF4D0
:1041C000807292FAA2F2002A7ED0B2FA82F25200F3
:1041D000032101FA02F223EA02024FF4807393FAF8
:1041E000A3F3002B72D0B3FA83F35B00022101FA30
:1041F00003F313433B4A9360536843F4C073536023
:10420000136A802292FAA2F2002A61D0B2FA82F2F4
:1042100092000F2101FA02F223EA0202802393FAAC
:10422000A3F3002B56D0B3FA83F39B00042101FAC9
:1042300003F313432B4A1362536A012292FAA2F248
:10424000002A49D0B2FA82F292000F2101FA02F25A
:1042500023EA0202012393FAA3F3002B3ED0B3FA20
:1042600083F39B00042101FA03F313431D4A5362B5
:104270001B4B1A6C42F400021A641A6C02F400021E
:104280000092009A1A6A42F400021A621A6A22F430
:1042900000021A62A3F5EE33134A1A615A6842F01B
:1042A00000725A601A6842F001021A6002B0704748
:1042B000202230E720233CE720224BE7202358E749
:1042C000202266E7202372E7202280E720238CE764
:1042D00020229DE72023A8E72022B5E72023C0E77E
:1042E00000380240001C02403227914082B0394A17
:1042F000136843F480331360364B1B6813F4003F9C
:10430000FAD0344B5A6834491140344A0A435A604F
:104310001A6842F080721A602E4B1B6813F0007FFF
:10432000FAD02C4B1A6C42F080521A641B6C03F0CA
:1043300080530193019B2A4A136843F4803313602E
:10434000274B5B6813F4803FFAD0254A136843F487
:1043500000331360224B5B6813F4003FFAD0214A0C
:10436000136823F00F0343F0060313601D4B1B6813
:1043700003F00F03062BF9D1164A936823F0F003DC
:104380009360936823F0030343F002039360114B9F
:104390009B6803F00C03082BF9D10E4A936823F4B1
:1043A000E05343F4A0539360936823F4604343F4D1
:1043B000004393600C4B0D4A5A60F0210C4A82F87E
:1043C000231000229A6007221A600A4A0A4B1A60D8
:1043D00002B07047003802400080BCFF1964400002
:1043E00000700040003C024010E000E03F0D030080
:1043F00000ED00E000C2EB0B10000020244B5B69D5
:1044000013F4003F13D1BFF34F8FBFF36F8F204BD7
:104410000022C3F85022BFF34F8FBFF36F8F5A694A
:1044200042F400325A61BFF34F8FBFF36F8F184BC6
:104430005B6913F4803F2AD110B4154B0022C3F8F6
:104440008420BFF34F8FD3F88040C4F34E300FE089
:104450001A4643F6E07303EA401343EA82730C49B9
:10446000C1F86032531E002AF2D1431E18B118461B
:10447000C4F3C902EDE7BFF34F8F4B6943F48033B8
:104480004B61BFF34F8FBFF36F8F5DF8044B7047E5
:1044900000ED00E0BFF35F8F074B00225A609A6087
:1044A0004FF04042DA60054A1A6105225A60BFF3B4
:1044B0004F8FBFF36F8F704790ED00E02D00081312
:1044C000014B1868704700BFE406002008B5044A95
:1044D000536983F0020353616420FCF779FDF6E72A
:1044E000002002402DE9F04F89B0FFF787FFFFF76A
:1044F000FDFEFFF7CFFFFFF751FCFFF7EDFAFFF7E7
:10450000A3FDFFF71BF8FFF791F9FFF7EFFDFCF7AD
:1045100059FF4FF488734FF4F0727F497F4803F0DE
:10452000D3F97F49012003F021FF012003F02CFF84
:104530007C49002003F01AFF002003F025FF002033
:1045400003F03AFA04F048FE06F0A0FD00F0FCFF8C
:1045500001F054FB01F074FE734B1B6913F4006F00
:1045600012D00222704B9A614FF480536F4A704907
:104570007048FEF771FA014690B96F480BF05CFE87
:104580004FF40032684B9A6101226A496B48FDF78B
:10459000F5FF014648B16A480BF0D6FDFFF796FFDC
:1045A00068480BF0D1FDFFF791FF5F4B1B6913F4D7
:1045B000006F2DD001AC644D0FCD0FC495E80700FE
:1045C00003C424F8022B120C2270604C0A226049AA
:1045D0002046FDF7FBFF01A8FBF71AFE6B46421CC5
:1045E00001A92046FEF7FCF805462046FEF720FA12
:1045F00001A8FBF70DFE0130009B984205D029462B
:1046000054480BF0A1FDFFF761FF53480BF014FE77
:1046100009F0AAF9FFF7E6F84FF00009CA464FF093
:10462000FF384D464C46012665E24C4B1B784C4A00
:10463000D35C012B00F073824AF65552062149489B
:1046400004F05CFC6BE2B7F1FF3F00F07282434B79
:104650001B78434AD35C012B00F00882424B1B7845
:10466000032B00F0EF810020FCF7D2FE3F4B93F8C4
:1046700000A0B7F5ED7F19DA3D4B1B783D4AD35CBE
:1046800013B9B7F1FF3F0FD03B4A14883C1B24EA13
:10469000E47413B9B7F1FF3F27D0374B1D88ED1BEA
:1046A00025EAE5750022CEE00024F2E7A7F5ED73D8
:1046B000B3F5F07F0CD22E4B1B782E4AD35C13B986
:1046C000B7F1FF3F13D02C4B1C883C1B0025E9E7BA
:1046D000274B1B78274AD35C13B9B7F1FF3F0AD0A9
:1046E000254B1C883C1B0025DCE70025DAE700256C
:1046F0004FF4ED74D6E700254FF46D74D2E7EF2B3D
:1047000040F3C680EF23C3E07723C1E00023C2E07B
:10471000C3F1FE03C4E000BFA913000860630020DA
:1047200061140008E514000800200240000070C079
:10473000984B0108C44C0108804C0108C81D00209A
:10474000C84C0108A04C0108244D0108A00D002010
:10475000EC4C0108F84C0108104D0108EC06002053
:10476000B44B010884620020E80600200D00002000
:10477000EF060020E44B010806000020EF2B00F3B9
:10478000C680002BC0F2C580BEF1000F40F0C38090
:10479000C3F1FE03B0F5F07F09DAC3EB03134FEA70
:1047A000831EAEF17F5E40F2FF732EF81030994BFE
:1047B0001B78002B46D0012B00F0B080022B00F0BC
:1047C000D880032B00F0FC80934B5B5CDBB207EEE0
:1047D000903AB8EE677A914B5B5CDBB207EE903AA9
:1047E000F8EEE77A67EE877A9FED8D7A67EE877A43
:1047F0008C4BB3F9003007EE103AB8EEC77A37EEBB
:10480000277A894B1978894B03EB8103D3ED006A32
:10481000C7EE267AFDEEE77A17EE903AEF2B00DD31
:10482000EF23002BC0F2F380C3F1FE03B0F5F07F5D
:1048300008DAC3EB03139901A1F17F514BF6BA23B8
:1048400021F810300132C4F5F0739A4280F2FE80F4
:10485000A118714B5B5C7648B0F90000034407EE89
:10486000903AB8EEE77A734B1878704B03EB8003FD
:10487000D3ED006AC7EE267AFDEEE77A17EE903A9E
:104880006D48007800287FF43AAF772B3FF73CAFB4
:10489000002BFFF63BAF00287FF43AAFC3F186034D
:1048A000A818B0F5F07F09DAC3EB03134FEA831EB3
:1048B000AEF17F5E4FF4FC632EF810305E4B93F840
:1048C00000E0BEF1020F3FF472AF544B5B5CDFF8C7
:1048D00070C1BCF900C0634407EE903AB8EEE77AC5
:1048E000564B93F800C0514B03EB8C03D3ED006A99
:1048F000C7EE267AFDEEE77A17EE903ABEF1000F8A
:104900007FF43CAF772B7FF73CAF772339E7EF237A
:1049100037E7002338E7C3F1FE033BE73E4B5B5C20
:10492000DBB207EE903AB8EE677A3C4B5B5CDBB2E9
:1049300007EE903AF8EEE77A77EE877AB6EE007AED
:1049400067EE877A374BB3F9003007EE103AB8EECE
:10495000C77A37EE277A344B1978344B03EB81034F
:10496000D3ED006AC7EE267AFDEEE77A17EE903AAD
:1049700054E7294B5B5CDBB207EE903AF8EE677ABE
:10498000284BB3F9003007EE103AB8EEC77A77EE4D
:10499000277A224B5B5CDBB207EE103AB8EEC77A9F
:1049A00037EEC77A204B1978204B03EB8103D3ED08
:1049B000006AC7EE267AFDEEE77A17EE903A2DE709
:1049C000164B5B5CDBB207EE903AB8EE677A154B9C
:1049D000B3F9003007EE903AF8EEE77A77EE877A8F
:1049E0000D4B5B5CDBB207EE103AB8EEC77A37EEE0
:1049F000C77A0D4B19780D4B03EB8103D3ED006A99
:104A0000C7EE267AFDEEE77A17EE903A06E7002326
:104A10000AE700BFEA0600200C080020F82D00205D
:104A20000000803B0200002004000020604C0108D0
:104A3000F20600200E000020E80600200F000020F3
:104A4000F6060020A34B1B78002B79D1A24B1B78D4
:104A5000A24AD35C012B00F09980B7F1FF3F05D04B
:104A600049F6666206219E4804F048FA9A4B1B7884
:104A70009A4AD35C012B00F092809A4B1B789A4A99
:104A8000D35C012B03D0FEF7FBFDFEF7B1FE954B87
:104A90001B78954AD35C012B00F08680934B1B78E2
:104AA000002B40F01C828B4B1B78002B40F0358292
:104AB0008F4B1B78002B40F036828E4B5F6AC7F31A
:104AC0004E07BE4213D01E68C6F3001606F0D2FA97
:104AD00020B906F0D5FA002800F02B8206F0D0FAB3
:104AE000002840F02B82304608F030FA3E4604F0B1
:104AF0006DF8FCF749FD804B1B78002BC7D07F4B2E
:104B00001B78002BC3D000237C4A13707A4A1370A1
:104B100002F096F90746B0F1FF3F3FF486AD6E4BC9
:104B20001B786E4AD35C002B3FF491AD012B3FF410
:104B30008AAD022B9AD1B7F1FF3F7FF488AD95E79C
:104B40000020FCF765FC6E4B187800F059FD002042
:104B50000EE0C1F1FE03C3EB03139A01A2F17F52F1
:104B60004BF6BA2322F8103001318E45F1DA0130CC
:104B7000B0F5F07FBFF66AAF624B13F800E0BEF10C
:104B8000EF0F01DD4FF0EF0E0021EEE7082006F0F9
:104B9000E3F9002007F0BAF94FF0FF3766E7B7F105
:104BA000FF3F7FF474AF68E7574B1B78002B57D15A
:104BB00001F04EFE00BB544B1B78002B3FF46EAF50
:104BC000524B1B78994500F0AF80291B0029B8BFD4
:104BD00049425246C1F5F071204602F00DFA804676
:104BE000B0F1FF3F64D0494B93F80090484B1A88CE
:104BF000484B1A600123A9E04749484801F030FEBC
:104C0000474B1B78032BD6D0464B1B78002BD2D1B9
:104C1000414B1B88D72BCED9B3F5847FCBD83F4BE4
:104C20001B886F2BC7D9A02BC5D80122364B1A7011
:104C3000374B1A88374B1A6006F042FD291B0029B2
:104C4000B8BF494253465246C1F5F071204602F0C2
:104C5000D3F9804601F0FCFD0028FBD1D146AAE73C
:104C600001F0F6FD0028A6D02B4F39462B4801F065
:104C7000F7FD3B88D83B9BB2302B9CD8274B1B8839
:104C80006F2B98D9A02B96D800221F4B1A7008F0D2
:104C9000FFFC04F09BFA06F08BF9082006F05CF9A3
:104CA000012007F033F901F0D3FD0028FBD182E7A2
:104CB000032006F051F9154B1B78994504D20120C9
:104CC00007F024F9002341E0002007F01FF900233A
:104CD0003CE000BFEB060020EF060020E44B01089B
:104CE00084620020EC060020B44B01083807002045
:104CF000E206002000040140DE060020DF0600205E
:104D0000E906002090330020ED0600200D00002071
:104D100006000020080000207A3500207C350020A5
:104D2000E8060020EA060020874B1B785BB9874B1A
:104D30001B7843B9864B1B782BB9864B1B7813B96C
:104D4000854B1B786BB306F0BBFC0123002B3FF4B3
:104D5000A5AE404602F0EEF808F1FF317F4B1B682C
:104D6000C21A0F469142A8BF174627EAE777984232
:104D700004D0A3EB000EBEF1000F14DDA3EB000B7B
:104D800040F2DF1EF345A8BFF34691420EDAA0EBD6
:104D900008030133714A13600020FCF739FB00223D
:104DA0002EE00023D2E74FF0000BEEE71B1AB3F51D
:104DB000F07FF1DB00F2DF10684B1860ECE7EF2BBF
:104DC00041DDEF233FE077233DE000233DE0C3F1E9
:104DD000FE033EE0EF2B6FDC002B6FDBBEF1000F1C
:104DE0006ED1C3F1FE03B1F5F07F08DAC3EB031314
:104DF0009801A0F17F5040F2FF7320F8113001328A
:104E0000B2F5F07F5FDAD01980455CDD544B195C58
:104E1000544BB3F900300B4407EE903AB8EEE77A02
:104E2000514B1978514B03EB8103D3ED006AC7EE68
:104E3000267AFDEEE77A17EE903A4D490978002977
:104E4000BDD1772BBFDC002BBFDB0029BFD1C3F165
:104E5000860302EB0B01B1F5F07F09DAC3EB031314
:104E60004FEA831EAEF17F5E4FF4FC632EF81130E3
:104E70003F4B93F800E0BEF1020FC0D03D4B185CF1
:104E80003D4BB3F90030034407EE903AB8EEE77AB1
:104E90003A4B1878354B03EB8003D3ED006AC7EE2D
:104EA000267AFDEEE77A17EE903ABEF1000F91D127
:104EB000772B91DD77238FE7EF238DE700238DE7B5
:104EC000C3F1FE038FE70023234A1370214A1370B6
:104ED0001F4A13701D4A13701B4A1370DEE501F060
:104EE000B7FC98B1264FDFF8A8B03946584601F014
:104EF000B7FC0122BBF90010B7F9000003F05AFA21
:104F000005F0F0FB00221F4B1A70CCE500224FF099
:104F1000FF31084603F04EFAF2E705F0CDFD00221E
:104F2000194B1A70C4E506F027F80022174B1A70C7
:104F3000C3E5304606F0EAFF3E46D8E5304606F0C7
:104F400009FC3E46D3E500BFF9060020FA06002022
:104F5000F4060020F8060020EE06002008000020DD
:104F600040480020F20600200E000020604C01089E
:104F7000E806002080350020F60600200F00002003
:104F80007A35002038070020EB060020E2060020DA
:104F90007C35002000210B4600E00133B3F5F07FA3
:104FA00006D2C25CD2B29142F7D2C15CC9B2F4E778
:104FB00008467047FF21002300E00133B3F5F07F7E
:104FC00006D2C25CD2B29142F7D9C15CC9B2F4E751
:104FD0000846704738B50546FFF7DCFF044628460B
:104FE000FFF7E8FF201AC0B238BD000000221346C8
:104FF00002E0C15C0A440133B3F5F07FF9D3034BFF
:10500000A3FB0232C2F30720704700BF898888885B
:105010002DE9F04F2DED048B85B000AF834679600C
:105020001646984697F84830BB6002EB0803013BF0
:10503000FB60DFED7A8A60EE288ADB000833ADEB97
:10504000030D6D46ADEB030DEA4640F22123984572
:1050500005D0734B3B60DFF8DC91002431E0714BED
:105060003B60DFF8D491F8E79FED6F7A41E0DFED28
:105070006E7A45E0630067EE096A27EE806A36EED5
:10508000C66A1BF8042006EE902AF8EEE66A66EE81
:10509000866A05EBC402C2ED006A013367EE897AC5
:1050A00027EE007A77EE877A1BF8042000EE102AAC
:1050B000B8EEC00A60EE277A05EB8303C3ED007AF1
:1050C0000134B4425CD207EE904AB8EE678A28EE0B
:1050D000688AB0EE480A0AF0A1FCB0EE409AB0EE41
:1050E000480A0AF055FC4445BED209EBC40393EDCF
:1050F000007A4445BBD2E30004334B44D3ED007A3D
:10510000BB68002B18BFB4F5F07FB3D2630067EE25
:10511000096A27EE806A76EEC66A1BF8042006EE5E
:10512000102AB8EE466A414A02EB8402D2ED005AD8
:1051300026EE256A66EE866A05EBC402C2ED006AB9
:10514000013367EE897A27EE007A77EE877A1BF8CB
:10515000042007EE102AB8EE477A65EE875A67EE0C
:10516000A57A05EB8303C3ED007AA9E7730005EB8D
:10517000C60100220A60013305EB83031A60013681
:10518000FB689E42F2D32A4C012300222946204686
:1051900009F0E4FDFB682A46396828460AF0BEFAA1
:1051A00001231A462946204609F0D8FD002128E0AF
:1051B000CA0009EB0203D3ED007A131D4B44D3ED73
:1051C000006A4B00A81890ED007A27EE877A013329
:1051D0009B00EC1894ED006A26EE866A37EE467A5C
:1051E000524482ED007A94ED007A67EE877A90ED72
:1051F000007A66EE876A77EEA67A5344C3ED007AAA
:1052000001314145D4D34246796850460AF050FBFB
:105210001437BD46BDEC048BBDE8F08FDB0FC940F1
:10522000506F0108508F01080000000050AF0108C6
:10523000FC060020404D0108485E010810B52DED28
:10524000028BADF5935D86B000220EE0835CDBB28D
:1052500005A98B540DF6782101EB820107EE903AF7
:10526000F8EE677AC1ED007A0132B2F5F07FEDD346
:105270004FF4F07306E00DF6782202EB8302002172
:1052800011600133B3F5007FF5D30DF678240023C8
:105290007DAA2146534809F019FA4FF4807221463D
:1052A0007DA80AF005FB0023236003AB04AA4FF49A
:1052B0008071204608F0CAFFDDED047AF5EE407AF1
:1052C000F1EE10FA00F08A80474B41F278226A44EE
:1052D000D258FF2A41D0002A4FD107EE902AB8EECB
:1052E000678ADFED427A28EE278A531C08EE903A4F
:1052F000F8EE688A68EEA78A0023009340F2212323
:105300004FF4F072F0EE680AB0EE480A7DA905A8E5
:10531000FFF77EFE344C41F278236B44234404AA09
:1053200040F221217DA808F091FF78EEC88A41F271
:1053300078236B441B5907EE903AF8EE677A67EED4
:10534000A88ADFED2B7A88EEA70A38EE000A0DF561
:10535000935D06B0BDEC028B10BD531E08EE103AF3
:10536000B8EE488ADFED218A28EE288A07EE902AD7
:10537000F8EE677A67EEA88ABEE7501E0DF678232E
:1053800003EB800393ED007A531C0DF6782101EBBB
:105390008301D1ED007AB4EEE77AF1EE10FA0EDD7A
:1053A00007EE900AB8EE678ADFED108A28EE288AA9
:1053B00007EE902AF8EE677A67EEA88A9CE707EE78
:1053C000902AB8EE678ADFED097A28EE278A07EE81
:1053D000103AF8EE478A68EEA78A8DE79FED050A36
:1053E000B5E700BF0C07002094EDFFFF0000003B75
:1053F000004008440000000010B582B00446FFF7EA
:105400001DFFF7EE007A87EE807A17EE100AFBF7A1
:10541000BBF841EC100B0EF0F7FD51EC100BFBF755
:10542000FFFB07EE100ADFED2A6AC6EE877AFCEE74
:10543000E77AF8EE677A67EE877A17EE900AFBF75D
:10544000A3F841EC100B0EF0E7FE51EC100BFBF74C
:10545000C7FBB0F5F07F01D94FF4F0709FED1D7AD6
:10546000002208E0A35CDBB207EE903AF8EEE77AA0
:1054700037EE277A01329042F4D807EE900AB8EE60
:10548000676AC7EE066A0022114600E001329042C8
:105490000CD9A35CDBB207EE903AF8EEE77AF4EEB3
:1054A000E76AF1EE10FAF1D50131EFE707EE901A55
:1054B000F8EE677A9FED087A67EE877A87EE867A4C
:1054C000FCEEC77ACDED017A9DF8040002B010BD64
:1054D0000000F043000000000000C84200B583B0A7
:1054E000DFED176A002210E0835CDBB207EE903A32
:1054F000B8EE677A835CDBB207EE903AF8EE677A33
:1055000067EE277A76EEA76A0132B2F5F07FEBD329
:10551000DFED0C7A86EEA70AB5EEC00AF1EE10FABE
:105520000ADB0EF03FFFFCEEC07ACDED017A9DF86C
:10553000040003B05DF804FB9FED010AF3E700BF30
:10554000000000000000F04308B54FF4007104486B
:1055500008F0CEFF4FF48061024808F0E1FE08BD7C
:105560000C070020FC06002008B5012811D02048B7
:10557000012910D0022911D0032916D004291BD0EB
:10558000052920D0062925D007292AD09FED190A00
:1055900008BD1948ECE7FFF751FE08BDFFF72CFFE7
:1055A00007EE900AB8EE670A08BDFFF797FF07EE0F
:1055B000900AB8EE670A08BDFFF7ECFC07EE900A08
:1055C000B8EE670A08BDFFF7F5FC07EE900AB8EEE3
:1055D000670A08BDFFF7FEFC07EE900AB8EE670AFF
:1055E00008BDFFF703FD07EE900AB8EE670A08BD95
:1055F000D22F002000000000E6090020000000007B
:1056000010B5ADF51B6D012802D04148002306E01E
:105610004048FBE7C15C0DF28C72D1540133B3F505
:10562000F07FF7D34FF4F07304E000210DF28C7299
:10563000D1540133B3F5087FF7D9012300934FF418
:10564000F07340F22122F6EE000A9FED330A03A91F
:105650000DF28C70FFF7DCFC002424E003AB03EBBD
:10566000840393ED007ADFED2D7A77EE277A17EE3B
:10567000900AFAF789FF41EC100B0EF013FE00229E
:10568000274B51EC100BFAF7D3FF0022254BFAF70A
:105690001BFE1DA3D3E90023FBF7F4F8FBF7A0FAE8
:1056A000214B18550134B4F5F07F28D2002CD5D009
:1056B00003AB03EB8403D3ED007A9FED187A77EE0A
:1056C000877A77EEA77A17EE900AFAF75DFF41EC3A
:1056D000100B0EF0E7FD0022114B51EC100BFAF706
:1056E000A7FF00220F4BFAF7EFFD07A3D3E9002332
:1056F000FBF7C8F8FBF774FA0B4B1855D2E70DF51A
:105700001B6D10BDAFF30080000000403333C33F7A
:10571000F82D00200C08002000000000BD37863561
:105720000000244000804E40903300201D4B596201
:105730009A621422DA621A6842F480021A6008221D
:10574000DA605A6922F0406242F000625A615A6996
:1057500022F4407242F480725A615A6922F0FF02C8
:10576000104358615A6922F440625A615A6922F41E
:10577000F8025A6100221A611A6842F001021A60A6
:105780005A6922F0407242F080725A61054B9B6860
:1057900013F0200FFAD1034A136823F001031360BA
:1057A000704700BF001000A008B5184B5A6922F0DE
:1057B00040625A615A6922F4407242F480725A611E
:1057C0005A6922F440625A615A6922F4F8025A6115
:1057D0005A6922F040725A611A6842F001021A6056
:1057E0005A6922F0FF0242F006025A61074B9B6899
:1057F00013F0200FFAD1054A136823F00103136058
:10580000022211460520FFF791FF08BD001000A0FD
:105810001B4B59629A621422DA621A6842F48002BF
:105820001A600822DA605A6922F0406242F000628F
:105830005A615A6942F440725A615A6922F0FF0271
:10584000104358615A6922F440625A615A6922F43D
:10585000F8025A6100221A611A6842F001021A60C5
:105860005A6942F040725A61054B9B6813F0200F51
:10587000FAD1034A136823F001031360704700BF95
:10588000001000A008B5174B5A6922F040625A6117
:105890005A6942F440725A615A6922F440625A616C
:1058A0005A6922F4F8025A615A6922F040725A6128
:1058B0001A6842F001021A605A6922F0FF0242F0AF
:1058C00006025A61074B9B6813F0200FFAD1054A74
:1058D000136823F001031360022211460520FFF72D
:1058E00097FF08BD001000A0194B59629A6214225C
:1058F000DA621A6842F480021A600822DA605A6991
:1059000022F0406242F000625A615A6942F44072E9
:105910005A615A6922F0FF02104358615A6922F411
:1059200040625A615A6922F4F8025A6100221A61EF
:105930001A6842F001021A605A6942F040725A61D4
:10594000044B4FF08052C3F888219A60704700BF23
:10595000001000A000E100E0184B0322DA605A6951
:1059600022F0406242F080625A615A6942F4407209
:105970005A615A6922F0FF02104358615A6922F4B1
:1059800040625A615A6922F4F8025A6100221A618F
:105990001A6842F001021A605A6942F040725A6174
:1059A000064B9B6813F0020FFAD0044B1A6822F0E2
:1059B00001021A60186AC0B2704700BF001000A050
:1059C00008B5174B5A6922F040625A615A6942F48D
:1059D00040725A615A6922F440625A615A6922F44B
:1059E000F8025A615A6922F040725A611A6842F00C
:1059F00001021A605A6922F0FF0242F050025A6115
:105A0000074B9B6813F0200FFAD1054A136823F067
:105A100001031360002230217020FFF7F9FE08BD5A
:105A2000001000A010B50446FFF7CAFFFFF72AFFD9
:105A30001F4B0322DA605A6922F040625A615A69A8
:105A400042F440725A615A6922F0FF0242F0200289
:105A50005A615A6942F440625A615A6922F4F80262
:105A60005A615A6922F040725A611A6842F0010282
:105A70001A609C610E4B9B6813F0020FFAD00C4B1E
:105A80009B6813F0010F06D0094A136823F0010345
:105A90001360012010BD064A136823F00103136050
:105AA000802211467020FFF71FFF002010BD00BFAD
:105AB000001000A00D4A136823F0010313600B4B84
:105AC0001B6813F0010FFAD1094AD36843F07463DD
:105AD000D360064B074A1A605960074A9A60D8603B
