:020000040800F2
:100000000000052015260008692600086D26000856
:1000100071260008752600087926000800000000F7
:100020000000000000000000000000007D26000825
:1000300081260008000000008526000889260008A7
:100040006526000865260008652600086526000864
:100050006526000865260008652600086526000854
:100060006526000865260008652600086526000844
:100070006526000865260008652600086526000834
:100080006526000865260008652600086526000824
:1000900065260008652600086526000899260008E0
:1000A0006526000865260008652600086526000804
:1000B00065260008652600086927000865260008EF
:1000C00065260008652600086526000865260008E4
:1000D00065260008652600086526000865260008D4
:1000E000CD2600086526000865260008652600085C
:1000F00065260008652600086526000865260008B4
:1001000065260008652600086526000865260008A3
:100110006526000865260008652600086526000893
:10012000E92600080527000865260008652600085E
:100130006526000865260008652600086526000873
:100140006526000865260008652600086526000863
:100150006526000865260008652600086526000853
:100160006526000865260008652600086526000843
:1001700065260008652600086526000800000000C6
:100180006526000865260008652600086526000823
:100190006526000865260008652600086526000813
:1001A0006526000821270008452700086526000865
:1001B00065260008652600086526000865260008F3
:0801C000652600086526000811
:1001C80010B5054C237833B9044B13B10448AFF389
:1001D80000800123237010BD700000200000000083
:1001E800186B000808B5034B1BB103490348AFF36C
:1001F800008008BD0000000074000020186B000893
:10020800034613F8012B002AFBD1181A013870474E
:1002180081F0004102E000BF83F0004330B54FEAAF
:1002280041044FEA430594EA050F08BF90EA020F1C
:100238001FBF54EA000C55EA020C7FEA645C7FEAAF
:10024800655C00F0E2804FEA5454D4EB5555B8BFD2
:100258006D420CDD2C4480EA020281EA030382EA43
:10026800000083EA010180EA020281EA0303362DD5
:1002780088BF30BD11F0004F4FEA01314FF4801CA8
:100288004CEA113102D0404261EB410113F0004FBA
:100298004FEA03334CEA133302D0524263EB430371
:1002A80094EA050F00F0A780A4F10104D5F1200E0F
:1002B8000DDB02FA0EFC22FA05F2801841F100016A
:1002C80003FA0EF2801843FA05F359410EE0A5F13E
:1002D80020050EF1200E012A03FA0EFC28BF4CF06F
:1002E800020C43FA05F3C01851EBE37101F0004525
:1002F80007D54FF0000EDCF1000C7EEB00006EEB32
:100308000101B1F5801F1BD3B1F5001F0CD34908BB
:100318005FEA30004FEA3C0C04F101044FEA445212
:1003280012F5800F80F09A80BCF1004F08BF5FEA99
:10033800500C50F1000041EB045141EA050130BD79
:100348005FEA4C0C404141EB010111F4801FA4F11C
:100358000104E9D191F0000F04BF01460020B1FA71
:1003680081F308BF2033A3F10B03B3F120020CDAA9
:100378000C3208DD02F1140CC2F10C0201FA0CF087
:1003880021FA02F10CE002F11402D8BFC2F1200CEC
:1003980001FA02F120FA0CFCDCBF41EA0C019040A2
:1003A800E41AA2BF01EB0451294330BD6FEA0404EB
:1003B8001F3C1CDA0C340EDC04F11404C4F12002D6
:1003C80020FA04F001FA02F340EA030021FA04F3E8
:1003D80045EA030130BDC4F10C04C4F1200220FA3F
:1003E80002F001FA04F340EA0300294630BD21FA7D
:1003F80004F0294630BD94F0000F83F4801306BF43
:1004080081F480110134013D4EE77FEA645C18BF36
:100418007FEA655C29D094EA050F08BF90EA020FCD
:1004280005D054EA000C04BF1946104630BD91EAC5
:10043800030F1EBF0021002030BD5FEA545C05D1C8
:100448004000494128BF41F0004130BD14F5800407
:100458003CBF01F5801130BD01F0004545F0FE417B
:1004680041F470014FF0000030BD7FEA645C1ABFB0
:10047800194610467FEA655C1CBF0B46024650EAE7
:10048800013406BF52EA033591EA030F41F4002113
:1004980030BD00BF90F0000F04BF0021704730B599
:1004A8004FF4806404F132044FF000054FF000016E
:1004B80050E700BF90F0000F04BF0021704730B52F
:1004C8004FF4806404F1320410F0004548BF404204
:1004D8004FF000013EE700BF42004FEAE2014FEA59
:1004E80031014FEA02701FBF12F07F4393F07F4F34
:1004F80081F06051704792F0000F14BF93F07F4F66
:10050800704730B54FF4607401F0004521F00041A8
:1005180020E700BF50EA010208BF704730B54FF02E
:1005280000050AE050EA010208BF704730B511F033
:10053800004502D5404261EB41014FF4806404F16B
:1005480032045FEA915C3FF4DCAE4FF003025FEAED
:10055800DC0C18BF03325FEADC0C18BF033202EB75
:10056800DC02C2F1200300FA03FC20FA02F001FACF
:1005780003FE40EA0E0021FA02F11444C1E600BF6E
:1005880070B54FF0FF0C4CF4E06C1CEA11541DBF21
:100598001CEA135594EA0C0F95EA0C0F00F0DEF8EC
:1005A8002C4481EA030621EA4C5123EA4C5350EAD1
:1005B800013518BF52EA033541F4801143F4801322
:1005C80038D0A0FB02CE4FF00005E1FB02E506F0B3
:1005D8000042E0FB03E54FF00006E1FB03569CF008
:1005E800000F18BF4EF0010EA4F1FF04B6F5007F0E
:1005F80064F5407404D25FEA4E0E6D4146EB060680
:1006080042EAC62141EA55514FEAC52040EA5E5008
:100618004FEACE2EB4F1FD0C88BFBCF5E06F1ED8B2
:10062800BEF1004F08BF5FEA500E50F1000041EBE9
:10063800045170BD06F0004646EA010140EA020096
:1006480081EA0301B4EB5C04C2BFD4EB0C0541EAB8
:10065800045170BD41F480114FF0000E013C00F3CD
:10066800AB8014F1360FDEBF002001F0004170BDF1
:10067800C4F10004203C35DA0C341BDC04F114040A
:10068800C4F1200500FA05F320FA04F001FA05F296
:1006980040EA020001F0004221F0004110EBD37063
:1006A80021FA04F642EB06015EEA430E08BF20EA8F
:1006B800D37070BDC4F10C04C4F1200500FA04F332
:1006C80020FA05F001FA04F240EA020001F00041C4
:1006D80010EBD37041F100015EEA430E08BF20EA37
:1006E800D37070BDC4F1200500FA05F24EEA020E7F
:1006F80020FA04F301FA05F243EA020321FA04F0AE
:1007080001F0004121FA04F220EA020000EBD37064
:100718005EEA430E08BF20EAD37070BD94F0000F64
:100728000FD101F00046400041EB010111F4801F98
:1007380008BF013CF7D041EA060195F0000F18BF49
:10074800704703F00046520043EB030313F4801F85
:1007580008BF013DF7D043EA0603704794EA0C0F3F
:100768000CEA135518BF95EA0C0F0CD050EA410655
:1007780018BF52EA4306D1D181EA030101F00041D2
:100788004FF0000070BD50EA410606BF10461946FA
:1007980052EA430619D094EA0C0F02D150EA013606
:1007A80013D195EA0C0F05D152EA03361CBF104647
:1007B80019460AD181EA030101F0004141F0FE41E6
:1007C80041F470014FF0000070BD41F0FE4141F46A
:1007D800780170BD70B54FF0FF0C4CF4E06C1CEA6A
:1007E80011541DBF1CEA135594EA0C0F95EA0C0F1F
:1007F80000F0A7F8A4EB050481EA030E52EA0335DA
:100808004FEA013100F088804FEA03334FF08055FA
:1008180045EA131343EA12634FEA022245EA111527
:1008280045EA10654FEA00260EF000419D4208BFD8
:10083800964244F1FD0404F5407402D25B084FEA85
:100848003202B61A65EB03055B084FEA32024FF431
:1008580080104FF4002CB6EB020E75EB030E22BF8E
:10086800B61A754640EA0C005B084FEA3202B6EB4E
:10087800020E75EB030E22BFB61A754640EA5C00FD
:100888005B084FEA3202B6EB020E75EB030E22BF8D
:10089800B61A754640EA9C005B084FEA3202B6EB8E
:1008A800020E75EB030E22BFB61A754640EADC004D
:1008B80055EA060E18D04FEA051545EA16754FEAAF
:1008C80006164FEAC30343EA52734FEAC2025FEACD
:1008D8001C1CC0D111F4801F0BD141EA00014FF05C
:1008E80000004FF0004CB6E711F4801F04BF01432D
:1008F8000020B4F1FD0C88BFBCF5E06F3FF6AFAE49
:10090800B5EB030C04BFB6EB020C5FEA500C50F1D8
:10091800000041EB045170BD0EF0004E4EEA11315B
:1009280014EB5C04C2BFD4EB0C0541EA045170BD62
:1009380041F480114FF0000E013C90E645EA060EA6
:100948008DE60CEA135594EA0C0F08BF95EA0C0FD4
:100958003FF43BAF94EA0C0F0AD150EA01347FF41C
:1009680034AF95EA0C0F7FF425AF104619462CE7F3
:1009780095EA0C0F06D152EA03353FF4FDAE104656
:10098800194622E750EA410618BF52EA43067FF4A7
:10099800C5AE50EA41047FF40DAF52EA43057FF437
:1009A800EBAE12E74FF0FF3C06E000BF4FF0010C42
:1009B80002E000BF4FF0010C4DF804CD4FEA410CA6
:1009C8007FEA6C5C4FEA430C18BF7FEA6C5C1BD073
:1009D80001B050EA410C0CBF52EA430C91EA030FF4
:1009E80002BF90EA020F0020704710F1000F91EA51
:1009F800030F58BF994208BF90422CBFD8176FEA1F
:100A0800E37040F0010070474FEA410C7FEA6C5CEC
:100A180002D150EA013C07D14FEA430C7FEA6C5CF3
:100A2800D6D152EA033CD3D05DF8040B704700BF1F
:100A38008446104662468C461946634600E000BF6D
:100A480001B5FFF7B7FF002848BF10F1000F01BD3F
:100A58004DF808EDFFF7F4FF0CBF012000205DF80A
:100A680008FB00BF4DF808EDFFF7EAFF34BF01208F
:100A780000205DF808FB00BF4DF808EDFFF7E0FF28
:100A880094BF012000205DF808FB00BF4DF808ED79
:100A9800FFF7CEFF94BF012000205DF808FB00BFE0
:100AA8004DF808EDFFF7C4FF34BF012000205DF8C2
:100AB80008FB00BF4FEA410C7FEA6C5C02D150EAA8
:100AC800013C0AD14FEA430C7FEA6C5C02D152EA3E
:100AD800033C02D14FF0000070474FF0010070470F
:100AE8004FEA410212F5001215D211D56FF478734E
:100AF800B3EB625212D94FEAC12343F0004343EAF1
:100B0800505311F0004F23FA02F018BF40427047CB
:100B18004FF00000704750EA013005D111F0004055
:100B280008BF6FF0004070474FF00000704700BFEB
:100B38004A0011D212F5001211D20DD56FF4787354
:100B4800B3EB62520ED44FEAC12343F0004343EAA9
:100B5800505323FA02F070474FF00000704750EAF4
:100B6800013002D14FF0FF3070474FF0000070475E
:100B78004FEA4102B2F1E04324BFB3F5001CDCF1B7
:100B8800FE5C0DD901F0004C4FEAC0024CEA5070EF
:100B9800B2F1004F40EB830008BF20F0010070471E
:100BA80011F0804F21D113F13872BCBF01F0004021
:100BB800704741F480114FEA5252C2F11802C2F153
:100BC800200C10FA0CF320FA02F018BF40F00100D4
:100BD8004FEAC1234FEAD32303FA0CFC40EA0C0086
:100BE80023FA02F34FEA4303CCE77FEA625307D1C3
:100BF80050EA01331EBF4FF0FE4040F440007047FA
:100C080001F0004040F0FE4040F40000704700BF93
:100C1800074B82B0421C064A1B6818BF013001937B
:100C2800019B1368DB03FCD50138FAD102B0704789
:100C380010E000E0C1EB0111024B03EB811323F834
:100C480010207047000020C00D4A30B4136813F01C
:100C58000103FBD10B4D4FF0404402200A491560B7
:100C68009363D463136450635164936843F03F0300
:100C78009360136843F0010330BC1360704700BFF2
:100C880000B00240000103001001E0010C4A70B4FA
:100C9800136813F00103FBD10A4E02240A4D0B49D5
:100CA80016609063D563136454635164936843F08A
:100CB8003F039360136843F0010370BC13607047EF
:100CC80000B0024000010300000040C01001E00134
:100CD800F0B5184DBDF814602C6814F00104FBD170
:100CE800171A5B1A4FF4F07E821A0137013311FB91
:100CF8000E01114843EA074302F2DF1200EB4101FB
:100D0800DFF83CE00D4F02208EF800402F60AE6304
:100D1800E9632A6468636B64AA68064B42F03F0281
:100D2800AA602A6842F001022A60186810F00100DF
:100D3800FBD1F0BD00B00240000020C0000103005C
:100D48008E0000202DE9F041214DBDF818E02C68F7
:100D580014F00104FBD14FF4F0771E4EDFF87880D1
:100D6800994211FB0707DFF874C088F8004006EBCA
:100D780047064FF00207C5F800C06F63C5F838E0B2
:100D8800EE6319D090421FD15B1A40F2DF12013393
:100D98002A6443F480336B640D4A9168134641F02A
:100DA8003F019160116841F001011160186810F06D
:100DB8000100FBD1BDE8F081131A2C6401331B0438
:100DC80043F001036B64E7E74FF0FF30BDE8F081C3
:100DD80000B00240000020C08E0000200001030087
:100DE800104AF0B4136813F00103FBD10E4D4FF015
:100DF80040440E49022015600D4FD1600D4E0E4D36
:100E08000E49D76156615562D463136450635164C7
:100E1800936843F03F039360136843F00103F0BC09
:100E28001360704700B0024000010200000020C0BB
:100E38000200018F000040C0020001FF1001E00124
:100E4800F8B504460E46294817466168284B0840FD
:100E580003433343636001F053FB054607E0A3698E
:100E6800DB0640D401F04CFB401B0A283BD8A369A1
:100E78009A07F4D5A76201F043FB054607E0A3698A
:100E8800D80630D401F03CFB401B0A282BD8A369B4
:100E98005F06F4D56168154A164B0A4013431E4392
:100EA800666001F02DFB054607E0A369DA061AD44F
:100EB80001F026FB401B0A2815D8A3695907F4D569
:100EC800656A01F01DFB064604E001F019FB801B72
:100ED8000A2808D8A3699B06F7D5E369E8B243F066
:100EE8002003E361F8BDFF20F8BD00BF0080007C4F
:100EF8000020018000240182914B40229148196B07
:100F080092FAA2F241F0040130B4196382B01B6B6B
:100F180003F004030193019B0368002A00F00D818C
:100F2800B2FA82F20321520001FA02F2D2431A40C5
:100F3800402393FAA3F32BB1B3FA83F302215B00A6
:100F480001FA03F313437F4980220B6092FAA2F25D
:100F58000B68002A00F0EE80B2FA82F203215200F8
:100F680001FA02F2D2431A40802393FAA3F32BB179
:100F7800B3FA83F302215B0001FA03F313437149C7
:100F880040220B6092FAA2F28B68002A00F0CF8010
:100F9800B2FA82F20321520001FA02F2D2431A4055
:100FA800402393FAA3F32BB1B3FA83F302215B0036
:100FB80001FA03F31343634980228B6092FAA2F289
:100FC8008B68002A00F0B080B2FA82F20321520046
:100FD80001FA02F2D2431A40802393FAA3F32BB109
:100FE800B3FA83F302215B0001FA03F35549134373
:100FF80040228B604B6892FAA2F223F0C0034B6048
:10100800CB68002A00F08D80B2FA82F203215200E8
:1010180001FA02F2D2431A40402393FAA3F32BB108
:101028000121B3FA83F38B4001FA03F313434549D3
:101038008022CB6092FAA2F2CB68002A6ED0B2FA74
:1010480082F20321520001FA02F2D2431A408023AD
:1010580093FAA3F32BB10121B3FA83F38B4001FA7E
:1010680003F3134337494022CB6092FAA2F20B6A8A
:10107800002A50D0B2FA82F20F21920001FA02F24D
:10108800D2431A40402393FAA3F32BB1B3FA83F364
:1010980003219B0001FA03F313432A4980220B62C0
:1010A80092FAA2F20B6A002A32D0B2FA82F20F2127
:1010B800920001FA02F2D2431A40802393FAA3F372
:1010C8002BB1B3FA83F303219B0001FA03F3134313
:1010D8001C491B4A02240B620120516C40F2011585
:1010E800194B21435164526C22400092009A1A6AAB
:1010F80022F011021A629D611C6298601A6A42F01D
:1011080011021A621A6802431A6002B030BC7047B2
:101118004FF0FF32D0E74FF0FF32B2E74FF0FF3227
:1011280094E74FF0FF3276E74FF0FF3253E74FF086
:10113800FF3234E74FF0FF3215E74FF0FF32F6E6A3
:10114800003802400008024000040140F0B583B0B6
:101158004FF40014FFF7D0FE1F49204A4FF0000E4D
:10116800486C2C251E4B42F20F7740F0010040F2EC
:10117800F3164864486C00F001000190019810686B
:1011880020F00100106054604024C2F828E0D562C5
:101198001568144845F0010515600A6C42F0040210
:1011A8000A640A6C02F004020092009A1A6822F09B
:1011B80001021A609F62DE62DA6842F00102DA60B8
:1011C8001A6842F001021A6080F81E434FF080430B
:1011D800036003B0F0BD00BF0038024000000140CA
:1011E8000008004000E100E00138C0B2052830B432
:1011F80082B01FD8104B53F8200001380F4A4FF423
:1012080000150F4B0024516C41F001015164526CE0
:1012180002F001020192019A1A6822F001021A6092
:101228005D609C62D8621A6842F001021A6002B0DE
:1012380030BC70472C20E1E7306B000800380240D2
:10124800000001403C4A3D4B116B3D4841F4800190
:10125800F0B5116385B0116B4FF4F076394F202447
:1012680001F48001384DDFF8F4E00391039919681F
:1012780021F001011960816841F4746181601F6087
:101288005E609D60C3F80CE01968304841F00101C8
:10129800196080F839434FF000734360136B4FF4C3
:1012A80080612B48234391FAA1F11363136B234008
:1012B8000293029B036800293BD0B1FA81F1032213
:1012C800490002FA01F1C94319404FF4806393FAC7
:1012D800A3F32BB1B3FA83F303225B0002FA03F3FF
:1012E8000B43154A1A494FF00076DFF874E00827D7
:1012F8000B600025516C4FF48034164B012041F4EB
:1013080080615164526C144902F480620192019A1E
:101318009A6822F001029A605E60C3F808E05F6391
:101328001D614C609A6802439A60FFF771FC05B032
:10133800F0BD4FF0FF31C7E7003802402864024093
:1013480000640240000502044C22014000E100E074
:10135800001402400022014000230140A0020020A6
:101368000003001A3B4A3C4B116B3C4841F4800196
:10137800F0B5116385B0116B4FF4F076384F202427
:1013880001F48001374DDFF8F4E001910199196803
:1013980021F001011960816841F03D0181601F6001
:1013A8005E609D60C3F80CE019682F4841F00101A8
:1013B800196080F838434FF0807343600121136B44
:1013C8002A480B4391FAA1F11363136B03F001034D
:1013D8000293029B0368002939D0B1FA81F10322F4
:1013E800490002FA01F1C9431940012393FAA3F312
:1013F8002BB1B3FA83F303225B0002FA03F30B4326
:10140800144A1A4900244FF000764FF480350B60D7
:101418000120516C164B41F48071164F5164526C87
:10142800154902F480720392039A9A6822F0010225
:101438009A605E609F605C631C614D609A680243BD
:101448009A60FFF7E5FBFFF7FDFE05B0F0BD4FF032
:10145800FF31C9E7003802401064024000640240CE
:10146800000502004C20014000E100E000000240BD
:10147800002001400003001A00230140C0000020A2
:101488009F4B02229F48196B92FAA2F241F4807195
:1014980010B4196387B01B6B03F480730593059B25
:1014A8000368002A00F02881B2FA82F20321520070
:1014B80001FA02F2D2431A40022393FAA3F32BB1A2
:1014C8000121B3FA83F38B4001FA03F31A438D49E0
:1014D80002230A6093FAA3F38A68002B00F00981BB
:1014E800B3FA83F303215B0001FA03F3DB431340F0
:1014F800844A83494FF4003493604FF40063506882
:1015080093FAA3F320F0020050609461086B40F452
:1015180080700863096B01F4807104910499126862
:10152800002B00F0E380B3FA83F303215B0001FA98
:1015380003F3DB43134073494FF400620B6092FAE4
:10154800A2F28B68002A00F0CE80B2FA82F2032160
:10155800520001FA02F2D2431A404FF4006393FAA0
:10156800A3F32BB1B3FA83F303215B0001FA03F36E
:101578001A43634963484FF4704393FAA3F38260B4
:10158800A0F568404A6C42F480424A644A6C02F40E
:1015980080420392039A026922F4704223B1B3FA9B
:1015A80083F3082101FA03F313435749574A4FF4C9
:1015B80000640B61E0201368554923431360D36826
:1015C8002343D360546181F828034FF480734B6040
:1015D80002F57C424F484023116B93FAA3F341F084
:1015E80040011163126B02F040020292029A0268F3
:1015F800002B75D0B3FA83F303215B0001FA03F3E0
:10160800DB431340434940220B6092FAA2F28B68F5
:10161800002A62D0B2FA82F20321520001FA02F2E1
:10162800D2431A40402393FAA3F32BB1B3FA83F3BE
:1016380003215B0001FA03F31343364940228B6010
:1016480092FAA2F2CB68002A44D0B2FA82F20321BD
:10165800520001FA02F2D2431A40402393FAA3F34C
:101668002BB10121B3FA83F38B4001FA03F31A4338
:10167800234928484FF4706393FAA3F3C260A0F596
:1016880060404A6C42F480424A644A6C02F48042E8
:101698000192019AC26822F4706223B1B3FA83F30B
:1016A800062101FA03F313431749184A4024CB6073
:1016B800E02013681649234313609368234393601B
:1016C800546181F817034FF400030B6007B05DF80D
:1016D800044B70474FF0FF32BEE74FF0FF32A0E7F0
:1016E8004FF0FF338DE74FF0FF3235E74FF0FF3310
:1016F80020E74FF0FF33FAE64FF0FF32DBE600BF9A
:10170800003802400020024000380140003C0140FF
:1017180000E100E0001802409B4A9C489C4913469F
:10172800F0B5146887B024F080541460D2F888406B
:1017380020400143C2F88810D2F88C1021F44031BF
:1017480041F48031C2F88C10116841F08051116069
:101758001A689200FCD51C6B00268E484AF62A2C83
:1017680044F010048C4A8D494FF4805E1C630825B0
:101778001C6B8B4F04F010040594059C046824F43A
:1017880040740460046844F400740460846824F4B9
:1017980040748460846844F400748460046A24F4A7
:1017A80070240462046A44F4602404621C6B7D485B
:1017B80044F040041C631C6B04F040040494049C33
:1017C800146824F040741460146844F000741460C1
:1017D800946824F040749460946844F000749460B1
:1017E800546A24F470245462546A44F460245462A1
:1017F8001A6B42F480721A631A6B02F480720392B5
:10180800039A0C6804400C600C683C430C608A68BE
:10181800654C02408A608868644A3843644F88602F
:10182800486A044063484C624C6A22434A621A6B15
:1018380042F400721A631A6B02F400720292029A5E
:10184800046804F04074046004683C4304608468DD
:1018580004F0407484608268574C3A43574F826062
:10186800026A066242F22026026A42F0EE32026200
:10187800426A02F470224262426A1443504A446245
:10188800186B40F4806018631C6B04F48064019446
:10189800019814683C401460146844EA0C0414600D
:1018A8009068484C384090609768474847EA0C076A
:1018B8004FF47F0C9760176A07F470471762176A2E
:1018C8003C43424F14620C6824F040740C600C686E
:1018D80044F080740C60146824F0C0041460146828
:1018E80044F040041460FF24C1F818E040F2054EAB
:1018F800956102255A6C364942F080625A645B6CE5
:10190800344A03F080630093009B334B86614FF4A5
:10191800887687604FF04047C160202102614361AB
:10192800C0F82CC00CF18B7CC26B2C4B0CF1360C24
:1019380042F00F02C263426B42F006024263C3F8F0
:1019480004C0ACF57A0C264AACF12A0CC3F808C0DE
:101958001D615C61C3F81CE09F62DA621E631A684D
:10196800204C42F001021A60436A43F001034362CB
:10197800836943F00103836184F859134FF00073BE
:10198800A36007B0F0BD00BF003802403F80FF8F62
:1019980000300050001002400018024000200240B1
:1019A800000028A8FFFFC3030FF00F00E00EE0EED1
:1019B800AAAAAAA800240240EEEEE0EEC000FFFFAB
:1019C80000280240EE0EEEEE0068014009002800F3
:1019D8000B0035001B0115021D013502846801400A
:1019E800C303C00300E100E0934B944A986B944909
:1019F80040F00100DFF89CC22DE9F041986388B0FF
:101A0800986B43F6F0758F4E4FF0000800F0010018
:101A180041F6541E112707900798186B40F00400F0
:101A28001863186B00F0040006900698106820F000
:101A3800C0001060106840F080001060906820F0CE
:101A4800C0009060906840F080009060106A20F4B8
:101A580070401062106A40F4404010621A6B42F005
:101A680008021A631A6B02F008020592059A0C68BC
:101A780004EA0C040C600C6834430C608868724CEF
:101A880000EA0C00DFF810C288608A686F483243A9
:101A980006F128668A6006F500460A6A22F0FF0207
:101AA8000A620A6A42F0CC020A624A6A1440684A28
:101AB8004C624C6A2043674C4862196B41F0100134
:101AC8001963196B01F010010491049910682840FA
:101AD800106010683043106091685F482940916039
:101AE80095685E4935435E4E9560156A2C401462D0
:101AF800146A20431062506AC2F82480546A594814
:101B080044F0CC3454621A6B574C42F020021A63EA
:101B18001A6B02F020020392039A0A6832400A60A4
:101B28000A6842EA0C020A608D68504A35408D60A6
:101B38008E684F4D46EA0C06DFF860C18E600E6A6B
:101B480006F07F460E620E6A30430862486AC0F3A8
:101B58000B004862486A044346484C62196B464C7D
:101B680041F040011963196B01F04001029102999B
:101B7800116829401160116841EA0C0111609668EA
:101B88003E492E40966095683D4E45EA0C059560A5
:101B9800156A05F0FF251562156A45F0CC15156222
:101BA800556A2840374D5062506A0443364854629B
:101BB80004461A6B42F080021A631B6B334A03F027
:101BC80080030193019B0B6823F44C630B600B6843
:101BD80043F408630B608B6823F44C638B608B6859
:101BE80043F408638B600B6A1E400E620B6A1D4348
:101BF8000D62C0F800E082600761A3699806FCD412
:101C08000120FFF705F812231F4A236193699906FB
:101C1800FCD4F3231C4913618B699A06FCD41C4B32
:101C2800194A0B6193699B06FCD440F6064353613D
:101C380008B0BDE8F08100BF00380240000802404B
:101C4800000C02400A002AA000F0FF00CC0C00CCD7
:101C58000010024000FFFF0FCC0000C0001402403B
:101C680000F03F00CCCCCC0000C0CCCC0018024027
:101C7800F0F0FC3FF0FFFF0F0C0000C0001C02401A
:101C8800FF0F0FFF00C0C000400100A061631101F9
:101C980014400400F0FFC00FAA0A80AA0A0A0280B2
:101CA800204B21491A6B42F4000270B41A6383B0C6
:101CB8001B6B03F400030193019B0B6813F00103F2
:101CC800FBD11A4A02201A4D1A4C0D608B63CC6363
:101CD80048634A648B68144A43F03F038B600B687F
:101CE80043F001030B60136813F00103FBD1104E9E
:101CF8000224114D20200D4916609363D563546367
:101D0800516493680D4943F03F039360136843F0AF
:101D18000103136081F85A034FF080638B6003B0AE
:101D280070BC70470038024000B002401001E0016A
:101D380000010300000020C0000040C000E100E0F6
:101D4800744B82B074488022196B92FAA2F241F067
:101D5800800119631B6B03F080030193019B0368E7
:101D6800002A00F0D480B2FA82F20321520001FA6C
:101D780002F2D2431A40802393FAA3F32BB1B3FAA9
:101D880083F302215B0001FA03F3134362494FF422
:101D980080720B6092FAA2F20B68002A00F0B480FD
:101DA800B2FA82F20321520001FA02F2D2431A4037
:101DB8004FF4807393FAA3F32BB1B3FA83F30221A0
:101DC8005B0001FA03F31343534980220B6092FA34
:101DD800A2F28B68002A00F09480B2FA82F2032102
:101DE800520001FA02F2D2431A40802393FAA3F375
:101DF8002BB1B3FA83F302215B0001FA03F3134317
:101E080045494FF480728B6092FAA2F28B68002ADF
:101E180074D0B2FA82F20321520001FA02F2D243DC
:101E28001A404FF4807393FAA3F32BB1B3FA83F3F8
:101E380002215B0001FA03F33749134380228B60C8
:101E48004B6892FAA2F243F4C0734B600B6A002A03
:101E580051D0B2FA82F20F21920001FA02F2D24373
:101E68001A40802393FAA3F32BB1B3FA83F3042126
:101E78009B0001FA03F31343274901220B6292FAEC
:101E8800A2F24B6A002A33D0B2FA82F20F219200F2
:101E980001FA02F2D2431A40012393FAA3F32BB1B9
:101EA800B3FA83F304219B0001FA03F313431A499D
:101EB800184A4B62116C194B41F40001184811641F
:101EC800116C01F4000100910099116A41F40001BC
:101ED8001162116A21F40001116218615A6842F016
:101EE80000725A601A6842F001021A6002B0704724
:101EF8004FF0FF32CFE74FF0FF32B1E74FF0FF323C
:101F08008EE74FF0FF326FE74FF0FF324FE74FF0A9
:101F1800FF322FE700380240001C0240005C0040FE
:101F280032279140374B19681A46F0B541F4803191
:101F380083B0196013689C03FCD551683248334B51
:101F48000840304903435360136843F080731360BB
:101F58000B689801FCD5086C2D4B40F080501A4650
:101F68000864096C01F0805101910199196841F4E4
:101F7800803119605368D903FCD51368244943F4A8
:101F8800003313604B689B03FCD522490B680A4653
:101F980023F00F0343F006030B60136803F00F03ED
:101FA800062BFAD1174B99681A4621F0F00199606F
:101FB800996821F0030141F002019960936803F0E8
:101FC8000C03082BFAD193684FF0F00E1249002643
:101FD80023F4E053DFF850C0104F072543F4A05313
:101FE8000F48104C9360936823F4604343F4004314
:101FF8009360C1F804C087F823E08E600D60046028
:1020080003B0F0BD003802400080BCFF19644000F6
:1020180000700040003C024010E000E000ED00E0ED
:102028000400002000C2EB0B3F0D0300234A536954
:1020380013F40033F0B511D1BFF34F8FBFF36F8F97
:10204800C2F85032BFF34F8FBFF36F8F536943F419
:1020580000335361BFF34F8FBFF36F8F174C636922
:1020680013F4803328D1C4F88430BFF34F8FD4F8E9
:10207800803043F6E07EC3F3C906C3F34E33B70797
:102088005D0105EA0E003946324640EA0103013A8D
:1020980001F14041C4F86032531CF6D1203D15F1DE
:1020A800200FEED1BFF34F8F636943F48033636130
:1020B800BFF34F8FBFF36F8FF0BD00BF00ED00E09F
:1020C8002DE9F04F83B0DFF82C83FFF7AFFF012332
:1020D800DFF824931C460193FFF724FFAA4DFFF76E
:1020E80083FCA346FFF718FBA84FFFF7D9FDDFF8DD
:1020F8000CA3FFF737F9FFF729F8FFF7C1F9FFF746
:102108001FFEFEF7A1FD4FF488734FF4F072A0494B
:10211800A04800F08FFBA049204601F03DFB204677
:1021280001F048FB9D4900209D4C01F035FB002043
:1021380001F040FB002000F0B7FB02F021FA994BB8
:102148001B78002B52D17E6AC6F34E06B3450FD0DA
:102158003B68D8F80020D90640F11281131C18BF3B
:1021680001235B421344D8B2C8F80030FFF73CF8AB
:102178000020FEF78BFDDAF8003013F00103FAD1E6
:10218800D9F800001A4640234FF4FC6B410040F296
:10219800FF7CB3FBF0F000F13F0EBF30AB5CB3FB4C
:1021A800F1F3AEEB0303C3EB03139B01A3F17F53DE
:1021B80023F812B0A35CB3FBF1F3C31AC3EB031308
:1021C8009B01A3F17F5323F812C00132B2F5F07FCF
:1021D800E4D101F06DFEFEF703FEDAF80030DB070C
:1021E800FBD4704BB3461B78002BACD000F0EEFA52
:1021F800002800F005816C496C4800F0F3FA6B4B3D
:102208000122B3F90010684BB3F9000001F0E4FAB9
:10221800019B012B00F0FE80022B00F04181032B73
:1022280004D1634B1B78002B40F04881012361489F
:10223800019301F029FB604B5E78002E00F0F480DA
:102248005E4B06EB86015E48194402F0D1FF5D4BF8
:1022580031461B880380584B187800F057F95A49C3
:1022680002F0F2FE544B40F2FF7203211B785748EC
:10227800012B08BF4FF4FC6202F008F8504A032112
:10228800524802F027F8524B5E78002E00F0DC80AE
:102298004A4B06EB86014F48194402F0A9FF494B07
:1022A80031461B8803804A4B187800F02FF94A49B9
:1022B80002F0CAFE464B40F2FF7204211B784348E5
:1022C800012B08BF4FF4FC6201F0E0FF414A0421F2
:1022D8003E4801F0FFFF414B5E78002E00F0C480BD
:1022E800364B06EB86013E48194402F081FF354B18
:1022F80031461B880380394B187800F007F93949B3
:1023080002F0A2FE354B40F2FF7205211B782F48E0
:10231800012B08BF4FF4FC6201F0B8FF304A0521D9
:102328002A4801F0D7FF304B5E78002E00F0AC80D1
:10233800224B06EB86012D48194402F059FF214B28
:1023480031461B880380284B187800F0DFF82849AD
:1023580002F07AFE244B40F2FF7206211B781B48DC
:10236800012B08BF4FF4FC6201F090FF1F4A0621C1
:10237800164801F0AFFF0B4B4FF000021A70E2E66F
:10238800931F18BF0123EDE6C000002000040140A0
:102398003D0C0008A80A0020D90C00084D0D0008C3
:1023A800A00200209C000020BE040020C0040020E1
:1023B800AF000020200A0020B0040020506B000865
:1023C80098040020486B00089D040020EC090020B8
:1023D800B8040020A4040020A9040020B4040020AC
:1023E8008004002085040020BC0400208C04002008
:1023F80091040020940000200000002000B002405A
:102408004FF0FF310246084601F0E6F9019B012B27
:102418007FF402AF02232F48019301F035FA2E4BC7
:102428005E78002E7FF40CAF47F212420321294850
:1024380001F02CFF294A0321264801F04BFF284BC5
:102448005E78002E7FF424AF47F21242042121481F
:1024580001F01CFF214A04211E4801F03BFF214BDB
:102468005E78002E7FF43CAF47F2124205211948EE
:1024780001F00CFF194A0521164801F02BFF1A4BF1
:102488005E78002E7FF454AF47F2124206211148BD
:1024980001F0FCFE114A06210E4801F01BFF6AE715
:1024A800124B1B7883B9124B1B78002B3FF4BEAE3E
:1024B80004231048019301F0E7F9BCE605230E4810
:1024C800019301F0E1F9B6E603230C48019301F00A
:1024D800DBF9B0E6EC090020B00400204C6B0008E2
:1024E800B8040020B4040020BC040020AD00002083
:1024F800AE000020580D002048060020240D0020C2
:10250800014B1868704700BF9000002010B53A4B87
:102518004C1E3A4A012818BF1346012C18D9032922
:102528003BD0042916D005295AD006291ED00729E0
:102538000ED1591E03F2DF12002311F8010F8A424F
:102548000344FAD12E48A0FB0323C3F3072010BD90
:10255800002010BD5A1E002003F2DF1312F8011FDD
:10256800884238BF08469342F8D110BD5C1E03F27A
:10257800DF120023214611F8010F834238BF0346BA
:102588008A42F8D1FF2014F8012F904228BF104644
:10259800A142F8D11B1AD8B210BD5A1E9FED197A64
:1025A80003F2DF1312F8011F07EE901A9342F8EEB8
:1025B800676AF8EEE77AA6EEA77AF3D1DFED127A2A
:1025C80067EE277A17EE900AFDF786FF41EC100BAD
:1025D80004F07EF951EC100BFEF7AAFAC0B210BD58
:1025E8005A1EFF2003F2DF1312F8011F884228BF8A
:1025F80008469342F8D110BDC0000020A002002078
:1026080089888888000000008988083BDFF834D072
:10261800002103E00C4B5B58435004310B480C4B32
:1026280042189A42F6D30B4A02E0002342F8043BD0
:10263800094B9A42F9D300F0A1F802F09BFDFFF78D
:102648003FFD7047000005200882000800000020B8
:102658007000002070000020100F0020FEE700002E
:10266800704700BFFEE700BFFEE700BFFEE700BF00
:10267800FEE700BF704700BF704700BF704700BF4C
:10268800024A136801331360704700BF90000020AE
:1026980008B5FFF735FF084B4021084A5961136810
:1026A800C31AB3F5FA7F05D905494B6983F00203CC
:1026B8004B61106008BD00BF003C0140980000203D
:1026C80000200240044B4FF40061044A59615369E9
:1026D80083F0020353617047003C01400020024030
:1026E800044A01200449936843F03D03936008704D
:1026F800704700BF006402408C000020044A01209B
:102708000449936843F4746393600870704700BF8A
:10271800006402408D000020064B012006495A6BD8
:1027280022F006025A63DA6B42F00F02DA6308708D
:10273800704700BF006801408F000020064B012051
:1027480006491A6822F480721A609A6842F03F02B9
:102758009A600870704700BF00B002408E000020E9
:10276800044B0121044A1970136923F00103136112
:10277800704700BF9C000020000800400F4A104B23
:10278800D2F888000F4940F4700070B4C2F888008D
:10279800002418684FF000650B4E40F001001860E7
:1027A8009C601868014019605E60196821F48021F6
:1027B8001960DC60956070BC704700BF00ED00E0F8
:1027C80000380240FFFFF6FE1030002408B5022250
:1027D80070210348FEF734FB052888BF002008BD98
:1027E800005C0040F8B5124E07460D4603227021E2
:1027F8003046FEF725FB04460422702124023046A9
:10280800FEF71EFB052204F4706470210443304671
:102818003C80FEF715FB0446062230462402702150
:10282800FEF70EFB04F4706404432C80F8BD00BF6F
:10283800005C0040F0B50446551F581F04262DB211
:1028480045F65D4E4FF6FF772160DFF858C001B2BC
:10285800A2800122E3800023A5841046A583E18499
:10286800E183A4F846E0A4F84270CCF8004026843E
:10287800668484F8402084F84120E362A386638656
:10288800E3862387E363A4F8443023616361A3618B
:10289800E36484F85030636584F85830E36584F85D
:1028A8006030F0BDA00000202DE9F0471F4E82B037
:1028B80080463268B2F80490D58809F1FF39013DA5
:1028C8000FFA89F92DB2B9F1000F2CDB4F464FF002
:1028D8000009002D24DBAA46002592F858309B07F2
:1028E80011D44C4600E0326820460134136829466A
:1028F80024B242469847A742F5DA01352DB2AA45D7
:102908000BDB3268EDE7CDF800805346546D29465D
:102918003A464846A0470028F3D102B0BDE8F08700
:102928004FF0000AD9E70027D3E700BFA000002036
:102938002DE9F04FDFF824A187B005460E46DAF8F6
:10294800007090461C46BDF8409097F850E01EF085
:10295800020F7AD1A8EB0508A4EB060E4FF6FF7C10
:102968003C680FFA88F84A460FFA8EFE314688EA24
:10297800E873B8F1000F8EEAEE7B2846A3EBE87304
:10298800ABEBEE7B1FB20593D4BF63460123BEF1C8
:10299800000F0FFA8BF80393D4BF63460123049307
:1029A800A047474529DB002F24DD1FFA8BF34FF0A2
:1029B80000087C109B46039B5C44049808F10108BE
:1029C8001D44A3B2059900EB060E1CB2DAF800C04C
:1029D8002DB24A46A742A3EB0103284602DC1CB2EB
:1029E8000FFA8EF6DCF80030314698470FFA88F374
:1029F8009F42E0DC07B0BDE8F08FB8F1000FF9DDC9
:102A0800BDF8143000274FEA68040593049B01378A
:102A180003994A461E44059B01EB050EDAF80000AF
:102A28001C4436B2A3B231461CB2A3EB0B03A0453B
:102A380002DC1CB20FFA8EF50368284698473BB2B1
:102A48009845E3DC07B0BDE8F08FCDF80090FF6C47
:102A5800B8470028CED0DAF800707BE7A000002045
:102A68002DE9F04F8DB0A0F1B004BDF85850A8463C
:102A78004C2C00F2B980DFE804F0AEB7B7B7B7B1B5
:102A8800B7B7B7B7B7B7B7B7B7B7B7B7B7B7B4B7D1
:102A9800B7B7B7B7B7B7B7B7B7B7B7B7B7B7B7B7BE
:102AA80027B7B7B7B7B79CB7B7B7B7B7B7B7A5B76B
:102AB800B7B7B7B7B7B7B7B7B7B7B7B7B7B7B7B79E
:102AC800A8B7B7B7B7B7AB00992426461798478970
:102AD800A74274D88089A04271D31798B0F90640EC
:102AE800A0B2039000286AD0C5084007179818BFFD
:102AF8000135006920B1A6EB070E10F80E0003900F
:102B0800DFF87CA39B46084693B2DAF800100493DA
:102B180091F8603013F0020340F0E780179A1279B9
:102B2800002A74D11799F31BB1F9081001FB03F3BC
:102B3800002905FB03F942DD83B20593002D3ED041
:102B4800013DCDF80090C1460292ADB26B1C0693D0
:102B5800049B029A039D9E18069A009B36B2059F15
:102B68001A4401920099179A01311268009112F8DB
:102B78000380002D3CD03C460CE04FEA58081B6807
:102B880001349847013DA4B2ADB2E31B9BB2072BB9
:102B98002DD865B318F0010F20B25A463146DAF83D
:102BA8000030EAD14A46314620B21B684FEA58083D
:102BB800E6E717989A2447892646A7428AD90DB08E
:102BC800BDE8F08F8424264680E7942426467DE7D6
:102BD800812426467AE7F824264677E7E62426461F
:102BE80074E78E24264671E784B206466EE72746C8
:102BF800009A019913468A42B4D1029B179A01336D
:102C0800B2F9082099B202939142A1DBD7E7012AD1
:102C1800D5D11799F21BB1F9081001FB02F200296E
:102C280004FB02F20592CADD82B20B92039A002AD3
:102C3800C5D006932BF0FF03013A5FFA8BFB09938B
:102C480028F0FF0392B2DDF85C900A935FFA88F3EC
:102C5800CDF808B00193531C0793079A05991046BD
:102C6800BDF81830BDF824B00C4600EB01080498F4
:102C78000893C5180B9BBDF828702DB25E1A0095F5
:102C8800D9F800203019019D125D0134DAF80030BE
:102C980000B2C2F5807C00991B6807FB0CFE05FB9F
:102CA8000CFC029D0BFB02EE05FB02C24FEA2E2E26
:102CB800C2F307220EF47F4E4EEA02029847A0455F
:102CC800DED106990398B9F906200131089B121A3A
:102CD8000798013306910244B9F9081005989BB288
:102CE80010448B420590B8DB69E7179C471E049B8C
:102CF800B4F808E0013BCC6D1146039A73443A449A
:102D08001BB212B2A047179B04461B79002B43D174
:102D1800179A17995289B1F90810B21A002901FBBC
:102D280002F205FB02F27FF74AAF002D3FF447AFEE
:102D3800013D0193ADB26B1C4546DDF85C80029302
:102D4800029B039F13440093D8F8003002F1010955
:102D580013F802A0002F00F08B8000261AF0010F54
:102D6800284678D0013F013658464FEA5A0ABFB282
:102D7800A047B6B20FB1072EF0D94A46009B9A4237
:102D8800E2D1019B03F10109B8F908301FFA89F172
:102D980099420191D4DB12E7012B7FF410AF179B06
:102DA800179AB3F80A90B3F90830A6EB0909B2F9F3
:102DB8000620002B03FB09F902FB09F97FF7FFAE98
:102DC800039B002B3FF4FBAE5A1E00235FFA88F5E5
:102DD800DDF85CA001932BF0FF0392B2CDF80090D0
:102DE800099328F0FF035FFA8BFB0A93531C0293A5
:102DF8004B46029ABDF824809F18BDF82860DAF87F
:102E0800002003F10109D35CC3F5807206FB02F0D0
:102E180005FB02F208FB03000BFB03230012C3F3BC
:102E2800072300F47F401843A047B9454B46E6D135
:102E380001990398BAF906300131BAF908201B1A2A
:102E4800029889B2034400989142019118440346BC
:102E58000090CEDBB3E60136A047013F4FEA5A0A9D
:102E6800B6B2BFB2072E88D8002F7FF477AF84E7B9
:102E7800009B994501D0023281E71A4681E700BFDD
:102E8800A00000202DE9F04F0646406887B003688F
:102E9800D6F800B0002B00F0AE80BBF1000F00F0B8
:102EA800AA80B6F90A80B6F90EE0B0F90840AEEB90
:102EB8000803A342C0F29F809BF80050002D00F049
:102EC800A1802A46594601230A2A08BF013311F86E
:102ED800012F9BB2002AF7D1327D1FFA88F1B6F98B
:102EE80018C012F030070DD00EF1010714FB03FED5
:102EF800013B7F1A13FB0CF3A7EB0E07FB1A1FB25B
:102F0800002F78DBD306B389B6F808A048BF7F1036
:102F18000133B6F816800F44A3EB0A0304EB0C0147
:102F2800B0F806909BB204913FB202F0010102F0A2
:102F38000202029303910592DE4600211EF8013B2E
:102F48009AB2BBB10A2B15D0B0F80AC06245F5D3C6
:102F58008489A3EB0C039442F0D30269002A4FD072
:102F6800D35C414413FA81F11EF8013B89B29AB24D
:102F7800002BE7D1029BA1EB08041C1BA4B223B2CF
:102F8800002B38DB039A002A38D1059A0AB1C3F31B
:102F98004F0454440A2D24B236D00BF1010B5DB90D
:102FA80029E043894444ED1A4B5D1BF8015B1C443E
:102FB8000A2D24B218D0F5B1B6F812E03A46338A91
:102FC800214601902846CDF800E0FFF749FD7068DA
:102FD8005A4601690029E4D14B4644441BF8015B79
:102FE8001C440A2D24B2E6D1049B02F1010B55784A
:102FF8001F443FB2A0E707B0BDE8F08F0024C8E740
:103008004B46AEE7012367E75A46EDE70B7813F026
:10301800200F0ED02DE9F04F064618078FB00D4649
:1030280008D5590636D423F020032B700FB0BDE81D
:10303800F08F7047B1F90870B1F90C90B6F80C80B0
:103048004F45B1F90AA0B1F90E6002DC4B46B9460A
:103058001F46B24502DC334656469A466E4C2268F5
:1030680092F858309B0700F1B880B94510DCCB4680
:1030780058460BF1010B236842460FFA8BFB314689
:103088001B6898475F45F3DA013636B2B245EEDA87
:103098002B78C8E7A6B1337A9B0711D5B17DB6F96D
:1030A8000E40CF07B6F9102003D5E31C03321CB23B
:1030B80012B2880704D596F82C3001331A4412B29C
:1030C80092B2E98AA3B2A88A11446C8A2F8A18445A
:1030D80009B222443B44B6F9144000B2E9812B817D
:1030E8008C42EB69A8816A8102939FDDB6F91230A0
:1030F80083429BDD02236A7E297E07A88DF81F3054
:103108008DF81C308DF81E20336B08958DF81D1036
:103118009847029AB5F90880B5F90CA0D2F80A3098
:10312800B2F80C90D045B5F90A200B930392B5F983
:103138000E7002DC5346C2469846BA4202DC3B4651
:1031480017460393344C226892F85830990754D4A0
:10315800C24512DCDDF80CB003955546284601350A
:1031680023684A462DB239461B6898474545F5DD20
:1031780001373FB25F45F0DD039D029F0023E968F8
:1031880007A8AA680A910992BA7B8DF830207A6854
:103198003968089297F90F4097F91020032764F3CC
:1031A8000F030791022462F31F43CDF83230FFF773
:1031B80069FE2B7805A8297E23F040036A7E0695D0
:1031C8002B708DF81770336B8DF814408DF815102F
:1031D8008DF8162098472B7825E7CDF800805346C0
:1031E800D2F854B031463A464846D84700283FF40A
:1031F8004FAFB245BFF639AF4AE7CDF80090394630
:10320800D2F854B05046039B4246D8470028B4D061
:10321800039BBB429CDAB0E7A0000020304AF0B420
:1032280012680378B2F90A40B2F90C50167A002BEA
:103238003DD05A1E4368002E18BFB4F1FF3F90B22C
:1032480014BF01260026013003EB401003E059703B
:10325800203398422BD01A78597802F04B020A2A68
:10326800F5D136B34A0603D401F0670141F00501F0
:10327800B3F9087001F0DF02A74211DCB3F90C7052
:10328800A7420DDBB3F90A70AF4209DCB3F90E703F
:10329800AF4205DB4F0620D401F0DB0141F02202EA
:1032A80042F04001203303F81F1C9842D3D1F0BCF0
:1032B80070474F06CBD58A0608D441F010014A065C
:1032C80048BF41F0010101F0B901C0E78F0748BFCD
:1032D80041F0800141F00801F1E742F02002DFE708
:1032E800A00000202DE9F04F994687B093B2174609
:1032F800109C1FFA89FE1D468BB22288884605F16C
:10330800FF3A1E46009282B20FFA8AFA0B460592DD
:103318005246CDF808E003950546FFF709FB0299E8
:103328000496013601F1FF3B638836B22A460FFA4C
:103338008BFB0093314628465B46FFF7F9FAA288D3
:103348004B464946009228463A46FFF7F1FAE2888A
:1033580041465B46009238463A46FFF7E9FA059837
:10336800039A3346471C3146A2F1020822893FB22C
:103378000FFA88F8009238464246FFF7D9FA049BBC
:1033880002983A469D1C6389A0F1020938462DB27D
:1033980000930FFA89F929464B46FFF7C9FAB4F8A2
:1033A8000CE038465B46CDF800E059465246FFF738
:1033B800BFFAE78931464B46524650460097FFF719
:1033C800B7FA059E039A2B460236278A033A2946FE
:1033D80036B2009712B23046FFF7AAFA0298049B59
:1033E8003246C71EB4F812E0D91C30463FB2CDF8B9
:1033F80000E009B23B46FFF79BFAB4F814E0304608
:103408004B4649464246CDF800E0FFF791FAE28A7A
:103418003B46294610924046424607B0BDE8F04F69
:10342800FFF786BA2DE9F04F4A7891B0CF69D607F1
:103438000B780FD5140663D496073C7855D543F01E
:103448002003042644F001043C700B708E7622F0B1
:1034580001024A709C063BD5064618070C463AD529
:10346800590603D43B789A0740F1B380B6B1337A52
:103478009B0713D5B27DB6F90EE0D007B6F9105008
:1034880005D50EF1030303350FFA83FE2DB291071C
:1034980004D596F82C3001331D442DB2ADB2E28A22
:1034A8001FFA8EF3608A2A44A18A0544B4F810E012
:1034B800B6F91400194412B2734409B265819042F6
:1034C8002381A181E28103DBB6F912308B4220DA35
:1034D80011B0BDE8F08F7A78D00640F1A28023F0D1
:1034E8002003237011B0BDE8F08FE607AFD524F0B4
:1034F800010443F0200305263C700B708E76A6E786
:10350800012443F0200396078C760B703C78ECD5A9
:1035180095E70223217E627E09A88DF827308DF871
:1035280024308DF825108DF82620336B0A9498479F
:103538007B78D7F8022013F0010FB7F804A0798838
:103548000D920CBF0122032202923A78D20707D5C6
:103558009D0740F10281ADF834A08A46ADF83610D7
:10356800D90640F1B980029B4FF0021E258909A8AF
:10357800618905EB030CA2891D461944E389521B96
:10358800ADF82E105B1BADF82CC0ADF8302002252D
:10359800ADF832303B7C8DF83830FA687B690A9296
:1035A8000993CDF83AE0FFF76DFC23784FF0030E4E
:1035B800217E07A823F04003627E089423708DF8CB
:1035C8001FE0336B8DF81C508DF81D108DF81E20F0
:1035D80098477B781A0722D413F0010F3B7850D014
:1035E80013F0010F694B6A4D18BF1D46B4F9080066
:1035F800B4F90E30B4F90A10B4F90C200095FFF7AD
:1036080071FE23786BE7CDF800805346D2F854B0AA
:1036180031463A464846D84708B1564515DD23781D
:103628005DE7B1F90870B1F90C90B6F80C804F4518
:10363800B1F90AA0B1F90E601FDDB24519DD554D8B
:103648002A6892F858309B07DDD4B945E7DCCB46A9
:1036580058460BF1010B2B6842460FFA8BFB31469B
:103668001B6898475F45F3DA013636B2B245EEDAA1
:10367800D5E7334656469A46E1E74B46B9461F46D4
:10368800DBE7DB07B4F90890B4F90A5048BF3F8973
:10369800484658BFFF882B46B4F90C802946B4F930
:1036A8000E6042460097FFF743F9334642463146DB
:1036B80048460097FFF73CF933464A4648462946AC
:1036C8000097FFF735F933460097294642464046AA
:1036D800FFF72EF9237802E70298B4F80890A28938
:1036E80081446389121AB4F80E800FFA89F90344E9
:1036F80012B2A8EB00081BB29145049203930FFA8B
:1037080088F802DCCDF810909146039A424502DC15
:103718004346904603931F4D2A6892F858309907FC
:1037280024D4049A4A453FF71EAF05949346039C58
:1037380004975F46384601372B6852463FB24146E8
:103748001B6898474F45F5DD08F101080FFA88F81E
:10375800A045EEDD049F059C05E758077FF500AFFF
:10376800D7F80620B7F808A00D92F9E6CDF800A022
:103778004146D2F854B04A46039B0498D8470028DB
:103788003FF4F1AE039B4345CBDAECE6A47F000897
:10379800BC7F0008A0000020022807D8044B0322A1
:1037A8001B6803EBC000C16480F85020704700BF5D
:1037B800A000002002280BD8064B1B6803EBC000B2
:1037C80090F85030DA0703D543F0020380F8503000
:1037D800704700BFA0000020024B1B6858819981E8
:1037E8001A727047A0000020002A18BF00293FD095
:1037F800F0B5B0FA80F67609002E36D1551E0C4683
:103808000327EDB2013501EB45152770203444F844
:10381800046CAC42F9D1184D022402704FF0110E1D
:103828002A68164D047202F12C0CC0F80E60C0F81C
:103838000A509588D288013D4160013A0F2180F8ED
:1038480020408282002280F8214003630C4C0D4BFB
:10385800C0F81CC045828775866180F822E0446202
:10386800836280F82C101046F0BD4FF0FF32FAE763
:103878004FF0FF3210467047A000002000007DEF97
:10388800FFFF1F00FFFF1084024650B1037A00209B
:10389800054923F04003096843F0280313720A61BD
:1038A80070474FF0FF307047A00000202DE9F04F1F
:1038B800A54D89B08C462968BDF948B08E88B1F805
:1038C8000680002860D0047AA7075DD5BCF1000FF8
:1038D8005ADB1FFA82F95FEAD93755D1013E36B271
:1038E8009E4251DB08F1FF380FFA88F8D845ACBF83
:1038F80000270127002F47D1A3EB0C0E0FFA8EFEED
:10390800BEF1090F40DD1FFA8BFAAAEB090E0FFA78
:103918008EFEBEF1090F37DDBE4663F30F0714F0C4
:1039280008046CF30F0E6BF31F4762F31F4EC0F8C9
:103938001270C0F80EE002D04B69984203D0002004
:1039480009B0BDE8F08F03901ABB0AF101073FB236
:10395800B84580F2B680039BB3F90E30002B78D1BE
:10396800039BB3F8129009F101090FFA89F94E4542
:1039780042DA039A0020137A23F0400343F020032D
:10398800137209B0BDE8F08F4FF0FF3009B0BDE801
:10399800F08F09F1FF39002E91F858300FFA89F2AB
:1039A800ACBFB2464FF0000AB1F846900492B4BFDB
:1039B800324600229C07059200F1BA804FF0000BB6
:1039C8000696CDF81C805F46049EDDF814804446B8
:1039D80000E02968204601340B684A4624B239467B
:1039E8009847A245F5DA0BF1010B0FFA8BF7BE42A7
:1039F800C0F294802968EAE7B3F910A0B3F914700B
:103A08002A68BA45B2F8468002DC3B4657469A46D1
:103A180092F858309B0711D44C4600E02A6820469B
:103A280001341368394624B242469847A642F5DA6B
:103A380001373FB2BA459CDB2A68EDE7CDF8008034
:103A48005346546D394632464846A0470028F1D1BE
:103A58008FE7013B03982A680FFA83FAB0F910B090
:103A6800B2F84680BAF1000FB0F914705DDBD146A8
:103A78004FF0000ABB4502DC3B465F469B4692F886
:103A88005830990712D4544600E02A682046013479
:103A98001368394624B242469847A145F5DA0137FA
:103AA8003FB2BB45FFF65CAF2A68ECE7CDF8008073
:103AB8005B46546D39464A465046A0470028F0D127
:103AC8004EE72A68002E92F85830ADBFB2464FF044
:103AD800000AB3464FF0000B9807B2F8469012D48C
:103AE8005C4600E02A68204601341368394624B24F
:103AF8004A469847A245F5DA01373FB2B845FFF67E
:103B08002AAF2A68ECE7CDF800904346546D394651
:103B180052465846A0470028F3D11CE7069EDDF818
:103B28001C80039BB3F814A00FE74FF00009A1E72E
:103B38001046CDF80090049B52464C6D0021A047DA
:103B48000028EED0296839E7A0000020034640B1DC
:103B5800027A900705D542F02002998100201A7256
:103B680070474FF0FF3070470346B8B1007A8207BC
:103B780014D59A7D11F0010F14BF42F0010202F032
:103B8800FE02890740F020014FF000004CBF42F0D0
:103B9800020202F0FD0219729A7570474FF0FF3069
:103BA800704700BF002800F0A880037A9B0740F107
:103BB800A480B0F91010B0F90E202DE9F04F8FB0A5
:103BC800837D0C460291B0F9121003920D460491C0
:103BD800D90772D44A4F3A68536998427DD0458DC7
:103BE800038D90F82C90BDF8081009F1FF39039E59
:103BF800049C89440591A642ADF82C30ADF82E50AE
:103C08000FFA89F957DC2646DDF80CA0029C4C45D2
:103C180002DD4C46DDF8089092F8583080469B0744
:103C28005ED4B24510DCD34658460BF1010B3B6815
:103C38002A460FFA8BFB21461B689847B345F3DDEC
:103C4800013424B2A145EEDABDF8082007A898F897
:103C58002C30059EADF82620013BD8F81820039D8E
:103C680033440792D8F81C20EC1C049F98F82210C3
:103C7800ADF82A30089298F9213098F920208DF86B
:103C88003010ADF83220ADF83430ADF82870ADF80A
:103C98002440FFF7F7F898F82C3049F613512846D6
:103CA8003A46334400911BB21946FEF741FE002004
:103CB8000FB0BDE8F08FA246A8E711462246EB1EDA
:103CC8000F4F033203311BB212B2049309B20292AE
:103CD8003A6803915369984281D1C58C838C80E7F7
:103CE80000954B46D2F854B0214632465046D84744
:103CF8000028A9D04C4594DDA6E74FF0FF30704767
:103D0800A00000202DE9F04F037A83B0B0F90E60CF
:103D180023F020021D07B0F910A0B0F9128002723A
:103D2800B0F914405ED5827D8146D10702D55F0681
:103D380040F18C8095070DD54846FFF733FF99F879
:103D48000830580600F19C8099F82C3001339A44C9
:103D58000FFA8AFA4645B9F80C703DDDA24537DD01
:103D6800514D2A6892F85830990760D4B04510DC54
:103D7800C34658460BF1010B2B683A460FFA8BFBEA
:103D880021461B6898475E45F3DA013424B2A24500
:103D9800EEDA99F80000C0B10138D9F804400023E0
:103DA80080B20130400102E0203398420DD0E25C3D
:103DB80002F003010229F7D112F0080F42F0600265
:103DC80018BFE25420339842F1D103B0BDE8F08F18
:103DD800234654469A46C3E74346A245B0461E4684
:103DE800BEDCF5E7304D46452A68B2F846A02BDC24
:103DF800C146B046A64202DC234634461E4692F827
:103E080058309B0743D4C845DFDC4746384601375E
:103E18002B6852463FB221461B689847B945F5DAE8
:103E2800013424B2A642F0DA03B0BDE8F08F00975F
:103E38005346D2F854B0214632464046D847002867
:103E4800A7D0A24592DAA4E7B146D3E7174842467D
:103E58002346514600903046FFF744FA99F8162059
:103E680003360AF1030AA8F10308033C950736B2A2
:103E78000FFA8AFA0FFA88F824B27FF56BAF5BE77E
:103E880023F0400389F8083003B0BDE8F08FCDF87F
:103E980000A03346576D21464A464046B847002899
:103EA80093D0A642AFDA90E7A0000020D47F0008A4
:103EB8002DE9F043544C83B0236893F84820D10788
:103EC80003D522F0010283F848201E69586986420A
:103ED80000F08280002E7FD098615E6110B1837DF2
:103EE8009F070DD4337A23F0400343F0280333723D
:103EF800337A9C0676D4180714D403B0BDE8F0834F
:103F0800037A1D07EED5B0F90E20B6F90E309A42A5
:103F180003D1026933699A426ED0FFF743FE2368E2
:103F28005E69DFE73046FFF779F93378002B5ED01A
:103F380003F1FF3800241FFA88F808F101084FEA56
:103F4800481801E0A04517D075682F5D2544203436
:103F580007F00303022BF5D1B90695F8019036D482
:103F68003A07EFD53B06EDD519F0410FEAD06B685B
:103F7800294630469847E5E735780222234F002442
:103F88003A707C60002DB8D0013DB946A046ADB26C
:103F980001356D0101E0A542AFD073681A1901928D
:103FA8001B5D203403F00303022BF4D1937E002B16
:103FB800F1D0117E01A8527E78604846FB70797076
:103FC800336BBA709847019B83F81A80E3E76B68F4
:103FD800294630469847C3E700288ED00646337AEC
:103FE8009C0688D53046FFF78DFE337A83E7074A6B
:103FF80002215360117080E7B0F91420B6F914302B
:104008009A428AD16EE700BFA0000020A4000020D9
:104018002DE9F04706784468BDF920C0BDF9248031
:10402800BDF92890BEB1257805F00307032F16D0F7
:1040380006F1FF3E26465FFA8EFE04EB4E1E06E0B2
:1040480096F82050264605F00307032F07D074453D
:1040580004F12004F4D14FF0FF30BDE8F0870026CA
:10406800DFF87CA04FF0010E12270E70D0F80A601E
:10407800DAF80000C1F80260C1F8066081F801E0D2
:104088000F7400B12C30002625F00105C8604FF0F0
:10409800FF3E37464FF0010A65F035050F4863F3D8
:1040A8000F0733464861304668F30F036CF31F4728
:1040B800DFF830C069F31F4325706276E1616670EE
:1040C800A67627616361C4F804C084F818A0C4F810
:1040D80008E0C4F80CE0BDE8F08700BFA06B00085A
:1040E800A00000202D34000830B405784368DDB105
:1040F800013DEDB2013503EB451502E02033AB423B
:1041080012D0187800F00304022CF7D11C7E012C81
:10411800F4D15C7E8C42F1D140F06001DC69002072
:10412800A280197030BC70474FF0FF3030BC704728
:1041380030B405784368DDB1013DEDB2013503EBDC
:10414800451502E02033AB4212D0187800F0030482
:10415800022CF7D11C7E012CF4D15C7E8C42F1D16B
:1041680040F06001DC6900206261197030BC704762
:104178004FF0FF3030BC704730B405784368DDB18C
:10418800013DEDB2013503EB451502E02033AB42AA
:1041980012D0187800F00304022CF7D11C7E012CF1
:1041A800F4D15C7E8C42F1D140F06001DC690020E2
:1041B800E260197030BC70474FF0FF3030BC704778
:1041C8002DE9F04706784468BDF920C0BDF9248080
:1041D800BDF92890BEB1257805F00307032F16D046
:1041E80006F1FF3E26465FFA8EFE04EB4E1E06E001
:1041F80096F82050264605F00307032F07D074458C
:1042080004F12004F4D14FF0FF30BDE8F0871D4ED3
:10421800002736680F609EB306F12C0700264F6012
:1042280025F0010E4FF0120A354637460E724EF051
:104238004A0E63F30F0568F30F07D0F80A303046CB
:104248006CF31F4569F31F47C1F80A304FF0020CA1
:104258004FF0FF33DFF83080CE730E7481F80EA074
:1042680084F800E06670A6766276E1612561676190
:10427800C4F8048084F818C0A360E360BDE8F08740
:104288003746CBE7A00000201530000830B4057889
:104298004368DDB1013DEDB2013503EB451502E0A0
:1042A8002033AB4212D0187800F00304022CF7D167
:1042B8001C7E022CF4D15C7E8C42F1D140F060016E
:1042C800DC690020A281197030BC70474FF0FF30C4
:1042D80030BC704730B405784368DDB1013DEDB2BC
:1042E800013503EB451502E02033AB4212D01878B4
:1042F80000F00304022CF7D11C7E022CF4D15C7E62
:104308008C42F1D140F06001DC6900202260197014
:1043180030BC70474FF0FF3030BC704730B4057880
:104328004368DDB1013DEDB2013503EB451502E00F
:104338002033AB4212D0187800F00304022CF7D1D6
:104348001C7E022CF4D15C7E8C42F1D140F06001DD
:10435800DC6900206260197030BC70474FF0FF3094
:1043680030BC704730B405784368DDB1013DEDB22B
:10437800013503EB451502E02033AB4212D0187823
:1043880000F00304022CF7D11C7E022CF4D15C7ED1
:104398008C42F1D140F06001DC690020A2731970F1
:1043A80030BC70474FF0FF3030BC7047704700BFDB
:1043B8000378022B00D070474378012BFBD1C278D9
:1043C800042AF8D18278042AF5D103480021034A47
:1043D80003701170EFE700BFAD000020AE000020B1
:1043E8000378022B00D0704741780129FBD1C378AC
:1043F800042BF8D12B4B70B51B78012B3DD0022B29
:1044080048D0032B284B294D0EBF022403241D46F8
:104418008378002B37D0012B05D16B78072B0CBF85
:10442800002301336B702978214A224B012918BFD8
:104438001A4600212048FFF77BFE6A781F4E0121AB
:1044480002EB82021C483244FFF772FE6B78BBB164
:104458002B7840F2FF72012B08BF4FF4FC62214613
:104468001748FFF741FE6A782146154802EB820299
:104478003244BDE87040FFF75BBE0024114DC7E72A
:1044880047F21242EBE72B78012B06D00123084AAA
:104498002B70CEE70C460C4DBAE70223054A2B7069
:1044A800C7E700BFB0000020BC040020B40400200F
:1044B800BC800008C080000848060020506B000837
:1044C800240D0020B0040020B80400200378022B3B
:1044D80000D070474378012BFBD1C278042AF8D169
:1044E800F0B5847883B02CB91D4D2A7822B91D4ABD
:1044F8002B70137003B0F0BD009420462C7040F26E
:10450800DF12DFF860E00F21174F4FF48073174D6B
:10451800174E8EF800403C702C703470FCF7D8FBB6
:1045280040F2DF142F224AF655501249124B23F855
:10453800120003F516538B42F9D13032A242F5D15D
:104548000D4A4AF655510D48002322F813100A3334
:10455800B3F5F07FF9D102F534428242F4D1C9E7CC
:10456800AC000020AD000020AE000020B00000200C
:10457800AF000020C0E123C0403820C0407024C0F4
:104588002DE9F04F002585B0BD4B0A220E24BD4908
:10459800BD480D26FFF728F92946BB484FF03B09CF
:1045A800FFF7E2FA2A4640F2DF1300942946B6489C
:1045B800FFF77CF94EF63171B3484FF07708FFF7F3
:1045C800C5FA4FF4ED7302942A46019340F2AB13F7
:1045D800AE4901240095B327AB48FFF719FD2946DA
:1045E800AB4AA948FFF7C8FD29464FF62052A6480E
:1045F800FFF77AFD2946A74AA348FFF799FD0A2342
:104608002A46A5490296A0488DE81002FFF7D8FD72
:1046180029469F4A9C48FFF781FE29464FF4FC62D1
:104628009948FFF733FE29469C4A9748FFF752FE00
:104638004623224600949A490296CDF8048092486F
:10464800FFF7BEFD2146924A8F48FFF767FE2146D5
:1046580040F2FF728C48FFF719FE2146914A8A48BA
:10466800FFF738FE8223009402228F4902960197B1
:104678008548FFF7A5FD864A02218348FFF74EFECD
:104688004FF6E07202218048FFF700FE874A0221B8
:104698007D48FFF71FFEF421BE23009403220191F9
:1046A800029683497848FFF78BFD794A03217648BB
:1046B800FFF734FE47F2124203217348FFF7E6FD85
:1046C8007C4A03217048FFF705FE40F22B11F523C1
:1046D800009404220191029677496B48FFF770FD18
:1046E8006B4A04216848FFF719FE47F21242042179
:1046F8006548FFF7CBFD714A04216348FFF7EAFDDF
:1047080040F267114FF49B730094052201910296C1
:104718006B495D48FFF754FD5D4A05215A48FFF78C
:10472800FDFD4BF6BA2205215748FFF7AFFD654A54
:1047380005215548FFF7CEFD40F2A3114FF4B97398
:1047480000940622019102965F494F48FFF738FD11
:104758004F4A06214C48FFF7E1FD49F666620621FB
:104768004948FFF793FD594A06214748FFF7B2FD2C
:10477800574B0A2257495848FFF736F829465648F2
:10478800FFF7F2F940F20F1240F2DF1329460092C8
:1047980040F201125048FFF789F84EF631714E4841
:1047A800FFF7D4F90A232A4600944C49CDF804901F
:1047B80002964948FFF704FD2946354A4648FFF75F
:1047C800ADFD29464FF4FC624348FFF75FFD2946DB
:1047D800324A4148FFF77EFD46232246009440496D
:1047E800CDF8048002963C48FFF7EAFC2146284AA7
:1047F8003948FFF793FD214640F2FF723648FFF72C
:1048080045FD2146274A3448FFF764FD822300947A
:1048180002223449019702962F48FFF7D1FC1C4A1F
:1048280002212D48FFF77AFD4FF6E07202212A484F
:10483800FFF72CFD2C4A02212748FFF74BFDFE21EC
:10484800BE23009403220191029628492248FFF7CB
:10485800B7FC0F4A03212048FFF760FD47F21242D8
:1048680003211D48FFF712FD214A03211A48FFF7CB
:1048780031FD40F2491140F2091300943AE000BFBB
:10488800D544000814070020200A0020200B00202F
:10489800786B0008EC7F00087C0A0020F47F000891
:1048A800A40D0020FC7F0008C0060020048000083A
:1048B800100D00200C800008D40C00204C6B000860
:1048C8000C0B002018800008380B002020800008FE
:1048D800B5430008D8040020EC0900200007002098
:1048E800FC0C0020680A002024800008980800209A
:1048F80028800008042201910296C249C248FFF7A5
:104908005FFCC24A0421C048FFF708FD47F2124283
:104918000421BD48FFF7BAFCBD4A0421BA48FFF795
:10492800D9FC4FF4CA714FF4AA730094052201917F
:104938000296B849B448FFF743FCB44A0521B24887
:10494800FFF7ECFC47F212420521AF48FFF79EFC47
:10495800B14A0521AC48FFF7BDFC4FF4EF714FF4A5
:10496800CF73009406220191029640F2DF14AB49FE
:10497800A548FFF725FCA54A0621A348FFF7CEFC6A
:1049880047F212420621A048FFF780FCA44A0621FC
:104998009D48FFF79FFC2F224AF65550A149A24B8C
:1049A80023F8120003F516538B42F9D13032A24294
:1049B800F5D19D4A4AF655519C48002322F8131018
:1049C8000A33B3F5F07FF9D102F534428242F4D1CB
:1049D800974B0A224FF0F60B964997480124FEF7A9
:1049E80003FF012194484FF00F0AFFF7BDF84FF07D
:1049F800480940F2DF131922CDF800B04FF4C8710E
:104A08008D484325FEF752FF4FF6FF718A481A2654
:104A1800FFF79CF82346CDF804900022CDF808A0B3
:104A28004FF037080094142784498348FFF7C8FBE0
:104A3800834A00218048FFF771FC4CF2B002002144
:104A48007D48FFF723FC7F4A00217B48FFF742FCA3
:104A58000623CDF808800022019500967A49764809
:104A6800FFF7D6FA694A00217348FFF785FB47F23A
:104A7800124200217048FFF737FB744A00216E4844
:104A8800FFF756FB5F2301952246029342237049A4
:104A9800009306236848FFF7BBFA21465B4A66483D
:104AA800FFF76AFB214647F212426348FFF71CFBF7
:104AB8002146664A6048FFF73BFB87236A22019537
:104AC800029306230092022262495B48FFF7A0FA8C
:104AD8004E4A02215848FFF74FFB47F21242022183
:104AE8005548FFF701FB594A02215348FFF720FBBD
:104AF800AF2392220195029306230092032256497E
:104B08004D48FFF785FA414A03214B48FFF734FB2C
:104B180047F2124203214848FFF7E6FA4B4A0321BD
:104B28004548FFF705FBD223BA22019502932623B5
:104B38000092042249494048FFF76AFA334A04219F
:104B48003D48FFF719FB4CF2B00204213A48FFF741
:104B5800CBFA434A04213848FFF7EAFA414B0A22C4
:104B680041494248FEF740FE21464048FEF7FCFF17
:104B780040F2DF131922CDF800B04FF4C8713B485A
:104B8800FEF794FE4FF6FF713848FEF7DFFF234625
:104B9800CDF804900022CDF808A04FF02D0900941C
:104BA80033493248FFF70CFB254A00212F48FFF70D
:104BB800B5FB4CF2B00200212C48FFF767FB2D4AE9
:104BC80000212A48FFF786FB0623CDF8088000223B
:104BD80001954FF03C08009627492448FFF718FA3A
:104BE8000A4A00212148FFF7C7FA4FF62052002150
:104BF8001E48FFF779FA214A00211C48FFF798FA66
:104C08003EE000BFC4040020EC090020786B0008D7
:104C180034800008EC06002040800008E80C0020E2
:104C28004C800008C0E123C0403820C0407024C038
:104C38000D4F0008AC080020240D0020540A002065
:104C48008C6B000858800008BC0C002060800008AD
:104C580030060020A80600206C080020A40C0020C4
:104C680068800008B9430008CC0D0020580D0020CA
:104C7800840800206C800008540800207480000814
:104C88005F23019522460293422374490093062329
:104C98007348FFF7BDF92146724A7148FFF76CFA6D
:104CA80021464FF620526E48FFF71EFA21466E4AFB
:104CB8006B48FFF73DFA87236A2201950293062382
:104CC8000092022269496648FFF7A2F9654A022163
:104CD8006348FFF751FA4FF6205202216048FFF768
:104CE80003FA634A02215E48FFF722FAAF239222B1
:104CF800019502930623009203225E4982255848B3
:104D0800FFF786F9574A03215548FFF735FA4FF65A
:104D1800205203215248FFF7E7F9574A0321504828
:104D2800FFF706FA2321D223BA2201910293062320
:104D38000092042251494A48FFF76AF9494A042176
:104D48004748FFF719FA4CF2B00204214448FFF72C
:104D5800CBF94B4A04214248FFF7EAF9494B0A22AA
:104D680049494A48FEF740FD21464848FEF7FCFEFF
:104D7800952140F285135A220091FA214348FEF703
:104D880095FD4FF6FF714148FEF7E0FE234600947B
:104D980000220297CDF804803D493C48FFF710FAFD
:104DA800304A00213948FFF7B9FA3A460021374816
:104DB800FFF7D8FA374A00213448FFF78BFA234621
:104DC8002246CDF80890344930488DE84001FFF775
:104DD800F7F92146234A2D48FFF7A0FA3A4621461B
:104DE8002A48FFF7BFFA21462C4A2848FFF772FAEB
:104DF8004723029700220094019529492348FFF789
:104E080007F9184A00212148FFF7B6F94FF4044280
:104E180000211E48FFF768F9224A00211B48FFF7C6
:104E280087F947232246CDF80890019500961E4938
:104E38001648FFF7EDF821460A4A1448FFF79CF98F
:104E480021464FF404421148FFF74EF92146174A0C
:104E58000E4805B0BDE8F04FFFF76AB91806002004
:104E6800580D0020786B00087C8000084C0B00204F
:104E7800848000088C0D00208C800008D406002057
:104E880094800008E9430008640B002048060020CD
:104E98007C06002098800008B80D0020A08000083B
:104EA800900A0020BC80000890060020A880000816
:104EB80010B42F224AF655500F4940F2DF140F4B19
:104EC80023F8120003F516538B42F9D13032A2426F
:104ED800F5D10A4A4AF655510948002322F8131019
:104EE8000A33B3F5F07FF9D102F534428242F4D1A6
:104EF8005DF8044B704700BFC0E123C0403820C0B4
:104F0800407024C00378022B00D070474378012BEF
:104F1800FBD1C378042BF8D1F0B5837883B0042B88
:104F280018D8DFE803F0483C5C19030000243A482D
:104F3800DFF8F0E00126394F9523394D40F285120C
:104F480000945A210470FA208EF800403C702E70AC
:104F5800FBF7BEFE03B0F0BD324C304D237813B1E1
:104F68002B78042B47D0304F0126304A042397F87A
:104F780000E000212E482670B64518BF02462D488D
:104F88002B70FFF7D5F87B782B4A314603EB830368
:104F980028481A4403B0BDE8F040FFF7C9B8214CCF
:104FA8001E4D237813B12B78022B24D0234F0126D2
:104FB8001E4A0223DBE71B4C184D237813B12B78CC
:104FC800012B18D01E4F0126184A00213878184B9B
:104FD8002670B04218BF1A462E701648D1E7114CF9
:104FE8000E4D237813B12B78032B04D0154F0126CF
:104FF8000E4A0323BBE70026952340F285125A2167
:105008000096FA2026702E70FBF762FE03B0BDE80A
:10501800F040FFF74DBF00BFAD000020B0000020FA
:10502800AE000020AF000020BC040020BC800008B7
:10503800C080000848060020506B0008B804002013
:10504800B0040020B404002010B582B00C46FBF771
:1050580031FA30A3D3E90023FBF792FAFBF788FD76
:10506800B7EE007A07EE900AF4EEC77AF1EE10FA7E
:1050780013D4FBF731FA41EC100B6946032000F01A
:105088004DF82046FBF7BCF86946204400F0B0F81C
:105098001B4B1B88038002B010BD9FED1A7A0A22B1
:1050A800694667EE877AFDEEE77A17EE900A00F018
:1050B8009DF86846FBF7A4F8C0B2012816D002286C
:1050C8000DD02046FBF79CF86946204400F090F884
:1050D8000D4B1A889B780280837002B010BD204661
:1050E800FBF78EF8094B1B882352EAE72046FBF7AB
:1050F80087F8074B221819889B7821529370E0E7AC
:105108000080000800007A44B8800008B4800008D5
:10511800B0800008801AB44DE7808A3F30B52DED85
:10512800028BB0EE408AF0EE608A0C46002283B013
:105138000546002351EC100BFBF794FC224618B1EE
:105148002D2302F8013B013D00230948009329461D
:105158006723B0EE480AF0EE680A006800F008F924
:10516800002814BF2046002003B0BDEC028B30BDE0
:105178000800002070B50D4E0D4CA41BA41000258E
:10518800A54209D10B4E0C4C01F0C2FCA41BA41083
:105198000025A54205D170BD56F825309847013540
:1051A800EEE756F8253098470135F2E70082000807
:1051B800008200080082000804820008931E222B47
:1051C80010B50C4604D900230B701C46204610BDB0
:1051D8000A2A09D1002807DA2D230B704042012141
:1051E800214400F00FF8F1E70021F9E7FFF7E6BFE7
:1051F800034611F8012B184603F8012B002AF8D1B1
:1052080070470000F0B51E4C8BB003460F466D4644
:1052180004F1200E206861682E4603C608347445E0
:105228003546F7D121793171911E206830602229E5
:105238004FF0000104D939700F4638460BB0F0BD65
:10524800781E0646B3FBF2F50DF1280E02FB153366
:1052580073444C1C13F8283C06F8013F2B4665B9EB
:105268003D557A18CC1AA342E7DA4478157800F845
:10527800015F013302F80149F4E72146E2E700BF84
:10528800C4800008F0B587B043EC102B0C9C9DF847
:1052980034600E9D04AB019303AB00930F4605AB3E
:1052A8000221621C00F028FD0146059842F20F73A6
:1052B800984204D1384600F08BFC07B0F0BD0B785B
:1052C8003B7045B93CB97B1C11F8012F3AB9672EE0
:1052D8000BD1652614E02E22BB1C7A70F4E7002C53
:1052E800F5DD03F8012B013CEEE7472E3CD01946CB
:1052F8003025621A1A44002A33DC002CA8BF1B1977
:10530800411E0029B8BFC0F101001A460591ACBF83
:105318002B20059002F8026BA8BF58700598BCBFF7
:105328002D245C70632811460BDD642390FBF3F396
:1053380003F1300111706FF0630101FB0303059362
:10534800511C059A0A2392FBF3F303F1300008700D
:105358006FF0090000FB032330334B7000238B7080
:10536800ABE701F8015BC4E74526C9E70000000088
:105378002DE9F04755EC104B88B081468846164613
:105388009A460022002310EE100A2946109FFBF7C8
:1053980069FB10B105F100431D4600220023204699
:1053A8002946FBF755FB38B130233370002373705F
:1053B800304608B0BDE8F0874EA3D3E90023204665
:1053C8002946FBF759FB60B108F1FF3300930297B8
:1053D800CDF804A022462B4631464846FFF752FF37
:1053E800E6E7404600F05AFB204653EC102B2946CE
:1053F800FBF74CFB0028E7D100223D4B204629460D
:10540800FBF730FB07AA06AB01920093424605ABB7
:10541800E0B1032145EC104B484600F06DFC059ABD
:1054280042F20F739A4213D033460178059DA8EBD8
:105438000302044632440130A1B9AD1A4FF0300ED0
:10544800A818002837DC79B105900DE00221E1E7C2
:105458000146304600F0BCFBAAE7013D03F8011BFA
:105468000595E2E7002DF8DC0FB9217801B39E42DB
:1054780002BF731C302131702E2119700599013338
:1054880000204FF0300E00290D4620DB00B10591B9
:10549800013C14F8011F09B1002A20DC47B1184665
:1054A8003024111A194400291DDC002AA8BF9B18B2
:1054B80000221A707CE7002AC5DD03F801EB013AE7
:1054C8000121BDE703F801EB013A0120DBE7002ADF
:1054D80001F10101F6DC0028DAD00595D8E703F8D8
:1054E800011B013AD5E700F8014BDAE7AFF300807A
:1054F8000000F03F2D431CEBE2361A3F70B5456AB9
:1055080004460E463DB9102001F0C4F960624560BA
:1055180085600560C560656AEB6883B1636ADB68AE
:1055280053F82600B8B9012101FA06F56A1D920060
:10553800204600F0D1FA60B1466085600EE0212275
:105548000421204600F0C8FA636AE860DB68002B93
:10555800E4D1002070BD026843F8262000230361CF
:10556800C36070BD70B5446A06460D463CB910204C
:1055780001F090F97062446084600460C4603DB1D9
:10558800736A6A68DB6853F82210296043F822506E
:1055980070BD2DE9F0410D691F4606460C4601F124
:1055A800140E0023DEF8000081B202FB01710F0C1B
:1055B800000C02FB007089B2013301EB00419D42EF
:1055C8004FEA10474EF8041BECDCD7B1A3689D42A4
:1055D80012DB616830460131FFF790FF2269023221
:1055E80004F10C01804692000C3001F05BF9214671
:1055F8003046FFF7B7FF444604EB850301355F618A
:1056080025612046BDE8F081020C12040346B2B9B8
:105618000304102013F07F4F04BF1B02083013F05F
:10562800704F04BF1B01043013F0404F04BF9B00B0
:105638000230002B06DB5B0003D5013070470020E9
:10564800E8E720207047036813F0070201460BD0F3
:10565800DA0723D4980749BF5B089B0801200B6031
:105668005CBF0B600220704798B2A8B91B0C1020D1
:1056780013F0FF0F04BF1B0A08301A0704BF1B09E9
:1056880004309A0704BF9B080230DA0702D45B088B
:1056980006D001300B6070471046E9E700207047DC
:1056A8002020704710B50C460121FFF727FF012283
:1056B8004461026110BD2DE9F74F14460A69236958
:1056C8009A42B8BF0B468946BCBFA1461C46D9F8CA
:1056D8001070D4F810A0D9F80830D9F8041007EBE6
:1056E8000A069E42C8BF0131FFF708FF00F1140502
:1056F80005EB86082B460022434516D304F1140215
:1057080009F1140102EB8A0301EB87070193019C5D
:10571800944213460CD8002E03DD58F8043D002BA4
:1057280054D0066103B0BDE8F08F43F8042BE3E7DB
:10573800B3F800A00432BAF1000F20D0AE46894673
:105748004FF0000C59F8044BBEF800B0A3B20AFBA6
:1057580003B34FEA144BDEF8004063444FEA144C9D
:105768000AFB0BC404EB13449BB243EA04434F45C2
:105778004FEA144C4EF8043BE4D8CEF800C032F897
:10578800029CB9F1000F1FD02B68AE468C464FF033
:10579800000ABCF80040BEF802B009FB04B4A244F9
:1057A8009BB243EA0A434EF8043B5CF8043BBEF85C
:1057B80000401B0C09FB034303EB1A4367454FEA00
:1057C800134AE6D8CEF800300435A0E7013EA2E738
:1057D8002DE9F843154612F0030206460F4607D096
:1057E800013A214C002354F82220FFF7D2FE074645
:1057F800AD1035D0746A3CB9102001F04BF87062D6
:10580800446084600460C460D6F82480D8F80840F6
:105818004CB940F271213046FFF744FF0023C8F825
:105828000800044603604FF00008EB070AD5394624
:1058380022463046FFF73FFF394681463046FFF79C
:1058480091FE4F466D100BD0206838B9224621468C
:105858003046FFF730FF2060C0F800800446E4E7D8
:105868003846BDE8F88300BFE08100082DE9F0471D
:105878000C464FEA621A236949680AEB0309A368D0
:105888000746164609F10105AB4231DB3846FFF7FA
:1058980035FE0022804600F11403114652452ADBEA
:1058A80020692AEAEA7A04F1140116F01F0203EBD0
:1058B8008A0301EB800E22D0C2F1200C00200E6872
:1058C8009640304343F8040B51F8040B8E4520FAF8
:1058D8000CF0F4D8186008B109F10205013D38460A
:1058E800C8F810502146FFF73DFE4046BDE8F08756
:1058F80001315B00C8E743F822100132CEE7043BD0
:1059080051F8042B43F8042F8E45F9D8E6E70369CC
:105918000A699B1A30B50CD19200143014318418DE
:10592800114454F8045D51F8042D954203D005D371
:105938000123184630BDA042F3D3FAE74FF0FF33F6
:10594800F7E72DE9F0470D46074611462846144665
:10595800FFF7DDFF061E08D131463846FFF7CEFDBA
:10596800012303614661BDE8F087A4BF23462C46A6
:1059780038466168A6BF1D4600260126FFF7BEFD12
:105988002B69C660266905F1140904F1140202EBBB
:10599800860709EB830800F114054FF0000C52F854
:1059A80004AB59F8044B1CFA8AF1A3B2C91A230CA8
:1059B800C3EB1A4303EB214389B24FEA234CC84592
:1059C80041EA0343964645F8043BE8D8BE4505D36B
:1059D80055F8043D8BB10661BDE8F0875EF8041BFD
:1059E8001CFA81F31A1402EB11429BB243EA0243F8
:1059F8004FEA224C45F8043BE8E7013EE8E72DE989
:105A0800F7430E46012159EC108B1546FFF776FD3A
:105A1800C9F30A540746C9F3130334BB0193B8F119
:105A2800000F27D002A840F8088DFFF70CFE009958
:105A3800F0B1019AC0F1200302FA03F30B43C2400C
:105A48007B610192019BBB61002B14BF02210121E4
:105A58003961C4B1A4F2334404443460C0F1350060
:105A68002860384603B0BDE8F08343F48013D5E7D7
:105A78007961E7E701A8FFF7E6FD019B7B6101215A
:105A880039612030E5E707EB8103A0F2324030604E
:105A98001869FFF7B9FDC0EB4110E1E71728D0B549
:105AA800044607DC094B03EBC004D4E9000141ECD0
:105AB800100BD0BD0649074F0020002632463B4652
:105AC800FAF75EFD013CF9D1F1E700BF1881000843
