:020000040800F2
:1000000000000520492A00089D2A0008A12A0008AE
:10001000A52A0008A92A0008AD2A0008000000004F
:10002000000000000000000000000000B12A0008ED
:10003000B52A000800000000B92A0008BD2A0008FF
:10004000992A0008992A0008992A0008992A000884
:10005000992A0008992A0008992A0008992A000874
:10006000992A0008992A0008992A0008992A000864
:10007000992A0008992A0008992A0008992A000854
:10008000992A0008992A0008992A0008992A000844
:10009000992A0008992A0008992A0008CD2A000800
:1000A000992A0008992A0008992A0008992A000824
:1000B000992A0008992A00089D2B0008992A00080F
:1000C000992A0008992A0008992A0008992A000804
:1000D000992A0008992A0008992A0008992A0008F4
:1000E000012B0008992A0008992A0008992A00087B
:1000F000992A0008992A0008992A0008992A0008D4
:10010000992A0008992A0008992A0008992A0008C3
:10011000992A0008992A0008992A0008992A0008B3
:100120001D2B0008392B0008992A0008992A00087D
:10013000992A0008992A0008992A0008992A000893
:10014000992A0008992A0008992A0008992A000883
:10015000992A0008992A0008992A0008992A000873
:10016000992A0008992A0008992A0008992A000863
:10017000992A0008992A0008992A0008000000001E
:10018000992A0008992A0008992A0008992A000843
:10019000992A0008992A0008992A0008992A000833
:1001A000992A0008552B0008792B0008992A000885
:1001B000992A0008992A0008992A0008992A000813
:0801C000992A0008992A0008A1
:1001C80010B5054C237833B9044B13B10448AFF389
:1001D80000800123237010BD6C0000200000000087
:1001E8000C84000808B5034B1BB103490348AFF35F
:1001F800008008BD00000000700000200C8400088A
:10020800034613F8012B002AFBD1181A013870474E
:1002180081F0004102E000BF83F0004330B54FEAAF
:1002280041044FEA430594EA050F08BF90EA020F1C
:100238001FBF54EA000C55EA020C7FEA645C7FEAAF
:10024800655C00F0E2804FEA5454D4EB5555B8BFD2
:100258006D420CDD2C4480EA020281EA030382EA43
:10026800000083EA010180EA020281EA0303362DD5
:1002780088BF30BD11F0004F4FEA01314FF4801CA8
:100288004CEA113102D0404261EB410113F0004FBA
:100298004FEA03334CEA133302D0524263EB430371
:1002A80094EA050F00F0A780A4F10104D5F1200E0F
:1002B8000DDB02FA0EFC22FA05F2801841F100016A
:1002C80003FA0EF2801843FA05F359410EE0A5F13E
:1002D80020050EF1200E012A03FA0EFC28BF4CF06F
:1002E800020C43FA05F3C01851EBE37101F0004525
:1002F80007D54FF0000EDCF1000C7EEB00006EEB32
:100308000101B1F5801F1BD3B1F5001F0CD34908BB
:100318005FEA30004FEA3C0C04F101044FEA445212
:1003280012F5800F80F09A80BCF1004F08BF5FEA99
:10033800500C50F1000041EB045141EA050130BD79
:100348005FEA4C0C404141EB010111F4801FA4F11C
:100358000104E9D191F0000F04BF01460020B1FA71
:1003680081F308BF2033A3F10B03B3F120020CDAA9
:100378000C3208DD02F1140CC2F10C0201FA0CF087
:1003880021FA02F10CE002F11402D8BFC2F1200CEC
:1003980001FA02F120FA0CFCDCBF41EA0C019040A2
:1003A800E41AA2BF01EB0451294330BD6FEA0404EB
:1003B8001F3C1CDA0C340EDC04F11404C4F12002D6
:1003C80020FA04F001FA02F340EA030021FA04F3E8
:1003D80045EA030130BDC4F10C04C4F1200220FA3F
:1003E80002F001FA04F340EA0300294630BD21FA7D
:1003F80004F0294630BD94F0000F83F4801306BF43
:1004080081F480110134013D4EE77FEA645C18BF36
:100418007FEA655C29D094EA050F08BF90EA020FCD
:1004280005D054EA000C04BF1946104630BD91EAC5
:10043800030F1EBF0021002030BD5FEA545C05D1C8
:100448004000494128BF41F0004130BD14F5800407
:100458003CBF01F5801130BD01F0004545F0FE417B
:1004680041F470014FF0000030BD7FEA645C1ABFB0
:10047800194610467FEA655C1CBF0B46024650EAE7
:10048800013406BF52EA033591EA030F41F4002113
:1004980030BD00BF90F0000F04BF0021704730B599
:1004A8004FF4806404F132044FF000054FF000016E
:1004B80050E700BF90F0000F04BF0021704730B52F
:1004C8004FF4806404F1320410F0004548BF404204
:1004D8004FF000013EE700BF42004FEAE2014FEA59
:1004E80031014FEA02701FBF12F07F4393F07F4F34
:1004F80081F06051704792F0000F14BF93F07F4F66
:10050800704730B54FF4607401F0004521F00041A8
:1005180020E700BF50EA010208BF704730B54FF02E
:1005280000050AE050EA010208BF704730B511F033
:10053800004502D5404261EB41014FF4806404F16B
:1005480032045FEA915C3FF4DCAE4FF003025FEAED
:10055800DC0C18BF03325FEADC0C18BF033202EB75
:10056800DC02C2F1200300FA03FC20FA02F001FACF
:1005780003FE40EA0E0021FA02F11444C1E600BF6E
:1005880070B54FF0FF0C4CF4E06C1CEA11541DBF21
:100598001CEA135594EA0C0F95EA0C0F00F0DEF8EC
:1005A8002C4481EA030621EA4C5123EA4C5350EAD1
:1005B800013518BF52EA033541F4801143F4801322
:1005C80038D0A0FB02CE4FF00005E1FB02E506F0B3
:1005D8000042E0FB03E54FF00006E1FB03569CF008
:1005E800000F18BF4EF0010EA4F1FF04B6F5007F0E
:1005F80064F5407404D25FEA4E0E6D4146EB060680
:1006080042EAC62141EA55514FEAC52040EA5E5008
:100618004FEACE2EB4F1FD0C88BFBCF5E06F1ED8B2
:10062800BEF1004F08BF5FEA500E50F1000041EBE9
:10063800045170BD06F0004646EA010140EA020096
:1006480081EA0301B4EB5C04C2BFD4EB0C0541EAB8
:10065800045170BD41F480114FF0000E013C00F3CD
:10066800AB8014F1360FDEBF002001F0004170BDF1
:10067800C4F10004203C35DA0C341BDC04F114040A
:10068800C4F1200500FA05F320FA04F001FA05F296
:1006980040EA020001F0004221F0004110EBD37063
:1006A80021FA04F642EB06015EEA430E08BF20EA8F
:1006B800D37070BDC4F10C04C4F1200500FA04F332
:1006C80020FA05F001FA04F240EA020001F00041C4
:1006D80010EBD37041F100015EEA430E08BF20EA37
:1006E800D37070BDC4F1200500FA05F24EEA020E7F
:1006F80020FA04F301FA05F243EA020321FA04F0AE
:1007080001F0004121FA04F220EA020000EBD37064
:100718005EEA430E08BF20EAD37070BD94F0000F64
:100728000FD101F00046400041EB010111F4801F98
:1007380008BF013CF7D041EA060195F0000F18BF49
:10074800704703F00046520043EB030313F4801F85
:1007580008BF013DF7D043EA0603704794EA0C0F3F
:100768000CEA135518BF95EA0C0F0CD050EA410655
:1007780018BF52EA4306D1D181EA030101F00041D2
:100788004FF0000070BD50EA410606BF10461946FA
:1007980052EA430619D094EA0C0F02D150EA013606
:1007A80013D195EA0C0F05D152EA03361CBF104647
:1007B80019460AD181EA030101F0004141F0FE41E6
:1007C80041F470014FF0000070BD41F0FE4141F46A
:1007D800780170BD70B54FF0FF0C4CF4E06C1CEA6A
:1007E80011541DBF1CEA135594EA0C0F95EA0C0F1F
:1007F80000F0A7F8A4EB050481EA030E52EA0335DA
:100808004FEA013100F088804FEA03334FF08055FA
:1008180045EA131343EA12634FEA022245EA111527
:1008280045EA10654FEA00260EF000419D4208BFD8
:10083800964244F1FD0404F5407402D25B084FEA85
:100848003202B61A65EB03055B084FEA32024FF431
:1008580080104FF4002CB6EB020E75EB030E22BF8E
:10086800B61A754640EA0C005B084FEA3202B6EB4E
:10087800020E75EB030E22BFB61A754640EA5C00FD
:100888005B084FEA3202B6EB020E75EB030E22BF8D
:10089800B61A754640EA9C005B084FEA3202B6EB8E
:1008A800020E75EB030E22BFB61A754640EADC004D
:1008B80055EA060E18D04FEA051545EA16754FEAAF
:1008C80006164FEAC30343EA52734FEAC2025FEACD
:1008D8001C1CC0D111F4801F0BD141EA00014FF05C
:1008E80000004FF0004CB6E711F4801F04BF01432D
:1008F8000020B4F1FD0C88BFBCF5E06F3FF6AFAE49
:10090800B5EB030C04BFB6EB020C5FEA500C50F1D8
:10091800000041EB045170BD0EF0004E4EEA11315B
:1009280014EB5C04C2BFD4EB0C0541EA045170BD62
:1009380041F480114FF0000E013C90E645EA060EA6
:100948008DE60CEA135594EA0C0F08BF95EA0C0FD4
:100958003FF43BAF94EA0C0F0AD150EA01347FF41C
:1009680034AF95EA0C0F7FF425AF104619462CE7F3
:1009780095EA0C0F06D152EA03353FF4FDAE104656
:10098800194622E750EA410618BF52EA43067FF4A7
:10099800C5AE50EA41047FF40DAF52EA43057FF437
:1009A800EBAE12E74FF0FF3C06E000BF4FF0010C42
:1009B80002E000BF4FF0010C4DF804CD4FEA410CA6
:1009C8007FEA6C5C4FEA430C18BF7FEA6C5C1BD073
:1009D80001B050EA410C0CBF52EA430C91EA030FF4
:1009E80002BF90EA020F0020704710F1000F91EA51
:1009F800030F58BF994208BF90422CBFD8176FEA1F
:100A0800E37040F0010070474FEA410C7FEA6C5CEC
:100A180002D150EA013C07D14FEA430C7FEA6C5CF3
:100A2800D6D152EA033CD3D05DF8040B704700BF1F
:100A38008446104662468C461946634600E000BF6D
:100A480001B5FFF7B7FF002848BF10F1000F01BD3F
:100A58004DF808EDFFF7F4FF0CBF012000205DF80A
:100A680008FB00BF4DF808EDFFF7EAFF34BF01208F
:100A780000205DF808FB00BF4DF808EDFFF7E0FF28
:100A880094BF012000205DF808FB00BF4DF808ED79
:100A9800FFF7CEFF94BF012000205DF808FB00BFE0
:100AA8004DF808EDFFF7C4FF34BF012000205DF8C2
:100AB80008FB00BF4FEA410212F5001215D211D50A
:100AC8006FF47873B3EB625212D94FEAC12343F043
:100AD800004343EA505311F0004F23FA02F018BFC5
:100AE800404270474FF00000704750EA013005D18E
:100AF80011F0004008BF6FF0004070474FF0000051
:100B0800704700BF4FEA4102B2F1E04324BFB3F59A
:100B1800001CDCF1FE5C0DD901F0004C4FEAC0026C
:100B28004CEA5070B2F1004F40EB830008BF20F050
:100B38000100704711F0804F21D113F13872BCBF0A
:100B480001F00040704741F480114FEA5252C2F15F
:100B58001802C2F1200C10FA0CF320FA02F018BFA8
:100B680040F001004FEAC1234FEAD32303FA0CFCFB
:100B780040EA0C0023FA02F34FEA4303CCE77FEA8A
:100B8800625307D150EA01331EBF4FF0FE4040F4D4
:100B98004000704701F0004040F0FE4040F4000083
:100BA800704700BF074B82B0421C064A1B6818BF3B
:100BB80001300193019B1368DB03FCD50138FAD19E
:100BC80002B0704710E000E0C1EB0111024B03EBEB
:100BD800811323F810207047000020C00D4A30B45C
:100BE800136813F00103FBD10B4D4FF04044022072
:100BF8000A4915609363D46313645063516493681E
:100C080043F03F039360136843F0010330BC136063
:100C1800704700BF00B00240000103001001E0016E
:100C28000C4A70B4136813F00103FBD10A4E022476
:100C38000A4D0B4916609063D5631364546351647D
:100C4800936843F03F039360136843F0010370BC5B
:100C58001360704700B0024000010300000040C06C
:100C68001001E001F0B5184DBDF814602C6814F0BF
:100C78000104FBD1171A5B1A4FF4F07E821A013770
:100C8800013311FB0E01114843EA074302F2DF1258
:100C980000EB4101DFF83CE00D4F02208EF80040E8
:100CA8002F60AE63E9632A6468636B64AA68064BC5
:100CB80042F03F02AA602A6842F001022A601868DE
:100CC80010F00100FBD1F0BD00B00240000020C0D0
:100CD800000103008A0000202DE9F041214DBDF8F4
:100CE80018E02C6814F00104FBD14FF4F0771E4E85
:100CF800DFF87880994211FB0707DFF874C088F89D
:100D0800004006EB47064FF00207C5F800C06F63C6
:100D1800C5F838E0EE6319D090421FD15B1A40F253
:100D2800DF1201332A6443F480336B640D4A9168FF
:100D3800134641F03F019160116841F001011160D3
:100D4800186810F00100FBD1BDE8F081131A2C647B
:100D580001331B0443F001036B64E7E74FF0FF30F6
:100D6800BDE8F08100B00240000020C08A000020E9
:100D780000010300104AF0B4136813F00103FBD11B
:100D88000E4D4FF040440E49022015600D4FD160C2
:100D98000D4E0E4D0E49D76156615562D4631364EA
:100DA80050635164936843F03F039360136843F0C2
:100DB8000103F0BC1360704700B00240000102005C
:100DC800000020C00200018F000040C0020001FFA7
:100DD8001001E001F8B504460E4629481746616837
:100DE800284B084003433343636001F08DFB0546FD
:100DF80007E0A369DB0640D401F086FB401B0A2804
:100E08003BD8A3699A07F4D5A76201F07DFB054694
:100E180007E0A369D80630D401F076FB401B0A2806
:100E28002BD8A3695F06F4D56168154A164B0A40AA
:100E380013431E43666001F067FB054607E0A3699C
:100E4800DA061AD401F060FB401B0A2815D8A369FA
:100E58005907F4D5656A01F057FB064604E001F02E
:100E680053FB801B0A2808D8A3699B06F7D5E369BA
:100E7800E8B243F02003E361F8BDFF20F8BD00BFEE
:100E88000080007C0020018000240182914B4022D8
:100E98009148196B92FAA2F241F0040130B4196337
:100EA80082B01B6B03F004030193019B0368002AC3
:100EB80000F00D81B2FA82F20321520001FA02F227
:100EC800D2431A40402393FAA3F32BB1B3FA83F326
:100ED80002215B0001FA03F313437F4980220B6070
:100EE80092FAA2F20B68002A00F0EE80B2FA82F2BF
:100EF8000321520001FA02F2D2431A40802393FAE6
:100F0800A3F32BB1B3FA83F302215B0001FA03F3D5
:100F18001343714940220B6092FAA2F28B68002AAF
:100F280000F0CF80B2FA82F20321520001FA02F2F5
:100F3800D2431A40402393FAA3F32BB1B3FA83F3B5
:100F480002215B0001FA03F31343634980228B609B
:100F580092FAA2F28B68002A00F0B080B2FA82F20C
:100F68000321520001FA02F2D2431A40802393FA75
:100F7800A3F32BB1B3FA83F302215B0001FA03F365
:100F88005549134340228B604B6892FAA2F223F032
:100F9800C0034B60CB68002A00F08D80B2FA82F261
:100FA8000321520001FA02F2D2431A40402393FA75
:100FB800A3F32BB10121B3FA83F38B4001FA03F3B6
:100FC800134345498022CB6092FAA2F2CB68002AEB
:100FD8006ED0B2FA82F20321520001FA02F2D24331
:100FE8001A40802393FAA3F32BB10121B3FA83F3B8
:100FF8008B4001FA03F3134337494022CB6092FA3E
:10100800A2F20B6A002A50D0B2FA82F20F219200A3
:1010180001FA02F2D2431A40402393FAA3F32BB108
:10102800B3FA83F303219B0001FA03F313432A491C
:1010380080220B6292FAA2F20B6A002A32D0B2FA2C
:1010480082F20F21920001FA02F2D2431A40802361
:1010580093FAA3F32BB1B3FA83F303219B0001FAAC
:1010680003F313431C491B4A02240B620120516CF1
:1010780040F20115194B21435164526C22400092F1
:10108800009A1A6A22F011021A629D611C62986025
:101098001A6A42F011021A621A6802431A6002B010
:1010A80030BC70474FF0FF32D0E74FF0FF32B2E765
:1010B8004FF0FF3294E74FF0FF3276E74FF0FF3200
:1010C80053E74FF0FF3234E74FF0FF3215E74FF0A8
:1010D800FF32F6E6003802400008024000040140F2
:1010E800F0B583B04FF40014FFF7D0FE1F49204A33
:1010F8004FF0000E486C2C251E4B42F20F7740F043
:10110800010040F2F3164864486C00F001000190B9
:101118000198106820F00100106054604024C2F863
:1011280028E0D5621568144845F0010515600A6C79
:1011380042F004020A640A6C02F004020092009A67
:101148001A6822F001021A609F62DE62DA6842F0D1
:101158000102DA601A6842F001021A6080F81E4340
:101168004FF08043036003B0F0BD00BF0038024079
:10117800000001400008004000E100E00138C0B272
:10118800052830B482B01FD8104B53F8200001381E
:101198000F4A4FF400150F4B0024516C41F0010128
:1011A8005164526C02F001020192019A1A6822F00D
:1011B80001021A605D609C62D8621A6842F00102FE
:1011C8001A6002B030BC70472C20E1E72884000880
:1011D80000380240000001403C4A3D4B116B3D483D
:1011E80041F48001F0B5116385B0116B4FF4F076CE
:1011F800394F202401F48001384DDFF8F4E00391E1
:101208000399196821F001011960816841F474613A
:1012180081601F605E609D60C3F80CE0196830480B
:1012280041F00101196080F839434FF000734360C1
:10123800136B4FF480612B48234391FAA1F1136398
:10124800136B23400293029B036800293BD0B1FA39
:1012580081F10322490002FA01F1C94319404FF410
:10126800806393FAA3F32BB1B3FA83F303225B00F1
:1012780002FA03F30B43154A1A494FF00076DFF8D8
:1012880074E008270B600025516C4FF48034164B2E
:10129800012041F480615164526C144902F4806267
:1012A8000192019A9A6822F001029A605E60C3F87E
:1012B80008E05F631D614C609A6802439A60FFF71B
:1012C80071FC05B0F0BD4FF0FF31C7E700380240B0
:1012D8002864024000640240000502044C220140D8
:1012E80000E100E000140240002201400023014018
:1012F800C40200200003001A3B4A3C4B116B3C48D7
:1013080041F48001F0B5116385B0116B4FF4F076AC
:10131800384F202401F48001374DDFF8F4E00191C3
:101328000199196821F001011960816841F03D01B6
:1013380081601F605E609D60C3F80CE019682F48EB
:1013480041F00101196080F838434FF08073436021
:101358000121136B2A480B4391FAA1F11363136B14
:1013680003F001030293029B0368002939D0B1FA04
:1013780081F10322490002FA01F1C943194001230E
:1013880093FAA3F32BB1B3FA83F303225B0002FAB7
:1013980003F30B43144A1A4900244FF000764FF424
:1013A80080350B600120516C164B41F48071164F4B
:1013B8005164526C154902F480720392039A9A6838
:1013C80022F001029A605E609F605C631C614D6060
:1013D8009A6802439A60FFF7E5FBFFF7FDFE05B048
:1013E800F0BD4FF0FF31C9E70038024010640240F9
:1013F80000640240000502004C20014000E100E0CA
:1014080000000240002001400003001A00230140B0
:10141800E40000209F4B02229F48196B92FAA2F227
:1014280041F4807110B4196387B01B6B03F48073A7
:101438000593059B0368002A00F02881B2FA82F21E
:101448000321520001FA02F2D2431A40022393FA0E
:10145800A3F32BB10121B3FA83F38B4001FA03F311
:101468001A438D4902230A6093FAA3F38A68002B72
:1014780000F00981B3FA83F303215B0001FA03F357
:10148800DB431340844A83494FF4003493604FF49C
:101498000063506893FAA3F320F00200506094614F
:1014A800086B40F480700863096B01F48071049143
:1014B80004991268002B00F0E380B3FA83F3032148
:1014C8005B0001FA03F3DB43134073494FF40062F6
:1014D8000B6092FAA2F28B68002A00F0CE80B2FA72
:1014E80082F20321520001FA02F2D2431A404FF469
:1014F800006393FAA3F32BB1B3FA83F303215B00E0
:1015080001FA03F31A43634963484FF4704393FAAB
:10151800A3F38260A0F568404A6C42F480424A64B2
:101528004A6C02F480420392039A026922F47042E0
:1015380023B1B3FA83F3082101FA03F3134357499C
:10154800574A4FF400640B61E02013685549234360
:101558001360D3682343D360546181F828034FF4A0
:1015680080734B6002F57C424F484023116B93FA1D
:10157800A3F341F040011163126B02F040020292A2
:10158800029A0268002B75D0B3FA83F303215B003B
:1015980001FA03F3DB431340434940220B6092FAFC
:1015A800A2F28B68002A62D0B2FA82F203215200BA
:1015B80001FA02F2D2431A40402393FAA3F32BB163
:1015C800B3FA83F303215B0001FA03F313433649AB
:1015D80040228B6092FAA2F2CB68002A44D0B2FA79
:1015E80082F20321520001FA02F2D2431A40402348
:1015F80093FAA3F32BB10121B3FA83F38B4001FAD9
:1016080003F31A43234928484FF4706393FAA3F36A
:10161800C260A0F560404A6C42F480424A644A6C59
:1016280002F480420192019AC26822F4706223B1E6
:10163800B3FA83F3062101FA03F313431749184A4F
:101648004024CB60E0201368164923431360936855
:1016580023439360546181F817034FF400030B6030
:1016680007B05DF8044B70474FF0FF32BEE74FF00C
:10167800FF32A0E74FF0FF338DE74FF0FF3235E739
:101688004FF0FF3320E74FF0FF33FAE64FF0FF3219
:10169800DBE600BF0038024000200240003801406D
:1016A800003C014000E100E0001802409B4A9C48D1
:1016B8009C491346F0B5146887B024F08054146030
:1016C800D2F8884020400143C2F88810D2F88C1024
:1016D80021F4403141F48031C2F88C10116841F096
:1016E800805111601A689200FCD51C6B00268E4848
:1016F8004AF62A2C44F010048C4A8D494FF4805E37
:101708001C6308251C6B8B4F04F010040594059C82
:10171800046824F440740460046844F400740460A9
:10172800846824F440748460846844F40074846099
:10173800046A24F470240462046A44F46024046291
:101748001C6B7D4844F040041C631C6B04F040048F
:101758000494049C146824F040741460146844F0E1
:1017680000741460946824F040749460946844F0A1
:1017780000749460546A24F470245462546A44F4E3
:10178800602454621A6B42F480721A631A6B02F472
:1017980080720392039A0C6804400C600C683C4306
:1017A8000C608A68654C02408A608868644A3843DD
:1017B800644F8860486A044063484C624C6A22431C
:1017C8004A621A6B42F400721A631A6B02F40072CE
:1017D8000292029A046804F04074046004683C436E
:1017E8000460846804F0407484608268574C3A430B
:1017F800574F8260026A066242F22026026A42F06D
:10180800EE320262426A02F470224262426A144371
:10181800504A4462186B40F4806018631C6B04F4EF
:1018280080640194019814683C401460146844EA88
:101838000C0414609068484C38409060976847489A
:1018480047EA0C074FF47F0C9760176A07F4704754
:101858001762176A3C43424F14620C6824F04074C4
:101868000C600C6844F080740C60146824F0C004A8
:101878001460146844F040041460FF24C1F818E0B0
:1018880040F2054E956102255A6C364942F0806255
:101898005A645B6C344A03F080630093009B334BBB
:1018A80086614FF4887687604FF04047C1602021F9
:1018B80002614361C0F82CC00CF18B7CC26B2C4BCD
:1018C8000CF1360C42F00F02C263426B42F0060282
:1018D8004263C3F804C0ACF57A0C264AACF12A0C72
:1018E800C3F808C01D615C61C3F81CE09F62DA623E
:1018F8001E631A68204C42F001021A60436A43F0E2
:1019080001034362836943F00103836184F8591337
:101918004FF00073A36007B0F0BD00BF003802406D
:101928003F80FF8F00300050001002400018024036
:1019380000200240000028A8FFFFC3030FF00F009B
:10194800E00EE0EEAAAAAAA800240240EEEEE0EE1D
:10195800C000FFFF00280240EE0EEEEE00680140D6
:10196800090028000B0035001B0115021D01350276
:1019780084680140C303C00300E100E0934B944A2C
:10198800986B944940F00100DFF89CC22DE9F041C2
:10199800986388B0986B43F6F0758F4E4FF0000847
:1019A80000F0010041F6541E112707900798186BA4
:1019B80040F004001863186B00F0040006900698C5
:1019C800106820F0C0001060106840F080001060BF
:1019D800906820F0C0009060906840F080009060AF
:1019E800106A20F470401062106A40F4404010629F
:1019F8001A6B42F008021A631A6B02F00802059289
:101A0800059A0C6804EA0C040C600C6834430C60FA
:101A18008868724C00EA0C00DFF810C288608A6897
:101A28006F48324306F128668A6006F500460A6A5E
:101A380022F0FF020A620A6A42F0CC020A624A6A8B
:101A48001440684A4C624C6A2043674C4862196BE0
:101A580041F010011963196B01F010010491049908
:101A680010682840106010683043106091685F4823
:101A78002940916095685E4935435E4E9560156AC8
:101A88002C401462146A20431062506AC2F8248001
:101A9800546A594844F0CC3454621A6B574C42F09B
:101AA80020021A631A6B02F020020392039A0A6852
:101AB80032400A600A6842EA0C020A608D68504A9D
:101AC80035408D608E684F4D46EA0C06DFF860C1E0
:101AD8008E600E6A06F07F460E620E6A3043086218
:101AE800486AC0F30B004862486A044346484C629F
:101AF800196B464C41F040011963196B01F0400124
:101B080002910299116829401160116841EA0C019B
:101B1800116096683E492E40966095683D4E45EAAC
:101B28000C059560156A05F0FF251562156A45F0E4
:101B3800CC151562556A2840374D5062506A0443E7
:101B48003648546204461A6B42F080021A631B6BD3
:101B5800334A03F080030193019B0B6823F44C6321
:101B68000B600B6843F408630B608B6823F44C63C9
:101B78008B608B6843F408638B600B6A1E400E62AF
:101B88000B6A1D430D62C0F800E082600761A3691B
:101B98009806FCD40120FFF705F812231F4A236199
:101BA80093699906FCD4F3231C4913618B699A063F
:101BB800FCD41C4B194A0B6193699B06FCD440F674
:101BC8000643536108B0BDE8F08100BF0038024009
:101BD80000080240000C02400A002AA000F0FF00A2
:101BE800CC0C00CC0010024000FFFF0FCC0000C05E
:101BF8000014024000F03F00CCCCCC0000C0CCCC9C
:101C080000180240F0F0FC3FF0FFFF0F0C0000C08E
:101C1800001C0240FF0F0FFF00C0C000400100A0E1
:101C28006163110114400400F0FFC00FAA0A80AAE2
:101C38000A0A0280204B21491A6B42F4000270B450
:101C48001A6383B01B6B03F400030193019B0B68B9
:101C580013F00103FBD11A4A02201A4D1A4C0D60E9
:101C68008B63CC6348634A648B68144A43F03F0330
:101C78008B600B6843F001030B60136813F00103DA
:101C8800FBD1104E0224114D20200D49166093639C
:101C9800D5635463516493680D4943F03F039360DF
:101CA800136843F00103136081F85A034FF080630F
:101CB8008B6003B070BC70470038024000B002402F
:101CC8001001E00100010300000020C0000040C036
:101CD80000E100E0744B82B074488022196B92FADC
:101CE800A2F241F0800119631B6B03F0800301939A
:101CF800019B0368002A00F0D480B2FA82F2032123
:101D0800520001FA02F2D2431A40802393FAA3F355
:101D18002BB1B3FA83F302215B0001FA03F31343F7
:101D280062494FF480720B6092FAA2F20B68002AA3
:101D380000F0B480B2FA82F20321520001FA02F2F2
:101D4800D2431A404FF4807393FAA3F32BB1B3FA3A
:101D580083F302215B0001FA03F313435349802202
:101D68000B6092FAA2F28B68002A00F09480B2FA13
:101D780082F20321520001FA02F2D2431A40802370
:101D880093FAA3F32BB1B3FA83F302215B0001FAB0
:101D980003F3134345494FF480728B6092FAA2F221
:101DA8008B68002A74D0B2FA82F20321520001FA39
:101DB80002F2D2431A404FF4807393FAA3F32BB183
:101DC800B3FA83F302215B0001FA03F337491343A3
:101DD80080228B604B6892FAA2F243F4C0734B6086
:101DE8000B6A002A51D0B2FA82F20F21920001FA4E
:101DF80002F2D2431A40802393FAA3F32BB1B3FA29
:101E080083F304219B0001FA03F3134327490122BA
:101E18000B6292FAA2F24B6A002A33D0B2FA82F22B
:101E28000F21920001FA02F2D2431A40012393FAD9
:101E3800A3F32BB1B3FA83F304219B0001FA03F354
:101E480013431A49184A4B62116C194B41F40001AB
:101E580018481164116C01F4000100910099116A8D
:101E680041F400011162116A21F400011162186144
:101E78005A6842F000725A601A6842F001021A6009
:101E880002B070474FF0FF32CFE74FF0FF32B1E7B3
:101E98004FF0FF328EE74FF0FF326FE74FF0FF321F
:101EA8004FE74FF0FF322FE700380240001C024096
:101EB800005C004032279140374B19681A46F0B54C
:101EC80041F4803183B0196013689C03FCD55168D4
:101ED8003248334B0840304903435360136843F09A
:101EE800807313600B689801FCD5086C2D4B40F08B
:101EF80080501A460864096C01F0805101910199DB
:101F0800196841F4803119605368D903FCD5136806
:101F1800244943F4003313604B689B03FCD52249E2
:101F28000B680A4623F00F0343F006030B6013689F
:101F380003F00F03062BFAD1174B99681A4621F0C4
:101F4800F0019960996821F0030141F0020199605C
:101F5800936803F00C03082BFAD193684FF0F00E46
:101F68001249002623F4E053DFF850C0104F07252C
:101F780043F4A0530F48104C9360936823F46043D4
:101F880043F400439360C1F804C087F823E08E60EF
:101F98000D60046003B0F0BD003802400080BCFF53
:101FA8001964400000700040003C024010E000E06E
:101FB80000ED00E00400002000C2EB0B3F0D030021
:101FC800234A536913F40033F0B511D1BFF34F8F8F
:101FD800BFF36F8FC2F85032BFF34F8FBFF36F8FCD
:101FE800536943F400335361BFF34F8FBFF36F8FCF
:101FF800174C636913F4803328D1C4F88430BFF3D5
:102008004F8FD4F8803043F6E07EC3F3C906C3F39C
:102018004E33B7075D0105EA0E003946324640EAFD
:102028000103013A01F14041C4F86032531CF6D172
:10203800203D15F1200FEED1BFF34F8F636943F4B4
:1020480080336361BFF34F8FBFF36F8FF0BD00BF65
:1020580000ED00E02DE9F04F2DED028B83B0DFF8A5
:102068006C83FFF7ADFF0123DFF864931C460093F0
:10207800FFF722FFB94DFFF781FCA346FFF716FBD8
:102088009FEDB78AFFF7D6FDB64FFFF735F9DFF8B2
:1020980044A3FFF725F8FFF7BDF9FFF71BFEFEF78E
:1020A8009DFD4FF488734FF4F072AF49AF4800F0CC
:1020B800DBFDAF49204601F089FD204601F094FD83
:1020C800AC490020AC4C01F081FD002001F08CFDF2
:1020D800002000F003FE02F06DFC00F01BFAA74B95
:1020E8001B78002B52D17E6AC6F34E06B3450FD03B
:1020F8003B68D8F80020D90640F12C81131C18BF82
:1021080001235B421344D8B2C8F80030FFF736F811
:102118000020FEF785FDDAF8003013F00103FAD14C
:10212800D9F800001A4640234FF4FC6B410040F2F6
:10213800FF7CB3FBF0F000F13F0EBF30AB5CB3FBAC
:10214800F1F3AEEB0303C3EB03139B01A3F17F533E
:1021580023F812B0A35CB3FBF1F3C31AC3EB031368
:102168009B01A3F17F5323F812C00132B2F5F07F2F
:10217800E4D102F0B7F8FEF7FDFDDAF80030DB072E
:10218800FBD47E4BB3461B78002BACD000F038FD57
:10219800002800F021817A497A4800F03DFD794B0A
:1021A8000122B3F90010764BB3F9000001F02EFDBF
:1021B800009B012B00F01A81022B00F05D81032B9C
:1021C80004D1714B1B78002B40F0768101236F48B6
:1021D800009301F073FD6E4B5E78002E00F01081C5
:1021E800012E00F057816B4B06EB86016A481944B3
:1021F80004F09FFD694B31461B880380644B1878B7
:1022080000F080FBFCEEC07A6549CDED017A9DF8BF
:10221800040003F035F95E4B40F2FF720321614878
:102228001B78012B08BF4FF4FC6202F049FA5A4AA6
:1022380003215C4802F068FA5B4B5E78002E00F0E0
:10224800EF80544B06EB86015848194404F071FDA1
:10225800524B31461B880380534B187800F052FBD1
:10226800FCEEC07A5249CDED017A9DF8040003F0E6
:1022780007F94D4B40F2FF7204211B784948012BA6
:1022880008BF4FF4FC6202F01BFA484A0421454893
:1022980002F03AFA474B5E78002E00F0D1803D4BB1
:1022A80006EB86014448194404F043FD3B4B314694
:1022B8001B8803803F4B187800F024FBFCEEC07AA3
:1022C8003E49CDED017A9DF8040003F0D9F8394B69
:1022D80040F2FF7205211B783248012B08BF4FF4EA
:1022E800FC6202F0EDF9344A05212E4802F00CFA9E
:1022F800334B5E78002E00F0B380264B06EB860148
:102308003048194404F015FD244B31461B880380DE
:102318002B4B187800F0F6FAFCEEC07A2A49CDED7E
:10232800017A9DF8040003F0ABF8254B40F2FF72E8
:1023380006211B781B48012B08BF4FF4FC6202F0F2
:10234800BFF9204A0621174802F0DEF900230B4A9C
:102358001370C8E6931F18BF0123D3E6E4000020DA
:1023680000803B4700040140D10B000850130020B7
:102378006D0C0008E10C0008C4020020C000002019
:10238800660D0020680D0020D3000020C812002030
:10239800D40400204C840008BC04002044840008B5
:1023A800C104002094120020600D0020C804002001
:1023B800CD040020D8040020A4040020A904002093
:1023C800640D0020B0040020B50400209000002017
:1023D8000000002000B002404FF0FF3102460846DE
:1023E80001F014FC009B012B7FF4E6AE0223384871
:1023F800009301F063FC374B5E78002E7FF4F0AE5B
:1024080047F212420321324802F05AF9324A0321B4
:102418002F4802F079F9314B5E78002E7FF411AF26
:1024280047F2124204212A4802F04AF92A4A0421B2
:10243800274802F069F92A4B5E78002E7FF42FAF07
:1024480047F212420521224802F03AF9224A0521B0
:102458001F4802F059F9234B5E78002E7FF44DAFE8
:1024680047F2124206211A4802F02AF91A4A0621AE
:10247800174802F049F969E71B4B1B7813BB1B4B44
:102488001B78002B3FF4A2AE04231948009301F0F7
:1024980015FCA0E6174B314617481A889B7802802E
:1024A8000C4A1078144A937000F02CFA134820EE66
:1024B800080A03F06DF8AEE605231148009301F011
:1024C800FDFB88E603230F48009301F0F7FB82E643
:1024D80094120020D404002048840008600D0020D5
:1024E800D8040020640D0020D1000020D200002074
:1024F8000016002040840008BC040020BE04002010
:10250800F00E0020CC150020014B1868704700BF62
:102518008C00002008B54FF40071054803F02EFA2E
:102528004FF480610348BDE8084003F03FB900BF9D
:10253800A4000020940000202DE9F04F2DED088B19
:10254800ADF5945D04464FF4F072014681B000AFDA
:1025580007F11C0004F0DAFB631E07F5FE7007F6AE
:102568007C1213F8011F07EE901AF8EE677AE0EC78
:10257800017A9042F5D18022002104F0D2FB002399
:1025880007F6FC1207F5FE71D54803F0E5FA9FED52
:10259800D5AA07F6FC104FF4807207F5FE71D24CED
:1025A80003F08AFF07F1180307F114024FF4807152
:1025B80007F5FE7087ED7FAA03F08EF8D7ED057A50
:1025C800F4EE4A7AF1EE10FA48D007F594531C5904
:1025D800FF2C00F04981002C4AD007F5FE73621EDB
:1025E800651C03EB820103EB850391ED007AD3EDC3
:1025F800007AB4EEE77AF1EE10FA00F3408107EEC4
:10260800904A9FEDBA8AF8EE679A69EE889A19EEB1
:10261800900AFDF761FFA8A3D3E90023C7E90001E9
:10262800FDF7AEFFFEF76EFA07EE905A0AEE100AB3
:10263800F8EE677AB6EE009AD7EE889A19EE900A05
:10264800FDF74AFF9EA3D3E90023FDF799FFFEF7A4
:1026580059FA07EE900A27EE899A11E0B0EE4A0A75
:1026680007F594570437BD46BDEC088BBDE8F08FDD
:102678009FED957B9FED9E9ADFED9C9A87ED007B01
:102688009C4B07F11B08C7F80CD000249D44EA4670
:102698009D445646E946554607EE904A0835B8EE39
:1026A800E78A28EE4A8AB0EE480A03F0BBFFB0EE8C
:1026B80040BAB0EE480A03F06FFF04FB04F3B0EE33
:1026C800408A013408EE903AF8EEE88A68EE898A82
:1026D800B0EE680A03F0A6FFF0EE40AAB0EE680A72
:1026E80003F05AFF18F8013F28EE2A7AB4F5F07F74
:1026F80020EE488A07EE903AABEE007AABEE2A8AD3
:10270800F8EE677A27EE277A68EE277A05ED017AE0
:1027180045ED027AC0D10AF570630AF5005100222E
:102728001A60083343F8042C9942F9D14D464C46B7
:102738004FF0000B40F221280123002251466E4839
:1027480003F052FD0BFB0BF30BF1010B083408EE01
:10275800103AB8EEC88A28EE498AB0EE480A03F063
:1027680061FF04ED020AB0EE480A03F015FFC34505
:1027780004ED010AE6D141F2081309F6F86209F5F9
:1027880000504B4411680833083A43F8081CD168D4
:1027980043F8041C9842F5D10123002249465648C3
:1027A80003F022FD4FF48063524649465046002408
:1027B80003F0B8FD012351464F481A4640F221283C
:1027C80003F012FD04FB04F301340836083508EE63
:1027D800103AB8EEC88A28EE098AB0EE480A03F023
:1027E80021FFF0EE408AB0EE480A03F0D5FE16ED60
:1027F800017A56ED026A444567EE407A20EE260AD1
:10280800E8EEA67AA8EE870A45ED027A05ED010AF8
:10281800D8D148462246394903F04EFE07F1140242
:1028280007F118032146D7F80CD0344802F054FFBA
:102838002D4D07F594535B5907EE903AF8EE677AF9
:1028480067EEA97A17EE900AFDF746FE20A3D3E9B2
:102858000023FDF795FED7E90023FDF7DFFCFEF71F
:1028680051F900EE100AFBE69FED1B7B9FED209AC5
:10287800DFED1E9A9FED22AA87ED007B00E707EEA9
:10288800902A9FED1A8AF8EE679A69EE889A19EEEF
:10289800900AFDF721FE08A3D3E90023C7E9000148
:1028A800FDF76EFEFEF72EF907EE904A0AEE100AC3
:1028B800BEE600BFAFF30080182D4454FB21194039
:1028C800F95E90B5669C87BF00000000000000001C
:1028D80000E1017CF80F5E3F0000000000C0DF3F10
:1028E800A40000200000000098EDFFFF0000003B5E
:1028F80036E33CB7F8DFFFFF94000020DC0400203B
:10290800BB7D4740494A4A4B012814BF1046184628
:1029180001296ED0022933D0032910B483B032D0F4
:1029280004290BD0052958D0062964D0072918D0C6
:102938009FED400A03B05DF8044B7047411E00F25A
:10294800DF12002311F8010F834238BF03468A4281
:10295800F8D107EE903AB8EE670A03B05DF8044B79
:102968007047411E00F2DF12002311F8010F8A425E
:102978000344FAD1304AA2FB0323C3F30723E8E751
:102988009FED2C0A7047421E00F2DF139FED297A53
:1029980012F8011F07EE901A9342F8EE676AF8EEF4
:1029A800E77AA6EEA77AF3D1DFED247A27EE277A25
:1029B800B5EEC07AF1EE10FABADBF1EEC77AFCEEAA
:1029C800E77ACDED017A9DF8043000EE103AB8EEC2
:1029D800400A03B05DF8044B7047411E00F2DF1255
:1029E800FF2311F8010F834228BF03468A42F8D11A
:1029F800AFE7FFF7A1BD441E00F2DF120023214616
:102A080011F8010F834238BF03468A42F8D1FF22EA
:102A180014F8010F824228BF0246A142F8D19B1A3E
:102A2800DBB207EE903AB8EE670A96E7C4020020D8
:102A3800E400002000000000898888888988083B15
:102A4800DFF834D0002103E00C4B5B5843500431CD
:102A58000B480C4B42189A42F6D30B4A02E000236B
:102A680042F8043B094B9A42F9D300F0A1F804F06C
:102A78000FF9FFF7EFFA7047000005207C7702088E
:102A8800000000206C0000206C000020B817002017
:102A9800FEE70000704700BFFEE700BFFEE700BF8B
:102AA800FEE700BFFEE700BF704700BF704700BFEA
:102AB800704700BF024A136801331360704700BFB4
:102AC8008C00002008B5FFF71FFD084B4021084A7D
:102AD80059611368C31AB3F5FA7F05D905494B69DB
:102AE80083F002034B61106008BD00BF003C014049
:102AF800BC00002000200240044B4FF40061044A4F
:102B08005961536983F0020353617047003C0140E7
:102B180000200240044A01200449936843F03D0321
:102B280093600870704700BF00640240880000206E
:102B3800044A01200449936843F47463936008705D
:102B4800704700BF0064024089000020064B012046
:102B580006495A6B22F006025A63DA6B42F00F02FA
:102B6800DA630870704700BF006801408B000020DE
:102B7800064B012006491A6822F480721A609A6886
:102B880042F03F029A600870704700BF00B00240F0
:102B98008A000020044B0121044A1970136923F0AC
:102BA80001031361704700BFC00000200008004007
:102BB8000F4A104BD2F888000F4940F4700070B4E7
:102BC800C2F88800002418684FF000650B4E40F0EA
:102BD800010018609C601868014019605E601968FF
:102BE80021F480211960DC60956070BC704700BFDB
:102BF80000ED00E000380240FFFFF6FE1030002430
:102C080008B5022270210348FEF7E4F8052888BFBA
:102C1800002008BD005C0040F8B5124E07460D467E
:102C2800032270213046FEF7D5F8044604227021AD
:102C380024023046FEF7CEF8052204F470647021B1
:102C4800044330463C80FEF7C5F804460622304669
:102C580024027021FEF7BEF804F4706404432C804B
:102C6800F8BD00BF005C0040F0B50446551F581F72
:102C780004262DB245F65D4E4FF6FF772160DFF84A
:102C880058C001B2A2800122E3800023A584104627
:102C9800A583E184E183A4F846E0A4F84270CCF867
:102CA80000402684668484F8402084F84120E3624A
:102CB800A3866386E3862387E363A4F8443023610D
:102CC8006361A361E36484F85030636584F8583025
:102CD800E36584F86030F0BDC40000202DE9F047BA
:102CE8001F4E82B080463268B2F80490D58809F148
:102CF800FF39013D0FFA89F92DB2B9F1000F2CDB2C
:102D08004F464FF00009002D24DBAA46002592F813
:102D180058309B0711D44C4600E0326820460134F5
:102D28001368294624B242469847A742F5DA013586
:102D38002DB2AA450BDB3268EDE7CDF8008053468B
:102D4800546D29463A464846A0470028F3D102B0B8
:102D5800BDE8F0874FF0000AD9E70027D3E700BFA6
:102D6800C40000202DE9F04FDFF824A187B0054604
:102D78000E46DAF8007090461C46BDF8409097F869
:102D880050E01EF0020F7AD1A8EB0508A4EB060E5E
:102D98004FF6FF7C3C680FFA88F84A460FFA8EFE19
:102DA800314688EAE873B8F1000F8EEAEE7B2846D0
:102DB800A3EBE873ABEBEE7B1FB20593D4BF63467E
:102DC8000123BEF1000F0FFA8BF80393D4BF6346BB
:102DD80001230493A047474529DB002F24DD1FFA70
:102DE8008BF34FF000087C109B46039B5C440498CF
:102DF80008F101081D44A3B2059900EB060E1CB2A8
:102E0800DAF800C02DB24A46A742A3EB01032846D0
:102E180002DC1CB20FFA8EF6DCF800303146984717
:102E28000FFA88F39F42E0DC07B0BDE8F08FB8F1F5
:102E3800000FF9DDBDF8143000274FEA6804059348
:102E4800049B013703994A461E44059B01EB050E76
:102E5800DAF800001C4436B2A3B231461CB2A3EB28
:102E68000B03A04502DC1CB20FFA8EF50368284656
:102E780098473BB29845E3DC07B0BDE8F08FCDF842
:102E88000090FF6CB8470028CED0DAF800707BE7D6
:102E9800C40000202DE9F04F8DB0A0F1B004BDF8BA
:102EA8005850A8464C2C00F2B980DFE804F0AEB7C1
:102EB800B7B7B7B1B7B7B7B7B7B7B7B7B7B7B7B7A0
:102EC800B7B7B4B7B7B7B7B7B7B7B7B7B7B7B7B78D
:102ED800B7B7B7B727B7B7B7B7B79CB7B7B7B7B725
:102EE800B7B7A5B7B7B7B7B7B7B7B7B7B7B7B7B77C
:102EF800B7B7B7B7A8B7B7B7B7B7AB0099242646DF
:102F080017984789A74274D88089A04271D3179827
:102F1800B0F90640A0B2039000286AD0C50840075F
:102F2800179818BF0135006920B1A6EB070E10F8F5
:102F38000E000390DFF87CA39B46084693B2DAF8AC
:102F48000010049391F8603013F0020340F0E7801A
:102F5800179A1279002A74D11799F31BB1F908103E
:102F680001FB03F3002905FB03F942DD83B2059356
:102F7800002D3ED0013DCDF80090C1460292ADB281
:102F88006B1C0693049B029A039D9E18069A009B4D
:102F980036B2059F1A4401920099179A01311268B6
:102FA800009112F80380002D3CD03C460CE04FEA1B
:102FB80058081B6801349847013DA4B2ADB2E31B21
:102FC8009BB2072B2DD865B318F0010F20B25A46D3
:102FD8003146DAF80030EAD14A46314620B21B6859
:102FE8004FEA5808E6E717989A2447892646A742E1
:102FF8008AD90DB0BDE8F08F8424264680E7942452
:1030080026467DE7812426467AE7F824264677E790
:10301800E624264674E78E24264671E784B20646DF
:103028006EE72746009A019913468A42B4D1029B5B
:10303800179A0133B2F9082099B202939142A1DBA1
:10304800D7E7012AD5D11799F21BB1F9081001FB6E
:1030580002F2002904FB02F20592CADD82B20B9249
:10306800039A002AC5D006932BF0FF03013A5FFAB2
:103078008BFB099328F0FF0392B2DDF85C900A936A
:103088005FFA88F3CDF808B00193531C0793079AA9
:1030980005991046BDF81830BDF824B00C4600EB71
:1030A800010804980893C5180B9BBDF828702DB229
:1030B8005E1A0095D9F800203019019D125D01347F
:1030C800DAF8003000B2C2F5807C00991B6807FB73
:1030D8000CFE05FB0CFC029D0BFB02EE05FB02C27D
:1030E8004FEA2E2EC2F307220EF47F4E4EEA02025A
:1030F8009847A045DED106990398B9F90620013111
:10310800089B121A0798013306910244B9F908106E
:1031180005989BB210448B420590B8DB69E7179C71
:10312800471E049BB4F808E0013BCC6D1146039A96
:1031380073443A441BB212B2A047179B04461B794A
:10314800002B43D1179A17995289B1F90810B21A6E
:10315800002901FB02F205FB02F27FF74AAF002DBE
:103168003FF447AF013D0193ADB26B1C4546DDF816
:103178005C800293029B039F13440093D8F80030AD
:1031880002F1010913F802A0002F00F08B8000263D
:103198001AF0010F284678D0013F013658464FEA09
:1031A8005A0ABFB2A047B6B20FB1072EF0D94A46A5
:1031B800009B9A42E2D1019B03F10109B8F908305A
:1031C8001FFA89F199420191D4DB12E7012B7FF4B0
:1031D80010AF179B179AB3F80A90B3F90830A6EB0B
:1031E8000909B2F90620002B03FB09F902FB09F9CA
:1031F8007FF7FFAE039B002B3FF4FBAE5A1E002364
:103208005FFA88F5DDF85CA001932BF0FF0392B21A
:10321800CDF80090099328F0FF035FFA8BFB0A931F
:10322800531C02934B46029ABDF824809F18BDF8A0
:103238002860DAF8002003F10109D35CC3F5807235
:1032480006FB02F005FB02F208FB03000BFB03235D
:103258000012C3F3072300F47F401843A047B94581
:103268004B46E6D101990398BAF906300131BAF90B
:1032780008201B1A029889B20344009891420191D0
:10328800184403460090CEDBB3E60136A047013F61
:103298004FEA5A0AB6B2BFB2072E88D8002F7FF479
:1032A80077AF84E7009B994501D0023281E71A463F
:1032B80081E700BFC40000202DE9F04F06464068B2
:1032C80087B00368D6F800B0002B00F0AE80BBF1E1
:1032D800000F00F0AA80B6F90A80B6F90EE0B0F93E
:1032E8000840AEEB0803A342C0F29F809BF8005051
:1032F800002D00F0A1802A46594601230A2A08BF5A
:10330800013311F8012F9BB2002AF7D1327D1FFA41
:1033180088F1B6F918C012F030070DD00EF1010788
:1033280014FB03FE013B7F1A13FB0CF3A7EB0E07FC
:10333800FB1A1FB2002F78DBD306B389B6F808A0B2
:1033480048BF7F100133B6F816800F44A3EB0A0379
:1033580004EB0C01B0F806909BB204913FB202F066
:10336800010102F00202029303910592DE46002158
:103378001EF8013B9AB2BBB10A2B15D0B0F80AC0AF
:103388006245F5D38489A3EB0C039442F0D3026918
:10339800002A4FD0D35C414413FA81F11EF8013B57
:1033A80089B29AB2002BE7D1029BA1EB08041C1B3F
:1033B800A4B223B2002B38DB039A002A38D1059A2D
:1033C8000AB1C3F34F0454440A2D24B236D00BF18A
:1033D800010B5DB929E043894444ED1A4B5D1BF8A4
:1033E800015B1C440A2D24B218D0F5B1B6F812E0DE
:1033F8003A46338A214601902846CDF800E0FFF787
:1034080049FD70685A4601690029E4D14B46444495
:103418001BF8015B1C440A2D24B2E6D1049B02F17F
:10342800010B55781F443FB2A0E707B0BDE8F08F05
:103438000024C8E74B46AEE7012367E75A46EDE7A5
:103448000B7813F0200F0ED02DE9F04F0646180721
:103458008FB00D4608D5590636D423F020032B70BB
:103468000FB0BDE8F08F7047B1F90870B1F90C9052
:10347800B6F80C804F45B1F90AA0B1F90E6002DC2C
:103488004B46B9461F46B24502DC334656469A4675
:103498006E4C226892F858309B0700F1B880B94505
:1034A80010DCCB4658460BF1010B236842460FFA55
:1034B8008BFB31461B6898475F45F3DA013636B215
:1034C800B245EEDA2B78C8E7A6B1337A9B0711D557
:1034D800B17DB6F90E40CF07B6F9102003D5E31C2D
:1034E80003321CB212B2880704D596F82C30013387
:1034F8001A4412B292B2E98AA3B2A88A11446C8A19
:103508002F8A184409B222443B44B6F9144000B249
:10351800E9812B818C42EB69A8816A8102939FDD46
:10352800B6F9123083429BDD02236A7E297E07A802
:103538008DF81F308DF81C308DF81E20336B0895E0
:103548008DF81D109847029AB5F90880B5F90CA0B6
:10355800D2F80A30B2F80C90D045B5F90A200B938E
:103568000392B5F90E7002DC5346C2469846BA4239
:1035780002DC3B4617460393344C226892F85830D5
:10358800990754D4C24512DCDDF80CB003955546B2
:103598002846013523684A462DB239461B689847A4
:1035A8004545F5DD01373FB25F45F0DD039D029FDC
:1035B8000023E96807A8AA680A910992BA7B8DF8DE
:1035C80030207A683968089297F90F4097F91020E7
:1035D800032764F30F030791022462F31F43CDF816
:1035E8003230FFF769FE2B7805A8297E23F04003C7
:1035F8006A7E06952B708DF81770336B8DF8144022
:103608008DF815108DF8162098472B7825E7CDF8FA
:1036180000805346D2F854B031463A464846D84717
:1036280000283FF44FAFB245BFF639AF4AE7CDF8AF
:1036380000903946D2F854B05046039B4246D847CA
:103648000028B4D0039BBB429CDAB0E7C40000203A
:10365800304AF0B412680378B2F90A40B2F90C5053
:10366800167A002B3DD05A1E4368002E18BFB4F1BD
:10367800FF3F90B214BF01260026013003EB401033
:1036880003E05970203398422BD01A78597802F009
:103698004B020A2AF5D136B34A0603D401F0670172
:1036A80041F00501B3F9087001F0DF02A74211DC0F
:1036B800B3F90C70A7420DDBB3F90A70AF4209DC0D
:1036C800B3F90E70AF4205DB4F0620D401F0DB01E1
:1036D80041F0220242F04001203303F81F1C9842B7
:1036E800D3D1F0BC70474F06CBD58A0608D441F039
:1036F80010014A0648BF41F0010101F0B901C0E7D5
:103708008F0748BF41F0800141F00801F1E742F01E
:103718002002DFE7C40000202DE9F04F994687B06A
:1037280093B21746109C1FFA89FE1D468BB2228859
:10373800884605F1FF3A1E46009282B20FFA8AFACD
:103748000B4605925246CDF808E003950546FFF76B
:1037580009FB02990496013601F1FF3B638836B2F2
:103768002A460FFA8BFB0093314628465B46FFF743
:10377800F9FAA2884B464946009228463A46FFF78E
:10378800F1FAE28841465B46009238463A46FFF72E
:10379800E9FA0598039A3346471C3146A2F1020814
:1037A80022893FB20FFA88F8009238464246FFF75E
:1037B800D9FA049B02983A469D1C6389A0F1020934
:1037C80038462DB200930FFA89F929464B46FFF780
:1037D800C9FAB4F80CE038465B46CDF800E0594623
:1037E8005246FFF7BFFAE78931464B4652465046E4
:1037F8000097FFF7B7FA059E039A2B460236278AE9
:10380800033A294636B2009712B23046FFF7AAFAB1
:103818000298049B3246C71EB4F812E0D91C304601
:103828003FB2CDF800E009B23B46FFF79BFAB4F887
:1038380014E030464B4649464246CDF800E0FFF7D3
:1038480091FAE28A3B46294610924046424607B022
:10385800BDE8F04FFFF786BA2DE9F04F4A7891B0EE
:10386800CF69D6070B780FD5140663D496073C7832
:1038780055D543F02003042644F001043C700B7036
:103888008E7622F001024A709C063BD50646180740
:103898000C463AD5590603D43B789A0740F1B380D1
:1038A800B6B1337A9B0713D5B27DB6F90EE0D007CF
:1038B800B6F9105005D50EF1030303350FFA83FE50
:1038C8002DB2910704D596F82C3001331D442DB242
:1038D800ADB2E28A1FFA8EF3608A2A44A18A0544AF
:1038E800B4F810E0B6F91400194412B2734409B2DE
:1038F800658190422381A181E28103DBB6F9123010
:103908008B4220DA11B0BDE8F08F7A78D00640F10A
:10391800A28023F02003237011B0BDE8F08FE607E2
:10392800AFD524F0010443F0200305263C700B704A
:103938008E76A6E7012443F0200396078C760B7059
:103948003C78ECD595E70223217E627E09A88DF8A4
:1039580027308DF824308DF825108DF82620336B0C
:103968000A9498477B78D7F8022013F0010FB7F82C
:1039780004A079880D920CBF0122032202923A78A2
:10398800D20707D59D0740F10281ADF834A08A46D9
:10399800ADF83610D90640F1B980029B4FF0021EEF
:1039A800258909A8618905EB030CA2891D461944DC
:1039B800E389521BADF82E105B1BADF82CC0ADF897
:1039C80030200225ADF832303B7C8DF83830FA686B
:1039D8007B690A920993CDF83AE0FFF76DFC2378EA
:1039E8004FF0030E217E07A823F04003627E08945F
:1039F80023708DF81FE0336B8DF81C508DF81D1067
:103A08008DF81E2098477B781A0722D413F0010FEF
:103A18003B7850D013F0010F694B6A4D18BF1D4613
:103A2800B4F90800B4F90E30B4F90A10B4F90C204E
:103A38000095FFF771FE23786BE7CDF800805346B9
:103A4800D2F854B031463A464846D84708B15645A8
:103A580015DD23785DE7B1F90870B1F90C90B6F877
:103A68000C804F45B1F90AA0B1F90E601FDDB245CF
:103A780019DD554D2A6892F858309B07DDD4B945B1
:103A8800E7DCCB4658460BF1010B2B6842460FFA90
:103A98008BFB31461B6898475F45F3DA013636B22F
:103AA800B245EEDAD5E7334656469A46E1E74B4645
:103AB800B9461F46DBE7DB07B4F90890B4F90A50AA
:103AC80048BF3F89484658BFFF882B46B4F90C8049
:103AD8002946B4F90E6042460097FFF743F933468A
:103AE8004246314648460097FFF73CF933464A4676
:103AF800484629460097FFF735F933460097294687
:103B080042464046FFF72EF9237802E70298B4F8B8
:103B18000890A28981446389121AB4F80E800FFABA
:103B280089F9034412B2A8EB00081BB2914504922C
:103B380003930FFA88F802DCCDF810909146039AA7
:103B4800424502DC4346904603931F4D2A6892F88B
:103B58005830990724D4049A4A453FF71EAF059474
:103B68009346039C04975F46384601372B685246B4
:103B78003FB241461B6898474F45F5DD08F10108FB
:103B88000FFA88F8A045EEDD049F059C05E7580765
:103B98007FF500AFD7F80620B7F808A00D92F9E630
:103BA800CDF800A04146D2F854B04A46039B049889
:103BB800D84700283FF4F1AE039B4345CBDAECE647
:103BC800A0980008B8980008C4000020022807D868
:103BD800044B03221B6803EBC000C16480F850202B
:103BE800704700BFC400002002280BD8064B1B6892
:103BF80003EBC00090F85030DA0703D543F0020316
:103C080080F85030704700BFC4000020024B1B688A
:103C1800588199811A727047C4000020002A18BF81
:103C280000293FD0F0B5B0FA80F67609002E36D1DB
:103C3800551E0C460327EDB2013501EB45152770DB
:103C4800203444F8046CAC42F9D1184D02240270B7
:103C58004FF0110E2A68164D047202F12C0CC0F8B0
:103C68000E60C0F80A509588D288013D4160013A3B
:103C78000F2180F820408282002280F821400363CF
:103C88000C4C0D4BC0F81CC045828775866180F8C6
:103C980022E04462836280F82C101046F0BD4FF099
:103CA800FF32FAE74FF0FF3210467047C400002099
:103CB80000007DEFFFFF1F00FFFF1084024650B198
:103CC800037A0020054923F04003096843F02803DC
:103CD80013720A6170474FF0FF307047C40000202C
:103CE8002DE9F04FA54D89B08C462968BDF948B03B
:103CF8008E88B1F80680002860D0047AA7075DD5C1
:103D0800BCF1000F5ADB1FFA82F95FEAD93755D1A7
:103D1800013E36B29E4251DB08F1FF380FFA88F8AF
:103D2800D845ACBF00270127002F47D1A3EB0C0EC5
:103D38000FFA8EFEBEF1090F40DD1FFA8BFAAAEBCF
:103D4800090E0FFA8EFEBEF1090F37DDBE4663F38A
:103D58000F0714F008046CF30F0E6BF31F4762F3A0
:103D68001F4EC0F81270C0F80EE002D04B6998429E
:103D780003D0002009B0BDE8F08F03901ABB0AF108
:103D880001073FB2B84580F2B680039BB3F90E3005
:103D9800002B78D1039BB3F8129009F101090FFAAF
:103DA80089F94E4542DA039A0020137A23F040033A
:103DB80043F02003137209B0BDE8F08F4FF0FF30D5
:103DC80009B0BDE8F08F09F1FF39002E91F858309D
:103DD8000FFA89F2ACBFB2464FF0000AB1F846902C
:103DE8000492B4BF324600229C07059200F1BA80C3
:103DF8004FF0000B0696CDF81C805F46049EDDF858
:103E08001480444600E02968204601340B684A467D
:103E180024B239469847A245F5DA0BF1010B0FFA9F
:103E28008BF7BE42C0F294802968EAE7B3F910A084
:103E3800B3F914702A68BA45B2F8468002DC3B46EA
:103E480057469A4692F858309B0711D44C4600E0E2
:103E58002A68204601341368394624B242469847F6
:103E6800A642F5DA01373FB2BA459CDB2A68EDE78E
:103E7800CDF800805346546D394632464846A0472F
:103E88000028F1D18FE7013B03982A680FFA83FADB
:103E9800B0F910B0B2F84680BAF1000FB0F914705A
:103EA8005DDBD1464FF0000ABB4502DC3B465F466E
:103EB8009B4692F85830990712D4544600E02A6875
:103EC800204601341368394624B242469847A14532
:103ED800F5DA01373FB2BB45FFF65CAF2A68ECE77D
:103EE800CDF800805B46546D39464A465046A04797
:103EF8000028F0D14EE72A68002E92F85830ADBF5E
:103F0800B2464FF0000AB3464FF0000B9807B2F8DC
:103F1800469012D45C4600E02A68204601341368B3
:103F2800394624B24A469847A245F5DA01373FB2E6
:103F3800B845FFF62AAF2A68ECE7CDF8009043466B
:103F4800546D394652465846A0470028F3D11CE71D
:103F5800069EDDF81C80039BB3F814A00FE74FF012
:103F68000009A1E71046CDF80090049B52464C6D1D
:103F78000021A0470028EED0296839E7C4000020B6
:103F8800034640B1027A900705D542F02002998194
:103F980000201A7270474FF0FF3070470346B8B1DF
:103FA800007A820714D59A7D11F0010F14BF42F0F0
:103FB800010202F0FE02890740F020014FF00000E4
:103FC8004CBF42F0020202F0FD0219729A75704766
:103FD8004FF0FF30704700BF002800F0A880037A38
:103FE8009B0740F1A480B0F91010B0F90E202DE91C
:103FF800F04F8FB0837D0C460291B0F912100392F6
:104008000D460491D90772D44A4F3A6853699842C9
:104018007DD0458D038D90F82C90BDF8081009F1DE
:10402800FF39039E049C89440591A642ADF82C30C3
:10403800ADF82E500FFA89F957DC2646DDF80CA0AA
:10404800029C4C4502DD4C46DDF8089092F8583049
:1040580080469B075ED4B24510DCD34658460BF128
:10406800010B3B682A460FFA8BFB21461B689847D1
:10407800B345F3DD013424B2A145EEDABDF80820DA
:1040880007A898F82C30059EADF82620013BD8F8F3
:104098001820039D33440792D8F81C20EC1C049F79
:1040A80098F82210ADF82A30089298F9213098F93A
:1040B80020208DF83010ADF83220ADF83430ADF84E
:1040C8002870ADF82440FFF7F7F898F82C3049F637
:1040D800135128463A46334400911BB21946FEF75D
:1040E80041FE00200FB0BDE8F08FA246A8E71146B8
:1040F8002246EB1E0F4F033203311BB212B2049358
:1041080009B202923A6803915369984281D1C58CE9
:10411800838C80E700954B46D2F854B0214632464E
:104128005046D8470028A9D04C4594DDA6E74FF063
:10413800FF307047C40000202DE9F04F037A83B0A8
:10414800B0F90E6023F020021D07B0F910A0B0F9F5
:1041580012800272B0F914405ED5827D8146D10783
:1041680002D55F0640F18C8095070DD54846FFF7CC
:1041780033FF99F80830580600F19C8099F82C30E4
:1041880001339A440FFA8AFA4645B9F80C703DDDB6
:10419800A24537DD514D2A6892F85830990760D406
:1041A800B04510DCC34658460BF1010B2B683A4664
:1041B8000FFA8BFB21461B6898475E45F3DA0134FA
:1041C80024B2A245EEDA99F80000C0B10138D9F856
:1041D8000440002380B20130400102E020339842BD
:1041E8000DD0E25C02F003010229F7D112F0080FAA
:1041F80042F0600218BFE25420339842F1D103B074
:10420800BDE8F08F234654469A46C3E74346A24585
:10421800B0461E46BEDCF5E7304D46452A68B2F882
:1042280046A02BDCC146B046A64202DC23463446F3
:104238001E4692F858309B0743D4C845DFDC4746F2
:10424800384601372B6852463FB221461B689847CB
:10425800B945F5DA013424B2A642F0DA03B0BDE874
:10426800F08F00975346D2F854B021463246404664
:10427800D8470028A7D0A24592DAA4E7B146D3E7E9
:10428800174842462346514600903046FFF744FA05
:1042980099F8162003360AF1030AA8F10308033C2B
:1042A800950736B20FFA8AFA0FFA88F824B27FF522
:1042B8006BAF5BE723F0400389F8083003B0BDE833
:1042C800F08FCDF800A03346576D21464A46404648
:1042D800B847002893D0A642AFDA90E7C400002080
:1042E800D09800082DE9F043544C83B0236893F824
:1042F8004820D10703D522F0010283F848201E691F
:104308005869864200F08280002E7FD098615E61F5
:1043180010B1837D9F070DD4337A23F0400343F017
:1043280028033372337A9C0676D4180714D403B062
:10433800BDE8F083037A1D07EED5B0F90E20B6F973
:104348000E309A4203D1026933699A426ED0FFF760
:1043580043FE23685E69DFE73046FFF779F9337873
:10436800002B5ED003F1FF3800241FFA88F808F10B
:1043780001084FEA481801E0A04517D075682F5D7D
:104388002544203407F00303022BF5D1B90695F82C
:10439800019036D43A07EFD53B06EDD519F0410F19
:1043A800EAD06B68294630469847E5E73578022217
:1043B800234F00243A707C60002DB8D0013DB946E7
:1043C800A046ADB201356D0101E0A542AFD07368DA
:1043D8001A1901921B5D203403F00303022BF4D158
:1043E800937E002BF1D0117E01A8527E786048465A
:1043F800FB707970336BBA709847019B83F81A8009
:10440800E3E76B68294630469847C3E700288ED013
:104418000646337A9C0688D53046FFF78DFE337AF8
:1044280083E7074A02215360117080E7B0F914202E
:10443800B6F914309A428AD16EE700BFC400002052
:10444800C80000202DE9F04706784468BDF920C06F
:10445800BDF92480BDF92890BEB1257805F0030781
:10446800032F16D006F1FF3E26465FFA8EFE04EBB8
:104478004E1E06E096F82050264605F00307032F47
:1044880007D0744504F12004F4D14FF0FF30BDE8A3
:10449800F0870026DFF87CA04FF0010E12270E707F
:1044A800D0F80A60DAF80000C1F80260C1F80660C6
:1044B80081F801E00F7400B12C30002625F00105C9
:1044C800C8604FF0FF3E37464FF0010A65F03505EA
:1044D8000F4863F30F0733464861304668F30F030C
:1044E8006CF31F47DFF830C069F31F43257062760D
:1044F800E1616670A67627616361C4F804C084F838
:1045080018A0C4F808E0C4F80CE0BDE8F08700BFC4
:104518009C840008C40000206138000830B4057885
:104528004368DDB1013DEDB2013503EB451502E00D
:104538002033AB4212D0187800F00304022CF7D1D4
:104548001C7E012CF4D15C7E8C42F1D140F06001DC
:10455800DC690020A280197030BC70474FF0FF3032
:1045680030BC704730B405784368DDB1013DEDB229
:10457800013503EB451502E02033AB4212D0187821
:1045880000F00304022CF7D11C7E012CF4D15C7ED0
:104598008C42F1D140F06001DC6900206261197041
:1045A80030BC70474FF0FF3030BC704730B40578EE
:1045B8004368DDB1013DEDB2013503EB451502E07D
:1045C8002033AB4212D0187800F00304022CF7D144
:1045D8001C7E012CF4D15C7E8C42F1D140F060014C
:1045E800DC690020E260197030BC70474FF0FF3082
:1045F80030BC70472DE9F04706784468BDF920C003
:10460800BDF92480BDF92890BEB1257805F00307CF
:10461800032F16D006F1FF3E26465FFA8EFE04EB06
:104628004E1E06E096F82050264605F00307032F95
:1046380007D0744504F12004F4D14FF0FF30BDE8F1
:10464800F0871D4E002736680F609EB306F12C07D1
:1046580000264F6025F0010E4FF0120A3546374606
:104668000E724EF04A0E63F30F0568F30F07D0F889
:104678000A3030466CF31F4569F31F47C1F80A300A
:104688004FF0020C4FF0FF33DFF83080CE730E741A
:1046980081F80EA084F800E06670A6766276E16183
:1046A80025616761C4F8048084F818C0A360E360DA
:1046B800BDE8F0873746CBE7C4000020493400083E
:1046C80030B405784368DDB1013DEDB2013503EB47
:1046D800451502E02033AB4212D0187800F00304ED
:1046E800022CF7D11C7E022CF4D15C7E8C42F1D1D5
:1046F80040F06001DC690020A281197030BC70476D
:104708004FF0FF3030BC704730B405784368DDB1F6
:10471800013DEDB2013503EB451502E02033AB4214
:1047280012D0187800F00304022CF7D11C7E022C5A
:10473800F4D15C7E8C42F1D140F06001DC6900204C
:104748002260197030BC70474FF0FF3030BC7047A2
:1047580030B405784368DDB1013DEDB2013503EBB6
:10476800451502E02033AB4212D0187800F003045C
:10477800022CF7D11C7E022CF4D15C7E8C42F1D144
:1047880040F06001DC6900206260197030BC70473D
:104798004FF0FF3030BC704730B405784368DDB166
:1047A800013DEDB2013503EB451502E02033AB4284
:1047B80012D0187800F00304022CF7D11C7E022CCA
:1047C800F4D15C7E8C42F1D140F06001DC690020BC
:1047D800A273197030BC70474FF0FF3030BC70477F
:1047E800704700BF0378022B00D070474378012B35
:1047F800FBD1C278042AF8D18278042AF5D103487B
:104808000021034A03701170EFE700BFD1000020B8
:10481800D20000200378022B00D07047417801298C
:10482800FBD1C378042BF8D12B4B70B51B78012B27
:104838003DD0022B48D0032B284B294D0EBF022414
:1048480003241D468378002B37D0012B05D16B78C4
:10485800072B0CBF002301336B702978214A224BA8
:10486800012918BF1A4600212048FFF77BFE6A7805
:104878001F4E012102EB82021C483244FFF772FEF0
:104888006B78BBB12B7840F2FF72012B08BF4FF455
:10489800FC6221461748FFF741FE6A782146154811
:1048A80002EB82023244BDE87040FFF75BBE002491
:1048B800114DC7E747F21242EBE72B78012B06D0E0
:1048C8000123084A2B70CEE70C460C4DBAE70223A9
:1048D800054A2B70C7E700BFD4000020640D0020F4
:1048E800D8040020CC990008D0990008F00E0020C8
:1048F8004C840008CC150020D4040020600D002052
:104908000378022B00D070474378012BFBD1C27883
:10491800042AF8D1F0B5847883B02CB91D4D2A78D3
:1049280022B91D4A2B70137003B0F0BD00942046C5
:104938002C7040F2DF12DFF860E00F21174F4FF4C0
:104948008073174D174E8EF800403C702C703470F1
:10495800FCF788F940F2DF142F224AF65550124925
:10496800124B23F8120003F516538B42F9D130325B
:10497800A242F5D10D4A4AF655510D48002322F8B6
:1049880013100A33B3F5F07FF9D102F534428242AD
:10499800F4D1C9E7D0000020D1000020D2000020C7
:1049A800D4000020D3000020C0E123C0403820C03C
:1049B800407024C02DE9F04F002585B0BD4B0A2278
:1049C8000E24BD49BD480D26FFF728F92946BB48E6
:1049D8004FF03B09FFF7E2FA2A4640F2DF13009452
:1049E8002946B648FFF77CF94EF63171B3484FF0C7
:1049F8007708FFF7C5FA4FF4ED7302942A4601933E
:104A080040F2AB13AE4901240095B327AB48FFF73A
:104A180019FD2946AB4AA948FFF7C8FD29464FF6B4
:104A28002052A648FFF77AFD2946A74AA348FFF770
:104A380099FD0A232A46A5490296A0488DE8100246
:104A4800FFF7D8FD29469F4A9C48FFF781FE294673
:104A58004FF4FC629948FFF733FE29469C4A974871
:104A6800FFF752FE4623224600949A490296CDF853
:104A780004809248FFF7BEFD2146924A8F48FFF70F
:104A880067FE214640F2FF728C48FFF719FE214667
:104A9800914A8A48FFF738FE8223009402228F4900
:104AA800029601978548FFF7A5FD864A02218348AB
:104AB800FFF74EFE4FF6E07202218048FFF700FE36
:104AC800874A02217D48FFF71FFEF421BE23009488
:104AD80003220191029683497848FFF78BFD794AB2
:104AE80003217648FFF734FE47F212420321734848
:104AF800FFF7E6FD7C4A03217048FFF705FE40F208
:104B08002B11F523009404220191029677496B48F2
:104B1800FFF770FD6B4A04216848FFF719FE47F25A
:104B2800124204216548FFF7CBFD714A042163480E
:104B3800FFF7EAFD40F267114FF49B7300940522DA
:104B4800019102966B495D48FFF754FD5D4A0521C6
:104B58005A48FFF7FDFD4BF6BA2205215748FFF7E3
:104B6800AFFD654A05215548FFF7CEFD40F2A31178
:104B78004FF4B97300940622019102965F494F4899
:104B8800FFF738FD4F4A06214C48FFF7E1FD49F68B
:104B9800666206214948FFF793FD594A06214748AE
:104BA800FFF7B2FD574B0A2257495848FFF736F826
:104BB80029465648FFF7F2F940F20F1240F2DF1388
:104BC8002946009240F201125048FFF789F84EF644
:104BD80031714E48FFF7D4F90A232A4600944C490C
:104BE800CDF8049002964948FFF704FD2946354A56
:104BF8004648FFF7ADFD29464FF4FC624348FFF7EE
:104C08005FFD2946324A4148FFF77EFD462322468A
:104C180000944049CDF8048002963C48FFF7EAFC2E
:104C28002146284A3948FFF793FD214640F2FF7292
:104C38003648FFF745FD2146274A3448FFF764FD0B
:104C48008223009402223449019702962F48FFF7E5
:104C5800D1FC1C4A02212D48FFF77AFD4FF6E0727D
:104C680002212A48FFF72CFD2C4A02212748FFF78A
:104C78004BFDFE21BE230094032201910296284990
:104C88002248FFF7B7FC0F4A03212048FFF760FDD1
:104C980047F2124203211D48FFF712FD214A032162
:104CA8001A48FFF731FD40F2491140F20913009408
:104CB8003AE000BF09490008BC0F0020C8120020D4
:104CC800C813002074840008FC98000824130020EE
:104CD800049900084C1600200C990008680F002061
:104CE80014990008B81500201C9900087C150020AC
:104CF80048840008B413002028990008E013002015
:104D080030990008E9470008800D0020941200201F
:104D1800A80F0020A41500201013002034990008C3
:104D28004011002038990008042201910296C249D6
:104D3800C248FFF75FFCC24A0421C048FFF708FDDC
:104D480047F212420421BD48FFF7BAFCBD4A0421CC
:104D5800BA48FFF7D9FC4FF4CA714FF4AA7300940C
:104D6800052201910296B849B448FFF743FCB44ABA
:104D78000521B248FFF7ECFC47F212420521AF4883
:104D8800FFF79EFCB14A0521AC48FFF7BDFC4FF484
:104D9800EF714FF4CF73009406220191029640F20E
:104DA800DF14AB49A548FFF725FCA54A0621A3480F
:104DB800FFF7CEFC47F212420621A048FFF780FC1D
:104DC800A44A06219D48FFF79FFC2F224AF655501A
:104DD800A149A24B23F8120003F516538B42F9D1CF
:104DE8003032A242F5D19D4A4AF655519C480023DB
:104DF80022F813100A33B3F5F07FF9D102F53442E3
:104E08008242F4D1974B0A224FF0F60B9649974805
:104E18000124FEF703FF012194484FF00F0AFFF722
:104E2800BDF84FF0480940F2DF131922CDF800B061
:104E38004FF4C8718D484325FEF752FF4FF6FF71B6
:104E48008A481A26FFF79CF82346CDF804900022DA
:104E5800CDF808A04FF037080094142784498348F8
:104E6800FFF7C8FB834A00218048FFF771FC4CF22A
:104E7800B00200217D48FFF723FC7F4A00217B48D0
:104E8800FFF742FC0623CDF8088000220195009622
:104E98007A497648FFF7D6FA694A00217348FFF73E
:104EA80085FB47F2124200217048FFF737FB744A2E
:104EB80000216E48FFF756FB5F23019522460293B7
:104EC80042237049009306236848FFF7BBFA21463E
:104ED8005B4A6648FFF76AFB214647F2124263487D
:104EE800FFF71CFB2146664A6048FFF73BFB872318
:104EF8006A220195029306230092022262495B48C6
:104F0800FFF7A0FA4E4A02215848FFF74FFB47F235
:104F1800124202215548FFF701FB594A0221534822
:104F2800FFF720FBAF2392220195029306230092FC
:104F3800032256494D48FFF785FA414A03214B4859
:104F4800FFF734FB47F2124203214848FFF7E6FA1D
:104F58004B4A03214548FFF705FBD223BA220195A6
:104F6800029326230092042249494048FFF76AFA2F
:104F7800334A04213D48FFF719FB4CF2B0020421E3
:104F88003A48FFF7CBFA434A04213848FFF7EAFAD0
:104F9800414B0A2241494248FEF740FE214640481B
:104FA800FEF7FCFF40F2DF131922CDF800B04FF4F2
:104FB800C8713B48FEF794FE4FF6FF713848FEF77C
:104FC800DFFF2346CDF804900022CDF808A04FF06B
:104FD8002D09009433493248FFF70CFB254A00217C
:104FE8002F48FFF7B5FB4CF2B00200212C48FFF721
:104FF80067FB2D4A00212A48FFF786FB0623CDF8D8
:105008000880002201954FF03C0800962749244863
:10501800FFF718FA0A4A00212148FFF7C7FA4FF6A6
:10502800205200211E48FFF779FA214A00211C4826
:10503800FFF798FA3EE000BF6C0D002094120020A4
:105048007484000844990008940F002050990008BF
:10505800901500205C990008C0E123C0403820C0AA
:10506800407024C04153000854110020CC15002082
:10507800FC12002088840008689900086415002044
:1050880070990008D80E0020500F0020141100203D
:105098004C15002078990008ED4700087416002088
:1050A800001600202C1100207C990008FC1000201C
:1050B800849900085F23019522460293422374498C
:1050C800009306237348FFF7BDF92146724A7148D9
:1050D800FFF76CFA21464FF620526E48FFF71EFA8A
:1050E80021466E4A6B48FFF73DFA87236A220195ED
:1050F800029306230092022269496648FFF7A2F943
:10510800654A02216348FFF751FA4FF620520221FF
:105118006048FFF703FA634A02215E48FFF722FA64
:10512800AF239222019502930623009203225E493F
:1051380082255848FFF786F9574A03215548FFF753
:1051480035FA4FF6205203215248FFF7E7F9574A3C
:1051580003215048FFF706FA2321D223BA220191EE
:10516800029306230092042251494A48FFF76AF93C
:10517800494A04214748FFF719FA4CF2B0020421C2
:105188004448FFF7CBF94B4A04214248FFF7EAF9B4
:10519800494B0A2249494A48FEF740FD21464848FA
:1051A800FEF7FCFE952140F285135A220091FA2160
:1051B8004348FEF795FD4FF6FF714148FEF7E0FEC4
:1051C8002346009400220297CDF804803D493C48CC
:1051D800FFF710FA304A00213948FFF7B9FA3A4682
:1051E80000213748FFF7D8FA374A00213448FFF73B
:1051F8008BFA23462246CDF80890344930488DE88A
:105208004001FFF7F7F92146234A2D48FFF7A0FA96
:105218003A4621462A48FFF7BFFA21462C4A284831
:10522800FFF772FA47230297002200940195294953
:105238002348FFF707F9184A00212148FFF7B6F974
:105248004FF4044200211E48FFF768F9224A002162
:105258001B48FFF787F947232246CDF808900195A8
:1052680000961E491648FFF7EDF821460A4A1448E9
:10527800FFF79CF921464FF404421148FFF74EF915
:105288002146174A0E4805B0BDE8F04FFFF76AB946
:10529800C00E002000160020748400088C990008B5
:1052A800F413002094990008341600209C990008F3
:1052B8007C0F0020A49900081D4800080C14002049
:1052C800F00E0020240F0020A89900086016002086
:1052D800B099000838130020CC990008380F002036
:1052E800B899000810B42F224AF655500F4940F2D9
:1052F800DF140F4B23F8120003F516538B42F9D134
:105308003032A242F5D10A4A4AF6555109480023DB
:1053180022F813100A33B3F5F07FF9D102F53442BD
:105328008242F4D15DF8044B704700BFC0E123C04E
:10533800403820C0407024C00378022B00D070474A
:105348004378012BFBD1C378042BF8D1F0B58378CF
:1053580083B0042B18D8DFE803F0483C5C1903003D
:1053680000243A48DFF8F0E00126394F9523394DFB
:1053780040F2851200945A210470FA208EF80040F9
:105388003C702E70FBF76EFC03B0F0BD324C304D14
:10539800237813B12B78042B47D0304F0126304A9D
:1053A800042397F800E000212E482670B64518BF60
:1053B80002462D482B70FFF7D5F87B782B4A3146EB
:1053C80003EB830328481A4403B0BDE8F040FFF715
:1053D800C9B8214C1E4D237813B12B78022B24D049
:1053E800234F01261E4A0223DBE71B4C184D237866
:1053F80013B12B78012B18D01E4F0126184A002113
:105408003878184B2670B04218BF1A462E701648C6
:10541800D1E7114C0E4D237813B12B78032B04D010
:10542800154F01260E4A0323BBE70026952340F2B9
:1054380085125A210096FA2026702E70FBF712FC6E
:1054480003B0BDE8F040FFF74DBF00BFD10000201A
:10545800D4000020D2000020D3000020640D0020DA
:10546800CC990008D0990008F00E00204C84000860
:10547800600D0020D4040020D804002000000000A3
:1054880030B583B00D46FBF715F83FA3D3E90023E9
:10549800FBF776F8FBF736FBB7EE007A07EE900AD3
:1054A800F4EEC77AF1EE10FA1CD4FBF715F86C4647
:1054B80041EC100B6946032001F0BEFB6846FAF781
:1054C8009FFEC0B2032830D0012835D02846FAF70D
:1054D80097FE2146284401F02CFC254B1B880380AD
:1054E80003B030BD9FED237A0A2269466C4667EE09
:1054F800877AFDEEE77A17EE900A01F005FC684618
:10550800FAF77EFEC0B2012825D002281CD0284612
:10551800FAF776FE2146284401F00BFC164B1A8850
:105528009B780280837003B030BD2846FAF768FE86
:10553800124B1B882B52C9E72846FAF761FE104A1E
:1055480003461068E850C1E72846FAF759FE0B4BA6
:105558001B882B52DBE72846FAF752FE094B2A181C
:1055680019889B7829529370D1E700BFAFF3008068
:105578001099000800007A44C4990008EC980008C3
:10558800C8990008C0990008801AB44DE7808A3F7E
:10559800DFED497AB4EEE70A30B5F1EE10FA83B0E0
:1055A800044620D5FDEEC07A0A2269466D4617EEFC
:1055B800900A01F0A9FB6846FAF722FEC0B201285A
:1055C80047D0022862D003284ED02046FAF718FEAA
:1055D8002946204401F0ADFB384B1A889B7802809D
:1055E800837003B030BD10EE100A6D46FAF774FFF1
:1055F8002FA3D3E90023FAF7C3FFFBF783FAFAF7DF
:105608006BFF41EC100B6946042001F015FB68465E
:10561800FAF7F6FDC0B2012810D003282CD00428D0
:105628003FD02046FAF7ECFD2946204401F081FBE3
:10563800234A03461068186003B030BD2046FAF7C5
:10564800DFFD204A0346211810681279E0500A71DC
:10565800E7E72046FAF7D4FD1B4A034621181068ED
:105668009288E0508A80B0E72046FAF7C9FD174AC9
:1056780003461068E050A8E72046FAF7C1FD144B2E
:10568800221819889B7821529370CAE72046FAF7A6
:10569800B7FD0C4A0346211810681279E0500A71C8
:1056A80093E72046FAF7ACFD0A4B1B882352B8E76C
:1056B800FCA9F1D24D62503F00007A444C99000891
:1056C800F8980008F0980008E8980008C8990008B9
:1056D800C0990008EC98000801F1FF3CF0B50746B6
:1056E8005FEA9C0EF7EC017A5DD00EF101061430EA
:1056F80004240025B60010ED047AF4EEC77AF1EE22
:1057080010FA02D5F0EE477AE51E10ED037AF4EEB2
:10571800C77AF1EE10FA02D5F0EE477AA51E10ED21
:10572800027AF4EEC77AF1EE10FA02D5F0EE477A73
:10573800651E10ED017A1030F4EEC77AF1EE10FA1A
:1057480002D5F0EE477A25460434B442D3D107EBAC
:105758000E171CF003001ED097ED007AB4EEE77A1E
:10576800F1EE10FA1BDC013815D097ED017AF4EE52
:10577800C77AF1EE10FA02D5F0EE477A0D1A012831
:1057880009D097ED027AF4EEC77AF1EE10FA02D555
:10579800F0EE477A6546C2ED007A1D60F0BDF0EE86
:1057A800477A0D1ADFE77546D3E700BF0022B1F547
:1057B800807F034630B44260018032D018D9B1F5F9
:1057C800006F26D00CD9B1F5805F1ED1164910465E
:1057D8008D89D1E901249D81C3E9012430BC70473A
:1057E800B1F5007F17D0B1F5806F0ED10F49EEE704
:1057F800402912D003D9802907D10D49E7E710299C
:105808000DD0202901D10B49E1E74FF0FF3030BC22
:1058180070470949DBE70949D9E70949D7E7094941
:10582800D5E70949D3E700BF349A0008D49900089E
:10583800E4990008249A0008049A0008449A000889
:10584800549A0008F4990008149A000850B11021DD
:1058580010B50446FFF7AAFF18B92022034B22828D
:10586800636110BD4FF0FF30704700BFC02C0208C5
:1058780050B1202110B50446FFF798FF18B940220F
:10588800034B2282636110BD4FF0FF30704700BFA9
:105898004075020850B1402110B50446FFF786FF55
:1058A80018B98022034B2282636110BD4FF0FF308C
:1058B800704700BFC006020858B1802110B50446E1
:1058C800FFF774FF20B94FF48072034B22826361A3
:1058D80010BD4FF0FF307047C028020860B14FF488
:1058E800807110B50446FFF761FF20B94FF40072CC
:1058F800034B2282636110BD4FF0FF30704700BF39
:10590800406D020860B14FF4007110B50446FFF70E
:105918004DFF20B94FF48062034B2282636110BDB2
:105928004FF0FF30704700BFC0F6010860B14FF478
:10593800806110B50446FFF739FF20B94FF40062C3
:10594800034B2282636110BD4FF0FF30704700BFE8
:10595800C008020860B14FF4006110B50446FFF7B3
:1059680025FF20B94FF48052034B2282636110BD9A
:105978004FF0FF30704700BF402D0208B1F5007F9F
:1059880024D007D880291CD00CD9B1F5807F1AD132
:105998000F4B1847B1F5006F11D0B1F5805F07D1F3
:1059A8000C4B1847202908D040290CD10A4BF0E7A6
:1059B800B1F5806F07D1094BEBE7094BE9E7094BD4
:1059C800E7E7094BE5E74FF0FF307047074BE0E7A3
:1059D800C15800085D590008795800080D59000899
:1059E80055580008355900089D580008E558000822
:1059F80070B4D1ED007AB6EE006A91ED017A01F14A
:105A0800100477EEA77A068837EE077A4069013ED8
:105A1800B0EE464A02F11005103077EE876A01EBC6
:105A2800C60177EEC77AA1F1080326EE867A67EEFB
:105A3800867A82ED007AC2ED017A14ED026A013E9F
:105A480093ED027A04F1080450ED026AA3F1080309
:105A580077EE465AD3ED054A54ED037A37EE067AC7
:105A680010ED016A05F1080566EEA53A00F1080097
:105A780034EEA75A66EE255A77EEE47A37EE237AA3
:105A880066EE856A26EE056A77EEA57A37EE067A1F
:105A980077EEE67A27EE047A67EE847A05ED047AE3
:105AA80045ED037AC9D170BC704700BF10B4D1ED81
:105AB800007AB6EE004AD1ED016A048837EEA67A7C
:105AC800406977EEE67A013C27EE047A67EE847A3D
