:020000040800F2
:1000000000000520A9510008FB510008FD5100081F
:10001000FF510008015200080352000800000000D0
:100020000000000000000000000000000552000871
:100030000752000800000000095200080D52000895
:10004000F9510008F9510008F9510008F951000868
:10005000F9510008F9510008F9510008F951000858
:10006000F9510008F9510008F9510008F951000848
:10007000F9510008F9510008F9510008F951000838
:10008000F9510008F9510008F9510008F951000828
:10009000F9510008F9510008F95100081D520008F3
:1000A000F9510008F9510008F9510008F951000808
:1000B000F95100083553000819530008F951000898
:1000C000F9510008F9510008F9510008F9510008E8
:1000D000F9510008F9510008F9510008F9510008D8
:1000E0004D520008F9510008F9510008F951000873
:1000F000F9510008F9510008F9510008F9510008B8
:10010000F9510008F9510008F9510008F9510008A7
:10011000F9510008F9510008F9510008F951000897
:100120005D52000895520008F9510008F951000885
:10013000F9510008F9510008F9510008F951000877
:10014000F9510008F9510008F951000891530008CD
:10015000F9510008F9510008CD520008F951000882
:10016000F9510008F9510008F9510008F951000847
:10017000F9510008F9510008F95100080000000089
:10018000F9510008F9510008F9510008F951000827
:10019000F9510008F9510008F9510008F951000817
:1001A000F9510008D1520008F5520008F951000831
:1001B00051530008F9510008F9510008F95100089D
:0801C000F9510008F951000893
:1001D00010B5054C237833B9044B13B10448AFF381
:1001E00000800123237010BDB00600200000000035
:1001F0003835010808B5034B1BB103490348AFF379
:10020000008008BD00000000B40600203835010859
:10021000034613F8012B002AFBD1181A0138704746
:1002200001F0FF01102A2BDB10F0070F08D010F8A7
:10023000013B013A8B422DD010F0070F42B3F6D1AB
:10024000F0B441EA012141EA014122F007047FF0C4
:1002500000070023F0E80256083C85EA010586EA1B
:10026000010685FA47F5A3FA87F586FA47F6A5FA57
:1002700087F68EB9EED1F0BC01F0FF0102F0070263
:1002800032B110F8013B013A83EA010313B1F8D10E
:100290000020704701387047002D06BF35460338EF
:1002A000073815F0010F07D1013015F4807F02BF28
:1002B000013015F4C03F0130F0BC0138704700BF79
:1002C00081F0004102E000BF83F0004330B54FEA07
:1002D00041044FEA430594EA050F08BF90EA020F74
:1002E0001FBF54EA000C55EA020C7FEA645C7FEA07
:1002F000655C00F0E2804FEA5454D4EB5555B8BF2A
:100300006D420CDD2C4480EA020281EA030382EA9A
:10031000000083EA010180EA020281EA0303362D2C
:1003200088BF30BD11F0004F4FEA01314FF4801CFF
:100330004CEA113102D0404261EB410113F0004F11
:100340004FEA03334CEA133302D0524263EB4303C8
:1003500094EA050F00F0A780A4F10104D5F1200E66
:100360000DDB02FA0EFC22FA05F2801841F10001C1
:1003700003FA0EF2801843FA05F359410EE0A5F195
:1003800020050EF1200E012A03FA0EFC28BF4CF0C6
:10039000020C43FA05F3C01851EBE37101F000457C
:1003A00007D54FF0000EDCF1000C7EEB00006EEB89
:1003B0000101B1F5801F1BD3B1F5001F0CD3490813
:1003C0005FEA30004FEA3C0C04F101044FEA44526A
:1003D00012F5800F80F09A80BCF1004F08BF5FEAF1
:1003E000500C50F1000041EB045141EA050130BDD1
:1003F0005FEA4C0C404141EB010111F4801FA4F174
:100400000104E9D191F0000F04BF01460020B1FAC8
:1004100081F308BF2033A3F10B03B3F120020CDA00
:100420000C3208DD02F1140CC2F10C0201FA0CF0DE
:1004300021FA02F10CE002F11402D8BFC2F1200C43
:1004400001FA02F120FA0CFCDCBF41EA0C019040F9
:10045000E41AA2BF01EB0451294330BD6FEA040442
:100460001F3C1CDA0C340EDC04F11404C4F120022D
:1004700020FA04F001FA02F340EA030021FA04F33F
:1004800045EA030130BDC4F10C04C4F1200220FA96
:1004900002F001FA04F340EA0300294630BD21FAD4
:1004A00004F0294630BD94F0000F83F4801306BF9A
:1004B00081F480110134013D4EE77FEA645C18BF8E
:1004C0007FEA655C29D094EA050F08BF90EA020F25
:1004D00005D054EA000C04BF1946104630BD91EA1D
:1004E000030F1EBF0021002030BD5FEA545C05D120
:1004F0004000494128BF41F0004130BD14F580045F
:100500003CBF01F5801130BD01F0004545F0FE41D2
:1005100041F470014FF0000030BD7FEA645C1ABF07
:10052000194610467FEA655C1CBF0B46024650EA3E
:10053000013406BF52EA033591EA030F41F400216A
:1005400030BD00BF90F0000F04BF0021704730B5F0
:100550004FF4806404F132044FF000054FF00001C5
:1005600050E700BF90F0000F04BF0021704730B586
:100570004FF4806404F1320410F0004548BF40425B
:100580004FF000013EE700BF42004FEAE2014FEAB0
:1005900031014FEA02701FBF12F07F4393F07F4F8B
:1005A00081F06051704792F0000F14BF93F07F4FBD
:1005B000704730B54FF4607401F0004521F0004100
:1005C00020E700BF50EA010208BF704730B54FF086
:1005D00000050AE050EA010208BF704730B511F08B
:1005E000004502D5404261EB41014FF4806404F1C3
:1005F00032045FEA915C3FF4DCAE4FF003025FEA45
:10060000DC0C18BF03325FEADC0C18BF033202EBCC
:10061000DC02C2F1200300FA03FC20FA02F001FA26
:1006200003FE40EA0E0021FA02F11444C1E600BFC5
:1006300070B54FF0FF0C4CF4E06C1CEA11541DBF78
:100640001CEA135594EA0C0F95EA0C0F00F0DEF843
:100650002C4481EA030621EA4C5123EA4C5350EA28
:10066000013518BF52EA033541F4801143F4801379
:1006700038D0A0FB02CE4FF00005E1FB02E506F00A
:100680000042E0FB03E54FF00006E1FB03569CF05F
:10069000000F18BF4EF0010EA4F1FF04B6F5007F65
:1006A00064F5407404D25FEA4E0E6D4146EB0606D7
:1006B00042EAC62141EA55514FEAC52040EA5E5060
:1006C0004FEACE2EB4F1FD0C88BFBCF5E06F1ED80A
:1006D000BEF1004F08BF5FEA500E50F1000041EB41
:1006E000045170BD06F0004646EA010140EA0200EE
:1006F00081EA0301B4EB5C04C2BFD4EB0C0541EA10
:10070000045170BD41F480114FF0000E013C00F324
:10071000AB8014F1360FDEBF002001F0004170BD48
:10072000C4F10004203C35DA0C341BDC04F1140461
:10073000C4F1200500FA05F320FA04F001FA05F2ED
:1007400040EA020001F0004221F0004110EBD370BA
:1007500021FA04F642EB06015EEA430E08BF20EAE6
:10076000D37070BDC4F10C04C4F1200500FA04F389
:1007700020FA05F001FA04F240EA020001F000411B
:1007800010EBD37041F100015EEA430E08BF20EA8E
:10079000D37070BDC4F1200500FA05F24EEA020ED6
:1007A00020FA04F301FA05F243EA020321FA04F005
:1007B00001F0004121FA04F220EA020000EBD370BC
:1007C0005EEA430E08BF20EAD37070BD94F0000FBC
:1007D0000FD101F00046400041EB010111F4801FF0
:1007E00008BF013CF7D041EA060195F0000F18BFA1
:1007F000704703F00046520043EB030313F4801FDD
:1008000008BF013DF7D043EA0603704794EA0C0F96
:100810000CEA135518BF95EA0C0F0CD050EA4106AC
:1008200018BF52EA4306D1D181EA030101F0004129
:100830004FF0000070BD50EA410606BF1046194651
:1008400052EA430619D094EA0C0F02D150EA01365D
:1008500013D195EA0C0F05D152EA03361CBF10469E
:1008600019460AD181EA030101F0004141F0FE413D
:1008700041F470014FF0000070BD41F0FE4141F4C1
:10088000780170BD70B54FF0FF0C4CF4E06C1CEAC1
:1008900011541DBF1CEA135594EA0C0F95EA0C0F76
:1008A00000F0A7F8A4EB050481EA030E52EA033531
:1008B0004FEA013100F088804FEA03334FF0805552
:1008C00045EA131343EA12634FEA022245EA11157F
:1008D00045EA10654FEA00260EF000419D4208BF30
:1008E000964244F1FD0404F5407402D25B084FEADD
:1008F0003202B61A65EB03055B084FEA32024FF489
:1009000080104FF4002CB6EB020E75EB030E22BFE5
:10091000B61A754640EA0C005B084FEA3202B6EBA5
:10092000020E75EB030E22BFB61A754640EA5C0054
:100930005B084FEA3202B6EB020E75EB030E22BFE4
:10094000B61A754640EA9C005B084FEA3202B6EBE5
:10095000020E75EB030E22BFB61A754640EADC00A4
:1009600055EA060E18D04FEA051545EA16754FEA06
:1009700006164FEAC30343EA52734FEAC2025FEA24
:100980001C1CC0D111F4801F0BD141EA00014FF0B3
:1009900000004FF0004CB6E711F4801F04BF014384
:1009A0000020B4F1FD0C88BFBCF5E06F3FF6AFAEA0
:1009B000B5EB030C04BFB6EB020C5FEA500C50F130
:1009C000000041EB045170BD0EF0004E4EEA1131B3
:1009D00014EB5C04C2BFD4EB0C0541EA045170BDBA
:1009E00041F480114FF0000E013C90E645EA060EFE
:1009F0008DE60CEA135594EA0C0F08BF95EA0C0F2C
:100A00003FF43BAF94EA0C0F0AD150EA01347FF473
:100A100034AF95EA0C0F7FF425AF104619462CE74A
:100A200095EA0C0F06D152EA03353FF4FDAE1046AD
:100A3000194622E750EA410618BF52EA43067FF4FE
:100A4000C5AE50EA41047FF40DAF52EA43057FF48E
:100A5000EBAE12E74FF0FF3C06E000BF4FF0010C99
:100A600002E000BF4FF0010C4DF804CD4FEA410CFD
:100A70007FEA6C5C4FEA430C18BF7FEA6C5C1BD0CA
:100A800001B050EA410C0CBF52EA430C91EA030F4B
:100A900002BF90EA020F0020704710F1000F91EAA8
:100AA000030F58BF994208BF90422CBFD8176FEA76
:100AB000E37040F0010070474FEA410C7FEA6C5C44
:100AC00002D150EA013C07D14FEA430C7FEA6C5C4B
:100AD000D6D152EA033CD3D05DF8040B704700BF77
:100AE0008446104662468C461946634600E000BFC5
:100AF00001B5FFF7B7FF002848BF10F1000F01BD97
:100B00004DF808EDFFF7F4FF0CBF012000205DF861
:100B100008FB00BF4DF808EDFFF7EAFF34BF0120E6
:100B200000205DF808FB00BF4DF808EDFFF7E0FF7F
:100B300094BF012000205DF808FB00BF4DF808EDD0
:100B4000FFF7CEFF94BF012000205DF808FB00BF37
:100B50004DF808EDFFF7C4FF34BF012000205DF819
:100B600008FB00BF4FEA410C7FEA6C5C02D150EAFF
:100B7000013C0AD14FEA430C7FEA6C5C02D152EA95
:100B8000033C02D14FF0000070474FF00100704766
:100B90004FEA410212F5001215D211D56FF47873A5
:100BA000B3EB625212D94FEAC12343F0004343EA48
:100BB000505311F0004F23FA02F018BF4042704723
:100BC0004FF00000704750EA013005D111F00040AD
:100BD00008BF6FF0004070474FF00000704700BF43
:100BE0004A0011D212F5001211D20DD56FF47873AC
:100BF000B3EB62520ED44FEAC12343F0004343EA01
:100C0000505323FA02F070474FF00000704750EA4B
:100C1000013002D14FF0FF3070474FF000007047B5
:100C20004FEA4102B2F1E04324BFB3F5001CDCF10E
:100C3000FE5C0DD901F0004C4FEAC0024CEA507046
:100C4000B2F1004F40EB830008BF20F00100704775
:100C500011F0804F21D113F13872BCBF01F0004078
:100C6000704741F480114FEA5252C2F11802C2F1AA
:100C7000200C10FA0CF320FA02F018BF40F001002B
:100C80004FEAC1234FEAD32303FA0CFC40EA0C00DD
:100C900023FA02F34FEA4303CCE77FEA625307D11A
:100CA00050EA01331EBF4FF0FE4040F44000704751
:100CB00001F0004040F0FE4040F40000704700BFEB
:100CC00053B94AB9002908BF00281CBF4FF0FF31B3
:100CD0004FF0FF3000F07AB9ADF1080C6DE904CEA9
:100CE00000F006F8DDF804E0DDE9022304B0704707
:100CF0002DE9F0478C460D460446089E002B51D145
:100D00008A4217466DD9B2FA82FEBEF1000F0BD0AF
:100D1000CEF1200C01FA0EF520FA0CFC02FA0EF7C7
:100D20004CEA050C00FA0EF44FEA174A250CBCFBFE
:100D3000FAF81FFA87F90AFB18CC45EA0C4508FBBC
:100D400009F3AB420AD9ED1908F1FF3280F0238193
:100D5000AB4240F22081A8F102083D44ED1AA4B252
:100D6000B5FBFAF00AFB105544EA054400FB09F90B
:100D7000A14509D9E41900F1FF3380F00A81A145AA
:100D800040F2078102383C44A4EB090440EA0840E1
:100D90000021002E61D024FA0EF400233460736029
:100DA000BDE8F0878B4207D9002E54D0002186E899
:100DB00021000846BDE8F087B3FA83F1002940F02E
:100DC0008E80AB4202D3824200F2FA80841A65EB35
:100DD00003050120AC46002E3FD086E81010BDE888
:100DE000F08712B90127B7FBF2F7B7FA87FEBEF119
:100DF000000F34D1EB1B3A0C1FFA87FC0121B3FB27
:100E0000F2F8250C02FB183345EA03450CFB08F306
:100E1000AB4207D9ED1908F1FF3002D2AB4200F224
:100E2000D1808046ED1AA3B2B5FBF2F002FB10555B
:100E300043EA05440CFB00FCA44507D9E41900F182
:100E4000FF3302D2A44500F2B8801846A4EB0C048C
:100E500040EA08409DE731463046BDE8F087CEF1D4
:100E6000200405FA0EF307FA0EF720FA04F83A0CFC
:100E700025FA04F448EA0308B4FBF2F14FEA1845F6
:100E800002FB11441FFA87FC45EA044501FB0CF301
:100E9000AB4200FA0EF409D9ED1901F1FF3080F0F0
:100EA0008A80AB4240F2878002393D44EB1A1FFA38
:100EB00088F5B3FBF2F002FB103345EA034500FB73
:100EC0000CF3AB4207D9ED1900F1FF386FD2AB42FA
:100ED0006DD902383D44EB1A40EA01418FE7C1F178
:100EE000200722FA07F88B4005FA01F448EA0303C9
:100EF00020FA07FE4FEA134CFD404EEA040EB5FB04
:100F0000FCF94FEA1E440CFB19551FFA83F844EA1A
:100F1000054509FB08F4AC4202FA01F200FA01FAB5
:100F200008D9ED1809F1FF3043D2AC4241D9A9F1FB
:100F300002091D442D1B1FFA8EFEB5FBFCF00CFBB5
:100F400010554EEA054400FB08F8A04507D9E418FF
:100F500000F1FF3529D2A04527D902381C4440EAC8
:100F60000940A4EB0804A0FB02894C45C6464D4647
:100F700015D312D056B1BAEB0E0364EB050404FA94
:100F800007F7CB401F43CC40376074600021BDE8B9
:100F9000F0871846F8E69046E0E6C245EAD2B8EB9C
:100FA000020E69EB03050138E4E72846D7E740461F
:100FB00091E78146BEE7014678E702383C4445E7C1
:100FC000084608E7A8F102083D442BE7704700BF38
:100FD00082B0094B1B680193019BB0F1FF3F00D029
:100FE000013030B1044B1B6813F4803FF9D0013855
:100FF000F7E702B0704700BF10E000E02DE9F041D4
:101000000C4600231370904B1B78002B00F00A81D4
:101010000546C27883781B0443EA0263427843EAB8
:101020000223027813430021874A1170874A9342B2
:1010300008BF1F2C40F00181C3798679360446EA47
:101040000366437946EA032603791E43C37A877A07
:101050003F0447EA0367437A47EA0327037A1F43BB
:10106000C37B282B00F28280DFE803F08C80806550
:1010700080808080808080808080808080801580DB
:10108000808080808080518C8080808080808028DB
:10109000804580806700847CC07C40EA042024284E
:1010A00028BF24200446002304E0694AD15C694A31
:1010B00099540133A342F8D3002165E0847DC07DBB
:1010C00040EA04200C2828BF0C200446002304E03A
:1010D000614AD15C5F4A99540133A342F8D300219D
:1010E00052E05E4AD15C5B4A99540133072BF8D930
:1010F0000824002148E00023F8E7594AD15C554A0A
:1011000099540133032BF8D9042400213CE0002337
:10111000F8E7544AD15C4F4A99540133132BF8D95C
:10112000514B1A78514B1A70514B1A78514B1A7017
:101130001424002128E00023F0E7437C817C09048B
:1011400041EA0361C37C41EA0321037D1943827DA7
:10115000C37D43EA02231C030BB9002114E022469D
:1011600009033C4803F03CFF00210DE005223E4B03
:101170001A702022404B1A7000203D4B1870044614
:10118000012101E0002421462046BC4228BF384608
:101190003A1A00F1010E2F4B5524C45400F1020CF1
:1011A00053240EF8034000F1030E4FF042080CF8F0
:1011B000038000F1040C0EF8034000F1050E0CF85A
:1011C0000360841D4FEA162C0EF803C000F1070ED1
:1011D0004FEA164C04F803C000F10804360E0EF86E
:1011E000036000F10906E25400F10A044FEA122EEE
:1011F00006F803E000F10B064FEA124E04F803E094
:1012000000F10C04120EF2540D30E15411B1EB7BDD
:101210002A2B01D0BDE8F081184B1F606FF0010050
:10122000BDE8F08116480DF099FD144A13681C1BA7
:10123000146034B90D20BDE8F0814FF0FF30BDE8F7
:10124000F0816FF00100E5E70000002055534243B4
:101250005C350108000068C08C3501088435010840
:101260008035010898350108D4060020020068C0C6
:10127000CD0600200C0068C0CC060020D00600205F
:10128000503501080122014B1A7070470000002000
:1012900008B503F0DDFD002008BD000070B50D4667
:1012A00016461C4603F078FF0028FBD1002303E01C
:1012B000E95C084A99540133B3EB043FF8D3224662
:1012C0003103044803F0F2FE08B9002070BD01208C
:1012D00070BD00BF000060C008B5012909D019B178
:1012E00003290BD0042008BD03F056FF0028FBD1D2
:1012F00008BD4FF480531360002008BD0123136024
:10130000002008BD10B4C1EB01118C01034B234434
:1013100023F810205DF8044B704700BF000020C088
:101320000F4B1B6813F0010FFAD10D4B0D4A1A60D9
:1013300000229A634FF04041D9631A6402225A6333
:10134000094A5A649A6842F03F029A601A6842F069
:1013500001021A60024B1B6813F0010FFAD17047AB
:1013600000B00240000103001001E0010F4B1B68B8
:1013700013F0010FFAD10D4B0D4A1A6098630D4A14
:10138000DA6300221A6402225A630B4A5A649A688A
:1013900042F03F029A601A6842F001021A60034B61
:1013A0001B6813F0010FFAD1704700BF00B0024074
:1013B00000010300000040C01001E00170B41C4CAB
:1013C000246814F0010FFAD100251A4C2570184C2E
:1013D000194D2560BDF80C50A563C1EB01167501D0
:1013E0000544164E06EB4505E563851A05F2DF1543
:1013F000256402256563121A01325B1A013343EA40
:1014000002436364A36843F03F03A360236843F08F
:1014100001032360064B1B6813F0010FFAD1054B43
:101420001B7813B9002070BC70474FF0FF30FAE70B
:1014300000B00240DE06002000010300000020C0D2
:1014400070B4244C246814F0010FFAD10025224C0A
:101450002570204C214D256002256563BDF80C5098
:10146000A563C1EB0116750105441D4E06EB45054C
:10147000E56399421ED0904228D1164A40F2DF100F
:1014800010645B1A013343F480335364114B9A6840
:1014900042F03F029A601A6842F001021A600D4B56
:1014A0001B6813F0010FFAD10B4B1B785BB90020BE
:1014B00070BC704700232364131A01331B0443F0EC
:1014C00001036364E2E74FF0FF30F1E74FF0FF30D4
:1014D000EEE700BF00B00240DE060020000103007E
:1014E000000020C0134B1B6813F0010FFAD1114B01
:1014F000114A1A60114ADA60114ADA61114A5A61D6
:10150000114A5A624FF04042DA6300221A64022202
:101510005A630E4A5A649A6842F03F029A601A6807
:1015200042F001021A60034B1B6813F0010FFAD15D
:10153000704700BF00B0024000010200000020C060
:101540000200018F000040C0020001FF1001E00115
:101550000170090A417070470170C1F3072343709D
:10156000C1F307438370090EC170704710B404685B
:1015700004B32246511C13780A463A2B18BF202B7D
:10158000F8D83A2B04D0002318465DF8044B704776
:101590002378A3F13002D2B2092A06D80234A1423C
:1015A00001D0012302E0303B00E00123002B04DCEA
:1015B0000160E9E74FF0FF33E6E74FF0FF33E3E781
:1015C0002DE9F04F85B0009001919346994603AA0A
:1015D0000121FFF781FE002840F08680DDF80C80B5
:1015E00008242CB1B8FBF4F24FF63E439A4229D8B6
:1015F00004B9FF244FF48052002148460DF02DFB22
:1016000009F5DF763F254FF0000ABAF1030F8CBFD2
:1016100000230123002D08BF00230BB1454514D33F
:101620004AF6552109F5FF70FFF792FF01230022CA
:1016300049460098FFF732FE002857D0012005B038
:10164000BDE8F08F6400E4B2CBE7019B53F82A7049
:10165000642F05D846D06423B8FBF3F303FB07F7E8
:10166000EB19984501D39D4201D9A8EB0507002F3E
:10167000D6D0294606F10800FFF76EFF394606F17D
:101680000C00FFF769FF86F804B03F22B5FBF2F3C8
:10169000B3FBF4F104FB1130C3EB8313EB1ADBB2A1
:1016A0000133DBB27070880800F0C0000343B370F0
:1016B000F1703D446B1EB3FBF2F2B2FBF4F104FB9C
:1016C0001120C2EB82129B1ADBB20133DBB27071C4
:1016D0008A0802F0C0021343B371F17110360AF1A7
:1016E000010A92E74746BBE70120A8E70020A6E7EA
:1016F0002DE9F04F91B010AC44F8140D0F4616468A
:101700001D462046FFF732FF0028C0F2EA82B44BA4
:1017100053F820300BB100221A70C4B23FB12046FA
:10172000FFF7B6FD10F0010F03D00323DAE2AD4F4F
:10173000F5E710F0040F01D00A23D3E27B680F9382
:10174000F3B10F9A531EB3F5004F01D21A4201D0E4
:1017500001230F9397F800B097F8019009F1FF3338
:10176000DBB2012B01D94FF00109BB685A1EB2F55B
:10177000004F0FD213F07F0F17D04FF400780BE01B
:101780000FAA03212046FFF7A7FD0028D9D0012387
:101790000F93D6E74FF40078FF68B7F1807F06D843
:1017A0007B1E1F4204D0002702E09846F4E7002782
:1017B0003F0B5FEA153A01D1112393E2002E00F0AE
:1017C000958210AA002342F8083D01212046FFF728
:1017D00083FD002840F08C821BF00803039307D19F
:1017E0000E9B3F2B0BD93F3B0E933F23009301E011
:1017F000002300930E9A7F2A04D80E2372E200235E
:101800000093F7E7802F00D980271BF0020002D059
:101810001BF0010F17D01BF0010F01D1132361E260
:1018200002230193704BD31806930894019C0996E8
:101830000A95032C0ED0002F3AD14FEA123E002118
:101840004FF0010B2DE003230193EBE71F46F0E778
:101850000324EEE77FB94FEA524E00234FF0010B0D
:1018600002E001334FEA4B0B604931F8131019B114
:101870008E45F6D200E0BB46B2FBFBF18B1C9B0011
:1018800003F6FF731E0B5A4B0B445A498B4200F26E
:101890003182002302934FF0200E1AE001314FEA0B
:1018A0004B0B554B33F811301BB19E45F6D200E07F
:1018B000BB46B2FBFBF340F6F5718B4254D90233C1
:1018C0005B0003F6FF731E0BC8F3D31302934FF0B4
:1018D000010E009B03EB0E0509FB0651029B194408
:1018E000DDF83CC001EB0C03013BCCF1000C03EA3A
:1018F0000C035B1A032C3ED0B3FBF9FC09FB1C3C28
:10190000BCF1000F03D0013B0EF1010E0135B3FB1A
:10191000F9F31E4401EB0B1300995B1A9A42C0F0D5
:10192000EB81A2EB0E0309FB163302995B1AB3FBA2
:10193000FBF3032C22D0022C3BD14FF6F5718B42E6
:1019400029D927B94FEA4B03402B7FF67FAF0028F8
:101950007FF47EAF002F40F0D3814FEA4B07802FFA
:101960007FF667AF0E23BDE103EB430301335B0852
:1019700003330124A5E79E441D44CBE74FF6F571E0
:101980008B42D8D8002F40F0B9815FEA5B077FF423
:1019900050AF0E23A6E140F6F5718B4209D8002F17
:1019A00040F0B0814FEA4B07802F7FF642AF0E2305
:1019B00098E1214601940495CDF81CE00596089C19
:1019C0000893099E0A9D40F6F572012914BF002173
:1019D0000121934298BF002181B10E2382E100BF13
:1019E000D8060020CC35010800002150BC35010884
:1019F0000A00FFFFFFFFFE0FAC3501084FF48057D0
:101A00003A46002130460DF028F9C34B03CB306035
:101A100071601A889B783281B372394606F10B00E7
:101A2000FFF796FD86F80DB0BDF81C1006F10E000C
:101A3000FFF78EFD86F8109006F11100019B032B35
:101A400000F0E2801FFA88F1FFF782FD0E99B1F5F0
:101A5000803F80F0DB8089B206F11300FFF778FD4C
:101A6000F82373753F2106F11800FFF771FDFF2180
:101A700006F11A00FFF76CFD009906F11C00FFF754
:101A80006BFD019B032B40F0C680069906F14300D5
:101A9000FFF762FD059906F12400FFF75DFD0221C5
:101AA00006F12C00FFF758FD012106F13000FFF789
:101AB0004FFD062106F13200FFF74AFD802386F82C
:101AC0004030292386F8423006F1470E934F0FCF5E
:101AD000C6F84700CEF80410CEF80820CEF80C3037
:101AE0003A88BB78AEF810208EF8123006F5FF77F2
:101AF0004AF655213846FFF72BFD0123009A31465F
:101B00002046FFF7CBFB002840F0FE80019B032B13
:101B100034D10123009A063231462046FFF7BEFB3E
:101B20004FF48052002130460DF097F87C49304642
:101B3000FFF712FD7B4906F5F270FFF70DFD089BDC
:101B4000591E06F5F470FFF707FD022106F5F67041
:101B5000FFF702FD4AF655213846FFF7F9FC01234D
:101B6000009F3A46073231462046FFF797FB012394
:101B70003A461A4431462046FFF790FB6A4A2A400B
:101B8000002130460DF069F84FF00008C84566D3D3
:101B9000019B032B40F09B805F46DDF810803D46A3
:101BA000574528BF55462B46424631462046FFF74B
:101BB00075FB002840F0AC80A8447F1BEFD1019A50
:101BC000032A00F088800E9BB3F5803F80F085806B
:101BD000022A40F084800422039B5BB90E9B0C9385
:101BE00000230D9333460CA92046FFF7E9FC03467A
:101BF000002877D1002211462046FFF76DFB002810
:101C000000F0888001236DE000211DE706F120002F
:101C1000FFF7A2FC24E7069906F12700FFF79CFCDA
:101C2000BDF8141006F11600FFF792FC802386F829
:101C30002430292386F8263006F12B0E3B4F0FCF98
:101C4000C6F82B00CEF80410CEF80820CEF80C30E1
:101C50003A88BB78AEF810208EF8123046E7019B28
:101C6000032B29D16FF007013046FFF775FC4FF0C9
:101C7000FF31301DFFF770FC6FF0704106F1080076
:101C8000FFF76AFC059D2F46554528BF57463B4642
:101C9000049A31462046FFF701FBB8BB4FF480524F
:101CA000002130460CF0D9FF049B3B440493ED1B0C
:101CB000E9D108F1010869E7019B012B04D11C4916
:101CC0003046FFF749FCDDE76FF00701F8E7DDF884
:101CD0001080029F63E70C227EE706227CE7012248
:101CE0007AE70B23184611B0BDE8F08F1123F9E70E
:101CF0000123F7E70E23F5E70E23F3E70E23F1E7C1
:101D00000E23EFE70E23EDE70123EBE70123E9E7DD
:101D10000123E7E70023E5E7DC350108E8350108A2
:101D2000525261417272416100F0FFFFFC350108BF
:101D3000F8FFFF00F8B504460E461746436823F047
:101D40007F7323F45F3323F47F7323F00303434A49
:101D50000A431343436001F0FFF9054607E00123FE
:101D6000002B6BD101F0F8F9401B0A2869D8A36950
:101D700013F0020F07D100233BB9A36913F0100F32
:101D8000EDD10023ECE70123F6E7A76201F0E4F9C7
:101D9000054607E00123002B55D101F0DDF9401B7A
:101DA0000A2852D8A36913F0400F07D100233BB98A
:101DB000A36913F0100FEDD10023ECE70123F6E740
:101DC000636823F07F7323F45F3323F47F7323F07E
:101DD0000303234A32431343636001F0BDF9054610
:101DE00006E001239BBB01F0B7F9401B0A2830D85D
:101DF000A36913F0040F07D100233BB9A36913F0C3
:101E0000100FEED10023EDE70123F6E7656AEDB28E
:101E100001F0A2F9064606E0012353B901F09CF94E
:101E2000801B0A2817D8A36913F0200FF4D10023D0
:101E3000F3E7E36943F02003E36100E0FF25284670
:101E4000F8BDFF25FBE7FF25F9E7FF25F7E7FF25AD
:101E5000F5E7FF25F3E7FF25F1E700BF002001804C
:101E60000024018282B08D4B1A6B42F004021A6387
:101E70001B6B03F004030193019B894B1B684022F9
:101E800092FAA2F2002A00F0ED80B2FA82F2520039
:101E9000032101FA02F223EA0202402393FAA3F398
:101EA000002B00F0E180B3FA83F35B00022101FA1A
:101EB00003F313437A4A13601368802292FAA2F262
:101EC000002A00F0D380B2FA82F25200032101FA14
:101ED00002F223EA0202802393FAA3F3002B00F01C
:101EE000C780B3FA83F35B00022101FA03F31343C3
:101EF0006B4A13609268402393FAA3F3002B00F01F
:101F0000B980B3FA83F35B00032101FA03F322EAF9
:101F10000303634A93609268802393FAA3F3002B30
:101F200000F0AA80B3FA83F35B00032101FA03F304
:101F300022EA03035A4A9360536823F0C0035360B4
:101F4000D368402292FAA2F2002A00F09780B2FAF7
:101F500082F25200032101FA02F223EA0202402334
:101F600093FAA3F3002B00F08B80B3FA83F35B00AA
:101F7000012101FA03F31343494AD360D368802255
:101F800092FAA2F2002A7DD0B2FA82F25200032124
:101F900001FA02F223EA0202802393FAA3F3002B50
:101FA00072D0B3FA83F35B00012101FA03F3134308
:101FB0003B4AD360136A402292FAA2F2002A65D00B
:101FC000B2FA82F292000F2101FA02F223EA02022F
:101FD000402393FAA3F3002B5AD0B3FA83F39B0068
:101FE000032101FA03F313432D4A1362136A80227B
:101FF00092FAA2F2002A4DD0B2FA82F292000F2198
:1020000001FA02F223EA0202802393FAA3F3002BDF
:1020100042D0B3FA83F39B00032101FA03F3134385
:102020001F4A13621D4B5A6C42F002025A645B6CE9
:1020300003F002030093009B1A4B1A6A22F011026C
:102040001A6240F201129A6102221A6201229A6017
:102050001A6A42F011021A621A6842F001021A600A
:1020600002B07047202212E720231EE720222CE72F
:10207000202338E7202346E7202355E7202268E77E
:10208000202374E7202281E720238CE7202299E790
:102090002023A4E72022B1E72023BCE70038024038
:1020A000000802400004014082B00138052804D82D
:1020B000DFE800F0120507090C0F2D220DE0682261
:1020C0000BE0D02209E040F2A11206E040F21242F9
:1020D00003E040F6230200E034220E4B596C41F03D
:1020E000010159645B6C03F001030193019B0A4BEE
:1020F000196821F0010119604FF4001159600021A5
:102100009962013ADA621A6842F001021A6002B07A
:10211000704700BF003802400000014082B0134BFE
:102120001A6C42F004021A641B6C03F0040301935E
:10213000019B0F4B1A6822F001021A6042F20F72E3
:102140009A6240F2F312DA62DA6842F00102DA606F
:102150001A6842F001021A60064B402283F81E23DF
:102160004FF080421A6002B0704700BF0038024052
:102170000008004000E100E082B0134B1A6C42F00E
:1021800002021A641B6C03F002030193019B0F4BC4
:102190001A6822F001021A6042F20F729A6240F647
:1021A000C312DA62DA6842F00102DA601A6842F0B9
:1021B00001021A60064B402283F81D234FF00052A3
:1021C0001A6002B0704700BF0038024000040040AF
:1021D00000E100E008B5FFF745FE054B93F900006C
:1021E000FFF762FFFFF79AFFFFF7C6FF08BD00BFCA
:1021F0000D00002084B03D4B1A6B42F480021A633C
:102200001B6B03F480030193019B394A136823F08D
:1022100001031360364B1B6813F0010FFAD1354AE6
:10222000936843F03D039360314B334A1A6040F2A8
:1022300094525A60314A9A60314ADA601A6842F020
:1022400001021A602F4B202283F838234FF080724E
:102250005A60264B1A6B42F001021A631B6B03F0A3
:1022600001030393039B284B1A68012393FAA3F3FA
:10227000002B36D0B3FA83F35B00032101FA03F39A
:1022800022EA0302012393FAA3F3002B2BD0B3FA23
:1022900083F35B00032101FA03F313431A4A13602B
:1022A000124B5A6C42F480725A645B6C03F4807374
:1022B0000293029B154B9A6822F001029A604FF03C
:1022C00000725A60124A9A6000225A631A614FF4EF
:1022D0008031104A51609A6842F001029A6004B05D
:1022E00070472023C8E72023D3E700BF003802400F
:1022F0001064024000640240100502004C200140BE
:102300004C08002000E100E00000024000200140F5
:102310000003001A002301400B4B9A6822F00102CF
:102320009A600A4A0A49116040F29451516011685A
:1023300041F0010111601A6822F020021A609A68C7
:1023400042F001029A607047002001401064024090
:102350001005020084B03E4B1A6B42F480021A63EF
:102360001B6B03F480030193019B3A4A136823F02B
:1023700001031360374B1B6813F0010FFAD1364A83
:10238000936843F474639360324B344A1A6040F2AA
:1023900094525A60324A9A60324ADA601A6842F0BD
:1023A00001021A60304B202283F839234FF000726B
:1023B0005A60274B1A6B42F020021A631B6B03F022
:1023C00020030393039B294B1A684FF4806393FA0D
:1023D000A3F3002B38D0B3FA83F35B00032101FA97
:1023E00003F322EA03024FF4806393FAA3F3002B72
:1023F0002CD0B3FA83F35B00032101FA03F31343F8
:102400001A4A1360124B5A6C42F480625A645B6C35
:1024100003F480630293029B154B9A6822F0010239
:102420009A604FF000725A60124A9A6008225A630A
:1024300000221A614FF480310F4A51609A6842F0CD
:1024400001029A6004B070472023C6E72023D2E738
:102450000038024028640240006402401005020473
:102460004C220140382E002000E100E00014024020
:10247000002201400003001A0023014008B5FFF7C5
:10248000B9FEFFF767FF08BD0B4B9A6822F0010207
:102490009A600A4A0A49116040F2945151601168E9
:1024A00041F0010111601A6822F020021A609A6856
:1024B00042F001029A607047002201402864024005
:1024C0001005020486B0A44B1A6B42F480721A63A2
:1024D0001B6B03F480730593059BA04B1B680222C2
:1024E00092FAA2F2002A00F01D81B2FA82F25200A2
:1024F000032101FA02F223EA0202022393FAA3F370
:10250000002B00F01181B3FA83F35B00012101FA83
:1025100003F31343914A13609268022393FAA3F3DF
:10252000002B00F00381B3FA83F35B00032101FA6F
:1025300003F322EA0303894A9360536823F00203FA
:1025400053604FF400339361834B196B41F48071F6
:1025500019631B6B03F480730493049B12684FF49C
:10256000006393FAA3F3002B00F0E280B3FA83F345
:102570005B00032101FA03F322EA0303774A1360A5
:1025800093684FF4006292FAA2F2002A00F0D2801F
:10259000B2FA82F25200032101FA02F223EA0202A5
:1025A0004FF4006393FAA3F3002B00F0C580B3FA55
:1025B00083F35B00032101FA03F31343674A93603B
:1025C000654B5A6C42F480425A645B6C03F480435E
:1025D0000393039B624B1A6922F470424FF47043D9
:1025E00093FAA3F3002B00F0A980B3FA83F3082138
:1025F00001FA03F313435A4A13615A4B1A6842F41F
:1026000000621A60DA6842F40062DA604FF4006235
:102610005A61554BE02283F828234FF480725A60A8
:102620004D4B1A6B42F040021A631B6B03F04003E0
:102630000293029B4D4B1A68402393FAA3F3002B9D
:102640007ED0B3FA83F35B00032101FA03F322EA9D
:102650000303464A13609368402292FAA2F2002ACA
:1026600070D0B2FA82F25200032101FA02F223EA98
:102670000202402393FAA3F3002B65D0B3FA83F34D
:102680005B00032101FA03F31343384A9360D368D4
:10269000402292FAA2F2002A58D0B2FA82F25200F4
:1026A000032101FA02F223EA0202402393FAA3F380
:1026B000002B4DD0B3FA83F35B00012101FA03F341
:1026C00013432A4AD360244B5A6C42F480425A6422
:1026D0005B6C03F480430193019B214BDA6822F485
:1026E00070624FF4706393FAA3F39BB3B3FA83F36E
:1026F000062101FA03F31343194AD360194B1A68F0
:1027000042F040021A609A6842F040029A60402209
:102710005A61154BE02283F817234FF400021A6028
:1027200006B070472022E2E62023EEE62023FCE6F6
:1027300020231DE720222DE720233AE7202356E718
:10274000202380E720228EE7202399E72022A6E796
:102750002023B1E72023CBE70038024000200240CD
:1027600000380140003C014000E100E00018024058
:10277000F0B486B0984B1A6822F080521A60D3F8F1
:10278000882096491140964A0A43C3F88820D3F816
:102790008C2022F4403242F48032C3F88C201A6834
:1027A00042F080521A608C4B1B6813F0005FFAD025
:1027B000894B1A6B42F010021A631A6B02F0100276
:1027C0000592059A874A116821F4407111601168D9
:1027D00041F400711160916821F440719160916839
:1027E00041F400719160116A21F470211162116A43
:1027F00041F4602111621A6B42F040021A631A6BB5
:1028000002F040020492049A774A116821F0407164
:102810001160116841F000711160916821F0407100
:102820009160916841F000719160516A21F47021CA
:102830005162516A41F4602151621A6B42F4807214
:102840001A631A6B02F480720392039A67490A684A
:10285000674E32400A600C68664D2C430C608868F5
:10286000304088608A682A438A60486A624A024027
:102870004A62486A614A02434A621A6B42F4007231
:102880001A631A6B02F400720292029A5C4A106890
:1028900000F04070106014685A4D2C431460946826
:1028A00004F040749460906828439060106A00209F
:1028B0001062106A40F0EE301062506A00F470202E
:1028C0005062546A5048204350621A6B42F480624E
:1028D0001A631A6B02F480620192019A4B4A1068E3
:1028E0004B4F3840106015684AF62A26354315606C
:1028F00094683C409460906830439060106A00F4A3
:1029000070401062146A434820431062086820F047
:1029100040700860086840F080700860106820F01F
:10292000C0001060106840F0400010604FF480500C
:102930008861082191615A6C42F080625A645B6C34
:1029400003F080630093009B334B42F220229A6194
:10295000324A9A60324ADA6002F1F07202F5887205
:102960001A6102F5001202325A614FF47F02DA62F4
:10297000DA6B42F00F02DA635A6B42F006025A63D6
:10298000284A29495160A1F57A012A39916002212A
:102990001161FF21516140F20541D1614FF0404189
:1029A00091622249D1624FF488711163116841F03C
:1029B000010111605A6A42F001025A629A6942F0BA
:1029C00001029A611A4B202283F859234FF00072BA
:1029D0009A6006B0F0BC7047003802403F80FF8F1D
:1029E0000030005000100240001802400020024059
:1029F000FFFFC303000028A80FF00F00E00EE0EE79
:102A000000240240AAAAAAA8EEEEE0EE00280240A6
:102A1000C000FFFFEE0EEEEE006801400900280046
:102A20000B0035008468014036001502C303C00363
:102A300000E100E070B588B08F4B9A6B42F0010264
:102A40009A639A6B02F001020792079A1A6B42F09E
:102A500004021A631A6B02F004020692069A874A6D
:102A6000116821F0C0011160116841F0800111600E
:102A7000916821F0C0019160916841F080019160FE
:102A8000116A21F470411162116A41F440411162EE
:102A90001A6B42F008021A631A6B02F008020592E0
:102AA000059A774A1168774E314011601468764D67
:102AB0002C43146090683040906091682943916085
:102AC000116A21F0FF011162116A41F0CC0111621B
:102AD000506A6E4901405162506A6D49014351622A
:102AE0001A6B42F010021A631A6B02F01002049281
:102AF000049A684A116843F6F07631401160146810
:102B000005F1286505F500452C43146090683040B8
:102B10009060916829439160106A5F490140116299
:102B2000106A5E4901431162516A00215162516A83
:102B300041F0CC3151621A6B42F020021A631A6BD9
:102B400002F020020392039A554A1168554E314013
:102B500011601468544D2C431460906830409060AC
:102B6000916829439160116A01F07F411162106AF6
:102B70004E4901431162516AC1F30B015162506A1F
:102B80004B49014351621A6B42F040021A631A6BBF
:102B900002F040020292029A464A1168464E3140C3
:102BA00011601468454D2C4314609068304090606B
:102BB000916829439160116A01F0FF211162116A45
:102BC00041F0CC111162506A3D4901405162506A96
:102BD0003C49014351621A6B42F080021A631B6B3D
:102BE00003F080030193019B374B1A6822F44C6277
:102BF0001A601A6842F408621A609A6822F44C62F9
:102C00009A609A6842F408629A60196A2F4A0A40E8
:102C10001A62196A2E4A0A431A622E4B41F654125E
:102C20001A602D4A9A6011221A612A4B9B6913F08F
:102C3000200FFAD10120FEF7CBF91222254B1A61A1
:102C4000244B9B6913F0200FFAD1F322214B1A6118
:102C5000204B9B6913F0200FFAD1204A1D4B1A61BB
:102C60001C4B9B6913F0200FFAD140F60642194B1A
:102C70005A6108B070BD00BF003802400008024031
:102C8000000C0240F0FFC00F0A002AA000F0FF0075
:102C9000CC0C00CC0010024000FFFF0FCC0000C0A5
:102CA0000014024000F03F00AA0A80AACCCCCC005D
:102CB00000C0CCCC00180240F0F0FC3F0A0A0280B1
:102CC000F0FFFF0F0C0000C0001C0240FF0F0FFFC1
:102CD00000C0C000400100A0616311011440040065
:102CE00082B0224B1A6B42F400021A631B6B03F48E
:102CF00000030193019B1E4B1B6813F0010FFAD1D7
:102D00001B4B1C4A1A6000229A631B4ADA63022298
:102D10005A631A4A5A649A6842F03F029A601A68E3
:102D200042F001021A60124B1B6813F0010FFAD136
:102D30000F4B104A1A6000229A63A2F17F52DA63A5
:102D400002225A630D4A5A649A6842F03F029A601E
:102D50001A6842F001021A60094B202283F85A23B4
:102D60004FF080629A6002B0704700BF00380240A6
:102D700000B0024000010300000020C01001E0018B
:102D800000E100E082B07C4B1A6B42F080021A63D3
:102D90001B6B03F080030193019B784B1B6880221F
:102DA00092FAA2F2002A00F0CF80B2FA82F2520028
:102DB000032101FA02F223EA0202802393FAA3F329
:102DC000002B00F0C380B3FA83F35B00022101FA09
:102DD00003F31343694A136013684FF4807292FA45
:102DE000A2F2002A00F0B480B2FA82F2520003216B
:102DF00001FA02F223EA02024FF4807393FAA3F37A
:102E0000002B00F0A780B3FA83F35B00022101FAE4
:102E100003F31343594A13609368802292FAA2F293
:102E2000002A00F09980B2FA82F25200032101FADE
:102E300002F223EA0202802393FAA3F3002B00F0AC
:102E40008D80B3FA83F35B00022101FA03F313438D
:102E50004A4A936093684FF4807292FAA2F2002A71
:102E60007ED0B2FA82F25200032101FA02F223EA82
:102E700002024FF4807393FAA3F3002B72D0B3FADB
:102E800083F35B00022101FA03F313433B4A93608F
:102E9000536843F4C0735360136A802292FAA2F21B
:102EA000002A61D0B2FA82F292000F2101FA02F2F6
:102EB00023EA0202802393FAA3F3002B56D0B3FA3D
:102EC00083F39B00042101FA03F313432B4A13629B
:102ED000536A012292FAA2F2002A49D0B2FA82F28F
:102EE00092000F2101FA02F223EA0202012393FA6F
:102EF000A3F3002B3ED0B3FA83F39B00042101FA25
:102F000003F313431D4A53621B4B1A6C42F4000235
:102F10001A641A6C02F400020092009A1A6A42F4CF
:102F200000021A621A6A22F400021A62A3F5EE3352
:102F3000134A1A615A6842F000725A601A6842F0E5
:102F400001021A6002B07047202230E720233CE7DC
:102F500020224BE7202358E7202266E7202372E750
:102F6000202280E720238CE720229DE72023A8E76A
:102F70002022B5E72023C0E700380240001C0240B1
:102F80003227914082B0394A136843F4803313608A
:102F9000364B1B6813F4003FFAD0344B5A6834495F
:102FA0001140344A0A435A601A6842F080721A602B
:102FB0002E4B1B6813F0007FFAD02C4B1A6C42F09A
:102FC00080521A641B6C03F080530193019B2A4AC0
:102FD000136843F480331360274B5B6813F4803F1E
:102FE000FAD0254A136843F400331360224B5B6820
:102FF00013F4003FFAD0214A136823F00F0343F083
:10300000060313601D4B1B6803F00F03062BF9D159
:10301000164A936823F0F0039360936823F0030348
:1030200043F002039360114B9B6803F00C03082BE1
:10303000F9D10E4A936823F4E05343F4A05393600C
:10304000936823F4604343F4004393600C4B0D4AB0
:103050005A60F0210C4A82F8231000229A6007225D
:103060001A600A4A0A4B1A6002B0704700380240E0
:103070000080BCFF1964400000700040003C02402A
:1030800010E000E03F0D030000ED00E000C2EB0B9C
:1030900010000020244B5B6913F4003F13D1BFF3F1
:1030A0004F8FBFF36F8F204B0022C3F85022BFF326
:1030B0004F8FBFF36F8F5A6942F400325A61BFF3EA
:1030C0004F8FBFF36F8F184B5B6913F4803F2AD18A
:1030D00010B4154B0022C3F88420BFF34F8FD3F8F0
:1030E0008040C4F34E300FE01A4643F6E07303EA23
:1030F000401343EA82730C49C1F86032531E002A20
:10310000F2D1431E18B11846C4F3C902EDE7BFF36C
:103110004F8F4B6943F480334B61BFF34F8FBFF345
:103120006F8F5DF8044B704700ED00E0BFF35F8FD9
:10313000074B00225A609A604FF04042DA60054A1D
:103140001A6105225A60BFF34F8FBFF36F8F70472C
:1031500090ED00E02D000813014B1868704700BF88
:10316000E406002008B5044A536983F00203536162
:103170006420FDF72DFFF6E7002002402DE9F84F0F
:10318000FFF788FFFFF7FEFEFFF7D0FFFFF752FCC7
:10319000FFF7EEFAFFF7A4FDFFF71CF8FFF792F92F
:1031A000FFF7F0FDFEF7BCF84FF488734FF4F072B0
:1031B000C349C44803F090F9C349012003F0DEFE7F
:1031C000012003F0E9FEC149002003F0D7FE0020F2
:1031D00003F0E2FE002003F0F7F904F005FE06F02C
:1031E0005DFD00F0BBFF01F011FB01F031FEB84BBB
:1031F0001B6913F4006F12D00222B54B9A614FF491
:103200008053B44AB449B548FEF772FA014698B9FA
:10321000B3480BF0A3FD4FF40032AD4B9A6109F0B7
:1032200033F9FFF72BF94FF00009CA464FF0FF388A
:103230004D464C46012658E2AA480BF017FDFFF711
:1032400091FFA94B1B78A94AD35C012B00F0618246
:103250004AF655520621A64804F058FC59E2B7F147
:10326000FF3F00F06082A04B1B78A04AD35C012B8B
:1032700000F0F6819F4B1B78032B00F0DD810020CE
:10328000FEF774F89C4B93F800A0B7F5ED7F19DAC0
:103290009A4B1B789A4AD35C13B9B7F1FF3F0FD012
:1032A000984A14883C1B24EAE47413B9B7F1FF3F31
:1032B00027D0944B1D88ED1B25EAE57500229BE085
:1032C0000024F2E7A7F5ED73B3F5F07F0CD28B4B3A
:1032D0001B788B4AD35C13B9B7F1FF3F13D0894BEE
:1032E0001C883C1B0025E9E7844B1B78844AD35C8F
:1032F00013B9B7F1FF3F0AD0824B1C883C1B002555
:10330000DCE70025DAE700254FF4ED74D6E7002569
:103310004FF46D74D2E7EF2B40F39380EF2390E0EE
:1033200077238EE000238FE0C3F1FE0391E0EF2BC3
:1033300000F30081002BC0F2FF80BEF1000F40F0CF
:10334000FD80C3F1FE03B0F5F07F09DAC3EB031390
:103350004FEA831EAEF17F5E40F2FF732EF810300D
:10336000694B1B78002B46D0012B00F0EA80022B22
:1033700000F01281032B00F03681644B5B5CDBB202
:1033800007EE903AB8EE677A614B5B5CDBB207EE12
:10339000903AF8EEE77A67EE877A9FED5E7A67EE0D
:1033A000877A5D4BB3F9003007EE103AB8EEC77A72
:1033B00037EE277A594B1978594B03EB8103D3ED3C
:1033C000006AC7EE267AFDEEE77A17EE903AEF2B09
:1033D00000DDEF23002BC0F22D81C3F1FE03B0F519
:1033E000F07F08DAC3EB03139901A1F17F514BF68B
:1033F000BA2321F810300132C4F5F0739A4280F2FA
:103400001F81A118414B5B5C4648B0F900000344A2
:1034100007EE903AB8EEE77A434B1878404B03EB4F
:103420008003D3ED006AC7EE267AFDEEE77A17EE49
:10343000903A3048007800287FF46DAF772B3FF743
:103440006FAF002BFFF66EAF00287FF46DAFC3F1B6
:103450008603A818B0F5F07F09DAC3EB03134FEA2F
:10346000831EAEF17F5E4FF4FC632EF81030214BCB
:1034700093F800E0BEF1020F3FF472AF244B5B5CA7
:10348000DFF8ACC0BCF900C0634407EE903AB8EE78
:10349000E77A264B93F800C0214B03EB8C03D3ED66
:1034A000006AC7EE267AFDEEE77A17EE903ABEF193
:1034B000000F7FF43CAF772B7FF73CAF772339E7E2
:1034C00005130008A0630020BD1300084114000884
:1034D00000200240000060C0103601083C3701089F
:1034E000F836010818370108EC0600202C360108D0
:1034F000C4620020E80600200D000020EF06002036
:103500005C36010806000020EA0600204C08002076
:10351000382E00200000803B020000200400002024
:10352000D8360108F20600200E0000200F0000200F
:10353000F6060020EF23FDE60023FEE6C3F1FE03BE
:1035400001E7AC4B5B5CDBB207EE903AB8EE677A12
:10355000A94B5B5CDBB207EE903AF8EEE77A77EEC8
:10356000877AB6EE007A67EE877AA44BB3F900301B
:1035700007EE103AB8EEC77A37EE277AA04B1978E3
:10358000A04B03EB8103D3ED006AC7EE267AFDEE74
:10359000E77A17EE903A1AE7964B5B5CDBB207EEE0
:1035A000903AF8EE677A954BB3F9003007EE103A8F
:1035B000B8EEC77A77EE277A8F4B5B5CDBB207EE0B
:1035C000103AB8EEC77A37EEC77A8D4B19788D4B23
:1035D00003EB8103D3ED006AC7EE267AFDEEE77AAE
:1035E00017EE903AF3E6844B5B5CDBB207EE903A61
:1035F000B8EE677A814BB3F9003007EE903AF8EEF7
:10360000E77A77EE877A7B4B5B5CDBB207EE103AAA
:10361000B8EEC77A37EEC77A794B1978794B03EB56
:103620008103D3ED006AC7EE267AFDEEE77A17EE46
:10363000903ACCE60023D0E6734B1B78002B79D16F
:10364000724B1B78724AD35C012B00F09980B7F162
:10365000FF3F05D049F6666206216E4804F056FA2F
:103660006A4B1B786A4AD35C012B00F092806A4B4C
:103670001B786A4AD35C012B03D0FEF74DFEFEF7A0
:1036800003FF654B1B78654AD35C012B00F08680F5
:10369000634B1B78002B40F025825B4B1B78002B83
:1036A00040F03E825F4B1B78002B40F06B825E4BFC
:1036B0005F6AC7F34E07BE4213D01E68C6F30016FA
:1036C00006F0E0FA20B906F0E3FA002800F0608284
:1036D00006F0DEFA002840F06082304608F03EFA3C
:1036E0003E4604F07BF8FDF7FDFE504B1B78002BA7
:1036F000C7D04F4B1B78002BC3D000234C4A13700C
:103700004A4A137002F0A4F90746B0F1FF3F3FF4B4
:1037100098AD3E4B1B783E4AD35C002B3FF4A3ADE3
:10372000012B3FF49CAD022B9AD1B7F1FF3F7FF400
:103730009AAD95E70020FDF719FE3E4B187800F092
:1037400067FD00200EE0C1F1FE03C3EB03139A01F5
:10375000A2F17F524BF6BA2322F8103001318E4588
:10376000F1DA0130B0F5F07FBFF66AAF324B13F8F3
:1037700000E0BEF1EF0F01DD4FF0EF0E0021EEE7AC
:10378000082006F0F1F9002007F0C8F94FF0FF37E4
:1037900066E7B7F1FF3F7FF474AF68E7274B1B780C
:1037A000002B40F0878001F05BFE00284ED1234BB8
:1037B0001B78002B3FF46CAF214B1B78994500F030
:1037C000B680291B0029B8BF49425246C1F5F071A5
:1037D000204602F019FA8046B0F1FF3F00F09680D3
:1037E000174B93F80090174B1A88174B1A60012358
:1037F000AFE000BF4C080020382E0020020000205F
:1038000004000020D8360108EB060020EF06002057
:103810005C360108C4620020EC0600202C3601084A
:1038200038070020E006002000040140DC060020EC
:10383000DD060020E9060020D0330020ED06002040
:103840000D0000200600002008000020B749B848FD
:1038500001F00EFEB74B1B78032BA8D0B64B1B789C
:10386000002BA4D1B14B1B88D72BA0D9B3F5847FF3
:103870009DD8AF4B1B886F2B99D9A02B97D80122CD
:10388000AE4B1A70AE4B1A88AE4B1A6006F020FD94
:10389000291B0029B8BF494253465246C1F5F07171
:1038A000204602F0B1F9804601F0DAFD0028FBD194
:1038B000D1467CE701F0D4FD00283FF478AF9B4F60
:1038C00039469B4801F0D4FD3B88D83B9BB2302B56
:1038D0003FF66DAF964B1B886F2B7FF668AFA02B22
:1038E0003FF665AF0022954B1A7008F0D9FC04F042
:1038F00075FA06F065F9082006F036F9012007F0A0
:103900000DF901F0ADFD0028FBD150E7032006F0D2
:103910002BF98D4B1B78994504D2012007F0FEF856
:10392000002316E0002007F0F9F8002311E0874B90
:103930001B785BB9864B1B7843B9864B1B782BB938
:10394000854B1B7813B9854B1B786BB306F0C0FC15
:103950000123002B3FF49CAE404602F0F3F808F13F
:10396000FF31784B1B68C21A0F469142A8BF174619
:1039700027EAE777984204D0A3EB000EBEF1000FD0
:1039800014DDA3EB000B40F2DF1EF345A8BFF346A6
:1039900091420EDAA0EB080301336A4A136000205B
:1039A000FDF7E4FC00222EE00023D2E74FF0000BED
:1039B000EEE71B1AB3F5F07FF1DB00F2DF10614B8D
:1039C0001860ECE7EF2B41DDEF233FE077233DE08C
:1039D00000233DE0C3F1FE033EE0EF2B6FDC002B44
:1039E0006FDBBEF1000F6ED1C3F1FE03B1F5F07FC6
:1039F00008DAC3EB03139801A0F17F5040F2FF7384
:103A000020F811300132B2F5F07F5FDAD01980452D
:103A10005CDD534B195C534BB3F900300B4407EE9C
:103A2000903AB8EEE77A504B1978504B03EB81038C
:103A3000D3ED006AC7EE267AFDEEE77A17EE903AEC
:103A40003C4909780029BDD1772BBFDC002BBFDBB7
:103A50000029BFD1C3F1860302EB0B01B1F5F07F62
:103A600009DAC3EB03134FEA831EAEF17F5E4FF416
:103A7000FC632EF811302F4B93F800E0BEF1020FDB
:103A8000C0D03B4B185C3B4BB3F90030034407EE0E
:103A9000903AB8EEE77A384B1878344B03EB800352
:103AA000D3ED006AC7EE267AFDEEE77A17EE903A7C
:103AB000BEF1000F91D1772B91DD77238FE7EF23B4
:103AC0008DE700238DE7C3F1FE038FE70023234A30
:103AD0001370214A13701F4A13701D4A13701B4A3A
:103AE0001370D5E501F0BCFC98B1104FDFF840B081
:103AF0003946584601F0BCFC0122BBF90010B7F969
:103B0000000003F05FFA05F0F5FB00221B4B1A7072
:103B1000C3E500224FF0FF31084603F053FAF2E705
:103B200005F0D2FD0022164B1A70BBE5BA35002015
:103B3000BC350020E8060020EA060020ED06002043
:103B400006000020080000200D000020F9060020DB
:103B5000FA060020F4060020F8060020EE060020F9
:103B600080480020F20600200E000020D836010810
:103B7000C0350020F60600200F0000203807002086
:103B8000EB06002006F000F80022064B1A708EE5C6
:103B9000304606F0C3FF3E46A3E5304606F0E2FBA2
:103BA0003E469EE5E006002000210B4600E0013382
:103BB000B3F5F07F06D2C25CD2B29142F7D2C15CBB
:103BC000C9B2F4E708467047FF21002300E0013343
:103BD000B3F5F07F06D2C25CD2B29142F7D9C15C94
:103BE000C9B2F4E70846704738B50546FFF7DCFF71
:103BF00004462846FFF7E8FF201AC0B238BD00008F
:103C00000022134602E0C15C0A440133B3F5F07FA1
:103C1000F9D3034BA3FB0232C2F30720704700BF66
:103C2000898888882DE9F04F2DED048B85B000AF91
:103C3000834679601646984697F84830BB6002EB99
:103C40000803013BFB60DFED7A8A60EE288ADB0027
:103C50000833ADEB030D6D46ADEB030DEA4640F2C4
:103C60002123984505D0734B3B60DFF8DC9100249D
:103C700031E0714B3B60DFF8D491F8E79FED6F7A4C
:103C800041E0DFED6E7A45E0630067EE096A27EEFA
:103C9000806A36EEC66A1BF8042006EE902AF8EE1B
:103CA000E66A66EE866A05EBC402C2ED006A01337D
:103CB00067EE897A27EE007A77EE877A1BF8042080
:103CC00000EE102AB8EEC00A60EE277A05EB8303F7
:103CD000C3ED007A0134B4425CD207EE904AB8EEEC
:103CE000678A28EE688AB0EE480A0AF037FCB0EE20
:103CF000409AB0EE480A0AF0EBFB4445BED209EB0D
:103D0000C40393ED007A4445BBD2E30004334B4433
:103D1000D3ED007ABB68002B18BFB4F5F07FB3D2A7
:103D2000630067EE096A27EE806A76EEC66A1BF8C2
:103D3000042006EE102AB8EE466A414A02EB8402DD
:103D4000D2ED005A26EE256A66EE866A05EBC402BD
:103D5000C2ED006A013367EE897A27EE007A77EECA
:103D6000877A1BF8042007EE102AB8EE477A65EE32
:103D7000875A67EEA57A05EB8303C3ED007AA9E7BE
:103D8000730005EBC60100220A60013305EB8303D3
:103D90001A600136FB689E42F2D32A4C01230022AE
:103DA0002946204609F07AFDFB682A4639682846EC
:103DB0000AF054FA01231A462946204609F06EFDFE
:103DC000002128E0CA0009EB0203D3ED007A131D9D
:103DD0004B44D3ED006A4B00A81890ED007A27EE13
:103DE000877A01339B00EC1894ED006A26EE866A10
:103DF00037EE467A524482ED007A94ED007A67EE0F
:103E0000877A90ED007A66EE876A77EEA67A534459
:103E1000C3ED007A01314145D4D34246796850461A
:103E20000AF0E6FA1437BD46BDEC048BBDE8F08F0E
:103E3000DB0FC9405059010850790108000000000B
:103E400050990108FC060020403701084848010845
:103E500010B52DED028BADF5935D86B000220EE01E
:103E6000835CDBB205A98B540DF6782101EB82014E
:103E700007EE903AF8EE677AC1ED007A0132B2F5BA
:103E8000F07FEDD34FF4F07306E00DF6782202EBED
:103E90008302002111600133B3F5007FF5D30DF6E5
:103EA000782400237DAA2146534809F0AFF94FF446
:103EB000807221467DA80AF09BFA0023236003ABA1
:103EC00004AA4FF48071204608F060FFDDED047A0B
:103ED000F5EE407AF1EE10FA00F08A80474B41F29D
:103EE00078226A44D258FF2A41D0002A4FD107EEE7
:103EF000902AB8EE678ADFED427A28EE278A531CB3
:103F000008EE903AF8EE688A68EEA78A00230093DC
:103F100040F221234FF4F072F0EE680AB0EE480A46
:103F20007DA905A8FFF77EFE344C41F278236B444F
:103F3000234404AA40F221217DA808F027FF78EE4F
:103F4000C88A41F278236B441B5907EE903AF8EE89
:103F5000677A67EEA88ADFED2B7A88EEA70A38EE3B
:103F6000000A0DF5935D06B0BDEC028B10BD531E2B
:103F700008EE103AB8EE488ADFED218A28EE288A4A
:103F800007EE902AF8EE677A67EEA88ABEE7501E21
:103F90000DF6782303EB800393ED007A531C0DF6A6
:103FA000782101EB8301D1ED007AB4EEE77AF1EEEE
:103FB00010FA0EDD07EE900AB8EE678ADFED108A80
:103FC00028EE288A07EE902AF8EE677A67EEA88A2C
:103FD0009CE707EE902AB8EE678ADFED097A28EEB3
:103FE000278A07EE103AF8EE478A68EEA78A8DE72F
:103FF0009FED050AB5E700BF0C07002094EDFFFF19
:104000000000003B004008440000000010B582B0F2
:104010000446FFF71DFFF7EE007A87EE807A17EE71
:10402000100AFCF7B1FA41EC100B0EF071FD51ECE7
:10403000100BFCF7F5FD07EE100ADFED2A6AC6EE5D
:10404000877AFCEEE77AF8EE677A67EE877A17EE02
:10405000900AFCF799FA41EC100B0EF061FE51EC5E
:10406000100BFCF7BDFDB0F5F07F01D94FF4F070F7
:104070009FED1D7A002208E0A35CDBB207EE903AC8
:10408000F8EEE77A37EE277A01329042F4D807EE5D
:10409000900AB8EE676AC7EE066A0022114600E091
:1040A000013290420CD9A35CDBB207EE903AF8EEF5
:1040B000E77AF4EEE76AF1EE10FAF1D50131EFE7B5
:1040C00007EE901AF8EE677A9FED087A67EE877A26
:1040D00087EE867AFCEEC77ACDED017A9DF8040072
:1040E00002B010BD0000F043000000000000C84214
:1040F00000B583B0DFED176A002210E0835CDBB20D
:1041000007EE903AB8EE677A835CDBB207EE903A3E
:10411000F8EE677A67EE277A76EEA76A0132B2F593
:10412000F07FEBD3DFED0C7A86EEA70AB5EEC00A7E
:10413000F1EE10FA0ADB0EF0B9FEFCEEC07ACDED1E
:10414000017A9DF8040003B05DF804FB9FED010ABD
:10415000F3E700BF000000000000F04308B54FF493
:104160000071044808F064FF4FF48061024808F0D1
:1041700077FE08BD0C070020FC06002008B50128CA
:1041800011D02048012910D0022911D0032916D0BE
:1041900004291BD0052920D0062925D007292AD09B
:1041A0009FED190A08BD1948ECE7FFF751FE08BD5D
:1041B000FFF72CFF07EE900AB8EE670A08BDFFF77D
:1041C00097FF07EE900AB8EE670A08BDFFF7ECFC10
:1041D00007EE900AB8EE670A08BDFFF7F5FC07EE98
:1041E000900AB8EE670A08BDFFF7FEFC07EE900ADA
:1041F000B8EE670A08BDFFF703FD07EE900AB8EEB8
:10420000670A08BD1230002000000000260A0020C6
:1042100010B5ADF51B6D012802D04148002306E022
:104220004048FBE7C15C0DF28C72D1540133B3F509
:10423000F07FF7D34FF4F07304E000210DF28C729D
:10424000D1540133B3F5087FF7D9012300934FF41C
:10425000F07340F22122F6EE000A9FED330A03A923
:104260000DF28C70FFF7DEFC002424E003AB03EBBF
:10427000840393ED007ADFED2D7A77EE277A17EE3F
:10428000900AFCF781F941EC100B0EF08FFD002233
:10429000274B51EC100BFCF7CBF90022254BFCF718
:1042A00013F81DA3D3E90023FCF7ECFAFCF798FC04
:1042B000214B18550134B4F5F07F28D2002CD5D00D
:1042C00003AB03EB8403D3ED007A9FED187A77EE0E
:1042D000877A77EEA77A17EE900AFCF755F941EC4A
:1042E000100B0EF063FD0022114B51EC100BFCF78C
:1042F0009FF900220F4BFBF7E7FF07A3D3E9002349
:10430000FCF7C0FAFCF76CFC0B4B1855D2E70DF527
:104310001B6D10BDAFF30080000000403333C33F7E
:10432000382E00204C08002000000000BD378635E4
:104330000000244000804E40D03300201D4B5962C5
:104340009A621422DA621A6842F480021A60082221
:10435000DA605A6922F0406242F000625A615A699A
:1043600022F4407242F480725A615A6922F0FF02CC
:10437000104358615A6922F440625A615A6922F422
:10438000F8025A6100221A611A6842F001021A60AA
:104390005A6922F0407242F080725A61054B9B6864
:1043A00013F0200FFAD1034A136823F001031360BE
:1043B000704700BF001000A008B5184B5A6922F0E2
:1043C00040625A615A6922F4407242F480725A6122
:1043D0005A6922F440625A615A6922F4F8025A6119
:1043E0005A6922F040725A611A6842F001021A605A
:1043F0005A6922F0FF0242F006025A61074B9B689D
:1044000013F0200FFAD1054A136823F0010313605B
:10441000022211460520FFF791FF08BD001000A001
:104420001B4B59629A621422DA621A6842F48002C3
:104430001A600822DA605A6922F0406242F0006293
:104440005A615A6942F440725A615A6922F0FF0275
:10445000104358615A6922F440625A615A6922F441
:10446000F8025A6100221A611A6842F001021A60C9
:104470005A6942F040725A61054B9B6813F0200F55
:10448000FAD1034A136823F001031360704700BF99
:10449000001000A008B5174B5A6922F040625A611B
:1044A0005A6942F440725A615A6922F440625A6170
:1044B0005A6922F4F8025A615A6922F040725A612C
:1044C0001A6842F001021A605A6922F0FF0242F0B3
:1044D00006025A61074B9B6813F0200FFAD1054A78
:1044E000136823F001031360022211460520FFF731
:1044F00097FF08BD001000A0194B59629A62142260
:10450000DA621A6842F480021A600822DA605A6994
:1045100022F0406242F000625A615A6942F44072ED
:104520005A615A6922F0FF02104358615A6922F415
:1045300040625A615A6922F4F8025A6100221A61F3
:104540001A6842F001021A605A6942F040725A61D8
:10455000044B4FF08052C3F888219A60704700BF27
:10456000001000A000E100E0184B0322DA605A6955
:1045700022F0406242F080625A615A6942F440720D
:104580005A615A6922F0FF02104358615A6922F4B5
:1045900040625A615A6922F4F8025A6100221A6193
:1045A0001A6842F001021A605A6942F040725A6178
:1045B000064B9B6813F0020FFAD0044B1A6822F0E6
:1045C00001021A60186AC0B2704700BF001000A054
:1045D00008B5174B5A6922F040625A615A6942F491
:1045E00040725A615A6922F440625A615A6922F44F
:1045F000F8025A615A6922F040725A611A6842F010
:1046000001021A605A6922F0FF0242F050025A6118
:10461000074B9B6813F0200FFAD1054A136823F06B
:1046200001031360002230217020FFF7F9FE08BD5E
:10463000001000A010B50446FFF7CAFFFFF72AFFDD
:104640001F4B0322DA605A6922F040625A615A69AC
:1046500042F440725A615A6922F0FF0242F020028D
:104660005A615A6942F440625A615A6922F4F80266
:104670005A615A6922F040725A611A6842F0010286
:104680001A609C610E4B9B6813F0020FFAD00C4B22
:104690009B6813F0010F06D0094A136823F0010349
:1046A0001360012010BD064A136823F00103136054
:1046B000802211467020FFF71FFF002010BD00BFB1
:1046C000001000A00D4A136823F0010313600B4B88
:1046D0001B6813F0010FFAD1094AD36843F07463E1
:1046E000D360064B074A1A605960074A9A60D8603F
:1046F0001A6842F001021A60704700BFB8640240B5
:104700000064024000040006201000A00D4A136857
:1047100023F0010313600B4B1B6813F0010FFAD158
:10472000094AD36843F07463D360064B074A1A60A2
:104730005960074A9A60D8601A6842F001021A600C
:10474000704700BFB86402400064024040040006A5
:10475000201000A038B505460C46FFF79BFE4FF42D
:1047600080712846FFF7D2FF254B0322DA605A6991
:1047700022F040625A615A6942F440725A615A69A1
:1047800022F0FF0242F012025A615A6942F440627A
:104790005A615A6922F4F8025A615A6942F0407229
:1047A0005A61FF221A61174A22409A611A6842F040
:1047B00004021A601A6842F001021A60104B9B68EA
:1047C00013F0020FFAD00E4B1A6822F004021A609E
:1047D0009B6813F0010F06D0094A136823F0010308
:1047E0001360012038BD064A136823F001031360EB
:1047F000802211467020FFF77FFE002038BD00BFE9
:10480000001000A000FFFF00FEE7000086B0D04BC4
:104810001A6B42F002021A631A6B02F0020205924E
:10482000059A1A6B42F008021A631A6B02F008022A
:104830000492049A1A6B42F010021A631B6B03F085
:1048400010030393039BC34B1A68402393FAA3F30B
:10485000002B00F09D82B3FA83F35B00032101FA81
:1048600003F322EA0302402393FAA3F3002B00F0A0
:104870009182B3FA83F35B00022101FA03F313433D
:10488000B44A13601268042393FAA3F3002B00F0D8
:104890008382B3FA83F35B00032101FA03F322EA74
:1048A0000302042393FAA3F3002B00F07782B3FAF8
:1048B00083F35B00022101FA03F31343A54A13605B
:1048C000A54B1A684FF4006393FAA3F3002B00F092
:1048D0006782B3FA83F35B00032101FA03F322EA50
:1048E00003024FF4006393FAA3F3002B00F05A8203
:1048F000B3FA83F35B00022101FA03F31343964AF0
:10490000136012684FF4805393FAA3F3002B00F066
:104910004B82B3FA83F35B00032101FA03F322EA2B
:1049200003024FF4805393FAA3F3002B00F03E826E
:10493000B3FA83F35B00022101FA03F31343864ABF
:10494000136012684FF4005393FAA3F3002B00F0A6
:104950002F82B3FA83F35B00032101FA03F322EA07
:1049600003024FF4005393FAA3F3002B00F02282CA
:10497000B3FA83F35B00022101FA03F31343764A8F
:104980001360764B1A68042393FAA3F3002B00F00C
:104990001382B3FA83F35B00032101FA03F322EAE3
:1049A0000302042393FAA3F3002B00F00782B3FA67
:1049B00083F35B00022101FA03F31343674A136098
:1049C000644B9A68402393FAA3F3002B00F0F8811C
:1049D000B3FA83F35B00032101FA03F322EA030233
:1049E000402393FAA3F3002B00F0EC81B3FA83F396
:1049F0005B00032101FA03F31343564A9360926864
:104A0000042393FAA3F3002B00F0DE81B3FA83F3BF
:104A10005B00032101FA03F322EA0302042393FA61
:104A2000A3F3002B00F0D281B3FA83F35B000321E0
:104A300001FA03F31343474A9360474B9A684FF4D4
:104A4000006393FAA3F3002B00F0C281B3FA83F35F
:104A50005B00032101FA03F322EA03024FF400632F
:104A600093FAA3F3002B00F0B581B3FA83F35B0054
:104A7000032101FA03F31343374A936092684FF41A
:104A8000805393FAA3F3002B00F0A681B3FA83F3CB
:104A90005B00032101FA03F322EA03024FF480537F
:104AA00093FAA3F3002B00F09981B3FA83F35B0030
:104AB000032101FA03F31343274A936092684FF4EA
:104AC000005393FAA3F3002B00F08A81B3FA83F327
:104AD0005B00032101FA03F322EA03024FF40053BF
:104AE00093FAA3F3002B00F07D81B3FA83F35B000C
:104AF000032101FA03F31343174A9360174B9A6893
:104B0000042393FAA3F3002B00F06E81B3FA83F32E
:104B10005B00032101FA03F322EA0302042393FA60
:104B2000A3F3002B00F06281B3FA83F35B0003214F
:104B300001FA03F31343094A9360064B1A6A4023B0
:104B400093FAA3F3002B00F05381B3FA83F307E049
:104B50000038024000040240000C024000100240F5
:104B60009B000F2101FA03F322EA0302402393FA88
:104B7000A3F3002B00F03E81B3FA83F39B000A21DC
:104B800001FA03F31343A84A1362126A042393FA47
:104B9000A3F3002B00F03081B3FA83F39B000F21C5
:104BA00001FA03F322EA0302042393FAA3F3002B8E
:104BB00000F02481B3FA83F39B00092101FA03F387
:104BC0001343994A1362994B5A6A082393FAA3F341
:104BD000002B00F01581B3FA83F39B000F2101FA3B
:104BE00003F322EA0302082393FAA3F3002B00F055
:104BF0000981B3FA83F39B00092101FA03F31343FC
:104C00008A4A5362526A102393FAA3F3002B00F0EE
:104C1000FB80B3FA83F39B000F2101FA03F322EA2E
:104C20000302102393FAA3F3002B00F0EF80B3FAF2
:104C300083F39B00092101FA03F313437B4A536278
:104C4000526A202393FAA3F3002B00F0E180B3FA19
:104C500083F39B000F2101FA03F322EA03022023CE
:104C600093FAA3F3002B00F0D580B3FA83F39B00F3
:104C7000092101FA03F313436C4A53626C4B1A6A1D
:104C8000042393FAA3F3002B00F0C680B3FA83F356
:104C90009B000F2101FA03F322EA0302042393FA93
:104CA000A3F3002B00F0BA80B3FA83F39B00092131
:104CB00001FA03F313435E4A13625B4BDA68402345
:104CC00093FAA3F3002B00F0AB80B3FA83F35B00FD
:104CD000032101FA03F322EA0302402393FAA3F328
:104CE000002B00F09F80B3FA83F35B00012101FAEF
:104CF00003F313434C4AD36002F55052936B43F0D5
:104D000002039363936B03F002030293029B494BEC
:104D1000196849480840494901431960196821F454
:104D2000F85141F440711960596821F4F81141F4C7
:104D3000B8115960596921F4405141F40051596149
:104D4000136B43F480031363136B03F48003019329
:104D5000019B02F532523832136823F001031360CD
:104D6000374B1B6813F0010FFAD1364A936843F0B2
:104D700074639360344A324B1A602E4A136843F4CA
:104D8000002313605022314B83F85C2306B0704738
:104D9000202362E520236EE520237CE5202388E59F
:104DA000202398E52023A5E52023B4E52023C1E5B1
:104DB0002023D0E52023DDE52023ECE52023F8E5C2
:104DC000202307E6202313E6202321E620232DE6D7
:104DD00020233DE620234AE6202359E6202366E6E9
:104DE000202375E6202382E6202391E620239DE6FA
:104DF0002023B5E62023C1E62023CFE62023DBE6EF
:104E00002023EAE62023F6E6202304E7202310E708
:104E100020231EE720232AE7202339E7202345E724
:104E2000202354E7202360E700040240000C0240E6
:104E300000100240001000A0EFFFFF001000000172
:104E4000B8640240006402400004000600E100E093
:104E5000614B1B78002B40F0BE8010B55F4B5A6948
:104E600022F040625A615A6942F440725A615A69AA
:104E700022F440625A615A6922F040725A611A68FB
:104E800042F001021A605A6922F0FF0242F0060263
:104E90005A61524B9B6813F0200FFAD14F4C236894
:104EA00023F0010323600A20FCF792F8636923F0E2
:104EB00040636361636943F440736361636923F032
:104EC000FF0343F061036361636923F4406363613B
:104ED000636943F04073636100232361236843F0F7
:104EE00001032360FF2323623C4B9B6813F0200FD8
:104EF000FAD13A4C236823F0010323600A20FCF71F
:104F000067F8FFF759FA636923F0406363616369E7
:104F100023F4407343F480736361636923F0FF03F8
:104F200043F081036361636923F4406363616369F0
:104F300023F0407343F0807363610023236123688F
:104F400043F0010323609B232362244B9B6813F0EF
:104F5000200FFAD1214C236823F0010323609B2208
:104F6000FF218520FFF7EAF9FFF726FA636923F0AE
:104F700040636361636923F4407343F48073636146
:104F8000636923F0FF0343F061036361636923F402
:104F900040636361636923F0407343F0807363612E
:104FA00000232361236843F0010323607F232362EE
:104FB0000A4B9B6813F0200FFAD1084A136823F0BC
:104FC000010313607F22FF216520FFF729FA0122E8
:104FD000014B1A7010BD704724070020001000A07C
:104FE0000AB90120704770B514460E4605461146B1
:104FF000FFF768FB2B4B0322DA605A6922F040620C
:1050000042F080625A615A6942F440725A615A69A8
:1050100022F0FF0242F0EB025A615A6942F4406208
:105020005A615A6922F4F80242F410125A615A691C
:1050300042F040725A61621E1A611A6842F001021F
:105040001A609E611A6842F004021A60154B9B6850
:1050500013F0020FFAD0134B1A6822F004021A6000
:105060009B6813F0010F04D10E4B9868C0F3052024
:105070000DE00C4A136823F001031360012070BD9A
:10508000E11A0139084A1278D2B26A541846431E0E
:10509000DBB20028F4D1034A136823F00103136044
:1050A00070BD00BF001000A0201000A010B5384B4C
:1050B0001B78DBB2012B35D00C4623B1022B1CD060
:1050C0000023184610BDC1F30B03002B5ED10AB9B3
:1050D0000123F6E72F4B186059601203120A9A60F9
:1050E000FFF776FA02222A4B1A702046FFF7A2FA3F
:1050F00003460028E5D0FFF787FB7020FFF734FA5E
:1051000010F0200F0CD10122214B1A70214B18688E
:105110005968FFF71FFB03460028D2D0FFF774FB46
:10512000FFF772FB7020FFF71FFA10F0100F1ED16F
:10513000184B1A6802F580721A605A6802F580727C
:105140005A609A68013A9A609B6893B1114B5B6808
:10515000C3F30B0383B902220D4B1A700D4B586831
:10516000FFF768FA03460028ABD0FFF74DFBFFF7C7
:105170004BFB074A1370A4E7064B18685968FFF702
:10518000E9FA034600289CD0FFF73EFB012398E78D
:105190002507002028070020024B1878003018BF90
:1051A0000120704725070020DFF834D0002103E0FC
:1051B0000C4B5B58435004310B480C4B42189A423D
:1051C000F6D30B4A02E0002342F8043B094B9A4213
:1051D000F9D300F0EFF809F0F7FCFDF7CFFF7047C7
:1051E000000005200CB5030800000020B0060020D8
:1051F000B006002038680020FEE77047FEE7FEE7B3
:10520000FEE7FEE77047704770470000024A1368E8
:1052100001331360704700BFE406002008B5402248
:10522000074B5A61FDF798FF064B1B68C31AB3F58D
:10523000FA7F04D90122044B1A70024B186008BD92
:10524000003C014034070020E00600204FF40062DB
:10525000014B5A61704700BF003C01400A4A136885
:1052600023F001031360084B1B6813F0010FFAD100
:10527000064B1A68C2F3401205490A709A6842F058
:105280003D029A60704700BF106402400064024013
:10529000DC0600200A4A136823F001031360084B60
:1052A0001B6813F0010FFAD1064B1A68C2F3C02233
:1052B00005490A709A6842F474629A60704700BFA8
:1052C0002864024000640240DD06002070470000B0
:1052D000064B5A6B22F006025A63DA6B42F00F0259
:1052E000DA630122024B1A70704700BF0068014068
:1052F000DF060020064B1A6822F480721A609A6852
:1053000042F03F029A600122024B1A70704700BFC0
:1053100000B00240DE0600200122044B1A70044A4D
:10532000136923F001031361704700BF38070020A1
:10533000000800400122044B1A70044A136923F04C
:1053400001031361704700BFEB060020000400401A
:1053500008B50C4B1B7803B908BD4FF080520A4BBF
:10536000C3F88820BFF34F8FBFF36F8F074A1368CE
:1053700023F001031360002211461046FFF796FE4A
:10538000EAE700BF2507002000E100E0001000A0D0
:1053900038B5074C0825C4F88850BFF34F8FBFF3CA
:1053A0006F8F07F0F1FAC4F88851A56038BD00BFCF
:1053B00000E100E010B40F4AD2F8883043F47003E3
:1053C000C2F888300C4B196841F0010119600020C7
:1053D00098601C6809492140196009495960196899
:1053E00021F480211960D8604FF0006393605DF86C
:1053F000044B704700ED00E000380240FFFFF6FE6E
:105400001030002430B400240AE000BF4FF06043A5
:105410001B68002BF9D04FF0604319700134294606
:10542000944210DA4D1C09784FF06043D3F8803E67
:1054300013F0010FF2D04FF06043D3F8003E13F0A9
:10544000010FE3D1EAE7104630BC704708B50246C9
:1054500070210248FCF76EFC08BD00BF005C0040F4
:1054600008B50220FFF7F2FF052800D9002008BD8B
:1054700070B506460D460320FFF7E8FF000200F472
:1054800070640420FFF7E2FF00B20443348005207B
:10549000FFF7DCFF000200F470640620FFF7D6FF80
:1054A00000B204432C8070BD2DE9F04F8DB015463D
:1054B000062814BF4FF0000E4FF0010E052914BF4F
:1054C000002201221EEA020F1CD001268DF8246062
:1054D00002228DF82520B84A0A9266220B920CAA65
:1054E00012E9070085E8070006AA07CA83E8070053
:1054F00003AB93E80700169B83E8070030460DB026
:10550000BDE8F08F042914BF002601261EEA060F0D
:105510000AD001268DF8246005228DF82520A74A9F
:105520000A9269220B92DAE7032914BF00270127A8
:105530001EEA070F0AD001268DF824600A228DF892
:1055400025209F4A0A926E220B92C8E7052814BFB5
:105550004FF0000E4FF0010E16EA0E0F14D000228D
:105560008DF8242002268DF82560934A0A9266223F
:105570000B9201228DF8182005228DF819208F4AF0
:10558000079269220892AAE717EA0E0F0AD00126AD
:105590008DF8246005228DF82520884A0A92692218
:1055A0000B929CE7022914BF4FF0000C4FF0010C46
:1055B0001EEA0C0F0AD001268DF824600A228DF80D
:1055C00025207F4A0A926E220B9288E7042814BF96
:1055D0004FF000084FF0010817EA080F0AD0012623
:1055E0008DF8246002228DF82520734A0A926622E3
:1055F0000B9274E71CEA080F0AD001268DF824608C
:1056000004228DF825206F4A0A9268220B9266E7E1
:10561000012914BF4FF0000A4FF0010A18EA0A0FDF
:105620000AD001268DF8246008228DF82520664ACC
:105630000A9268220B9252E7B1FA81F94FEA59199E
:1056400018EA090F1ED000228DF8242005228DF8BB
:1056500025205A4A0A9269220B9201228DF81820BD
:1056600002218DF8191054490791662108918DF88F
:105670000C2017228DF80D20544A0492FD22059229
:1056800003262CE7032814BF4FF0000B4FF0010B4B
:105690001CEA0B0F0AD001268DF8246002228DF837
:1056A0002520454A0A9266220B9218E71AEA0B0F48
:1056B0000AD001268DF8246004228DF82520414A65
:1056C0000A9268220B920AE719EA0B0F15D0002202
:1056D0008DF8242005228DF82520384A0A92692267
:1056E0000B9201228DF8182017228DF81920374AC5
:1056F0000792FD2208920226F1E6022814BF002438
:10570000012400941AEA040F0AD001268DF82460BF
:1057100002228DF82520284A0A9266220B92DEE6A4
:10572000009C19EA040F15D000228DF824200A22CB
:105730008DF82520224A0A926E220B9201228DF8C2
:10574000182017228DF81920204A0792FD2208926E
:105750000226C4E6012814BF00240124019419EA9A
:10576000040F15D000228DF8242005228DF8252065
:10577000124A0A9269220B9201228DF81820062201
:105780008DF81920124A0792662208920226A6E690
:10579000062914BF002101211EEA010F1AD00022A0
:1057A0008DF8242002228DF82520034A0A926622D1
:1057B0000B92012693E600BFB0A20108DCA9010804
:1057C000F8A001083CA8010818AD010848A4010888
:1057D00080AB010818EA010F0BD000228DF82420BD
:1057E00005228DF825208B4A0A9269220B92012608
:1057F00075E61BEA010F0BD000228DF824200A2247
:105800008DF82520844A0A926E220B92012666E6C4
:1058100012EA080F14D000228DF8242005228DF8FA
:1058200025207C4A0A9269220B9201228DF81820C9
:1058300002268DF81960794A0792662208924EE690
:1058400012EA0B0F0BD000228DF8242005228DF8D0
:105850002520704A0A9269220B9201263FE60099A0
:105860000A420BD000228DF824200A228DF8252030
:10587000694A0A926E220B92012630E616EA0B0F55
:105880000BD000228DF8242002228DF82520634AB7
:105890000A9266220B92012621E6009A16420BD04C
:1058A00000228DF8242004228DF825205C4A0A92DB
:1058B00068220B92012612E6019A16420BD00022B2
:1058C0008DF8242008228DF82520564A0A92682255
:1058D0000B92012603E6B0FA80F0400906421ED082
:1058E00000228DF8242017218DF825104E490A91A9
:1058F000FD210B918DF8182002228DF81920474ABE
:1059000007926622089201228DF80C2005228DF85C
:105910000D20404A0492692205920326DFE5009A91
:1059200017420BD000228DF8242002228DF825206A
:105930003A4A0A9266220B920126D0E5019A174252
:105940000BD000228DF8242004228DF82520344A23
:105950000A9268220B920126C1E5074215D0002267
:105960008DF8242017228DF825202F4A0A92FD2237
:105970000B9201228DF8182005228DF81920254A56
:105980000792692208920226A9E5019A1CEA020FF1
:105990000BD000228DF8242002228DF825201F4AEA
:1059A0000A9266220B92012699E51CEA000F15D097
:1059B00000228DF8242017228DF825201A4A0A92F9
:1059C000FD220B9201228DF818200A228DF8192051
:1059D000114A07926E220892022680E51AEA000F09
:1059E00015D000228DF8242006228DF825200F4A9C
:1059F0000A9266220B9201228DF8182005228DF85A
:105A00001920044A079269220892022667E54FF09E
:105A1000FF3074E5DCA90108F8A00108B0A2010874
:105A20003CA8010818AD010848A4010880AB010892
:105A300090FBF1F301FB13030BB1C91A0844704743
:105A4000172801D0662000E0EA200138400870479E
:105A5000354B1B78354AD35C83B9354A354B1B78B7
:105A60003549CB5CF3B1012B33D0022B36D1012366
:105A700040F293518B4254DC30B437E02F4AEDE7CB
:105A8000013040F2935398420EDC431ED35CDBB2EC
:105A90002B4909788B42F3D8135CDBB29942EFD2E1
:105AA000013870470120ECE74FF0FF3070470133B9
:105AB00040F293518B420EDC591E515CC9B2204812
:105AC00000788142F3D9D15CC9B28842EFD3581E25
:105AD00070470123ECE74FF0FF3070474FF0FF3085
