:020000040800F2
:100000000000052059540008AB540008AD54000806
:10001000AF540008B1540008B354000800000000B9
:10002000000000000000000000000000B5540008BF
:10003000B754000800000000B9540008BD5400087F
:10004000A9540008A9540008A9540008A95400089C
:10005000A9540008A9540008A9540008A95400088C
:10006000A9540008A9540008A9540008A95400087C
:10007000A9540008A9540008A9540008A95400086C
:10008000A9540008A9540008A9540008A95400085C
:10009000A9540008A9540008A9540008CD54000828
:1000A000A9540008A9540008A9540008A95400083C
:1000B000A9540008E5550008C9550008A9540008CE
:1000C000A9540008A9540008A9540008A95400081C
:1000D000A9540008A9540008A9540008A95400080C
:1000E000FD540008A9540008A9540008A9540008A8
:1000F000A9540008A9540008A9540008A9540008EC
:10010000A9540008A9540008A9540008A9540008DB
:10011000A9540008A9540008A9540008A9540008CB
:100120000D55000845550008A9540008A9540008B9
:10013000A9540008A9540008A9540008A9540008AB
:10014000A9540008A9540008A95400084156000801
:10015000A9540008A95400087D550008A9540008B6
:10016000A9540008A9540008A9540008A95400087B
:10017000A9540008A9540008A95400080000000070
:10018000A9540008A9540008A9540008A95400085B
:10019000A9540008A9540008A9540008A95400084B
:1001A000A954000881550008A5550008A954000865
:1001B00001560008A9540008A9540008A9540008D1
:0801C000A9540008A95400082D
:1001D00010B5054C237833B9044B13B10448AFF381
:1001E00000800123237010BDB00600200000000035
:1001F0004037010808B5034B1BB103490348AFF36F
:10020000008008BD00000000B4060020403701084F
:10021000034613F8012B002AFBD1181A0138704746
:1002200001F0FF01102A2BDB10F0070F08D010F8A7
:10023000013B013A8B422DD010F0070F42B3F6D1AB
:10024000F0B441EA012141EA014122F007047FF0C4
:1002500000070023F0E80256083C85EA010586EA1B
:10026000010685FA47F5A3FA87F586FA47F6A5FA57
:1002700087F68EB9EED1F0BC01F0FF0102F0070263
:1002800032B110F8013B013A83EA010313B1F8D10E
:100290000020704701387047002D06BF35460338EF
:1002A000073815F0010F07D1013015F4807F02BF28
:1002B000013015F4C03F0130F0BC0138704700BF79
:1002C00081F0004102E000BF83F0004330B54FEA07
:1002D00041044FEA430594EA050F08BF90EA020F74
:1002E0001FBF54EA000C55EA020C7FEA645C7FEA07
:1002F000655C00F0E2804FEA5454D4EB5555B8BF2A
:100300006D420CDD2C4480EA020281EA030382EA9A
:10031000000083EA010180EA020281EA0303362D2C
:1003200088BF30BD11F0004F4FEA01314FF4801CFF
:100330004CEA113102D0404261EB410113F0004F11
:100340004FEA03334CEA133302D0524263EB4303C8
:1003500094EA050F00F0A780A4F10104D5F1200E66
:100360000DDB02FA0EFC22FA05F2801841F10001C1
:1003700003FA0EF2801843FA05F359410EE0A5F195
:1003800020050EF1200E012A03FA0EFC28BF4CF0C6
:10039000020C43FA05F3C01851EBE37101F000457C
:1003A00007D54FF0000EDCF1000C7EEB00006EEB89
:1003B0000101B1F5801F1BD3B1F5001F0CD3490813
:1003C0005FEA30004FEA3C0C04F101044FEA44526A
:1003D00012F5800F80F09A80BCF1004F08BF5FEAF1
:1003E000500C50F1000041EB045141EA050130BDD1
:1003F0005FEA4C0C404141EB010111F4801FA4F174
:100400000104E9D191F0000F04BF01460020B1FAC8
:1004100081F308BF2033A3F10B03B3F120020CDA00
:100420000C3208DD02F1140CC2F10C0201FA0CF0DE
:1004300021FA02F10CE002F11402D8BFC2F1200C43
:1004400001FA02F120FA0CFCDCBF41EA0C019040F9
:10045000E41AA2BF01EB0451294330BD6FEA040442
:100460001F3C1CDA0C340EDC04F11404C4F120022D
:1004700020FA04F001FA02F340EA030021FA04F33F
:1004800045EA030130BDC4F10C04C4F1200220FA96
:1004900002F001FA04F340EA0300294630BD21FAD4
:1004A00004F0294630BD94F0000F83F4801306BF9A
:1004B00081F480110134013D4EE77FEA645C18BF8E
:1004C0007FEA655C29D094EA050F08BF90EA020F25
:1004D00005D054EA000C04BF1946104630BD91EA1D
:1004E000030F1EBF0021002030BD5FEA545C05D120
:1004F0004000494128BF41F0004130BD14F580045F
:100500003CBF01F5801130BD01F0004545F0FE41D2
:1005100041F470014FF0000030BD7FEA645C1ABF07
:10052000194610467FEA655C1CBF0B46024650EA3E
:10053000013406BF52EA033591EA030F41F400216A
:1005400030BD00BF90F0000F04BF0021704730B5F0
:100550004FF4806404F132044FF000054FF00001C5
:1005600050E700BF90F0000F04BF0021704730B586
:100570004FF4806404F1320410F0004548BF40425B
:100580004FF000013EE700BF42004FEAE2014FEAB0
:1005900031014FEA02701FBF12F07F4393F07F4F8B
:1005A00081F06051704792F0000F14BF93F07F4FBD
:1005B000704730B54FF4607401F0004521F0004100
:1005C00020E700BF50EA010208BF704730B54FF086
:1005D00000050AE050EA010208BF704730B511F08B
:1005E000004502D5404261EB41014FF4806404F1C3
:1005F00032045FEA915C3FF4DCAE4FF003025FEA45
:10060000DC0C18BF03325FEADC0C18BF033202EBCC
:10061000DC02C2F1200300FA03FC20FA02F001FA26
:1006200003FE40EA0E0021FA02F11444C1E600BFC5
:1006300070B54FF0FF0C4CF4E06C1CEA11541DBF78
:100640001CEA135594EA0C0F95EA0C0F00F0DEF843
:100650002C4481EA030621EA4C5123EA4C5350EA28
:10066000013518BF52EA033541F4801143F4801379
:1006700038D0A0FB02CE4FF00005E1FB02E506F00A
:100680000042E0FB03E54FF00006E1FB03569CF05F
:10069000000F18BF4EF0010EA4F1FF04B6F5007F65
:1006A00064F5407404D25FEA4E0E6D4146EB0606D7
:1006B00042EAC62141EA55514FEAC52040EA5E5060
:1006C0004FEACE2EB4F1FD0C88BFBCF5E06F1ED80A
:1006D000BEF1004F08BF5FEA500E50F1000041EB41
:1006E000045170BD06F0004646EA010140EA0200EE
:1006F00081EA0301B4EB5C04C2BFD4EB0C0541EA10
:10070000045170BD41F480114FF0000E013C00F324
:10071000AB8014F1360FDEBF002001F0004170BD48
:10072000C4F10004203C35DA0C341BDC04F1140461
:10073000C4F1200500FA05F320FA04F001FA05F2ED
:1007400040EA020001F0004221F0004110EBD370BA
:1007500021FA04F642EB06015EEA430E08BF20EAE6
:10076000D37070BDC4F10C04C4F1200500FA04F389
:1007700020FA05F001FA04F240EA020001F000411B
:1007800010EBD37041F100015EEA430E08BF20EA8E
:10079000D37070BDC4F1200500FA05F24EEA020ED6
:1007A00020FA04F301FA05F243EA020321FA04F005
:1007B00001F0004121FA04F220EA020000EBD370BC
:1007C0005EEA430E08BF20EAD37070BD94F0000FBC
:1007D0000FD101F00046400041EB010111F4801FF0
:1007E00008BF013CF7D041EA060195F0000F18BFA1
:1007F000704703F00046520043EB030313F4801FDD
:1008000008BF013DF7D043EA0603704794EA0C0F96
:100810000CEA135518BF95EA0C0F0CD050EA4106AC
:1008200018BF52EA4306D1D181EA030101F0004129
:100830004FF0000070BD50EA410606BF1046194651
:1008400052EA430619D094EA0C0F02D150EA01365D
:1008500013D195EA0C0F05D152EA03361CBF10469E
:1008600019460AD181EA030101F0004141F0FE413D
:1008700041F470014FF0000070BD41F0FE4141F4C1
:10088000780170BD70B54FF0FF0C4CF4E06C1CEAC1
:1008900011541DBF1CEA135594EA0C0F95EA0C0F76
:1008A00000F0A7F8A4EB050481EA030E52EA033531
:1008B0004FEA013100F088804FEA03334FF0805552
:1008C00045EA131343EA12634FEA022245EA11157F
:1008D00045EA10654FEA00260EF000419D4208BF30
:1008E000964244F1FD0404F5407402D25B084FEADD
:1008F0003202B61A65EB03055B084FEA32024FF489
:1009000080104FF4002CB6EB020E75EB030E22BFE5
:10091000B61A754640EA0C005B084FEA3202B6EBA5
:10092000020E75EB030E22BFB61A754640EA5C0054
:100930005B084FEA3202B6EB020E75EB030E22BFE4
:10094000B61A754640EA9C005B084FEA3202B6EBE5
:10095000020E75EB030E22BFB61A754640EADC00A4
:1009600055EA060E18D04FEA051545EA16754FEA06
:1009700006164FEAC30343EA52734FEAC2025FEA24
:100980001C1CC0D111F4801F0BD141EA00014FF0B3
:1009900000004FF0004CB6E711F4801F04BF014384
:1009A0000020B4F1FD0C88BFBCF5E06F3FF6AFAEA0
:1009B000B5EB030C04BFB6EB020C5FEA500C50F130
:1009C000000041EB045170BD0EF0004E4EEA1131B3
:1009D00014EB5C04C2BFD4EB0C0541EA045170BDBA
:1009E00041F480114FF0000E013C90E645EA060EFE
:1009F0008DE60CEA135594EA0C0F08BF95EA0C0F2C
:100A00003FF43BAF94EA0C0F0AD150EA01347FF473
:100A100034AF95EA0C0F7FF425AF104619462CE74A
:100A200095EA0C0F06D152EA03353FF4FDAE1046AD
:100A3000194622E750EA410618BF52EA43067FF4FE
:100A4000C5AE50EA41047FF40DAF52EA43057FF48E
:100A5000EBAE12E74FF0FF3C06E000BF4FF0010C99
:100A600002E000BF4FF0010C4DF804CD4FEA410CFD
:100A70007FEA6C5C4FEA430C18BF7FEA6C5C1BD0CA
:100A800001B050EA410C0CBF52EA430C91EA030F4B
:100A900002BF90EA020F0020704710F1000F91EAA8
:100AA000030F58BF994208BF90422CBFD8176FEA76
:100AB000E37040F0010070474FEA410C7FEA6C5C44
:100AC00002D150EA013C07D14FEA430C7FEA6C5C4B
:100AD000D6D152EA033CD3D05DF8040B704700BF77
:100AE0008446104662468C461946634600E000BFC5
:100AF00001B5FFF7B7FF002848BF10F1000F01BD97
:100B00004DF808EDFFF7F4FF0CBF012000205DF861
:100B100008FB00BF4DF808EDFFF7EAFF34BF0120E6
:100B200000205DF808FB00BF4DF808EDFFF7E0FF7F
:100B300094BF012000205DF808FB00BF4DF808EDD0
:100B4000FFF7CEFF94BF012000205DF808FB00BF37
:100B50004DF808EDFFF7C4FF34BF012000205DF819
:100B600008FB00BF4FEA410C7FEA6C5C02D150EAFF
:100B7000013C0AD14FEA430C7FEA6C5C02D152EA95
:100B8000033C02D14FF0000070474FF00100704766
:100B90004FEA410212F5001215D211D56FF47873A5
:100BA000B3EB625212D94FEAC12343F0004343EA48
:100BB000505311F0004F23FA02F018BF4042704723
:100BC0004FF00000704750EA013005D111F00040AD
:100BD00008BF6FF0004070474FF00000704700BF43
:100BE0004A0011D212F5001211D20DD56FF47873AC
:100BF000B3EB62520ED44FEAC12343F0004343EA01
:100C0000505323FA02F070474FF00000704750EA4B
:100C1000013002D14FF0FF3070474FF000007047B5
:100C20004FEA4102B2F1E04324BFB3F5001CDCF10E
:100C3000FE5C0DD901F0004C4FEAC0024CEA507046
:100C4000B2F1004F40EB830008BF20F00100704775
:100C500011F0804F21D113F13872BCBF01F0004078
:100C6000704741F480114FEA5252C2F11802C2F1AA
:100C7000200C10FA0CF320FA02F018BF40F001002B
:100C80004FEAC1234FEAD32303FA0CFC40EA0C00DD
:100C900023FA02F34FEA4303CCE77FEA625307D11A
:100CA00050EA01331EBF4FF0FE4040F44000704751
:100CB00001F0004040F0FE4040F40000704700BFEB
:100CC00053B94AB9002908BF00281CBF4FF0FF31B3
:100CD0004FF0FF3000F07AB9ADF1080C6DE904CEA9
:100CE00000F006F8DDF804E0DDE9022304B0704707
:100CF0002DE9F0478C460D460446089E002B51D145
:100D00008A4217466DD9B2FA82FEBEF1000F0BD0AF
:100D1000CEF1200C01FA0EF520FA0CFC02FA0EF7C7
:100D20004CEA050C00FA0EF44FEA174A250CBCFBFE
:100D3000FAF81FFA87F90AFB18CC45EA0C4508FBBC
:100D400009F3AB420AD9ED1908F1FF3280F0238193
:100D5000AB4240F22081A8F102083D44ED1AA4B252
:100D6000B5FBFAF00AFB105544EA054400FB09F90B
:100D7000A14509D9E41900F1FF3380F00A81A145AA
:100D800040F2078102383C44A4EB090440EA0840E1
:100D90000021002E61D024FA0EF400233460736029
:100DA000BDE8F0878B4207D9002E54D0002186E899
:100DB00021000846BDE8F087B3FA83F1002940F02E
:100DC0008E80AB4202D3824200F2FA80841A65EB35
:100DD00003050120AC46002E3FD086E81010BDE888
:100DE000F08712B90127B7FBF2F7B7FA87FEBEF119
:100DF000000F34D1EB1B3A0C1FFA87FC0121B3FB27
:100E0000F2F8250C02FB183345EA03450CFB08F306
:100E1000AB4207D9ED1908F1FF3002D2AB4200F224
:100E2000D1808046ED1AA3B2B5FBF2F002FB10555B
:100E300043EA05440CFB00FCA44507D9E41900F182
:100E4000FF3302D2A44500F2B8801846A4EB0C048C
:100E500040EA08409DE731463046BDE8F087CEF1D4
:100E6000200405FA0EF307FA0EF720FA04F83A0CFC
:100E700025FA04F448EA0308B4FBF2F14FEA1845F6
:100E800002FB11441FFA87FC45EA044501FB0CF301
:100E9000AB4200FA0EF409D9ED1901F1FF3080F0F0
:100EA0008A80AB4240F2878002393D44EB1A1FFA38
:100EB00088F5B3FBF2F002FB103345EA034500FB73
:100EC0000CF3AB4207D9ED1900F1FF386FD2AB42FA
:100ED0006DD902383D44EB1A40EA01418FE7C1F178
:100EE000200722FA07F88B4005FA01F448EA0303C9
:100EF00020FA07FE4FEA134CFD404EEA040EB5FB04
:100F0000FCF94FEA1E440CFB19551FFA83F844EA1A
:100F1000054509FB08F4AC4202FA01F200FA01FAB5
:100F200008D9ED1809F1FF3043D2AC4241D9A9F1FB
:100F300002091D442D1B1FFA8EFEB5FBFCF00CFBB5
:100F400010554EEA054400FB08F8A04507D9E418FF
:100F500000F1FF3529D2A04527D902381C4440EAC8
:100F60000940A4EB0804A0FB02894C45C6464D4647
:100F700015D312D056B1BAEB0E0364EB050404FA94
:100F800007F7CB401F43CC40376074600021BDE8B9
:100F9000F0871846F8E69046E0E6C245EAD2B8EB9C
:100FA000020E69EB03050138E4E72846D7E740461F
:100FB00091E78146BEE7014678E702383C4445E7C1
:100FC000084608E7A8F102083D442BE7704700BF38
:100FD00082B0094B1B680193019BB0F1FF3F00D029
:100FE000013030B1044B1B6813F4803FF9D0013855
:100FF000F7E702B0704700BF10E000E00020704744
:1010000008B504F07DF8002008BDF8B50E46174677
:101010001D4604F019FA0028FBD10024AC420AD284
:10102000E1194FF48052090306EB043004F030F963
:1010300018B90134F2E70020F8BD0120F8BD000026
:1010400070B50D4616461C4604F0FEF90028FBD18B
:10105000002303E0E95C084A99540133B3EB043FF1
:10106000F8D322463103044804F078F908B9002087
:1010700070BD012070BD00BF000070C008B501291F
:1010800009D019B103290BD0042008BD04F0DCF904
:101090000028FBD108BD4FF480531360002008BD29
:1010A00001231360002008BD10B4C1EB01118C01B5
:1010B000034B234423F810205DF8044B704700BF16
:1010C000000020C00F4B1B6813F0010FFAD10D4B2D
:1010D0000D4A1A6000229A634FF04041D9631A64A6
:1010E00002225A63094A5A649A6842F03F029A609F
:1010F0001A6842F001021A60024B1B6813F0010FDC
:10110000FAD1704700B00240000103001001E00175
:101110000F4B1B6813F0010FFAD10D4B0D4A1A60EB
:1011200098630D4ADA6300221A6402225A630B4A5A
:101130005A649A6842F03F029A601A6842F00102CB
:101140001A60034B1B6813F0010FFAD1704700BF00
:1011500000B0024000010300000040C01001E001A7
:1011600070B41C4C246814F0010FFAD100251A4CFD
:101170002570184C194D2560BDF80C50A563C1EBC6
:10118000011675010544164E06EB4505E563851A03
:1011900005F2DF15256402256563121A01325B1A18
:1011A000013343EA02436364A36843F03F03A3604F
:1011B000236843F001032360064B1B6813F0010F03
:1011C000FAD1054B1B7813B9002070BC70474FF063
:1011D000FF30FAE700B00240D4060020000103000F
:1011E000000020C070B4244C246814F0010FFAD120
:1011F0000025224C2570204C214D25600225656379
:10120000BDF80C50A563C1EB0116750105441D4ED8
:1012100006EB4505E56399421ED0904228D1164A57
:1012200040F2DF1010645B1A013343F480335364DF
:10123000114B9A6842F03F029A601A6842F001022C
:101240001A600D4B1B6813F0010FFAD10B4B1B7882
:101250005BB9002070BC704700232364131A01336C
:101260001B0443F001036364E2E74FF0FF30F1E752
:101270004FF0FF30EEE700BF00B00240D406002080
:1012800000010300000020C0134B1B6813F0010F86
:10129000FAD1114B114A1A60114ADA60114ADA6127
:1012A000114A5A61114A5A624FF04042DA630022F1
:1012B0001A6402225A630E4A5A649A6842F03F0244
:1012C0009A601A6842F001021A60034B1B6813F01F
:1012D000010FFAD1704700BF00B0024000010200C8
:1012E000000020C00200018F000040C0020001FF8A
:1012F0001001E0014278007840EA02207047C2788D
:10130000837843EA0222437843EA0223007840EAE2
:10131000032070470170090A417070470170C1F3E2
:1013200007234370C1F307438370090EC1707047F0
:1013300010B4046804B32246511C13780A463A2BB1
:1013400018BF202BF8D83A2B04D0002318465DF89C
:10135000044B70472378A3F13002D2B2092A06D891
:101360000234A14201D0012302E0303B00E001231E
:10137000002B04DC0160E9E74FF0FF33E6E74FF0B4
:10138000FF33E3E738B5C3780BB9002038BD044616
:1013900000F130050123C26A29464078FFF750FE6C
:1013A000A0B90023E370E16A236ACB1AA2699342D1
:1013B0000ED2A378022B01D0002038BD01230A44AD
:1013C00029466078FFF73CFE002038BD012038BD7B
:1013D000002038BD70B5C36A8B4214D004460D4658
:1013E000FFF7D0FF064608B1304670BD01232A46FC
:1013F00004F130016078FFF708FE10B101264FF0CC
:10140000FF35E562F0E70026EEE7000038B5044658
:101410000023C3704FF0FF33C362FFF7DBFF08B157
:10142000042038BD04F22E20FFF764FF054694F82F
:101430003030E92B18BFEB2B07D0E82B05D04AF64C
:1014400055239D4249D0032038BD4AF655239D427D
:1014500039D004F13B00FFF74DFF94F83D30421EB8
:101460001042ECD11A1C18BF0122B0F5805FE6D102
:10147000002AE4D05A1E1342E1D104F13E00FFF7E6
:1014800039FF0028DBD094F84030013B012BD6D83F
:1014900004F14100FFF72EFF0028D0D004F14300F3
:1014A000FFF728FF7F2806D804F15000FFF727FF39
:1014B000B0F5803FC3D304F14600FFF71BFF0028BF
:1014C000BDD0002038BD0822054904F182000DF08E
:1014D00055FC0028BDD1002038BD022038BD00BF1A
:1014E0005837010870B584B006460D460021FFF755
:1014F0008DFF02281CD0B5FA85F35B09022888BF4E
:1015000043F0010373BB00240DE006F1300023011A
:1015100003F5E3731844FFF7F2FE04AB03EB840317
:1015200043F8100C0134032CEFD91DB16C1E10E0F0
:101530000024F8E72C460CE03046FFF767FFB5FAC9
:1015400085F35B09012898BF00235BB10134032CAC
:1015500008D804AB03EB840353F8101C0029EBD12B
:101560000320ECE704B070BD2DE9F0470E461746A6
:1015700000230B60FFF7DCFE051EC0F21781A04BB5
:1015800053F82540002C00F01481346007F0FE076A
:1015900023788BB16078FFF731FD10F0010F0BD18C
:1015A000002F00F0098110F0040F02D00A20BDE8DE
:1015B000F0870020BDE8F08700232370E8B2607058
:1015C000FFF71EFD10F0010F02D00320BDE8F087E9
:1015D0002FB110F0040F02D00A20BDE8F0870021DF
:1015E0002046FFF77FFF042800F0E980012802D998
:1015F0000D20BDE8F087E66A04F13B00FFF77AFEB4
:10160000B0F5805F02D00D20BDE8F08704F1460000
:10161000FFF770FE804620B904F15400FFF76FFE1B
:101620008046C4F8188094F8409084F8029009F13C
:10163000FF33DBB2012B02D90D20BDE8F08709FB97
:1016400008F994F83D706781002F00F0BB807B1E85
:101650001F4202D00D20BDE8F08704F14100FFF7E2
:1016600049FE8246208110F07F0F40F0AE8004F1E9
:101670004300FFF73FFE054620B904F15000FFF795
:101680003EFE054604F13E00FFF734FE0246002808
:1016900000F09E8009EB000303EBDA139D42C0F0DB
:1016A0009A80ED1AB5FBF7F5002D00F097805549AB
:1016B0008D4269D900274FF6F5718D4200D8022777
:1016C00040F6F5718D4200D80127002F00F0898087
:1016D00002356561E661324422623344A362032F1E
:1016E00054D104F15A00FFF705FE00287CD1BAF16D
:1016F000000F7CD104F15C00FFF701FE6062AD00D9
:1017000005F6FF75B8EB153F77D34FF0FF33236134
:10171000E36080232371032F2CD104F16000FFF7D5
:10172000E9FD012826D1711C2046FFF753FE08BBB6
:101730000023237104F22E20FFF7DCFD4AF6552327
:10174000984217D104F13000FFF7D9FD2E4B984293
:1017500010D104F50570FFF7D2FD2C4B984209D14A
:1017600004F50670FFF7CBFD206104F50770FFF765
:10177000C6FDE0602770264A138801339BB21380B0
:10178000E3800020BDE8F087032794E7BAF1000F5B
:1017900030D04A446262022F01D16D00B0E705EB00
:1017A000450305F0010505EB5305A9E70B20BDE84E
:1017B000F0870C20BDE8F0870020BDE8F08701200D
:1017C000BDE8F0870D20BDE8F0870D20BDE8F0876B
:1017D0000D20BDE8F0870D20BDE8F0870D20BDE8A5
:1017E000F0870D20BDE8F0870D20BDE8F0870D20C3
:1017F000BDE8F0870D20BDE8F0870D20BDE8F0873B
:10180000CC060020F5FFFF0F525261417272416118
:10181000D00600202DE9F04F85B00090019193464D
:10182000994603AA0121FFF729FC002840F0868091
:10183000DDF80C8008242CB1B8FBF4F24FF63E43DF
:101840009A4229D804B9FF244FF480520021484617
:101850000DF0AEFA09F5DF763F254FF0000ABAF138
:10186000030F8CBF00230123002D08BF00230BB101
:10187000454514D34AF6552109F5FF70FFF74AFD97
:101880000123002249460098FFF7DAFB002857D0D1
:10189000012005B0BDE8F08F6400E4B2CBE7019B06
:1018A00053F82A70642F05D846D06423B8FBF3F3AD
:1018B00003FB07F7EB19984501D39D4201D9A8EB2B
:1018C0000507002FD6D0294606F10800FFF726FDB0
:1018D000394606F10C00FFF721FD86F804B03F22DF
:1018E000B5FBF2F3B3FBF4F104FB1130C3EB83134C
:1018F000EB1ADBB20133DBB27070880800F0C00075
:101900000343B370F1703D446B1EB3FBF2F2B2FBC4
:10191000F4F104FB1120C2EB82129B1ADBB20133FB
:10192000DBB270718A0802F0C0021343B371F17127
:1019300010360AF1010A92E74746BBE70120A8E703
:101940000020A6E710B584B001900091144604A8C9
:1019500040F8041DFFF7ECFC002816DB0C4B53F895
:1019600020300BB100221A70019B0BB100221A70BB
:10197000019A074B43F820200CB9002006E0002212
:1019800001A96846FFF7F0FD00E00B2004B010BD90
:10199000CC0600202DE9F04F91B010AC44F8140DA6
:1019A0000F4616461D462046FFF7C2FC0028C0F22F
:1019B000EA82B44B53F820300BB100221A70C4B243
:1019C0003FB12046FFF71CFB10F0010F03D00323AB
:1019D000DAE2AD4FF5E710F0040F01D00A23D3E2AD
:1019E0007B680F93F3B10F9A531EB3F5004F01D2EA
:1019F0001A4201D001230F9397F800B097F8019095
:101A000009F1FF33DBB2012B01D94FF00109BB68AB
:101A10005A1EB2F5004F0FD213F07F0F17D04FF4BC
:101A200000780BE00FAA03212046FFF727FB0028D0
:101A3000D9D001230F93D6E74FF40078FF68B7F1B0
:101A4000807F06D87B1E1F4204D0002702E0984604
:101A5000F4E700273F0B5FEA153A01D1112393E227
:101A6000002E00F0958210AA002342F8083D0121C3
:101A70002046FFF703FB002840F08C821BF0080390
:101A8000039307D10E9B3F2B0BD93F3B0E933F2374
:101A9000009301E0002300930E9A7F2A04D80E23BE
:101AA00072E200230093F7E7802F00D980271BF014
:101AB000020002D01BF0010F17D01BF0010F01D163
:101AC000132361E202230193704BD3180693089409
:101AD000019C09960A95032C0ED0002F3AD14FEAAB
:101AE000123E00214FF0010B2DE003230193EBE7A1
:101AF0001F46F0E70324EEE77FB94FEA524E00237A
:101B00004FF0010B02E001334FEA4B0B604931F813
:101B1000131019B18E45F6D200E0BB46B2FBFBF1C3
:101B20008B1C9B0003F6FF731E0B5A4B0B445A4948
:101B30008B4200F23182002302934FF0200E1AE014
:101B400001314FEA4B0B554B33F811301BB19E4519
:101B5000F6D200E0BB46B2FBFBF340F6F5718B42D8
:101B600054D902335B0003F6FF731E0BC8F3D31383
:101B700002934FF0010E009B03EB0E0509FB06518B
:101B8000029B1944DDF83CC001EB0C03013BCCF196
:101B9000000C03EA0C035B1A032C3ED0B3FBF9FCE8
:101BA00009FB1C3CBCF1000F03D0013B0EF1010E00
:101BB0000135B3FBF9F31E4401EB0B1300995B1ADB
:101BC0009A42C0F0EB81A2EB0E0309FB1633029997
:101BD0005B1AB3FBFBF3032C22D0022C3BD14FF654
:101BE000F5718B4229D927B94FEA4B03402B7FF679
:101BF0007FAF00287FF47EAF002F40F0D3814FEA03
:101C00004B07802F7FF667AF0E23BDE103EB430345
:101C100001335B0803330124A5E79E441D44CBE751
:101C20004FF6F5718B42D8D8002F40F0B9815FEAAA
:101C30005B077FF450AF0E23A6E140F6F5718B42AF
:101C400009D8002F40F0B0814FEA4B07802F7FF674
:101C500042AF0E2398E1214601940495CDF81CE093
:101C60000596089C0893099E0A9D40F6F572012985
:101C700014BF00210121934298BF002181B10E239E
:101C800082E100BFCC06002084370108000021500B
:101C9000743701080A00FFFFFFFFFE0F64370108D9
:101CA0004FF480573A46002130460DF081F8C34B7F
:101CB00003CB306071601A889B783281B3723946E9
:101CC00006F10B00FFF726FB86F80DB0BDF81C10DF
:101CD00006F10E00FFF71EFB86F8109006F11100CA
:101CE000019B032B00F0E2801FFA88F1FFF712FB43
:101CF0000E99B1F5803F80F0DB8089B206F11300C8
:101D0000FFF708FBF82373753F2106F11800FFF772
:101D100001FBFF2106F11A00FFF7FCFA009906F11A
:101D20001C00FFF7FBFA019B032B40F0C6800699CD
:101D300006F14300FFF7F2FA059906F12400FFF7D8
:101D4000EDFA022106F12C00FFF7E8FA012106F175
:101D50003000FFF7DFFA062106F13200FFF7DAFA6A
:101D6000802386F84030292386F8423006F1470E5A
:101D7000934F0FCFC6F84700CEF80410CEF80820D6
:101D8000CEF80C303A88BB78AEF810208EF81230BE
:101D900006F5FF774AF655213846FFF7BBFA0123CF
:101DA000009A31462046FFF74BF9002840F0FE80AC
:101DB000019B032B34D10123009A06323146204681
:101DC000FFF73EF94FF48052002130460CF0F0FF4F
:101DD0007C493046FFF7A2FA7B4906F5F270FFF71F
:101DE0009DFA089B591E06F5F470FFF797FA022139
:101DF00006F5F670FFF792FA4AF655213846FFF7D6
:101E000089FA0123009F3A46073231462046FFF700
:101E100017F901233A461A4431462046FFF710F9D4
:101E20006A4A2A40002130460CF0C2FF4FF00008F9
:101E3000C84566D3019B032B40F09B805F46DDF8CD
:101E400010803D46574528BF55462B4642463146F1
:101E50002046FFF7F5F8002840F0AC80A8447F1B2F
:101E6000EFD1019A032A00F088800E9BB3F5803FE2
:101E700080F08580022A40F084800422039B5BB9B5
:101E80000E9B0C9300230D9333460CA92046FFF7BD
:101E9000C1FC0346002877D1002211462046FFF7F7
:101EA000EDF8002800F0888001236DE000211DE797
:101EB00006F12000FFF732FA24E7069906F1270021
:101EC000FFF72CFABDF8141006F11600FFF722FAFE
:101ED000802386F82430292386F8263006F12B0E3D
:101EE0003B4F0FCFC6F82B00CEF80410CEF80820D9
:101EF000CEF80C303A88BB78AEF810208EF812304D
:101F000046E7019B032B29D16FF007013046FFF70D
:101F100005FA4FF0FF31301DFFF700FA6FF0704106
:101F200006F10800FFF7FAF9059D2F46554528BF31
:101F300057463B46049A31462046FFF781F8B8BB26
:101F40004FF48052002130460CF032FF049B3B449A
:101F50000493ED1BE9D108F1010869E7019B012B0E
:101F600004D11C493046FFF7D9F9DDE76FF00701CE
:101F7000F8E7DDF81080029F63E70C227EE7062277
:101F80007CE701227AE70B23184611B0BDE8F08FF9
:101F90001123F9E70123F7E70E23F5E70E23F3E713
:101FA0000E23F1E70E23EFE70E23EDE70123EBE726
:101FB0000123E9E70123E7E70023E5E79437010878
:101FC000A0370108525261417272416100F0FFFF77
:101FD000B4370108F8FFFF00F8B504460E4617466F
:101FE000436823F07F7323F45F3323F47F7323F07C
:101FF0000303434A0A431343436001F0FFF90546D4
:1020000007E00123002B6BD101F0F8F9401B0A28EF
:1020100069D8A36913F0020F07D100233BB9A36964
:1020200013F0100FEDD10023ECE70123F6E7A762D0
:1020300001F0E4F9054607E00123002B55D101F03A
:10204000DDF9401B0A2852D8A36913F0400F07D1CD
:1020500000233BB9A36913F0100FEDD10023ECE787
:102060000123F6E7636823F07F7323F45F3323F4DF
:102070007F7323F00303234A32431343636001F069
:10208000BDF9054606E001239BBB01F0B7F9401BF3
:102090000A2830D8A36913F0040F07D100233BB9F5
:1020A000A36913F0100FEED10023EDE70123F6E74B
:1020B000656AEDB201F0A2F9064606E0012353B9C4
:1020C00001F09CF9801B0A2817D8A36913F0200F90
:1020D000F4D10023F3E7E36943F02003E36100E078
:1020E000FF252846F8BDFF25FBE7FF25F9E7FF257B
:1020F000F7E7FF25F5E7FF25F3E7FF25F1E700BF49
:10210000002001800024018282B08D4B1A6B42F0C6
:1021100004021A631B6B03F004030193019B894BB8
:102120001B68402292FAA2F2002A00F0ED80B2FA77
:1021300082F25200032101FA02F223EA0202402352
:1021400093FAA3F3002B00F0E180B3FA83F35B0072
:10215000022101FA03F313437A4A136013688022C1
:1021600092FAA2F2002A00F0D380B2FA82F2520070
:10217000032101FA02F223EA0202802393FAA3F375
:10218000002B00F0C780B3FA83F35B00022101FA51
:1021900003F313436B4A13609268402393FAA3F34B
:1021A000002B00F0B980B3FA83F35B00032101FA3E
:1021B00003F322EA0303634A93609268802393FA4D
:1021C000A3F3002B00F0AA80B3FA83F35B00032192
:1021D00001FA03F322EA03035A4A9360536823F097
:1021E000C0035360D368402292FAA2F2002A00F0A2
:1021F0009780B2FA82F25200032101FA02F223EA36
:102200000202402393FAA3F3002B00F08B80B3FA71
:1022100083F35B00012101FA03F31343494AD360BE
:10222000D368802292FAA2F2002A7DD0B2FA82F21A
:102230005200032101FA02F223EA0202802393FAF8
:10224000A3F3002B72D0B3FA83F35B00012101FAF0
:1022500003F313433B4AD360136A402292FAA2F27B
:10226000002A65D0B2FA82F292000F2101FA02F23E
:1022700023EA0202402393FAA3F3002B5AD0B3FAC5
:1022800083F39B00032101FA03F313432D4A1362E6
:10229000136A802292FAA2F2002A4DD0B2FA82F298
:1022A00092000F2101FA02F223EA0202802393FA3C
:1022B000A3F3002B42D0B3FA83F39B00032101FA6E
:1022C00003F313431F4A13621D4B5A6C42F0020280
:1022D0005A645B6C03F002030093009B1A4B1A6A6A
:1022E00022F011021A6240F201129A6102221A626D
:1022F00001229A601A6A42F011021A621A6842F0C8
:1023000001021A6002B07047202212E720231EE764
:1023100020222CE7202338E7202346E7202355E717
:10232000202268E7202374E7202281E720238CE71E
:10233000202299E72023A4E72022B1E72023BCE74D
:1023400000380240000802400004014082B0013819
:10235000052804D8DFE800F0120507090C0F2D222C
:102360000DE068220BE0D02209E040F2A11206E065
:1023700040F2124203E040F6230200E034220E4B0A
:10238000596C41F0010159645B6C03F00103019346
:10239000019B0A4B196821F0010119604FF40011EB
:1023A000596000219962013ADA621A6842F001022A
:1023B0001A6002B0704700BF0038024000000140C0
:1023C00082B0134B1A6C42F004021A641B6C03F0C7
:1023D00004030193019B0F4B1A6822F001021A605B
:1023E00042F20F729A6240F2F312DA62DA6842F055
:1023F0000102DA601A6842F001021A60064B4022BC
:1024000083F81E234FF080421A6002B0704700BF6D
:10241000003802400008004000E100E082B0134BA9
:102420001A6C42F002021A641B6C03F0020301935F
:10243000019B0F4B1A6822F001021A6042F20F72E0
:102440009A6240F6C312DA62DA6842F00102DA6098
:102450001A6842F001021A60064B402283F81D23DD
:102460004FF000521A6002B0704700BF00380240BF
:102470000004004000E100E008B5FFF745FE054B11
:1024800093F90000FFF762FFFFF79AFFFFF7C6FF1F
:1024900008BD00BF0D00002084B03D4B1A6B42F414
:1024A00080021A631B6B03F480030193019B394A7A
:1024B000136823F001031360364B1B6813F0010F00
:1024C000FAD1354A936843F03D039360314B334A68
:1024D0001A6040F294525A60314A9A60314ADA6086
:1024E0001A6842F001021A602F4B202283F8382329
:1024F0004FF080725A60264B1A6B42F001021A6349
:102500001B6B03F001030393039B284B1A68012301
:1025100093FAA3F3002B36D0B3FA83F35B000321C5
:1025200001FA03F322EA0302012393FAA3F3002B37
:102530002BD0B3FA83F35B00032101FA03F31343B7
:102540001A4A1360124B5A6C42F480725A645B6CE4
:1025500003F480730293029B154B9A6822F00102E8
:102560009A604FF000725A60124A9A6000225A63D1
:102570001A614FF48031104A51609A6842F00102AA
:102580009A6004B070472023C8E72023D3E700BF38
:10259000003802401064024000640240100502004E
:1025A0004C2001404008002000E100E00000024013
:1025B000002001400003001A002301400B4B9A68E1
:1025C00022F001029A600A4A0A49116040F29451CD
:1025D0005160116841F0010111601A6822F0200277
:1025E0001A609A6842F001029A6070470020014028
:1025F000106402401005020084B03E4B1A6B42F496
:1026000080021A631B6B03F480030193019B3A4A17
:10261000136823F001031360374B1B6813F0010F9D
:10262000FAD1364A936843F474639360324B344A68
:102630001A6040F294525A60324A9A60324ADA6022
:102640001A6842F001021A60304B202283F83923C5
:102650004FF000725A60274B1A6B42F020021A6347
:102660001B6B03F020030393039B294B1A684FF461
:10267000806393FAA3F3002B38D0B3FA83F35B00A3
:10268000032101FA03F322EA03024FF4806393FA71
:10269000A3F3002B2CD0B3FA83F35B00032101FAE0
:1026A00003F313431A4A1360124B5A6C42F48062CC
:1026B0005A645B6C03F480630293029B154B9A6827
:1026C00022F001029A604FF000725A60124A9A603A
:1026D00008225A6300221A614FF480310F4A516078
:1026E0009A6842F001029A6004B070472023C6E75E
:1026F0002023D2E7003802402864024000640240F0
:10270000100502044C2201402C2E002000E100E0C4
:1027100000140240002201400003001A002301407F
:1027200008B5FFF7B9FEFFF767FF08BD0B4B9A68C6
:1027300022F001029A600A4A0A49116040F294515B
:102740005160116841F0010111601A6822F0200205
:102750001A609A6842F001029A60704700220140B4
:10276000286402401005020486B0A44B1A6B42F4A0
:1027700080721A631B6B03F480730593059BA04B57
:102780001B68022292FAA2F2002A00F01D81B2FA1E
:1027900082F25200032101FA02F223EA020202232A
:1027A00093FAA3F3002B00F01181B3FA83F35B00DB
:1027B000012101FA03F31343914A13609268022343
:1027C00093FAA3F3002B00F00381B3FA83F35B00C9
:1027D000032101FA03F322EA0303894A9360536851
:1027E00023F0020353604FF400339361834B196B62
:1027F00041F4807119631B6B03F480730493049B91
:1028000012684FF4006393FAA3F3002B00F0E28008
:10281000B3FA83F35B00032101FA03F322EA030313
:10282000774A136093684FF4006292FAA2F2002A8A
:1028300000F0D280B2FA82F25200032101FA02F2D1
:1028400023EA02024FF4006393FAA3F3002B00F093
:10285000C580B3FA83F35B00032101FA03F313434A
:10286000674A9360654B5A6C42F480425A645B6CD1
:1028700003F480430393039B624B1A6922F4704272
:102880004FF4704393FAA3F3002B00F0A980B3FA3E
:1028900083F3082101FA03F313435A4A13615A4B95
:1028A0001A6842F400621A60DA6842F40062DA6080
:1028B0004FF400625A61554BE02283F828234FF40D
:1028C00080725A604D4B1A6B42F040021A631B6BC8
:1028D00003F040030293029B4D4B1A68402393FA86
:1028E000A3F3002B7ED0B3FA83F35B00032101FA3C
:1028F00003F322EA0303464A13609368402292FAE4
:10290000A2F2002A70D0B2FA82F25200032101FA38
:1029100002F223EA0202402393FAA3F3002B65D0CC
:10292000B3FA83F35B00032101FA03F31343384A3C
:102930009360D368402292FAA2F2002A58D0B2FAE9
:1029400082F25200032101FA02F223EA020240233A
:1029500093FAA3F3002B4DD0B3FA83F35B0001216C
:1029600001FA03F313432A4AD360244B5A6C42F40E
:1029700080425A645B6C03F480430193019B214BBA
:10298000DA6822F470624FF4706393FAA3F39BB396
:10299000B3FA83F3062101FA03F31343194AD36010
:1029A000194B1A6842F040021A609A6842F04002DD
:1029B0009A6040225A61154BE02283F817234FF4A6
:1029C00000021A6006B070472022E2E62023EEE6FD
:1029D0002023FCE620231DE720222DE720233AE7D1
:1029E000202356E7202380E720228EE7202399E743
:1029F0002022A6E72023B1E72023CBE700380240BE
:102A00000020024000380140003C014000E100E0AD
:102A100000180240F0B486B0984B1A6822F0805239
:102A20001A60D3F8882096491140964A0A43C3F8A1
:102A30008820D3F88C2022F4403242F48032C3F84C
:102A40008C201A6842F080521A608C4B1B6813F07D
:102A5000005FFAD0894B1A6B42F010021A631A6BAE
:102A600002F010020592059A874A116821F440711C
:102A70001160116841F400711160916821F4407196
:102A80009160916841F400719160116A21F47021A4
:102A90001162116A41F4602111621A6B42F0400226
:102AA0001A631A6B02F040020492049A774A116882
:102AB00021F040711160116841F00071116091685E
:102AC00021F040719160916841F000719160516A0C
:102AD00021F470215162516A41F4602151621A6BF4
:102AE00042F480721A631A6B02F480720392039AA2
:102AF00067490A68674E32400A600C68664D2C438D
:102B00000C608868304088608A682A438A60486A16
:102B1000624A02404A62486A614A02434A621A6B48
:102B200042F400721A631A6B02F400720292029A63
:102B30005C4A106800F04070106014685A4D2C43D5
:102B40001460946804F04074946090682843906026
:102B5000106A00201062106A40F0EE301062506A75
:102B600000F470205062546A5048204350621A6B3F
:102B700042F480621A631A6B02F480620192019A35
:102B80004B4A10684B4F3840106015684AF62A26A9
:102B90003543156094683C40946090683043906081
:102BA000106A00F470401062146A434820431062B7
:102BB000086820F040700860086840F08070086085
:102BC000106820F0C0001060106840F040001060F5
:102BD0004FF480508861082191615A6C42F0806204
:102BE0005A645B6C03F080630093009B334B42F2AA
:102BF00020229A61324A9A60324ADA6002F1F07217
:102C000002F588721A6102F5001202325A614FF41D
:102C10007F02DA62DA6B42F00F02DA635A6B42F03B
:102C200006025A63284A29495160A1F57A012A39D6
:102C3000916002211161FF21516140F20541D16192
:102C40004FF0404191622249D1624FF48871116383
:102C5000116841F0010111605A6A42F001025A62A2
:102C60009A6942F001029A611A4B202283F8592393
:102C70004FF000729A6006B0F0BC70470038024016
:102C80003F80FF8F003000500010024000180240CB
:102C900000200240FFFFC303000028A80FF00F0030
:102CA000E00EE0EE00240240AAAAAAA8EEEEE0EEB2
:102CB00000280240C000FFFFEE0EEEEE006801406B
:102CC000090028000B003500846801403600150219
:102CD000C303C00300E100E070B588B08F4B9A6B6E
:102CE00042F001029A639A6B02F001020792079A7E
:102CF0001A6B42F004021A631A6B02F00402069285
:102D0000069A874A116821F0C0011160116841F0EC
:102D100080011160916821F0C0019160916841F0DB
:102D200080019160116A21F470411162116A41F4CD
:102D3000404111621A6B42F008021A631A6B02F0EA
:102D400008020592059A774A1168774E3140116062
:102D50001468764D2C431460906830409060916800
:102D600029439160116A21F0FF011162116A41F05B
:102D7000CC011162506A6E4901405162506A6D493E
:102D8000014351621A6B42F010021A631A6B02F08F
:102D900010020492049A684A116843F6F0763140B2
:102DA0001160146805F1286505F500452C43146091
:102DB000906830409060916829439160106A5F4943
:102DC00001401162106A5E4901431162516A00219B
:102DD0005162516A41F0CC3151621A6B42F02002CB
:102DE0001A631A6B02F020020392039A554A116883
:102DF000554E314011601468544D2C431460906856
:102E000030409060916829439160116A01F07F41E0
:102E10001162106A4E4901431162516AC1F30B01FC
:102E20005162506A4B49014351621A6B42F04002B1
:102E30001A631A6B02F040020292029A464A116823
:102E4000464E314011601468454D2C431460906823
:102E500030409060916829439160116A01F0FF2130
:102E60001162116A41F0CC111162506A3D49014072
:102E70005162506A3C49014351621A6B42F0800230
:102E80001A631B6B03F080030193019B374B1A6895
:102E900022F44C621A601A6842F408621A609A6856
:102EA00022F44C629A609A6842F408629A60196A45
:102EB0002F4A0A401A62196A2E4A0A431A622E4B96
:102EC00041F654121A602D4A9A6011221A612A4B57
:102ED0009B6913F0200FFAD10120FEF779F8122236
:102EE000254B1A61244B9B6913F0200FFAD1F32272
:102EF000214B1A61204B9B6913F0200FFAD1204A15
:102F00001D4B1A611C4B9B6913F0200FFAD140F640
:102F10000642194B5A6108B070BD00BF003802402C
:102F200000080240000C0240F0FFC00F0A002AA077
:102F300000F0FF00CC0C00CC0010024000FFFF0F9F
:102F4000CC0000C00014024000F03F00AA0A80AA92
:102F5000CCCCCC0000C0CCCC00180240F0F0FC3F40
:102F60000A0A0280F0FFFF0F0C0000C0001C0240A4
:102F7000FF0F0FFF00C0C000400100A061631101FE
:102F80001440040082B0224B1A6B42F400021A6310
:102F90001B6B03F400030193019B1E4B1B6813F092
:102FA000010FFAD11B4B1C4A1A6000229A631B4A7C
:102FB000DA6302225A631A4A5A649A6842F03F025C
:102FC0009A601A6842F001021A60124B1B6813F0F3
:102FD000010FFAD10F4B104A1A6000229A63A2F136
:102FE0007F52DA6302225A630D4A5A649A6842F0A9
:102FF0003F029A601A6842F001021A60094B2022CF
:1030000083F85A234FF080629A6002B0704700BF85
:103010000038024000B0024000010300000020C060
:103020001001E00100E100E082B07C4B1A6B42F03D
:1030300080021A631B6B03F080030193019B784BA2
:103040001B68802292FAA2F2002A00F0CF80B2FA26
:1030500082F25200032101FA02F223EA02028023E3
:1030600093FAA3F3002B00F0C380B3FA83F35B0061
:10307000022101FA03F31343694A136013684FF402
:10308000807292FAA2F2002A00F0B480B2FA82F2C0
:103090005200032101FA02F223EA02024FF4807384
:1030A00093FAA3F3002B00F0A780B3FA83F35B003D
:1030B000022101FA03F31343594A136093688022F3
:1030C00092FAA2F2002A00F09980B2FA82F252003B
:1030D000032101FA02F223EA0202802393FAA3F306
:1030E000002B00F08D80B3FA83F35B00022101FA1C
:1030F00003F313434A4A936093684FF4807292FA41
:10310000A2F2002A7ED0B2FA82F25200032101FA22
:1031100002F223EA02024FF4807393FAA3F3002B26
:1031200072D0B3FA83F35B00022101FA03F3134375
:103130003B4A9360536843F4C0735360136A802220
:1031400092FAA2F2002A61D0B2FA82F292000F2122
:1031500001FA02F223EA0202802393FAA3F3002B7E
:1031600056D0B3FA83F39B00042101FA03F313430F
:103170002B4A1362536A012292FAA2F2002A49D022
:10318000B2FA82F292000F2101FA02F223EA02025D
:10319000012393FAA3F3002B3ED0B3FA83F39B00F1
:1031A000042101FA03F313431D4A53621B4B1A6CAB
:1031B00042F400021A641A6C02F400020092009AAF
:1031C0001A6A42F400021A621A6A22F400021A62AF
:1031D000A3F5EE33134A1A615A6842F000725A603E
:1031E0001A6842F001021A6002B07047202230E7EC
:1031F00020233CE720224BE7202358E7202266E7E4
:10320000202372E7202280E720238CE720229DE7FD
:103210002023A8E72022B5E72023C0E7003802409A
:10322000001C02403227914082B0394A136843F4AF
:1032300080331360364B1B6813F4003FFAD0344BD5
:103240005A6834491140344A0A435A601A6842F0B5
:1032500080721A602E4B1B6813F0007FFAD02C4B43
:103260001A6C42F080521A641B6C03F08053019375
:10327000019B2A4A136843F480331360274B5B6831
:1032800013F4803FFAD0254A136843F400331360E7
:10329000224B5B6813F4003FFAD0214A136823F0F5
:1032A0000F0343F0060313601D4B1B6803F00F036D
:1032B000062BF9D1164A936823F0F00393609368C4
:1032C00023F0030343F002039360114B9B6803F068
:1032D0000C03082BF9D10E4A936823F4E05343F40E
:1032E000A0539360936823F4604343F400439360D6
:1032F0000C4B0D4A5A60F0210C4A82F82310002230
:103300009A6007221A600A4A0A4B1A6002B0704794
:10331000003802400080BCFF19644000007000408B
:10332000003C024010E000E03F0D030000ED00E033
:1033300000C2EB0B10000020244B5B6913F4003F2C
:1033400013D1BFF34F8FBFF36F8F204B0022C3F811
:103350005022BFF34F8FBFF36F8F5A6942F4003290
:103360005A61BFF34F8FBFF36F8F184B5B6913F434
:10337000803F2AD110B4154B0022C3F88420BFF33C
:103380004F8FD3F88040C4F34E300FE01A4643F617
:10339000E07303EA401343EA82730C49C1F86032D8
:1033A000531E002AF2D1431E18B11846C4F3C902B5
:1033B000EDE7BFF34F8F4B6943F480334B61BFF3AD
:1033C0004F8FBFF36F8F5DF8044B704700ED00E047
:1033D000BFF35F8F074B00225A609A604FF0404264
:1033E000DA60054A1A6105225A60BFF34F8FBFF3B6
:1033F0006F8F704790ED00E02D000813014B1868A7
:10340000704700BFD806002008B5044A536983F00E
:10341000020353616420FDF7DBFDF6E70020024064
:103420002DE9F84FFFF788FFFFF7FEFEFFF7D0FF0B
:10343000FFF752FCFFF7EEFAFFF7A4FDFFF71CF8C9
:10344000FFF792F9FFF7F0FDFDF73CFE4FF48873AC
:103450004FF4F0726549664803F096F9654901201A
:1034600003F0E4FE012003F0EFFE6349002003F0C7
:10347000DDFE002003F0E8FE002003F0FDF904F07B
:103480000BFE06F063FD00F0BFFF01F017FB01F03B
:1034900037FE5A4B1B6913F4006F12D00222574BB0
:1034A0009A614FF48053564A56495748FEF772FACC
:1034B000014690B955480BF00FFD4FF400324F4BC9
:1034C0009A61012250495248FEF73CFA014648B140
:1034D00050480BF075FCFFF797FF4F480BF070FC5E
:1034E000FFF792FF09F020F9FFF71AF94FF00009F2
:1034F000CA464FF0FF384D464C4601265BE2474B2B
:103500001B78474AD35C012B00F069824AF655527A
:103510000621444804F052FC61E2B7F1FF3F00F09D
:1035200068823E4B1B783E4AD35C012B00F0FE8143
:103530003D4B1B78032B00F0E5810020FDF7E8FDF3
:103540003A4B93F800A0B7F5ED7F19DA384B1B78AA
:10355000384AD35C13B9B7F1FF3F0FD0364A14880D
:103560003C1B24EAE47413B9B7F1FF3F27D0324B78
:103570001D88ED1B25EAE5750022C4E00024F2E772
:10358000A7F5ED73B3F5F07F0CD2294B1B78294AD0
:10359000D35C13B9B7F1FF3F13D0274B1C883C1BFA
:1035A0000025E9E7224B1B78224AD35C13B9B7F117
:1035B000FF3F0AD0204B1C883C1B0025DCE7002580
:1035C000DAE700254FF4ED74D6E700254FF46D746B
:1035D000D2E7EF2B40F3BC80EF23B9E07723B7E0CD
:1035E0000023B8E0C3F1FE03BAE000BFA910000851
:1035F0009463002061110008E511000800200240DA
:10360000000060C0C8370108F4380108B03801086C
:10361000FC1D0020F8380108D0380108E006002021
:10362000E4370108B8620020DC0600200D0000200D
:10363000E30600201438010804000020EF2B00F3FB
:10364000C680002BC0F2C580BEF1000F40F0C380E1
:10365000C3F1FE03B0F5F07F09DAC3EB03134FEAC1
:10366000831EAEF17F5E40F2FF732EF81030994B4F
:103670001B78002B46D0012B00F0B080022B00F00D
:10368000D880032B00F0FC80934B5B5CDBB207EE31
:10369000903AB8EE677A914B5B5CDBB207EE903AFA
:1036A000F8EEE77A67EE877A9FED8D7A67EE877A94
:1036B0008C4BB3F9003007EE103AB8EEC77A37EE0C
:1036C000277A894B1978894B03EB8103D3ED006A84
:1036D000C7EE267AFDEEE77A17EE903AEF2B00DD83
:1036E000EF23002BC0F2F380C3F1FE03B0F5F07FAF
:1036F00008DAC3EB03139901A1F17F514BF6BA230A
:1037000021F810300132C4F5F0739A4280F2FE8045
:10371000A118714B5B5C7648B0F90000034407EEDA
:10372000903AB8EEE77A734B1878704B03EB80034E
:10373000D3ED006AC7EE267AFDEEE77A17EE903AEF
:103740006D48007800287FF444AF772B3FF746AFF1
:10375000002BFFF645AF00287FF444AFC3F186038A
:10376000A818B0F5F07F09DAC3EB03134FEA831E04
:10377000AEF17F5E4FF4FC632EF810305E4B93F891
:1037800000E0BEF1020F3FF472AF544B5B5CDFF818
:1037900070C1BCF900C0634407EE903AB8EEE77A16
:1037A000564B93F800C0514B03EB8C03D3ED006AEA
:1037B000C7EE267AFDEEE77A17EE903ABEF1000FDB
:1037C0007FF43CAF772B7FF73CAF772339E7EF23CC
:1037D00037E7002338E7C3F1FE033BE73E4B5B5C72
:1037E000DBB207EE903AB8EE677A3C4B5B5CDBB23B
:1037F00007EE903AF8EEE77A77EE877AB6EE007A3F
:1038000067EE877A374BB3F9003007EE103AB8EE1F
:10381000C77A37EE277A344B1978344B03EB8103A0
:10382000D3ED006AC7EE267AFDEEE77A17EE903AFE
:1038300054E7294B5B5CDBB207EE903AF8EE677A0F
:10384000284BB3F9003007EE103AB8EEC77A77EE9E
:10385000277A224B5B5CDBB207EE103AB8EEC77AF0
:1038600037EEC77A204B1978204B03EB8103D3ED59
:10387000006AC7EE267AFDEEE77A17EE903A2DE75A
:10388000164B5B5CDBB207EE903AB8EE677A154BED
:10389000B3F9003007EE903AF8EEE77A77EE877AE0
:1038A0000D4B5B5CDBB207EE103AB8EEC77A37EE31
:1038B000C77A0D4B19780D4B03EB8103D3ED006AEA
:1038C000C7EE267AFDEEE77A17EE903A06E7002378
:1038D0000AE700BFDE060020400800202C2E002052
:1038E0000000803B0000002002000020903801080A
:1038F000E60600200E000020DC0600200F0000205D
:10390000EA060020A34B1B78002B79D1A24B1B7831
:10391000A24AD35C012B00F09980B7F1FF3F05D09C
:1039200049F6666206219E4804F048FA9A4B1B78D5
:103930009A4AD35C012B00F092809A4B1B789A4AEA
:10394000D35C012B03D0FEF739FEFEF7EFFE954B5B
:103950001B78954AD35C012B00F08680934B1B7833
:10396000002B40F01C828B4B1B78002B40F03582E3
:103970008F4B1B78002B40F036828E4B5F6AC7F36B
:103980004E07BE4213D01E68C6F3001606F0D2FAE8
:1039900020B906F0D5FA002800F02B8206F0D0FA04
:1039A000002840F02B82304608F030FA3E4604F002
:1039B0006DF8FDF769FC804B1B78002BC7D07F4B5F
:1039C0001B78002BC3D000237C4A13707A4A1370F3
:1039D00002F096F90746B0F1FF3F3FF490AD6E4B11
:1039E0001B786E4AD35C002B3FF49BAD012B3FF458
:1039F00094AD022B9AD1B7F1FF3F7FF492AD95E7DA
:103A00000020FDF785FB6E4B187800F059FD002073
:103A10000EE0C1F1FE03C3EB03139A01A2F17F5242
:103A20004BF6BA2322F8103001318E45F1DA01301D
:103A3000B0F5F07FBFF66AAF624B13F800E0BEF15D
:103A4000EF0F01DD4FF0EF0E0021EEE7082006F04A
:103A5000E3F9002007F0BAF94FF0FF3766E7B7F156
:103A6000FF3F7FF474AF68E7574B1B78002B57D1AB
:103A700001F04EFE00BB544B1B78002B3FF46EAFA1
:103A8000524B1B78994500F0AF80291B0029B8BF25
:103A900049425246C1F5F071204602F00DFA8046C7
:103AA000B0F1FF3F64D0494B93F80090484B1A881F
:103AB000484B1A600123A9E04749484801F030FE0D
:103AC000474B1B78032BD6D0464B1B78002BD2D10B
:103AD000414B1B88D72BCED9B3F5847FCBD83F4B36
:103AE0001B886F2BC7D9A02BC5D80122364B1A7063
:103AF000374B1A88374B1A6006F042FD291B002904
:103B0000B8BF494253465246C1F5F071204602F013
:103B1000D3F9804601F0FCFD0028FBD1D146AAE78D
:103B200001F0F6FD0028A6D02B4F39462B4801F0B6
:103B3000F7FD3B88D83B9BB2302B9CD8274B1B888A
:103B40006F2B98D9A02B96D800221F4B1A7008F023
:103B5000FFFC04F09BFA06F08BF9082006F05CF9F4
:103B6000012007F033F901F0D3FD0028FBD182E7F3
:103B7000032006F051F9154B1B78994504D201201A
:103B800007F024F9002341E0002007F01FF900238B
:103B90003CE000BFDF060020E306002014380108E7
:103BA000B8620020E0060020E43701082C0700205E
:103BB000D606002000040140D2060020D3060020D3
:103BC000DD060020C4330020E10600200D000020A7
:103BD0000400002008000020AE350020B035002091
:103BE000DC060020DE060020874B1B785BB9874B84
:103BF0001B7843B9864B1B782BB9864B1B7813B9BE
:103C0000854B1B786BB306F0BBFC0123002B3FF404
:103C1000A5AE404602F0EEF808F1FF317F4B1B687D
:103C2000C21A0F469142A8BF174627EAE777984283
:103C300004D0A3EB000EBEF1000F14DDA3EB000BCC
:103C400040F2DF1EF345A8BFF34691420EDAA0EB27
:103C500008030133714A13600020FDF759FA00226E
:103C60002EE00023D2E74FF0000BEEE71B1AB3F56E
:103C7000F07FF1DB00F2DF10684B1860ECE7EF2B10
:103C800041DDEF233FE077233DE000233DE0C3F13A
:103C9000FE033EE0EF2B6FDC002B6FDBBEF1000F6D
:103CA0006ED1C3F1FE03B1F5F07F08DAC3EB031365
:103CB0009801A0F17F5040F2FF7320F811300132DB
:103CC000B2F5F07F5FDAD01980455CDD544B195CAA
:103CD000544BB3F900300B4407EE903AB8EEE77A54
:103CE000514B1978514B03EB8103D3ED006AC7EEBA
:103CF000267AFDEEE77A17EE903A4D4909780029C9
:103D0000BDD1772BBFDC002BBFDB0029BFD1C3F1B6
:103D1000860302EB0B01B1F5F07F09DAC3EB031365
:103D20004FEA831EAEF17F5E4FF4FC632EF8113034
:103D30003F4B93F800E0BEF1020FC0D03D4B185C42
:103D40003D4BB3F90030034407EE903AB8EEE77A02
:103D50003A4B1878354B03EB8003D3ED006AC7EE7E
:103D6000267AFDEEE77A17EE903ABEF1000F91D178
:103D7000772B91DD77238FE7EF238DE700238DE706
:103D8000C3F1FE038FE70023234A1370214A137007
:103D90001F4A13701D4A13701B4A1370DEE501F0B1
:103DA000B7FC98B1264FDFF8A8B03946584601F065
:103DB000B7FC0122BBF90010B7F9000003F05AFA72
:103DC00005F0F0FB00221F4B1A70CCE500224FF0EB
:103DD000FF31084603F04EFAF2E705F0CDFD002270
:103DE000194B1A70C4E506F027F80022174B1A7019
:103DF000C3E5304606F0EAFF3E46D8E5304606F019
:103E000009FC3E46D3E500BFED060020EE0600208B
:103E1000E8060020EC060020E20600200800002052
:103E200074480020E60600200E00002090380108AB
:103E3000DC060020B4350020EA0600200F00002038
:103E4000AE3500202C070020DF060020D60600201B
:103E5000B035002000210B4600E00133B3F5F07FC0
:103E600006D2C25CD2B29142F7D2C15CC9B2F4E7C9
:103E700008467047FF21002300E00133B3F5F07FCF
:103E800006D2C25CD2B29142F7D9C15CC9B2F4E7A2
:103E90000846704738B50546FFF7DCFF044628465C
:103EA000FFF7E8FF201AC0B238BD00000022134619
:103EB00002E0C15C0A440133B3F5F07FF9D3034B50
:103EC000A3FB0232C2F30720704700BF89888888AD
:103ED0002DE9F04F2DED048B85B000AF834679605E
:103EE0001646984697F84830BB6002EB0803013B42
:103EF000FB60DFED7A8A60EE288ADB000833ADEBE9
:103F0000030D6D46ADEB030DEA4640F221239845C3
:103F100005D0734B3B60DFF8DC91002431E0714B3E
:103F20003B60DFF8D491F8E79FED6F7A41E0DFED79
:103F30006E7A45E0630067EE096A27EE806A36EE26
:103F4000C66A1BF8042006EE902AF8EEE66A66EED2
:103F5000866A05EBC402C2ED006A013367EE897A16
:103F600027EE007A77EE877A1BF8042000EE102AFD
:103F7000B8EEC00A60EE277A05EB8303C3ED007A42
:103F80000134B4425CD207EE904AB8EE678A28EE5C
:103F9000688AB0EE480A0AF07DFBB0EE409AB0EEB7
:103FA000480A0AF031FB4445BED209EBC40393ED45
:103FB000007A4445BBD2E30004334B44D3ED007A8E
:103FC000BB68002B18BFB4F5F07FB3D2630067EE77
:103FD000096A27EE806A76EEC66A1BF8042006EEB0
:103FE000102AB8EE466A414A02EB8402D2ED005A2A
:103FF00026EE256A66EE866A05EBC402C2ED006A0B
:10400000013367EE897A27EE007A77EE877A1BF81C
:10401000042007EE102AB8EE477A65EE875A67EE5D
:10402000A57A05EB8303C3ED007AA9E7730005EBDE
:10403000C60100220A60013305EB83031A600136D2
:10404000FB689E42F2D32A4C0123002229462046D7
:1040500009F0C0FCFB682A46396828460AF09AF93C
:1040600001231A462946204609F0B4FC002128E025
:10407000CA0009EB0203D3ED007A131D4B44D3EDC4
:10408000006A4B00A81890ED007A27EE877A01337A
:104090009B00EC1894ED006A26EE866A37EE467AAD
:1040A000524482ED007A94ED007A67EE877A90EDC3
:1040B000007A66EE876A77EEA67A5344C3ED007AFB
:1040C00001314145D4D34246796850460AF02CFA72
:1040D0001437BD46BDEC048BBDE8F08FDB0FC94043
:1040E0002C5B01082C7B0108000000002C9B0108C0
:1040F000F00600201C390108244A010810B52DEDF6
:10410000028BADF5935D86B000220EE0835CDBB2DE
:1041100005A98B540DF6782101EB820107EE903A48
:10412000F8EE677AC1ED007A0132B2F5F07FEDD397
:104130004FF4F07306E00DF6782202EB83020021C3
:1041400011600133B3F5007FF5D30DF67824002319
:104150007DAA2146534809F0F5F84FF480722146B4
:104160007DA80AF0E1F90023236003AB04AA4FF411
:104170008071204608F0A6FEDDED047AF5EE407A67
:10418000F1EE10FA00F08A80474B41F278226A443F
:10419000D258FF2A41D0002A4FD107EE902AB8EE1C
:1041A000678ADFED427A28EE278A531C08EE903AA0
:1041B000F8EE688A68EEA78A0023009340F2212374
:1041C0004FF4F072F0EE680AB0EE480A7DA905A837
:1041D000FFF77EFE344C41F278236B44234404AA5B
:1041E00040F221217DA808F06DFE78EEC88A41F2E8
:1041F00078236B441B5907EE903AF8EE677A67EE26
:10420000A88ADFED2B7A88EEA70A38EE000A0DF5B2
:10421000935D06B0BDEC028B10BD531E08EE103A44
:10422000B8EE488ADFED218A28EE288A07EE902A28
:10423000F8EE677A67EEA88ABEE7501E0DF678237F
:1042400003EB800393ED007A531C0DF6782101EB0C
:104250008301D1ED007AB4EEE77AF1EE10FA0EDDCB
:1042600007EE900AB8EE678ADFED108A28EE288AFA
:1042700007EE902AF8EE677A67EEA88A9CE707EEC9
:10428000902AB8EE678ADFED097A28EE278A07EED2
:10429000103AF8EE478A68EEA78A8DE79FED050A87
:1042A000B5E700BF0007002094EDFFFF0000003BD2
:1042B000004008440000000010B582B00446FFF73B
:1042C0001DFFF7EE007A87EE807A17EE100AFCF7F2
:1042D0005BF941EC100B0EF01FFD51EC100BFCF7DD
:1042E0009FFC07EE100ADFED2A6AC6EE877AFCEE25
:1042F000E77AF8EE677A67EE877A17EE900AFCF7AE
:1043000043F941EC100B0EF00FFE51EC100BFCF7D3
:1043100067FCB0F5F07F01D94FF4F0709FED1D7A86
:10432000002208E0A35CDBB207EE903AF8EEE77AF1
:1043300037EE277A01329042F4D807EE900AB8EEB1
:10434000676AC7EE066A0022114600E00132904219
:104350000CD9A35CDBB207EE903AF8EEE77AF4EE04
:10436000E76AF1EE10FAF1D50131EFE707EE901AA6
:10437000F8EE677A9FED087A67EE877A87EE867A9D
:10438000FCEEC77ACDED017A9DF8040002B010BDB5
:104390000000F043000000000000C84200B583B0F8
:1043A000DFED176A002210E0835CDBB207EE903A83
:1043B000B8EE677A835CDBB207EE903AF8EE677A84
:1043C00067EE277A76EEA76A0132B2F5F07FEBD37B
:1043D000DFED0C7A86EEA70AB5EEC00AF1EE10FA10
:1043E0000ADB0EF067FEFCEEC07ACDED017A9DF897
:1043F000040003B05DF804FB9FED010AF3E700BF82
:10440000000000000000F04308B54FF400710448BC
:1044100008F0AAFE4FF48061024808F0BDFD08BD17
:1044200000070020F006002008B5012811D0204820
:10443000012910D0022911D0032916D004291BD03C
:10444000052920D0062925D007292AD09FED190A51
:1044500008BD1948ECE7FFF751FE08BDFFF72CFF38
:1044600007EE900AB8EE670A08BDFFF797FF07EE60
:10447000900AB8EE670A08BDFFF7ECFC07EE900A59
:10448000B8EE670A08BDFFF7F5FC07EE900AB8EE34
:10449000670A08BDFFF7FEFC07EE900AB8EE670A50
:1044A00008BDFFF703FD07EE900AB8EE670A08BDE6
:1044B00006300020000000001A0A00200000000062
:1044C00010B5ADF51B6D012802D04148002306E070
:1044D0004048FBE7C15C0DF28C72D1540133B3F557
:1044E000F07FF7D34FF4F07304E000210DF28C72EB
:1044F000D1540133B3F5087FF7D9012300934FF46A
:10450000F07340F22122F6EE000A9FED330A03A970
:104510000DF28C70FFF7DCFC002424E003AB03EB0E
:10452000840393ED007ADFED2D7A77EE277A17EE8C
:10453000900AFCF729F841EC100B0EF03BFD00222D
:10454000274B51EC100BFCF773F80022254BFBF7BF
:10455000BBFE1DA3D3E90023FCF794F9FCF740FB55
:10456000214B18550134B4F5F07F28D2002CD5D05A
:1045700003AB03EB8403D3ED007A9FED187A77EE5B
:10458000877A77EEA77A17EE900AFBF7FDFF41ECEA
:10459000100B0EF00FFD0022114B51EC100BFCF72D
:1045A00047F800220F4BFBF78FFE07A3D3E9002348
:1045B000FCF768F9FCF714FB0B4B1855D2E70DF527
:1045C0001B6D10BDAFF30080000000403333C33FCC
:1045D0002C2E00204008002000000000BD3786354A
:1045E0000000244000804E40C43300201D4B59621F
:1045F0009A621422DA621A6842F480021A6008226F
:10460000DA605A6922F0406242F000625A615A69E7
:1046100022F4407242F480725A615A6922F0FF0219
:10462000104358615A6922F440625A615A6922F46F
:10463000F8025A6100221A611A6842F001021A60F7
:104640005A6922F0407242F080725A61054B9B68B1
:1046500013F0200FFAD1034A136823F0010313600B
:10466000704700BF001000A008B5184B5A6922F02F
:1046700040625A615A6922F4407242F480725A616F
:104680005A6922F440625A615A6922F4F8025A6166
:104690005A6922F040725A611A6842F001021A60A7
:1046A0005A6922F0FF0242F006025A61074B9B68EA
:1046B00013F0200FFAD1054A136823F001031360A9
:1046C000022211460520FFF791FF08BD001000A04F
:1046D0001B4B59629A621422DA621A6842F4800211
:1046E0001A600822DA605A6922F0406242F00062E1
:1046F0005A615A6942F440725A615A6922F0FF02C3
:10470000104358615A6922F440625A615A6922F48E
:10471000F8025A6100221A611A6842F001021A6016
:104720005A6942F040725A61054B9B6813F0200FA2
:10473000FAD1034A136823F001031360704700BFE6
:10474000001000A008B5174B5A6922F040625A6168
:104750005A6942F440725A615A6922F440625A61BD
:104760005A6922F4F8025A615A6922F040725A6179
:104770001A6842F001021A605A6922F0FF0242F000
:1047800006025A61074B9B6813F0200FFAD1054AC5
:10479000136823F001031360022211460520FFF77E
:1047A00097FF08BD001000A0194B59629A621422AD
:1047B000DA621A6842F480021A600822DA605A69E2
:1047C00022F0406242F000625A615A6942F440723B
:1047D0005A615A6922F0FF02104358615A6922F463
:1047E00040625A615A6922F4F8025A6100221A6141
:1047F0001A6842F001021A605A6942F040725A6126
:10480000044B4FF08052C3F888219A60704700BF74
:10481000001000A000E100E0184B0322DA605A69A2
:1048200022F0406242F080625A615A6942F440725A
:104830005A615A6922F0FF02104358615A6922F402
:1048400040625A615A6922F4F8025A6100221A61E0
:104850001A6842F001021A605A6942F040725A61C5
:10486000064B9B6813F0020FFAD0044B1A6822F033
:1048700001021A60186AC0B2704700BF001000A0A1
:1048800008B5174B5A6922F040625A615A6942F4DE
:1048900040725A615A6922F440625A615A6922F49C
:1048A000F8025A615A6922F040725A611A6842F05D
:1048B00001021A605A6922F0FF0242F050025A6166
:1048C000074B9B6813F0200FFAD1054A136823F0B9
:1048D00001031360002230217020FFF7F9FE08BDAC
:1048E000001000A010B50446FFF7CAFFFFF72AFF2B
:1048F0001F4B0322DA605A6922F040625A615A69FA
:1049000042F440725A615A6922F0FF0242F02002DA
:104910005A615A6942F440625A615A6922F4F802B3
:104920005A615A6922F040725A611A6842F00102D3
:104930001A609C610E4B9B6813F0020FFAD00C4B6F
:104940009B6813F0010F06D0094A136823F0010396
:104950001360012010BD064A136823F001031360A1
:10496000802211467020FFF71FFF002010BD00BFFE
:10497000001000A00D4A136823F0010313600B4BD5
:104980001B6813F0010FFAD1094AD36843F074632E
:10499000D360064B074A1A605960074A9A60D8608C
:1049A0001A6842F001021A60704700BFB864024002
:1049B0000064024000040006201000A00D4A1368A5
:1049C00023F0010313600B4B1B6813F0010FFAD1A6
:1049D000094AD36843F07463D360064B074A1A60F0
:1049E0005960074A9A60D8601A6842F001021A605A
:1049F000704700BFB86402400064024040040006F3
:104A0000201000A038B505460C46FFF79BFE4FF47A
:104A100080712846FFF7D2FF254B0322DA605A69DE
:104A200022F040625A615A6942F440725A615A69EE
:104A300022F0FF0242F012025A615A6942F44062C7
:104A40005A615A6922F4F8025A615A6942F0407276
:104A50005A61FF221A61174A22409A611A6842F08D
:104A600004021A601A6842F001021A60104B9B6837
:104A700013F0020FFAD00E4B1A6822F004021A60EB
:104A80009B6813F0010F06D0094A136823F0010355
:104A90001360012038BD064A136823F00103136038
:104AA000802211467020FFF77FFE002038BD00BF36
:104AB000001000A000FFFF00FEE7000086B0D04B12
:104AC0001A6B42F002021A631A6B02F0020205929C
:104AD000059A1A6B42F008021A631A6B02F0080278
:104AE0000492049A1A6B42F010021A631B6B03F0D3
:104AF00010030393039BC34B1A68402393FAA3F359
:104B0000002B00F09D82B3FA83F35B00032101FACE
:104B100003F322EA0302402393FAA3F3002B00F0ED
:104B20009182B3FA83F35B00022101FA03F313438A
:104B3000B44A13601268042393FAA3F3002B00F025
:104B40008382B3FA83F35B00032101FA03F322EAC1
:104B50000302042393FAA3F3002B00F07782B3FA45
:104B600083F35B00022101FA03F31343A54A1360A8
:104B7000A54B1A684FF4006393FAA3F3002B00F0DF
:104B80006782B3FA83F35B00032101FA03F322EA9D
:104B900003024FF4006393FAA3F3002B00F05A8250
:104BA000B3FA83F35B00022101FA03F31343964A3D
:104BB000136012684FF4805393FAA3F3002B00F0B4
:104BC0004B82B3FA83F35B00032101FA03F322EA79
:104BD00003024FF4805393FAA3F3002B00F03E82BC
:104BE000B3FA83F35B00022101FA03F31343864A0D
:104BF000136012684FF4005393FAA3F3002B00F0F4
:104C00002F82B3FA83F35B00032101FA03F322EA54
:104C100003024FF4005393FAA3F3002B00F0228217
:104C2000B3FA83F35B00022101FA03F31343764ADC
:104C30001360764B1A68042393FAA3F3002B00F059
:104C40001382B3FA83F35B00032101FA03F322EA30
:104C50000302042393FAA3F3002B00F00782B3FAB4
:104C600083F35B00022101FA03F31343674A1360E5
:104C7000644B9A68402393FAA3F3002B00F0F88169
:104C8000B3FA83F35B00032101FA03F322EA030280
:104C9000402393FAA3F3002B00F0EC81B3FA83F3E3
:104CA0005B00032101FA03F31343564A93609268B1
:104CB000042393FAA3F3002B00F0DE81B3FA83F30D
:104CC0005B00032101FA03F322EA0302042393FAAF
:104CD000A3F3002B00F0D281B3FA83F35B0003212E
:104CE00001FA03F31343474A9360474B9A684FF422
:104CF000006393FAA3F3002B00F0C281B3FA83F3AD
:104D00005B00032101FA03F322EA03024FF400637C
:104D100093FAA3F3002B00F0B581B3FA83F35B00A1
:104D2000032101FA03F31343374A936092684FF467
:104D3000805393FAA3F3002B00F0A681B3FA83F318
:104D40005B00032101FA03F322EA03024FF48053CC
:104D500093FAA3F3002B00F09981B3FA83F35B007D
:104D6000032101FA03F31343274A936092684FF437
:104D7000005393FAA3F3002B00F08A81B3FA83F374
:104D80005B00032101FA03F322EA03024FF400530C
:104D900093FAA3F3002B00F07D81B3FA83F35B0059
:104DA000032101FA03F31343174A9360174B9A68E0
:104DB000042393FAA3F3002B00F06E81B3FA83F37C
:104DC0005B00032101FA03F322EA0302042393FAAE
:104DD000A3F3002B00F06281B3FA83F35B0003219D
:104DE00001FA03F31343094A9360064B1A6A4023FE
:104DF00093FAA3F3002B00F05381B3FA83F307E097
:104E00000038024000040240000C02400010024042
:104E10009B000F2101FA03F322EA0302402393FAD5
:104E2000A3F3002B00F03E81B3FA83F39B000A2129
:104E300001FA03F31343A84A1362126A042393FA94
:104E4000A3F3002B00F03081B3FA83F39B000F2112
:104E500001FA03F322EA0302042393FAA3F3002BDB
:104E600000F02481B3FA83F39B00092101FA03F3D4
:104E70001343994A1362994B5A6A082393FAA3F38E
:104E8000002B00F01581B3FA83F39B000F2101FA88
:104E900003F322EA0302082393FAA3F3002B00F0A2
:104EA0000981B3FA83F39B00092101FA03F3134349
:104EB0008A4A5362526A102393FAA3F3002B00F03C
:104EC000FB80B3FA83F39B000F2101FA03F322EA7C
:104ED0000302102393FAA3F3002B00F0EF80B3FA40
:104EE00083F39B00092101FA03F313437B4A5362C6
:104EF000526A202393FAA3F3002B00F0E180B3FA67
:104F000083F39B000F2101FA03F322EA030220231B
:104F100093FAA3F3002B00F0D580B3FA83F39B0040
:104F2000092101FA03F313436C4A53626C4B1A6A6A
:104F3000042393FAA3F3002B00F0C680B3FA83F3A3
:104F40009B000F2101FA03F322EA0302042393FAE0
:104F5000A3F3002B00F0BA80B3FA83F39B0009217E
:104F600001FA03F313435E4A13625B4BDA68402392
:104F700093FAA3F3002B00F0AB80B3FA83F35B004A
:104F8000032101FA03F322EA0302402393FAA3F375
:104F9000002B00F09F80B3FA83F35B00012101FA3C
:104FA00003F313434C4AD36002F55052936B43F022
:104FB00002039363936B03F002030293029B494B3A
:104FC000196849480840494901431960196821F4A2
:104FD000F85141F440711960596821F4F81141F415
:104FE000B8115960596921F4405141F40051596197
:104FF000136B43F480031363136B03F48003019377
:10500000019B02F532523832136823F0010313601A
:10501000374B1B6813F0010FFAD1364A936843F0FF
:1050200074639360344A324B1A602E4A136843F417
:10503000002313605022314B83F85C2306B0704785
:10504000202362E520236EE520237CE5202388E5EC
:10505000202398E52023A5E52023B4E52023C1E5FE
:105060002023D0E52023DDE52023ECE52023F8E50F
:10507000202307E6202313E6202321E620232DE624
:1050800020233DE620234AE6202359E6202366E636
:10509000202375E6202382E6202391E620239DE647
:1050A0002023B5E62023C1E62023CFE62023DBE63C
:1050B0002023EAE62023F6E6202304E7202310E756
:1050C00020231EE720232AE7202339E7202345E772
:1050D000202354E7202360E700040240000C024034
:1050E00000100240001000A0EFFFFF0010000001C0
:1050F000B8640240006402400004000600E100E0E1
:10510000614B1B78002B40F0BE8010B55F4B5A6995
:1051100022F040625A615A6942F440725A615A69F7
:1051200022F440625A615A6922F040725A611A6848
:1051300042F001021A605A6922F0FF0242F00602B0
:105140005A61524B9B6813F0200FFAD14F4C2368E1
:1051500023F0010323600A20FBF73AFF636923F081
:1051600040636361636943F440736361636923F07F
:10517000FF0343F061036361636923F44063636188
:10518000636943F04073636100232361236843F044
:1051900001032360FF2323623C4B9B6813F0200F25
:1051A000FAD13A4C236823F0010323600A20FBF76D
:1051B0000FFFFFF759FA636923F040636361636986
:1051C00023F4407343F480736361636923F0FF0346
:1051D00043F081036361636923F44063636163693E
:1051E00023F0407343F080736361002323612368DD
:1051F00043F0010323609B232362244B9B6813F03D
:10520000200FFAD1214C236823F0010323609B2255
:10521000FF218520FFF7EAF9FFF726FA636923F0FB
:1052200040636361636923F4407343F48073636193
:10523000636923F0FF0343F061036361636923F44F
:1052400040636361636923F0407343F0807363617B
:1052500000232361236843F0010323607F2323623B
:105260000A4B9B6813F0200FFAD1084A136823F009
:10527000010313607F22FF216520FFF729FA012235
:10528000014B1A7010BD704718070020001000A0D5
:105290000AB90120704770B514460E4605461146FE
:1052A000FFF768FB2B4B0322DA605A6922F0406259
:1052B00042F080625A615A6942F440725A615A69F6
:1052C00022F0FF0242F0EB025A615A6942F4406256
:1052D0005A615A6922F4F80242F410125A615A696A
:1052E00042F040725A61621E1A611A6842F001026D
:1052F0001A609E611A6842F004021A60154B9B689E
:1053000013F0020FFAD0134B1A6822F004021A604D
:105310009B6813F0010F04D10E4B9868C0F3052071
:105320000DE00C4A136823F001031360012070BDE7
:10533000E11A0139084A1278D2B26A541846431E5B
:10534000DBB20028F4D1034A136823F00103136091
:1053500070BD00BF001000A0201000A010B5384B99
:105360001B78DBB2012B35D00C4623B1022B1CD0AD
:105370000023184610BDC1F30B03002B5ED10AB900
:105380000123F6E72F4B186059601203120A9A6046
:10539000FFF776FA02222A4B1A702046FFF7A2FA8C
:1053A00003460028E5D0FFF787FB7020FFF734FAAB
:1053B00010F0200F0CD10122214B1A70214B1868DC
:1053C0005968FFF71FFB03460028D2D0FFF774FB94
:1053D000FFF772FB7020FFF71FFA10F0100F1ED1BD
:1053E000184B1A6802F580721A605A6802F58072CA
:1053F0005A609A68013A9A609B6893B1114B5B6856
:10540000C3F30B0383B902220D4B1A700D4B58687E
:10541000FFF768FA03460028ABD0FFF74DFBFFF714
:105420004BFB074A1370A4E7064B18685968FFF74F
:10543000E9FA034600289CD0FFF73EFB012398E7DA
:10544000190700201C070020024B1878003018BFF5
:105450000120704719070020DFF834D0002103E055
:105460000C4B5B58435004310B480C4B42189A428A
:10547000F6D30B4A02E0002342F8043B094B9A4260
:10548000F9D300F0EFF809F03BFCFDF7C9FF7047D6
:1054900000000520E4B6030800000020B00600204C
:1054A000B00600202C680020FEE77047FEE7FEE70C
:1054B000FEE7FEE77047704770470000024A136836
:1054C00001331360704700BFD806002008B54022A2
:1054D000074B5A61FDF792FF064B1B68C31AB3F5E1
:1054E000FA7F04D90122044B1A70024B186008BDE0
:1054F000003C014028070020D60600204FF400623F
:10550000014B5A61704700BF003C01400A4A1368D2
:1055100023F001031360084B1B6813F0010FFAD14D
:10552000064B1A68C2F3401205490A709A6842F0A5
:105530003D029A60704700BF106402400064024060
:10554000D20600200A4A136823F001031360084BB7
:105550001B6813F0010FFAD1064B1A68C2F3C02280
:1055600005490A709A6842F474629A60704700BFF5
:105570002864024000640240D30600207047000007
:10558000064B5A6B22F006025A63DA6B42F00F02A6
:10559000DA630122024B1A70704700BF00680140B5
:1055A000D5060020064B1A6822F480721A609A68A9
:1055B00042F03F029A600122024B1A70704700BF0E
:1055C00000B00240D40600200122044B1A70044AA5
:1055D000136923F001031361704700BF2C070020FB
:1055E000000800400122044B1A70044A136923F09A
:1055F00001031361704700BFDF0600200004004074
:1056000008B50C4B1B7803B908BD4FF080520A4B0C
:10561000C3F88820BFF34F8FBFF36F8F074A13681B
:1056200023F001031360002211461046FFF796FE97
:10563000EAE700BF1907002000E100E0001000A029
:1056400038B5074C0825C4F88850BFF34F8FBFF317
:105650006F8F07F0B5FAC4F88851A56038BD00BF58
:1056600000E100E010B40F4AD2F8883043F4700330
:10567000C2F888300C4B196841F001011960002014
:1056800098601C68094921401960094959601968E6
:1056900021F480211960D8604FF0006393605DF8B9
:1056A000044B704700ED00E000380240FFFFF6FEBB
:1056B0001030002430B400240AE000BF4FF06043F3
:1056C0001B68002BF9D04FF0604319700134294654
:1056D000944210DA4D1C09784FF06043D3F8803EB5
:1056E00013F0010FF2D04FF06043D3F8003E13F0F7
:1056F000010FE3D1EAE7104630BC704708B5024617
:1057000070210248FCF768FC08BD00BF005C004047
:1057100008B50220FFF7F2FF052800D9002008BDD8
:1057200070B506460D460320FFF7E8FF000200F4BF
:1057300070640420FFF7E2FF00B2044334800520C8
:10574000FFF7DCFF000200F470640620FFF7D6FFCD
:1057500000B204432C8070BD2DE9F04F8DB015468A
:10576000062814BF4FF0000E4FF0010E052914BF9C
:10577000002201221EEA020F1CD001268DF82460AF
:1057800002228DF82520B84A0A9266220B920CAAB2
:1057900012E9070085E8070006AA07CA83E80700A0
:1057A00003AB93E80700169B83E8070030460DB073
:1057B000BDE8F08F042914BF002601261EEA060F5B
:1057C0000AD001268DF8246005228DF82520A74AED
:1057D0000A9269220B92DAE7032914BF00270127F6
:1057E0001EEA070F0AD001268DF824600A228DF8E0
:1057F00025209F4A0A926E220B92C8E7052814BF03
:105800004FF0000E4FF0010E16EA0E0F14D00022DA
:105810008DF8242002268DF82560934A0A9266228C
:105820000B9201228DF8182005228DF819208F4A3D
:10583000079269220892AAE717EA0E0F0AD00126FA
:105840008DF8246005228DF82520884A0A92692265
:105850000B929CE7022914BF4FF0000C4FF0010C93
:105860001EEA0C0F0AD001268DF824600A228DF85A
:1058700025207F4A0A926E220B9288E7042814BFE3
:105880004FF000084FF0010817EA080F0AD0012670
:105890008DF8246002228DF82520734A0A92662230
:1058A0000B9274E71CEA080F0AD001268DF82460D9
:1058B00004228DF825206F4A0A9268220B9266E72F
:1058C000012914BF4FF0000A4FF0010A18EA0A0F2D
:1058D0000AD001268DF8246008228DF82520664A1A
:1058E0000A9268220B9252E7B1FA81F94FEA5919EC
:1058F00018EA090F1ED000228DF8242005228DF809
:1059000025205A4A0A9269220B9201228DF818200A
:1059100002218DF8191054490791662108918DF8DC
:105920000C2017228DF80D20544A0492FD22059276
:1059300003262CE7032814BF4FF0000B4FF0010B98
:105940001CEA0B0F0AD001268DF8246002228DF884
:105950002520454A0A9266220B9218E71AEA0B0F95
:105960000AD001268DF8246004228DF82520414AB2
:105970000A9268220B920AE719EA0B0F15D000224F
:105980008DF8242005228DF82520384A0A926922B4
:105990000B9201228DF8182017228DF81920374A12
:1059A0000792FD2208920226F1E6022814BF002485
:1059B000012400941AEA040F0AD001268DF824600D
:1059C00002228DF82520284A0A9266220B92DEE6F2
:1059D000009C19EA040F15D000228DF824200A2219
:1059E0008DF82520224A0A926E220B9201228DF810
:1059F000182017228DF81920204A0792FD220892BC
:105A00000226C4E6012814BF00240124019419EAE7
:105A1000040F15D000228DF8242005228DF82520B2
:105A2000124A0A9269220B9201228DF8182006224E
:105A30008DF81920124A0792662208920226A6E6DD
:105A4000062914BF002101211EEA010F1AD00022ED
:105A50008DF8242002228DF82520034A0A9266221E
:105A60000B92012693E600BF8CA40108B8AB010895
:105A7000D4A2010818AA0108F4AE010824A601085E
:105A80005CAD010818EA010F0BD000228DF824202C
:105A900005228DF825208B4A0A9269220B92012655
:105AA00075E61BEA010F0BD000228DF824200A2294
:105AB0008DF82520844A0A926E220B92012666E612
:105AC00012EA080F14D000228DF8242005228DF848
:105AD00025207C4A0A9269220B9201228DF8182017
