:020000040800F2
:1000000000000520F53900088B3A0008993A0008ED
:100010009F3A0008A53A0008AB3A0008000000002B
:10002000000000000000000000000000B13A0008DD
:10003000BF3A000800000000CD3A0008DD3A000891
:10004000453A0008453A0008453A0008453A000894
:10005000453A0008453A0008453A0008453A000884
:10006000453A0008453A0008453A0008453A000874
:10007000453A0008453A0008453A0008453A000864
:10008000453A0008453A0008453A0008453A000854
:10009000453A0008453A0008453A0008F93A000890
:1000A000453A0008453A0008453A0008453A000834
:1000B000453A0008913C0008693C0008453A0008B0
:1000C000453A0008453A0008453A0008453A000814
:1000D000453A0008453A0008453A0008453A000804
:1000E000353B0008453A0008453A0008453A000803
:1000F000453A0008453A0008453A0008453A0008E4
:10010000453A0008453A0008453A0008453A0008D3
:10011000453A0008453A0008453A0008453A0008C3
:10012000513B0008A93B0008453A0008453A000841
:10013000453A0008453A0008453A0008453A0008A3
:10014000453A0008453A0008453A0008453A000893
:10015000453A0008453A0008453A0008453A000883
:10016000453A0008453A0008453A0008453A000873
:10017000453A0008453A0008453A000800000000EA
:10018000453A0008453A0008453A0008453A000853
:10019000453A0008453A0008453A0008453A000843
:1001A000453A0008013C0008353C0008453A000883
:1001B000453A0008453A0008453A0008453A000823
:0801C000453A0008453A000829
:1001C80010B5054C237833B9044B13B10448AFF389
:1001D80000800123237010BD9C0200200000000055
:1001E80088C5000808B5034B1BB103490348AFF3A2
:1001F800008008BD00000000A002002088C500089B
:10020800034613F8012B002AFBD1181A013870474E
:1002180081F0004102E000BF83F0004330B54FEAAF
:1002280041044FEA430594EA050F08BF90EA020F1C
:100238001FBF54EA000C55EA020C7FEA645C7FEAAF
:10024800655C00F0E2804FEA5454D4EB5555B8BFD2
:100258006D420CDD2C4480EA020281EA030382EA43
:10026800000083EA010180EA020281EA0303362DD5
:1002780088BF30BD11F0004F4FEA01314FF4801CA8
:100288004CEA113102D0404261EB410113F0004FBA
:100298004FEA03334CEA133302D0524263EB430371
:1002A80094EA050F00F0A780A4F10104D5F1200E0F
:1002B8000DDB02FA0EFC22FA05F2801841F100016A
:1002C80003FA0EF2801843FA05F359410EE0A5F13E
:1002D80020050EF1200E012A03FA0EFC28BF4CF06F
:1002E800020C43FA05F3C01851EBE37101F0004525
:1002F80007D54FF0000EDCF1000C7EEB00006EEB32
:100308000101B1F5801F1BD3B1F5001F0CD34908BB
:100318005FEA30004FEA3C0C04F101044FEA445212
:1003280012F5800F80F09A80BCF1004F08BF5FEA99
:10033800500C50F1000041EB045141EA050130BD79
:100348005FEA4C0C404141EB010111F4801FA4F11C
:100358000104E9D191F0000F04BF01460020B1FA71
:1003680081F308BF2033A3F10B03B3F120020CDAA9
:100378000C3208DD02F1140CC2F10C0201FA0CF087
:1003880021FA02F10CE002F11402D8BFC2F1200CEC
:1003980001FA02F120FA0CFCDCBF41EA0C019040A2
:1003A800E41AA2BF01EB0451294330BD6FEA0404EB
:1003B8001F3C1CDA0C340EDC04F11404C4F12002D6
:1003C80020FA04F001FA02F340EA030021FA04F3E8
:1003D80045EA030130BDC4F10C04C4F1200220FA3F
:1003E80002F001FA04F340EA0300294630BD21FA7D
:1003F80004F0294630BD94F0000F83F4801306BF43
:1004080081F480110134013D4EE77FEA645C18BF36
:100418007FEA655C29D094EA050F08BF90EA020FCD
:1004280005D054EA000C04BF1946104630BD91EAC5
:10043800030F1EBF0021002030BD5FEA545C05D1C8
:100448004000494128BF41F0004130BD14F5800407
:100458003CBF01F5801130BD01F0004545F0FE417B
:1004680041F470014FF0000030BD7FEA645C1ABFB0
:10047800194610467FEA655C1CBF0B46024650EAE7
:10048800013406BF52EA033591EA030F41F4002113
:1004980030BD00BF90F0000F04BF0021704730B599
:1004A8004FF4806404F132044FF000054FF000016E
:1004B80050E700BF90F0000F04BF0021704730B52F
:1004C8004FF4806404F1320410F0004548BF404204
:1004D8004FF000013EE700BF42004FEAE2014FEA59
:1004E80031014FEA02701FBF12F07F4393F07F4F34
:1004F80081F06051704792F0000F14BF93F07F4F66
:10050800704730B54FF4607401F0004521F00041A8
:1005180020E700BF50EA010208BF704730B54FF02E
:1005280000050AE050EA010208BF704730B511F033
:10053800004502D5404261EB41014FF4806404F16B
:1005480032045FEA915C3FF4DCAE4FF003025FEAED
:10055800DC0C18BF03325FEADC0C18BF033202EB75
:10056800DC02C2F1200300FA03FC20FA02F001FACF
:1005780003FE40EA0E0021FA02F11444C1E600BF6E
:1005880070B54FF0FF0C4CF4E06C1CEA11541DBF21
:100598001CEA135594EA0C0F95EA0C0F00F0DEF8EC
:1005A8002C4481EA030621EA4C5123EA4C5350EAD1
:1005B800013518BF52EA033541F4801143F4801322
:1005C80038D0A0FB02CE4FF00005E1FB02E506F0B3
:1005D8000042E0FB03E54FF00006E1FB03569CF008
:1005E800000F18BF4EF0010EA4F1FF04B6F5007F0E
:1005F80064F5407404D25FEA4E0E6D4146EB060680
:1006080042EAC62141EA55514FEAC52040EA5E5008
:100618004FEACE2EB4F1FD0C88BFBCF5E06F1ED8B2
:10062800BEF1004F08BF5FEA500E50F1000041EBE9
:10063800045170BD06F0004646EA010140EA020096
:1006480081EA0301B4EB5C04C2BFD4EB0C0541EAB8
:10065800045170BD41F480114FF0000E013C00F3CD
:10066800AB8014F1360FDEBF002001F0004170BDF1
:10067800C4F10004203C35DA0C341BDC04F114040A
:10068800C4F1200500FA05F320FA04F001FA05F296
:1006980040EA020001F0004221F0004110EBD37063
:1006A80021FA04F642EB06015EEA430E08BF20EA8F
:1006B800D37070BDC4F10C04C4F1200500FA04F332
:1006C80020FA05F001FA04F240EA020001F00041C4
:1006D80010EBD37041F100015EEA430E08BF20EA37
:1006E800D37070BDC4F1200500FA05F24EEA020E7F
:1006F80020FA04F301FA05F243EA020321FA04F0AE
:1007080001F0004121FA04F220EA020000EBD37064
:100718005EEA430E08BF20EAD37070BD94F0000F64
:100728000FD101F00046400041EB010111F4801F98
:1007380008BF013CF7D041EA060195F0000F18BF49
:10074800704703F00046520043EB030313F4801F85
:1007580008BF013DF7D043EA0603704794EA0C0F3F
:100768000CEA135518BF95EA0C0F0CD050EA410655
:1007780018BF52EA4306D1D181EA030101F00041D2
:100788004FF0000070BD50EA410606BF10461946FA
:1007980052EA430619D094EA0C0F02D150EA013606
:1007A80013D195EA0C0F05D152EA03361CBF104647
:1007B80019460AD181EA030101F0004141F0FE41E6
:1007C80041F470014FF0000070BD41F0FE4141F46A
:1007D800780170BD70B54FF0FF0C4CF4E06C1CEA6A
:1007E80011541DBF1CEA135594EA0C0F95EA0C0F1F
:1007F80000F0A7F8A4EB050481EA030E52EA0335DA
:100808004FEA013100F088804FEA03334FF08055FA
:1008180045EA131343EA12634FEA022245EA111527
:1008280045EA10654FEA00260EF000419D4208BFD8
:10083800964244F1FD0404F5407402D25B084FEA85
:100848003202B61A65EB03055B084FEA32024FF431
:1008580080104FF4002CB6EB020E75EB030E22BF8E
:10086800B61A754640EA0C005B084FEA3202B6EB4E
:10087800020E75EB030E22BFB61A754640EA5C00FD
:100888005B084FEA3202B6EB020E75EB030E22BF8D
:10089800B61A754640EA9C005B084FEA3202B6EB8E
:1008A800020E75EB030E22BFB61A754640EADC004D
:1008B80055EA060E18D04FEA051545EA16754FEAAF
:1008C80006164FEAC30343EA52734FEAC2025FEACD
:1008D8001C1CC0D111F4801F0BD141EA00014FF05C
:1008E80000004FF0004CB6E711F4801F04BF01432D
:1008F8000020B4F1FD0C88BFBCF5E06F3FF6AFAE49
:10090800B5EB030C04BFB6EB020C5FEA500C50F1D8
:10091800000041EB045170BD0EF0004E4EEA11315B
:1009280014EB5C04C2BFD4EB0C0541EA045170BD62
:1009380041F480114FF0000E013C90E645EA060EA6
:100948008DE60CEA135594EA0C0F08BF95EA0C0FD4
:100958003FF43BAF94EA0C0F0AD150EA01347FF41C
:1009680034AF95EA0C0F7FF425AF104619462CE7F3
:1009780095EA0C0F06D152EA03353FF4FDAE104656
:10098800194622E750EA410618BF52EA43067FF4A7
:10099800C5AE50EA41047FF40DAF52EA43057FF437
:1009A800EBAE12E74FF0FF3C06E000BF4FF0010C42
:1009B80002E000BF4FF0010C4DF804CD4FEA410CA6
:1009C8007FEA6C5C4FEA430C18BF7FEA6C5C1BD073
:1009D80001B050EA410C0CBF52EA430C91EA030FF4
:1009E80002BF90EA020F0020704710F1000F91EA51
:1009F800030F58BF994208BF90422CBFD8176FEA1F
:100A0800E37040F0010070474FEA410C7FEA6C5CEC
:100A180002D150EA013C07D14FEA430C7FEA6C5CF3
:100A2800D6D152EA033CD3D05DF8040B704700BF1F
:100A38008446104662468C461946634600E000BF6D
:100A480001B5FFF7B7FF002848BF10F1000F01BD3F
:100A58004DF808EDFFF7F4FF0CBF012000205DF80A
:100A680008FB00BF4DF808EDFFF7EAFF34BF01208F
:100A780000205DF808FB00BF4DF808EDFFF7E0FF28
:100A880094BF012000205DF808FB00BF4DF808ED79
:100A9800FFF7CEFF94BF012000205DF808FB00BFE0
:100AA8004DF808EDFFF7C4FF34BF012000205DF8C2
:100AB80008FB00BF4FEA410212F5001215D211D50A
:100AC8006FF47873B3EB625212D94FEAC12343F043
:100AD800004343EA505311F0004F23FA02F018BFC5
:100AE800404270474FF00000704750EA013005D18E
:100AF80011F0004008BF6FF0004070474FF0000051
:100B0800704700BF4A0011D212F5001211D20DD55C
:100B18006FF47873B3EB62520ED44FEAC12343F0FB
:100B2800004343EA505323FA02F070474FF00000A5
:100B3800704750EA013002D14FF0FF3070474FF054
:100B4800000070474FEA4102B2F1E04324BFB3F519
:100B5800001CDCF1FE5C0DD901F0004C4FEAC0022C
:100B68004CEA5070B2F1004F40EB830008BF20F010
:100B78000100704711F0804F21D113F13872BCBFCA
:100B880001F00040704741F480114FEA5252C2F11F
:100B98001802C2F1200C10FA0CF320FA02F018BF68
:100BA80040F001004FEAC1234FEAD32303FA0CFCBB
:100BB80040EA0C0023FA02F34FEA4303CCE77FEA4A
:100BC800625307D150EA01331EBF4FF0FE4040F494
:100BD8004000704701F0004040F0FE4040F4000043
:100BE800704700BF80B485B000AF78600E4B1B68BB
:100BF800FB60FB687B68B3F1FF3F0CD07B68013377
:100C08007B6008E0084B1B6803F48033002B02D09C
:100C18007B68013B7B607B68002BF3D100BF1437F6
:100C2800BD465DF8047B704710E000E080B485B0F5
:100C380000AF0346FB800B46BB8013467B800B4B03
:100C4800FB60B7F9042013461B019B1A9B011A4647
:100C5800FB681344B7F90620798823F8121000BFFF
:100C68001437BD465DF8047B704700BF000020C004
:100C780080B400AF00BF154B1B6803F00103002BC5
:100C8800F9D1124B124A1A60104B00229A630F4B8B
:100C98004FF04042DA630D4B00221A640B4B0222DC
:100CA8005A630A4B0B4A5A64084A084B9B6843F03C
:100CB8003F039360054A054B1B6843F0010313602B
:100CC80000BFBD465DF8047B704700BF00B002401E
:100CD800000103001001E00180B483B000AF0346B7
:100CE800FB8000BF144B1B6803F00103002BF9D1F4
:100CF800114B124A1A60104AFB8893630E4B104A34
:100D0800DA630D4B00221A640B4B02225A630A4B1A
:100D18000C4A5A64084A084B9B6843F03F039360A7
:100D2800054A054B1B6843F00103136000BF0C37ED
:100D3800BD465DF8047B704700B002400001030027
:100D4800000040C01001E00190B482B000AF04463A
:100D5800084611461A462346FB800346BB800B46CD
:100D68007B8013463B8000BF2D4B1B6803F00103BB
:100D7800002BF9D12B4B00221A70294B2A4A1A60F2
:100D8800274A3B8A93632649B7F9042013461B0177
:100D98009B1A5B011A46B7F9063013445B001A46E2
:100DA800224B1344CB631E49B7F90620B7F902302A
:100DB800D31A03F2DF130B64194B02225A63184843
:100DC800B7F90220B7F90630D31A01331A04B7F974
:100DD8000010B7F90430CB1A013313434364104AA7
:100DE8000F4B9B6843F03F0393600D4A0C4B1B6805
:100DF80043F00103136000BF094B1B6803F00103B4
:100E0800002BF9D1074B1B78DBB2002B02D04FF037
:100E1800FF3300E0002318460837BD4690BC7047F2
:100E280000B00240C902002000010300000020C0F9
:100E380090B482B000AF0446084611461A462346CD
:100E4800FB800346BB800B467B8013463B8000BF7C
:100E5800374B1B6803F00103002BF9D1354B0022F7
:100E68001A70334B344A1A60314B02225A63304AA3
:100E78003B8A93632E49B7F9042013461B019B1A3A
:100E88005B011A46B7F9063013445B001A462B4B30
:100E98001344CB63B7F90420B7F900309A420ED156
:100EA800234B00221A642249B7F90220B7F9063009
:100EB800D31A01331B0443F001034B6417E0B7F95D
:100EC8000620B7F902309A420ED1194B40F2DF12D0
:100ED8001A641749B7F90020B7F90430D31A013357
:100EE80043F480334B6402E04FF0FF331BE0104AB9
:100EF8000F4B9B6843F03F0393600D4A0C4B1B68F4
:100F080043F00103136000BF094B1B6803F00103A2
:100F1800002BF9D1074B1B78DBB2002B02D04FF026
:100F2800FF3300E0002318460837BD4690BC7047E1
:100F380000B00240C902002000010300000020C0E8
:100F480080B400AF00BF194B1B6803F00103002BEE
:100F5800F9D1164B164A1A60144B164ADA60134B2D
:100F6800154ADA61114B154A5A61104B144A5A62F4
:100F78000E4B4FF04042DA630C4B00221A640B4BC5
:100F880002225A63094B0F4A5A64084A074B9B6866
:100F980043F03F039360054A044B1B6843F0010389
:100FA800136000BFBD465DF8047B704700B0024087
:100FB80000010200000020C00200018F000040C0B4
:100FC800020001FF1001E00180B483B000AF786037
:100FD8007B689B6903F00203022B01D1012300E027
:100FE800002318460C37BD465DF8047B704780B473
:100FF80083B000AF78607B689B6903F00403042B1F
:1010080001D1012300E0002318460C37BD465DF8E6
:10101800047B704780B483B000AF78607B689B69BD
:1010280003F01003102B01D1012300E00023184620
:101038000C37BD465DF8047B704780B483B000AFC1
:1010480078607B689B6903F02003202B01D1012382
:1010580000E0002318460C37BD465DF8047B704756
:1010680080B483B000AF78607B689B6903F040036D
:10107800402B01D1012300E0002318460C37BD4660
:101088005DF8047B704780B483B000AF78607B68FC
:10109800DB6943F020027B68DA6100BF0C37BD468C
:1010A8005DF8047B7047000080B485B000AFF8603D
:1010B800B9607A603B60FB685A68FB695B0D03F4B2
:1010C80080610B4B0B43DB431A40B9687B681943BB
:1010D8003B681B041943BB691943FB690B431A435B
:1010E800FB685A6000BF1437BD465DF8047B704743
:1010F800FF7BFF0380B483B000AF78607B685B6AD6
:10110800DBB218460C37BD465DF8047B704780B4E7
:1011180083B000AF78600B46FB70FA787B689A6200
:1011280000BF0C37BD465DF8047B704780B586B0BC
:1011380002AF78600B46FB701346BB70F978454BDD
:10114800019300230093012300227868FFF7ACFF86
:1011580001F086FEF86010E07868FFF75BFF034651
:10116800002B01D0FF2370E001F07AFE0246FB68F5
:10117800D31A0A2B01D9FF2367E07868FFF724FF09
:101188000346002BE8D0BB7819467868FFF7BFFF05
:1011980001F066FEF86010E07868FFF73BFF034651
:1011A800002B01D0FF2350E001F05AFE0246FB68F5
:1011B800D31A0A2B01D9FF2347E07868FFF750FFBD
:1011C8000346002BE8D0F978234B01934FF00073C6
:1011D8000093012300227868FFF766FF01F040FEC4
:1011E800F86010E07868FFF715FF0346002B01D080
:1011F800FF232AE001F034FE0246FB68D31A0A2BCB
:1012080001D9FF2321E07868FFF7F1FE0346002BA0
:10121800E8D07868FFF76EFF0346FB7201F020FE06
:10122800F86008E001F01CFE0246FB68D31A0A2B9E
:1012380001D9FF2309E07868FFF7FFFE0346002B7A
:10124800F0D07868FFF71FFFFB7A18461037BD46C5
:1012580080BD00BF002000800024008080B483B0DF
:1012680000AF0346FB7197F90730002B0BDB0949E8
:1012780097F907305B09FA7902F01F02012000FA9A
:1012880002F241F8232000BF0C37BD465DF8047B0D
:10129800704700BF00E100E080B483B000AF0346B0
:1012A8003960FB7197F90730002B0ADB0D4997F974
:1012B80007303A68D2B21201D2B20B4483F8002345
:1012C8000AE00949FB7903F00F03043B3A68D2B2FC
:1012D8001201D2B20B441A7600BF0C37BD465DF836
:1012E800047B704700E100E000ED00E080B582B0CB
:1012F80000AF78607B68013BB3F1807F01D30123A5
:101308000FE00A4A7B68013B53600F214FF0FF3022
:10131800FFF7C2FF054B00229A60044B07221A60B0
:10132800002318460837BD4680BD00BF10E000E026
:1013380080B485B000AF78600849084B1A6B7B68A9
:1013480013430B63054B1A6B7B681340FB60FB6808
:1013580000BF1437BD465DF8047B70470038024073
:1013680080B485B000AF78600849084B9A6B7B68F9
:1013780013438B63054B9A6B7B681340FB60FB68D8
:1013880000BF1437BD465DF8047B70470038024043
:1013980080B485B000AF78600849084B1A6C7B6848
:1013A80013430B64054B1A6C7B681340FB60FB68A6
:1013B80000BF1437BD465DF8047B70470038024013
:1013C80080B483B000AF78600549054B1A6A7B6822
:1013D80013430B6200BF0C37BD465DF8047B7047B2
:1013E8000038024080B483B000AF78600649064BED
:1013F8001A6A7B68DB4313400B6200BF0C37BD469B
:101408005DF8047B704700BF0038024080B485B0A7
:1014180000AF78600849084B5A6C7B6813434B64EB
:10142800054B5A6C7B681340FB60FB6800BF1437A0
:10143800BD465DF8047B70470038024080B400AFB9
:10144800054A054B1B6843F48033136000BFBD4653
:101458005DF8047B704700BF0038024080B400AFDD
:10146800074B1B6803F40033B3F5003F0CBF01239F
:101478000023DBB21846BD465DF8047B704700BF09
:101488000038024080B483B000AF78600649064B4C
:101498009B6823F003027B6813438B6000BF0C3703
:1014A800BD465DF8047B70470038024080B400AF49
:1014B800044B9B6803F00C031846BD465DF8047B9B
:1014C800704700BF0038024080B483B000AF786036
:1014D8000649064B9B6823F0F0027B6813438B6038
:1014E80000BF0C37BD465DF8047B704700380240EA
:1014F80080B483B000AF78600649064B9B6823F43C
:10150800E0527B6813438B6000BF0C37BD465DF823
:10151800047B70470038024080B483B000AF786025
:101528000649064B9B6823F460427B6813438B6033
:1015380000BF0C37BD465DF8047B70470038024099
:1015480080B400AF054A054B1B6843F080731360F5
:1015580000BFBD465DF8047B704700BF00380240FD
:1015680080B400AF074B1B6803F00073B3F1007F32
:101578000CBF01230023DBB21846BD465DF8047B8F
:10158800704700BF0038024080B485B000AFF860F3
:10159800B9607A603B600A48094B5A68094B1340A6
:1015A800F968BA6811437A68920111433A680A43A4
:1015B8001343436000BF1437BD465DF8047B704792
:1015C800003802400080BCFF80B400AF054A054BDC
:1015D8001B6843F08053136000BFBD465DF8047B71
:1015E800704700BF0038024080B400AF054A054B81
:1015F8001B6823F08053136000BFBD465DF8047B71
:10160800704700BF0038024080B400AF074B1B682A
:1016180003F00053B3F1005F0CBF01230023DBB2DA
:101628001846BD465DF8047B704700BF003802408D
:1016380090B486B000AF7860396015483B68DBB27B
:1016480013493A68D2B2023251F822103A68120CA1
:10165800D24311403A68120C3A613A6992FAA2F2FE
:10166800FA60FA687A617A69002A01D1202203E0D7
:101678007A69B2FA82F2D2B214467A68A2400A4370
:10168800023340F8232000BF1837BD4690BC70478E
:101698000038014080B483B000AF78600649064B3B
:1016A8001B6823F00F027B6813430B6000BF0C37E5
:1016B800BD465DF8047B7047003C024080B400AF33
:1016C800044B1B6803F00F031846BD465DF8047B06
:1016D800704700BF003C024080B400AF054A054B8C
:1016E8001B6843F40033136000BFBD465DF8047BFC
:1016F800704700BF0070004080B400AF054A054B3A
:101708001B6843F48033136000BFBD465DF8047B5B
:10171800704700BF0070004080B400AF074B5B68A3
:1017280003F48033B3F5803F0CBF01230023DBB201
:101738001846BD465DF8047B704700BF0070004046
:1017480080B400AF074B5B6803F40033B3F5003F88
:101758000CBF01230023DBB21846BD465DF8047BAD
:10176800704700BF0070004080B483B000AF78605D
:101778000549054B1A687B6813430B6000BF0C379B
:10178800BD465DF8047B7047003C014080B483B0DF
:1017980000AF78600549054B9A687B6813438B60F6
:1017A80000BF0C37BD465DF8047B7047003C014024
:1017B80080B483B000AF78600549054BDA687B6870
:1017C8001343CB6000BF0C37BD465DF8047B704700
:1017D800003C014080B483B000AF7860044A7B6865
:1017E800536100BF0C37BD465DF8047B704700BFEE
:1017F800003C014080B48BB000AFF860B9607A60FB
:10180800FB681A68BB687B617B6993FAA3F33B6149
:101818003B69BB61BB69002B01D1202303E0BB6995
:10182800B3FA83F3DBB25B00032101FA03F3DB4372
:101838001A40BB683B623B6A93FAA3F3FB61FB69FE
:101848007B627B6A002B01D1202303E07B6AB3FA19
:1018580083F3DBB25B00796801FA03F31A43FB6890
:101868001A6000BF2C37BD465DF8047B704780B412
:1018780085B000AFF860B9607A60FB685A68BB68E9
:10188800DB431A40BB68796801FB03F31A43FB6822
:101898005A6000BF1437BD465DF8047B704780B4BA
:1018A8008BB000AFF860B9607A60FB689A68BB6873
:1018B8007B617B6993FAA3F33B613B69BB61BB69BD
:1018C800002B01D1202303E0BB69B3FA83F3DBB219
:1018D8005B00032101FA03F3DB431A40BB683B6258
:1018E8003B6A93FAA3F3FB61FB697B627B6A002B7B
:1018F80001D1202303E07B6AB3FA83F3DBB25B00F8
:10190800796801FA03F31A43FB689A6000BF2C3721
:10191800BD465DF8047B704780B48BB000AFF860BB
:10192800B9607A60FB68DA68BB687B617B6993FAA7
:10193800A3F33B613B69BB61BB69002B01D1202349
:1019480003E0BB69B3FA83F3DBB25B00032101FA5E
:1019580003F3DB431A40BB683B623B6A93FAA3F389
:10196800FB61FB697B627B6A002B01D1202303E0CA
:101978007B6AB3FA83F3DBB25B00796801FA03F39D
:101988001A43FB68DA6000BF2C37BD465DF8047B5C
:10199800704780B48BB000AFF860B9607A60FB68BC
:1019A8001A6ABB687B617B6993FAA3F33B613B6965
:1019B800BB61BB69002B01D1202303E0BB69B3FAEB
:1019C80083F3DBB29B000F2101FA03F3DB431A40D8
:1019D800BB683B623B6A93FAA3F3FB61FB697B62DA
:1019E8007B6A002B01D1202303E07B6AB3FA83F3DF
:1019F800DBB29B00796801FA03F31A43FB681A62A9
:101A080000BF2C37BD465DF8047B704780B48BB0AF
:101A180000AFF860B9607A60FB685A6ABB681B0A55
:101A28007B617B6993FAA3F33B613B69BB61BB694B
:101A3800002B01D1202303E0BB69B3FA83F3DBB2A7
:101A48009B000F2101FA03F3DB431A40BB681B0A12
:101A58003B623B6A93FAA3F3FB61FB697B627B6A97
:101A6800002B01D1202303E07B6AB3FA83F3DBB2B6
:101A78009B00796801FA03F31A43FB685A6200BFB6
:101A88002C37BD465DF8047B704780B483B000AF47
:101A9800786039607B683A689A6100BF0C37BD4648
:101AA8005DF8047B704780B483B000AF786039601C
:101AB8003B681A047B689A6100BF0C37BD465DF825
:101AC800047B704780B500AF00F00EF8054B1B781B
:101AD8005BB2184600F060F800F0B4F800F0DCF8EB
:101AE80000BF80BD0200002080B500AF0420FFF7D2
:101AF8001FFC022240212648FFF77CFE022280219B
:101B08002348FFF777FE022240212148FFF7C7FE4E
:101B1800022280211E48FFF7C2FE0022C0211C4875
:101B2800FFF7A5FE012240211948FFF7F5FE012223
:101B380080211748FFF7F0FE032240211448FFF7E1
:101B480028FF032280211248FFF723FF0220FFF716
:101B58005DFC104A0F4B1B6A23F0110313620D4BF7
:101B680040F201129A610B4B02221A62094B0122C0
:101B78009A60084A074B1B6A43F011031362054A2F
:101B8800044B1B6843F00103136000BF80BD00BF16
:101B9800000802400004014080B584B000AF03464D
:101BA800FB7197F90730062B28D801A252F823F0C9
:101BB800D51B0008DB1B0008E11B0008E71B000819
:101BC800ED1B0008F51B0008FD1B00082D23FB601A
:101BD80017E03423FB6014E06823FB6011E0D02396
:101BE800FB600EE040F2A113FB600AE040F21243F2
:101BF800FB6006E040F62303FB6002E02D23FB6058
:101C080000BF0120FFF702FC0D4A0D4B1B6823F0B3
:101C1800010313600A4B4FF400125A60084B00226C
:101C28009A62074AFB68013BD362054A044B1B686A
:101C380043F00103136000BF1037BD4680BD00BFED
:101C48000000014080B500AF0420FFF7A1FB114A56
:101C5800104B1B6823F0010313600E4B42F20F7206
:101C68009A620C4B40F2F312DA620A4A094BDB68BB
:101C780043F00103D360074A064B1B6843F0010396
:101C8800136004211E20FFF707FB1E20FFF7E6FA6A
:101C980000BF80BD0008004080B500AF0220FFF7FC
:101CA80077FB114A104B1B6823F0010313600E4B9E
:101CB80042F20F729A620C4B40F2F312DA620A4A4D
:101CC800094BDB6843F00103D360074A064B1B68E6
:101CD80043F00103136004211D20FFF7DDFA1D20E6
:101CE800FFF7BCFA00BF80BD0004004080B500AF1C
:101CF80000F004F800F09EF800BF80BD80B500AF8A
:101D08004FF48000FFF714FB2B4A2B4B1B6823F082
:101D18000103136000BF284B1B6803F00103002B6D
:101D2800F9D1264A254B9B6843F03D039360224B2B
:101D3800234A1A60204B4FF4A5625A601E4B214A71
:101D48009A601D4B204ADA601B4A1B4B1B6843F004
:101D58000103136002213820FFF79EFA3820FFF7AD
:101D68007DFA0120FFF7E4FA032201211748FFF763
:101D780041FD4FF48070FFF749FB154A144B9B68EF
:101D880023F001039360124B4FF000725A60104B1E
:101D9800104A9A600E4B00225A630D4B00221A61BA
:101DA8000D4B4FF480325A60094A094B9B6843F047
:101DB8000103936000BF80BD1064024000640240CC
:101DC800100502004C2001406C0300200000024076
:101DD800002001400003001A0023014080B400AF36
:101DE800114A114B9B6823F0010393600F4B104A73
:101DF8001A600E4B4FF4A5625A600C4A0B4B1B68D5
:101E080043F001031360084A074B1B6823F02003C3
:101E18001360054A044B9B6843F00103936000BFBD
:101E2800BD465DF8047B7047002001401064024005
:101E38001005020080B500AF4FF48000FFF778FA74
:101E48002C4A2C4B1B6823F00103136000BF294B5D
:101E58001B6803F00103002BF9D1274A264B9B6826
:101E680043F474639360234B244A1A60214B4FF464
:101E7800A5625A601F4B224A9A601E4B214ADA60BB
:101E88001C4A1C4B1B6843F00103136002213920D4
:101E9800FFF702FA3920FFF7E1F92020FFF748FAA7
:101EA80003224FF480611848FFF7A4FC4FF48060C8
:101EB800FFF7ACFA154A154B9B6823F001039360B2
:101EC800124B4FF000725A60104B114A9A600F4B38
:101ED80008225A630D4B00221A610E4B4FF48032D0
:101EE8005A600A4A094B9B6843F00103936000BF9C
:101EF80080BD00BF2864024000640240100502044F
:101F08004C220140940800200014024000220140A5
:101F18000003001A0023014080B400AF114A114B9E
:101F28009B6823F0010393600F4B104A1A600E4B15
:101F38004FF4A5625A600C4A0B4B1B6843F001032F
:101F48001360084A074B1B6823F020031360054AF7
:101F5800044B9B6843F00103936000BFBD465DF8E6
:101F6800047B7047002201402864024010050204E7
:101F780080B500AF4FF48070FFF7DAF90122022133
:101F88003348FFF737FC002202213148FFF787FC6E
:101F9800002202212E48FFF76AFC02212C48FFF795
:101FA80082FD4FF48070FFF7C3F900224FF40061FF
:101FB8002748FFF71FFC03224FF400612448FFF76E
:101FC8006EFC4FF48040FFF721FA22490820FFF702
:101FD8002FFB4FF40060FFF7C7FB4FF40060FFF7DB
:101FE800E7FB4FF40060FFF7F5FB0E212820FFF711
:101FF80053F92820FFF732F94020FFF799F900221A
:1020080040211548FFF7F6FB032240211248FFF74D
:1020180046FC012240211048FFF77EFC4FF4804027
:10202800FFF7F4F90D490620FFF702FB4020FFF700
:102038009BFB4020FFF7AAFB4020FFF7CBFB0E21BC
:102048001720FFF729F91720FFF708F900BF80BD0F
:1020580000200240020000F0001802400100000FBA
:1020680080B500AFFFF7C0FA9C499C4BD3F8883085
:102078009B4A1A409B4B1343C1F88830974A974BA9
:10208800D3F88C3023F4403343F48033C2F88C30D7
:10209800FFF79AFA00BFFFF7B7FA0346002BFAD00A
:1020A8001020FFF745F9904A8F4B1B6823F44073C3
:1020B80013608D4A8C4B1B6843F4007313608A4A83
:1020C800894B9B6823F440739360874A864B9B68CF
:1020D80043F400739360844A834B1B6A23F4702390
:1020E8001362814A804B1B6A43F4602313624020C9
:1020F800FFF71EF97D4A7D4B1B6823F04073136080
:102108007A4A7A4B1B6843F000731360774A774B1F
:102118009B6823F040739360744A744B9B6843F048
:1021280000739360714A714B5B6A23F470235362A6
:102138006E4A6E4B5B6A43F4602353624FF48070BF
:10214800FFF7F6F86A496A4B1A686A4B13400B6046
:102158006749674B1A68684B13430B606449644BC3
:102168009A68644B13408B606149614B9A68624B73
:1021780013438B605E495E4B5A6A604B13404B6257
:102188005B495B4B5A6A5E4B13434B624FF40070DA
:10219800FFF7CEF85B4A5B4B1B6803F04073136094
:1021A8005849584B1A68584B13430B60554A554BBE
:1021B8009B6803F0407393605249524B9A68524BA4
:1021C80013438B604F4B1B6A4E4B00221A624D4AD9
:1021D8004C4B1B6A43F0EE3313624A4A494B5B6A25
:1021E80003F4702353624749464B5A6A474B1343DB
:1021F8004B624FF48060FFF79BF84549444B1A68DF
:10220800444B13400B604249414B1A684AF62A2353
:1022180013430B603E493E4B9A683E4B13408B601C
:102228003B493B4B9A684AF62A2313438B60384A4A
:10223800374B1B6A03F4704313623549344B1A6AEF
:10224800354B13430B622A4A294B1B6823F0407312
:102258001360274A264B1B6843F0807313602C4A8F
:102268002B4B1B6823F0C0031360294A284B1B68BB
:1022780043F0400313604FF480511D48FFF705FCFD
:1022880008212348FFF701FC4FF08060FFF7BEF8F4
:10229800224B42F220229A61204B214A9A601F4B1E
:1022A800204ADA601D4B204A1A611C4B1F4A5A61AA
:1022B8001A4B4FF47F02DA62184A184BDB6B43F073
:1022C8000F03D363154A154B5B6B43F00603536347
:1022D800174B184A5A60164B2EE000BF00380240D0
:1022E8003F80FF8F0030005000100240001802406D
:1022F80000200240FFFFC303000028A80FF00F00D2
:10230800E00EE0EE00240240AAAAAAA8EEEEE0EE53
:1023180000280240C000FFFFEE0EEEEE006801400C
:10232800090028000B0035001B0115021D013502AC
:102338008468014036001502184A9A60184B022238
:102348001A61174BFF225A61154B40F20542DA61B8
:10235800134B4FF040429A62114B124ADA62104B0B
:102368004FF488721A630E4A0D4B1B6843F0010341
:1023780013600D4A0C4B5B6A43F0010353620A4A2F
:10238800094B9B6943F00103936102215920FEF731
:1023980083FF5920FEF762FF00BF80BD0C001B01C0
:1023A80084680140C303C0030068014080B500AFE2
:1023B8000120FEF7D5FF0420FEF7BAFF944A944B9C
:1023C8001B6823F0C0031360914A914B1B6843F0CC
:1023D800800313608E4A8E4B9B6823F0C003936082
:1023E8008B4A8B4B9B6843F080039360884A884BE9
:1023F8001B6A23F470431362854A854B1B6A43F4B6
:10240800404313620820FEF793FF8249814B1A6804
:10241800814B13400B607F497E4B1A687F4B1343F7
:102428000B607C497B4B9A687B4B13408B607949E6
:10243800784B9A68794B13438B60764A754B1B6AC5
:1024480023F0FF031362734A724B1B6A43F0CC03F9
:10245800136270496F4B5A6A714B13404B626D4956
:102468006C4B5A6A6F4B13434B621020FEF760FFA8
:102478006D496D4B1A6843F6F07313400B606A4957
:10248800694B1A68694B13430B606749664B9A6836
:1024980043F6F07313408B606349634B9A68634B50
:1024A80013438B606049604B1A6A614B13400B629F
:1024B8005D495D4B1A6A5F4B13430B625A4B5B6A6B
:1024C800594B00225A62584A574B5B6A43F0CC3347
:1024D80053622020FEF72CFF5749574B1A68574B79
:1024E80013400B605449544B1A68554B13430B6007
:1024F8005149514B9A68514B13408B604E494E4B92
:102508009A684F4B13438B604B4A4B4B1B6A03F043
:102518007F4313624849484B1A6A4A4B13430B627C
:10252800454A454B5B6AC3F30B0353624249424B2E
:102538005A6A454B13434B624020FEF7F9FE434964
:10254800424B1A68424B13400B6040493F4B1A6894
:10255800404B13430B603D493C4B9A683C4B13403E
:102568008B603A49394B9A683A4B13438B60374A28
:10257800364B1B6A03F0FF231362344A334B1B6A42
:1025880043F0CC1313623149304B5A6A324B134033
:102598004B622E492D4B5A6A304B13434B628020B5
:1025A800FEF7C6FE2E4A2E4B1B6823F44C631360BD
:1025B8002B4A2B4B1B6843F408631360284A284BAB
:1025C8009B6823F44C639360254A254B9B6843F42E
:1025D800086393602249224B1A6A224B13400B620C
:1025E8001F491F4B1A6A204B13430B621F4B41F6BE
:1025F80054121A601D4B1E4A9A601C4B11221A6114
:1026080000BF1A4B9B6903F02003002BF9D131E07E
:1026180000080240000C0240F0FFC00F0A002AA088
:1026280000F0FF00CC0C00CC001002400A80AAAADF
:1026380000FFFF0FCC0000C00014024000F03F0074
:10264800AA0A80AACCCCCC0000C0CCCC001802408E
:10265800F0F0FC3F0A0A0280F0FFFF0F0C0000C0F8
:10266800001C0240FF0F0FFF00C0C000400100A087
:10267800616311010120FEF7B5FA124B12221A61AB
:1026880000BF104B9B6903F02003002BF9D10D4BC1
:10269800F3221A6100BF0B4B9B6903F02003002B48
:1026A800F9D1084B084A1A6100BF064B9B6903F031
:1026B8002003002BF9D1034B40F606425A6100BFB4
:1026C80080BD00BF400100A01440040080B500AFE9
:1026D8004FF40000FEF72CFE00BF264B1B6803F0EA
:1026E8000103002BF9D1234B234A1A60214B002206
:1026F8009A63204B214ADA631E4B02225A631D4B10
:102708001F4A5A641B4A1B4B9B6843F03F03936064
:10271800184A184B1B6843F00103136000BF154BA0
:102728001B6803F00103002BF9D1124B124A1A60FF
:10273800104B00229A630F4B124ADA630D4B0222A8
:102748005A630C4B0E4A5A640A4A0A4B9B6843F078
:102758003F039360074A074B1B6843F0010313606C
:1027680002215A20FEF798FD5A20FEF777FD00BF98
:1027780080BD00BF00B0024000010300000020C07F
:102788001001E001000040C080B500AF8020FEF7D6
:10279800CFFD022280212148FFF72CF802224FF4B6
:1027A80080711E48FFF726F8022280211B48FFF798
:1027B80076F802224FF480711848FFF770F801226A
:1027C8004FF4C0711548FFF752F8042280211348CE
:1027D800FFF7DFF804224FF480711048FFF716F96D
:1027E8004FF40000FEF7D4FD4FF40000FEF7E8FDBB
:1027F8004FF40000FEF7F6FD094B0A4A1A61084A31
:10280800074B5B6843F000735360054A044B1B6831
:1028180043F00103136000BF80BD00BF001C0240ED
:10282800005C00403227914080B500AFFEF706FEFD
:1028380000BFFEF713FE0346012BFAD100234FF425
:10284800C87219214FF48000FEF79EFEFEF778FE4D
:1028580000BFFEF785FE0346012BFAD14FF08050EA
:10286800FEF796FDFEF748FF00BFFEF755FF03464B
:10287800012BFAD1FEF730FF00BFFEF761FF0346D8
:10288800012BFAD10620FEF705FF00BFFEF716FF61
:102898000346062BFAD10020FEF716FE0220FEF7AB
:1028A800F1FD00BFFEF702FE0346082BFAD14FF4F4
:1028B800A050FEF71DFE4FF40040FEF72DFE044821
:1028C800FEF714FD034B044A1A6000BF80BD00BF29
:1028D800400D03000800002000C2EB0B80B485B057
:1028E80000AF2E4B5B6903F40033002B15D1BFF307
:1028F8004F8FBFF36F8F294B0022C3F85022BFF3CD
:102908004F8FBFF36F8F254A244B5B6943F4003325
:102918005361BFF34F8FBFF36F8F204B5B6903F495
:102928008033002B34D11D4B0022C3F88420BFF321
:102938004F8F1A4BD3F88030FB60FB685B0BC3F3F7
:102948000E03BB60FB68DB08C3F309037B60134914
:10295800BB685A0143F6E07313407A689207134341
:10296800C1F860327B685A1E7A60002BEFD1BB68D1
:102978005A1EBA60002BE5D1BFF34F8F074A074BA9
:102988005B6943F480335361BFF34F8FBFF36F8F9D
:1029980000BF1437BD465DF8047B704700ED00E0CA
:1029A80080B58AB000AF0023FB6001237B6200235F
:1029B800FB724FF0FF333B62FFF790FFFFF734FFE6
:1029C800FFF7F4FCFFF74CFBFFF780FEFFF77AF800
:1029D800FFF7CEFAFFF7D8FEFEF74AF94FF48873EF
:1029E8004FF4F072A449A54801F09CFAA4490120CB
:1029F80002F01EFC012002F03DFCA249002002F07A
:102A080017FC002002F036FC002001F021FB03F047
:102A1800FBFD06F05FFA00F02FFAFFF767F99A4B13
:102A28001B78DBB2002B00F0A881984B1B78DBB237
:102A3800002B00F0A2810021944B0A461A70924B99
:102A48000A461A7001F0BEF938623B6AB3F1FF3FDB
:102A580005D14AF6555206218D4803F059FC8D4B95
:102A68001B781A468C4B9B5C002B06D18B4B1B7832
:102A78001A468B4B9B5C012B26D1864B1B781A463A
:102A8800854B9B5C012B0AD13B6AB3F1FF3F06D013
:102A9800824B1B781A46824B9B5C012B14D17D4BD1
:102AA8001B781A467C4B9B5C022B40F050813B6A9A
:102AB800B3F1FF3F00F04B81784B1B781A46784BF7
:102AC8009B5C012B00F043810020FEF705F900BF55
:102AD800744B1B6803F00103002BF9D13B6AB3F573
:102AE800D27F2ADA6B4B1B781A466B4B9B5C002B08
:102AF80003D13B6AB3F1FF3F07D06B4B1B881A46E3
:102B08003B6A9B1A23EAE37300E00023FB61614BF5
:102B18001B781A46604B9B5C002B03D13B6AB3F1D0
:102B2800FF3F07D0604B1B881A463B6AD31A23EA3B
:102B3800E37300E00023BB6134E03B6AB3F5D27F66
:102B48001ADB3B6AB3F5617F16DA524B1B781A46DB
:102B5800514B9B5C002B03D13B6AB3F1FF3F05D07F
:102B6800514B1B881A463B6A9B1A01E04FF4D273FB
:102B7800FB610023BB6115E0464B1B781A46464BA8
:102B88009B5C002B03D13B6AB3F1FF3F05D0464B5A
:102B98001B881A463B6A9B1A01E04FF45273FB618B
:102BA8000023BB61414B7B6000237B61AFE0404B5E
:102BB800B3F900301946FA697B6913443D4AD35C7E
:102BC800DBB20B4407EE903AF8EEE76A3A4B1B7813
:102BD8003A4A9B00134493ED007AC6EE877AFDEEDD
:102BE800E77A17EE903A3B613B69772B02DD772352
:102BF8003B6104E03B69002B01DA00233B613B6940
:102C0800C3F186033B60BA697B691344B3F5F07F6F
:102C18000EDA3A6813461B019B1A9B011A467B6819
:102C28001344B9697A690A444FF4FC6123F8121015
:102C3800234BB3F900301946FA697B691344214ADA
:102C4800D35CDBB20B4407EE903AF8EEE76A1E4B12
:102C58001B781A4A9B00134493ED007AC6EE877AD4
:102C6800FDEEE77A17EE903A3B613B69772B2DDD55
:102C780077233B612FE000BF350C0008B413002018
:102C8800510D0008390E0008C6020020C7020020B6
:102C98002C130020BE02002014C70008BF02002029
:102CA80028C7000800B0024004000020000040C00F
:102CB800C00200206C030020000000207CC6000831
:102CC800C202002094080020010000203B69002B6C
:102CD80001DA00233B613B69C3F1FE033B60BA693B
:102CE8007B691344B3F5F07F0EDA3A6813461B018B
:102CF8009B1A9B011A467B681344B9697A690A448E
:102D080040F2FF7123F812107B6901337B617B6904
:102D1800B3F5F07FFFF64BAF454B1B781A46454B92
:102D28009B5C012B09D14FF0FF333B62082005F073
:102D3800ADF9002005F06EFA09E03B6AB3F1FF3FF8
:102D480005D049F6666206213B4803F0E1FA384BA4
:102D58001B781A46374B9B5C012B03D13B6AB3F1B6
:102D6800FF3F0AD1354B1B781A46354B9B5C012B2C
:102D780003D0FFF733F8FFF7CFF8324B1B78DBB2FD
:102D8800002B1FD000F0CAFF0346002B0ED02E499F
:102D98002E4800F0D5FF2C4B1B8818B22B4B1B88F4
:102DA8001BB20122194602F04DFB06E000224FF04B
:102DB800FF314FF0FF3002F045FB04F0F7FD214BE7
:102DC80000221A70224B1B78DBB2002B04D004F0CF
:102DD80045FE1F4B00221A701E4B1B78DBB2002BDE
:102DE80004D005F06DF91B4B00221A701A4B5B6A70
:102DF8005B08C3F30E03FB60FA687B6A9A420BD048
:102E0800154B1B68DBB203F01003FB72FB7A184604
:102E180005F000FAFB687B6202F05CFAFEF790F8B6
:102E280000BF0E4B1B6803F00103002BF9D1F6E538
:102E3800BE02002014C700082C130020BF02002087
:102E480028C70008F8020020CA0D0020CC0D002079
:102E5800C5020020C40200200004014000B0024066
:102E680080B400AF034B1B681846BD465DF8047B71
:102E7800704700BFB802002080B500AF4FF4007162
:102E8800044806F0C9FC4FF48061034806F0DCFBF7
:102E980000BF80BDCC020020E402002080B584B0D1
:102EA80000AF03460A46FB711346BB71FB79012B41
:102EB80002D12E4BFB6001E02D4BFB60BB79012B4F
:102EC80005D1F86800F058F8F0EE407A49E0BB798F
:102ED800022B08D1F86800F025FA034607EE903A6D
:102EE800F8EE677A3DE0BB79032B08D1F86800F06B
:102EF800CBFA034607EE903AF8EE677A31E0BB79F1
:102F0800042B08D1F86800F01BFB034607EE903A43
:102F1800F8EE677A25E0BB79052B08D1F86800F050
:102F280033FB034607EE903AF8EE677A19E0BB796F
:102F3800062B08D1F86800F04BFB034607EE903AE1
:102F4800F8EE677A0DE0BB79072B08D1F86800F036
:102F580055FB034607EE903AF8EE677A01E0DFED9D
:102F6800057AB0EE670A1037BD4680BD100500200F
:102F7800380A00200000000080B5ADF5945D00AF70
:102F88009F4B07F5945213441860002341F27422B2
:102F98003A44136037E09A4B07F5945213441A6881
:102FA80041F274233B441B6813441B78D9B2954BF8
:102FB80007F59452134441F274223A4412681344B8
:102FC8000A461A708F4B07F59452134441F2742243
:102FD8003A44126813441B7807EE903AF8EE677A81
:102FE80007F6742241F274233B441B689B00134488
:102FF800C3ED007A41F274233B441B68013341F26C
:1030080074223A44136041F274233B441B68B3F5BD
:10301800F07FC0D34FF4F07341F274223A44136046
:1030280013E007F6742241F274233B441B689B00AB
:1030380013444FF000021A6041F274233B441B68AA
:10304800013341F274223A44136041F274233B4441
:103058001B68B3F5007FE4D36B4A07F594531A4411
:1030680007F674210023694806F0C4FC07F67421AA
:10307800654B07F5945213444FF48072184607F0D5
:1030880069F907F674234FF000021A60604B07F5E0
:10309800945213445F4A07F594510A4407F6742082
:1030A8004FF4807106F066FA5A4B07F594521344B0
:1030B800D3ED007AF5EE407AF1EE10FA02D1DFEDA9
:1030C800567A1CE1524B07F5945213441B68FF2BA8
:1030D80025D14F4B07F5945213441B68013B07EE6B
:1030E800903AB8EE677ADFED4D6AC7EE267A41F27C
:1030F8007C233B44C3ED007A454B07F594521344B7
:103108001B6807EE903AB8EE677ADFED446AC7EEBF
:10311800267A41F278233B44C3ED007AA5E03C4B84
:1031280007F5945213441B68002B25D1384B07F53B
:10313800945213441B6807EE903AB8EE677ADFEDB5
:10314800376AC7EE267A41F27C233B44C3ED007A06
:103158002F4B07F5945213441B68013307EE903A3E
:10316800B8EE677ADFED2D6AC7EE267A41F278234A
:103178003B44C3ED007A78E0254B07F5945213449D
:103188001B68013B07F674229B00134493ED007AF9
:103198001F4B07F5945213441B68013307F674223A
:1031A8009B001344D3ED007AB4EEE77AF1EE10FAFF
:1031B80036DD174B07F5945213441B68013B07EEA5
:1031C800903AB8EE677ADFED156AC7EE267A41F2D3
:1031D8007C233B44C3ED007A0D4B07F5945213440E
:1031E8001B6807EE903AB8EE677ADFED0C6AC7EE17
:1031F800267A41F278233B44C3ED007A35E000BFDC
:1032080084EDFFFF90EDFFFF70EFFFFFCC02002081
:1032180088EDFFFF8CEDFFFF000000000000004478
:103228003A4B07F5945213441B6807EE903AB8EEF0
:10323800677ADFED376AC7EE267A41F27C233B4492
:10324800C3ED007A314B07F5945213441B680133E0
:1032580007EE903AB8EE677ADFED2D6AC7EE267A68
:1032680041F278233B44C3ED007A2A4907F5945389
:103278001944294807F59453184440F221234FF480
:10328800F07241F2782EBE44DEED000A41F27C2E47
:10329800BE449EED000A00F0DBF91C4B07F5945282
:1032A80013441E4A07F594510A441A4807F59451E5
:1032B800084440F2212106F05DF9144B07F59452B9
:1032C80013441B6807EE903AB8EE677A41F2782308
:1032D8003B44D3ED006A41F27C233B44D3ED007AB2
:1032E80076EEE77A67EE277ADFED0D6A87EEA67A43
:1032F80041F27C233B44D3ED007A77EE277AB0EE97
:10330800670A07F59457BD4680BD00BF88EDFFFFEB
:103318000000004470EFFFFF90EDFFFF8CEDFFFF12
:103328000040084490B589B000AF78607868FFF72E
:1033380023FE87ED040AB7EE007AD7ED047AC7EECC
:10334800276A16EE900AFDF7C7F803460C4644ECC8
:10335800103B08F09DFF54EC103B18462146FDF742
:10336800F1FB0346FB60DFED466A97ED037AC6EE94
:10337800877AFCEEE77A17EE903ABB61BB6907EEF5
:10338800903AB8EE677AD7ED037A67EE277A17EEA8
:10339800900AFDF7A1F803460C4644EC103B08F0F0
:1033A800FBFF54EC103B18462146FDF7ABFB0346E8
:1033B800FB61FB69B3F5F07F02D94FF4F073FB6151
:1033C8004FF000033B6100237B6111E07A687B6961
:1033D80013441B78DBB207EE903AF8EEE77A97EDE4
:1033E800047A77EE277AC7ED047A7B6901337B612B
:1033F8007A69FB699A42E9D3FB6907EE903AB8EE1D
:10340800677AD7ED046AC6EE877AC7ED047A002397
:10341800BB6100237B6115E07A687B6913441B78E4
:10342800DBB207EE903AB8EEE77AD7ED047AB4EE5D
:10343800E77AF1EE10FA02DDBB690133BB617B6903
:1034480001337B617A69FB699A42E5D3BB6907EE70
:10345800903AF8EE677A9FED0B7A67EE876AFB6918
:1034680007EE903AB8EE677AC6EE877AFCEEE77A0E
:10347800C7ED007A3B78DBB218462437BD4690BDCD
:103488000000F0430000C84280B588B000AF786003
:103498004FF00003BB610023FB611CE07A68FB6905
:1034A80013441B78DBB207EE903AB8EE677A7A6875
:1034B800FB6913441B78DBB207EE903AF8EE677AA3
:1034C80067EE277A97ED067A77EE277AC7ED067AC0
:1034D800FB690133FB61FB69B3F5F07FDED397ED40
:1034E800067ADFED166AC7EE267AC7ED067ABB695B
:1034F8007B6107F10C033B61D7ED057AF5EEC07AE5
:10350800F1EE10FA09DB97ED050A08F08BFFF0EEF3
:10351800407A3B69C3ED007A03E03B694FF0000253
:103528001A60D7ED037AFCEEE77AC7ED007A3B78AC
:10353800DBB218462037BD4680BD00BF0000F0430F
:1035480080B485B000AF78600023FB720023FB6075
:103558000FE07A68FB6813441B78DBB2FA7A9A4268
:1035680004D27A68FB6813441B78FB72FB6801334A
:10357800FB60FB68B3F5F07FEBD3FB7A1846143792
:10358800BD465DF8047B704780B485B000AF7860B5
:10359800FF23FB720023FB600FE07A68FB6813448B
:1035A8001B78DBB2FA7A9A4204D97A68FB6813442A
:1035B8001B78FB72FB680133FB60FB68B3F5F07F97
:1035C800EBD3FB7A18461437BD465DF8047B704789
:1035D80080B584B000AF78607868FFF7B1FF034624
:1035E800FB737868FFF7D0FF0346BB73FA7BBB7B9E
:1035F800D31ADBB218461037BD4680BD80B485B0FB
:1036080000AF78600023BB600023FB600BE07A68A2
:10361800FB6813441B78DBB21A46BB681344BB60D3
:10362800FB680133FB60FB68B3F5F07FEFD3BB6841
:10363800064AA2FB03231B0ABB60BB68DBB2184621
:103648001437BD465DF8047B704700BF89888888B9
:103658002DE9F04F95B000AFF861B96187ED050A23
:10366800C7ED040AFA60BB606B461E46FA68BB6881
:103678001344013BBB64D7ED057A9FEDA67A67EE4C
:10368800877AC7ED117ABB6C59000B46013B3B6446
:103698000A464FF0000358017860786840EAD26023
:1036A800786053013B600A464FF000034FEA431B22
:1036B8004BEAD26B4FEA421A8B0003330733DB081D
:1036C800DB00ADEB030D6B4603339B089B00FB63EC
:1036D800BB6C59000B46013BBB630A464FF0000325
:1036E8004FEA431949EAD2694FEA42180A464FF0AD
:1036F80000035D0145EAD26554018B0003330733AB
:10370800DB08DB00ADEB030D6B4603339B089B0026
:103718007B630023FB6472E0FB6C07EE903AF8EEE3
:10372800677AB1EE677AD7ED117A67EE277AB0EE4D
:10373800670A06F0C5FE87ED0C0AFB6C07EE903AA7
:10374800F8EE677AB1EE677AD7ED117A67EE277AE5
:10375800B0EE670A06F06EFE87ED0B0AFB6C5B00A5
:103768006D4A9B0013441B68BB62FB6C5B00013312
:10377800694A9B0013441B687B62FB6C5B0097EDF6
:103788000C7AD7ED0A7A27EE277AD7ED0B6AD7EDB0
:10379800097A66EEA77A37EE677AF969FA6C0A440D
:1037A800127807EE902AF8EE677A67EE277AFA6BB6
:1037B8009B001344C3ED007AFB6C5B00013397ED6B
:1037C8000C7AD7ED097A27EE277AD7ED0A6AD7ED72
:1037D8000B7A66EEA77A37EE277AF969FA6C0A440B
:1037E800127807EE902AF8EE677A67EE277AFA6B76
:1037F8009B001344C3ED007AFB6C0133FB64FA6C45
:10380800FB689A4288D3FB68FB6413E0FB6C5B009F
:10381800FA6B9B0013444FF000021A60FB6C5B00CC
:103828000133FA6B9B0013444FF000021A60FB6CE3
:103838000133FB64FA6CBB6C9A42E7D3F96B012342
:103848000022364806F01EFC0023FB6420E0FB6CD7
:103858005B00FA6C5200304992000A441268796B96
:103868009B000B441A60FB6C5B000133FA6C52003E
:103878000132294992000A44D2ED007AF1EE677AC2
:103888007A6B9B001344C3ED007AFB6C0133FB6435
:10389800FA6CBB689A42DAD3BB68FB6420E0FB6C25
:1038A8005B00B96CFA6C8A1A5200796B92000A4470
:1038B8001268796B9B000B441A60FB6C5B00013348
:1038C800B96CFA6C8A1A52000132796B92000A4478
:1038D8001268796B9B000B441A60FB6C0133FB6424
:1038E800FA6CBB6C9A42DAD3796B012300220B483D
:1038F80006F0C8FBF86B796BFA6BBB6C06F060FCE2
:10390800F96B01230122054806F0BCFB0023FB6488
:1039180059E000BFDB0FC9407CC70008E402002063
:10392800FB6C5B00304A9B0013441B683B63FB6CD9
:103938005B0001332C4A9B0013441B68FB62FB6C41
:103948005B00FA6C5200F96B92000A4492ED007A1F
:10395800D7ED0C7A27EE277AFA6C52000132F96B10
:1039680092000A44D2ED006AD7ED0B7A66EEA77A88
:1039780077EE677A7A6B9B001344C3ED007AFB6C91
:103988005B000133FA6C52000132F96B92000A4471
:1039980092ED007AD7ED0C7A27EE277AFA6C52006E
:1039A800F96B92000A44D2ED006AD7ED0B7A66EE05
:1039B800A77A77EE277A7A6B9B001344C3ED007AD7
:1039C800FB6C0133FB64FA6CBB689A42A8D37B6B2F
:1039D800BA68B969184606F0BDFC00BFB546543749
:1039E800BD46BDE8F08F00BF7CC70008DFF834D0C3
:1039F800002103E00C4B5B58435004310B480C4B3F
:103A080042189A42F6D30B4A02E0002342F8043BDC
:103A1800094B9A42F9D300F04BF907F087F8FEF703
:103A2800BFFF704700000520BCD602080000002038
:103A38009C0200209C0200201C180020FEE70000C9
:103A480080B483B000AF7860044A7B68536100BFDC
:103A58000C37BD465DF8047B704700BF003C014051
:103A680080B483B000AF786039607B685A693B687E
:103A78005A407B685A6100BF0C37BD465DF8047B2D
:103A8800704780B400AF00BFBD465DF8047B704747
:103A980080B400AFFEE780B400AFFEE780B400AFAB
:103AA800FEE780B400AFFEE780B400AF00BFBD46BC
:103AB8005DF8047B704780B400AF00BFBD465DF879
:103AC800047B704780B400AF00BFBD465DF8047B3F
:103AD8007047000080B400AF044B1B680133034AF1
:103AE800136000BFBD465DF8047B7047B802002034
:103AF80080B582B000AF4020FFF7A2FFFFF7B0F912
:103B08007860084B1B687A68D31AB3F5FA7F05D931
:103B1800054B01221A70034A7B68136000BF0837FF
:103B2800BD4680BDF4020020C402002080B500AF6D
:103B38004FF40060FFF784FF02210248FFF790FF6F
:103B480000BF80BD0020024080B400AF114A114B75
:103B58001B6823F00103136000BF0E4B1B6803F0C2
:103B68000103002BF9D10C4B1B6803F02003002B39
:103B780014BF01230023DBB21A46084B1A70064A09
:103B8800054B9B6843F03D03936000BFBD465DF85D
:103B9800047B70471064024000640240C6020020A3
:103BA80080B400AF114A114B1B6823F00103136066
:103BB80000BF0E4B1B6803F00103002BF9D10C4B1F
:103BC8001B6803F40063002B14BF01230023DBB23E
:103BD8001A46084B1A70064A054B9B6843F47463EF
:103BE800936000BFBD465DF8047B704728640240BF
:103BF80000640240C702002080B400AF094A094BA4
:103C08005B6B23F006035363064A064BDB6B43F0FA
:103C18000F03D363044B01221A7000BFBD465DF841
:103C2800047B704700680140C802002080B400AFE0
:103C3800094A094B1B6823F480731360064A064B34
:103C48009B6843F03F039360044B01221A7000BF46
:103C5800BD465DF8047B704700B00240C9020020F1
:103C680080B400AF064B01221A70064A054B1B6947
:103C780023F00103136100BFBD465DF8047B704764
:103C8800F80200200008004080B400AF064B012273
:103C98001A70064A054B1B6923F00103136100BF24
:103CA800BD465DF8047B7047C50200200004004053
:103CB80080B400AF154A154BD3F8883043F470032D
:103CC800C2F88830124A124B1B6843F00103136094
:103CD8000F4B00229A600E490D4B1A680D4B13408A
:103CE8000B600B4B0C4A5A60094A094B1B6823F4BA
:103CF80080231360064B0022DA60044B4FF0006209
:103D08009A6000BFBD465DF8047B704700ED00E097
:103D180000380240FFFFF6FE1030002480B582B064
:103D280000AF022000F03CF80346FB71FB79052B3D
:103D380001D90023FB71FB7918460837BD4680BDC1
:103D480090B583B000AF78603960032000F028F8A0
:103D580003461B021BB203F470631CB2042000F07C
:103D68001FF803461BB223431BB29AB27B681A8022
:103D7800052000F015F803461B021BB203F470631C
:103D88001CB2062000F00CF803461BB223431BB2FA
:103D98009AB23B681A8000BF0C37BD4690BD000040
:103DA80080B582B000AF0346FB71FB791A467021DB
:103DB8000348FDF7BBF9034618460837BD4680BDE2
:103DC800005C004080B483B000AF4F4B1B781A46AC
:103DD8004E4B9B5C002B02D14D4B7B6001E04D4B61
:103DE8007B604D4B1B781A464C4B9B5C002B20D1BB
:103DF80001233B6018E03B68013B7A6813441B7859
:103E0800DAB2474B1B789A420BD83B687A6813445E
:103E18001B78DAB2424B1B789A4202D93B68013BC5
:103E28006BE03B6801333B603B68B3F5A56FE2DBB1
:103E380061E0394B1B781A46384B9B5C012B20D12B
:103E480001233B6018E03B68013B7A6813441B7808
:103E5800DAB2334B1B789A420BD93B687A68134421
:103E68001B78DAB22E4B1B789A4202D83B68013B8A
:103E780043E03B6801333B603B68B3F5A56FE2DB89
:103E880039E0254B1B781A46244B9B5C022B32D118
:103E980001233B602BE03B68013B7A6813441B78A5
:103EA800DAB21F4B1B789A4208D93B687A681344E8
:103EB8001B78DAB21A4B1B789A4212D93B68013B3D
:103EC8007A6813441B78DAB2154B1B789A420BD8E0
:103ED8003B687A6813441B78DAB2114B1B789A4214
:103EE80002D93B68013B08E03B6801333B603B6813
:103EF800B3F5A56FCFDB4FF0FF3318460C37BD463F
:103F08005DF8047B704700BFBC02002000C70008B2
:103F18006C03002094080020BD02002004C700089C
:103F28000300002080B487B000AFF860B960114684
:103F38001A460B46FB801346BB80FB68BA681A60BA
:103F4800FB68FA889A80FB68BA88DA80FB680422E2
:103F58001A84FB6804225A84FB68B3F904309AB2C5
:103F6800FB68B3F920309BB2D31A9BB2013B9BB2DA
:103F78001AB2FB689A84FB68B3F906309AB2FB68F8
:103F8800B3F920309BB2D31A9BB2013B9BB21AB251
:103F9800FB68DA84FB68B3F92420FB689A83FB6822
:103FA800B3F92620FB68DA83FB68012283F84020F6
:103FB800FB68012283F84120FB680022DA62FB6873
:103FC80000229A86FB6800225A86FB680022DA865D
:103FD800FB6800221A87FB680022DA63FB6845F653
:103FE8005D42A3F84620FB684FF6FF72A3F8422013
:103FF800FB680022A3F84420FB6800221A61FB68D2
:1040080000225A61FB6800229A610023FB7510E0C8
:10401800FB7DFA680933DB00134400225A60FB7DFC
:10402800FA680933DB00134400221A72FB7D01335E
:10403800FB75FB7D022BEBD9044AFB681360012357
:1040480018461C37BD465DF8047B7047FC0200200B
:1040580080B584B002AF0346FB800D4B1B68B3F9F3
:1040680004309BB2013B9BB21AB2094B1B68B3F9EF
:1040780006309BB2013B9BB219B2FB8800930B46FA
:104088000021002000F006F800BF0837BD4680BDBB
:10409800FC020020B0B586B002AF044608461146BF
:1040A8001A462346FB800346BB800B467B8013469B
:1040B8003B80B7F90220B7F906309A4205DA7B88C7
:1040C800FB81FB887B80FB89FB80B7F90020B7F96F
:1040D80004309A4205DA3B88FB81BB883B80FB8928
:1040E800BB80234B1B6893F8583003F00203002B66
:1040F80012D01F4B1B685B6D1C46B7F90050B7F90F
:104108000220B7F90410B7F906003B8C00932B4640
:10411800A0470346002B27D0BB88BB811DE0FB8846
:10412800FB810EE0124B1B681B683A8CB7F90C1028
:10413800B7F90E009847B7F90E309BB201339BB21E
:10414800FB81B7F90E20B7F902309A42EADDB7F9D8
:104158000C309BB201339BB2BB81B7F90C20B7F985
:1041680000309A42DBDD00E000BF1037BD46B0BD2D
:10417800FC02002090B585B002AF044608461146FF
:104188001A462346FB800346BB800B467B801346BA
:104198003B80B7F90440B7F90220B7F90410B7F922
:1041A80006003B8B0093234600F02CF8B7F900403B
:1041B800B7F90220B7F90010B7F906003B8B009356
:1041C800234600F01FF8B7F90040B7F90620B7F901
:1041D8000410B7F906003B8B0093234600F012F851
:1041E800B7F90040B7F90220B7F90410B7F902008F
:1041F8003B8B0093234600F005F800BF0C37BD4603
:1042080090BD0000B0B58AB002AF0446084611461A
:104218001A462346FB800346BB800B467B80134629
:104228003B80644B1B6893F8503003F00203002B6B
:1042380013D0604B1B68DB6C1C46B7F90050B7F90C
:104248000220B7F90410B7F906003B8E00932B46FD
:10425800A0470346002B00F0A9807A88FB88D31A70
:104268009BB2BB823A88BB88D31A9BB27B82B7F9D0
:104278001430002BB8BF5B423B82B7F91230002BD9
:10428800B8BF5B42FB81B7F91430002B01DD012375
:1042980001E04FF0FF33BB81B7F91230002B01DD8D
:1042A800012301E04FF0FF337B81B7F90E305B103B
:1042B800BB83B7F910305B107B83FB883B83BB88DB
:1042C800FB823C4B1B681B683A8EB7F91610B7F98E
:1042D80018009847B7F91020B7F90E309A4232DB28
:1042E8000023FB8328E07A8BFB8913449BB27B83F2
:1042F800B7F91A20B7F910309A4209DB7A8B3B8A52
:10430800D31A9BB27B83FA8A7B8913449BB2FB82C4
:104318003A8BBB8913449BB23B83264B1B681B68B3
:104328003A8EB7F91610B7F918009847B7F91E3042
:104338009BB201339BB2FB83B7F91E20B7F910304B
:104348009A42D0DB33E00023FB8328E0BA8B3B8A18
:1043580013449BB2BB83B7F91C20B7F90E309A42BD
:1043680009DBBA8BFB89D31A9BB2BB833A8BBB8917
:1043780013449BB23B83FA8A7B8913449BB2FB822A
:104388000C4B1B681B683A8EB7F91610B7F9180062
:104398009847B7F91E309BB201339BB2FB83B7F93C
:1043A8001E20B7F90E309A42D0DB00E000BF20375C
:1043B800BD46B0BDFC02002080B400AF044B1B68B2
:1043C800B3F904301846BD465DF8047B704700BF5A
:1043D800FC02002080B400AF044B1B68B3F9063020
:1043E8001846BD465DF8047B704700BFFC020020FC
:1043F800B0B58AB000AF0446084611461A462346AF
:10440800FB710346BB800B467B8013463B80FB79E0
:104418003B763B7EB03B4C2B00F2B68001A252F8B3
:1044280023F000BF8B45000891450008914500081E
:104438009145000891450008854500089145000808
:1044480091450008914500089145000891450008EC
:1044580091450008914500089145000891450008DC
:1044680091450008914500089145000891450008CC
:10447800914500087F4500089145000891450008CE
:1044880091450008914500089145000891450008AC
:10449800914500089145000891450008914500089C
:1044A800914500089145000891450008914500088C
:1044B80091450008914500089145000867450008A6
:1044C800914500089145000891450008914500086C
:1044D800914500087345000891450008914500087A
:1044E800914500089145000891450008914500084C
:1044F8009145000879450008914500089145000854
:10450800914500089145000891450008914500082B
:10451800914500089145000891450008914500081B
:10452800914500089145000891450008914500080B
:10453800914500089145000891450008614500082B
:1045480091450008914500089145000891450008EB
:10455800914500086D45000894233B7614E09923A3
:104568003B7611E081233B760EE09A233B760BE005
:1045780084233B7608E08E233B7605E0E6233B76F2
:1045880002E0F8233B7600BF3B7E9AB2FB6B5B8967
:104598009A42C0F0F0813B7E9AB2FB6B9B899A42AB
:1045A80000F2E9817B88FB83FB6BB3F906307B83E0
:1045B8007B8B002B00F0E1817B8BDB087B83FB6B23
:1045C800B3F906309BB203F007039BB2002B02D06D
:1045D8007B8B01337B83FB6B1B69002B09D0FB6B47
:1045E8001B693A7EF96B4989521A13441B789BB2AE
:1045F80003E0FB6BB3F906309BB27B82A24B1B68CE
:1046080093F8603003F00203002B00F0D8809E4B33
:104618001B68DB6D1C46BA887B8A13449BB2013B3E
:104628009BB21DB2FB6BB3F908309AB27B88134476
:104638009BB2013B9BB21BB2B7F90210B7F9040059
:104648002A46A0470346FB60FB6B1B79002B4DD124
:104658003B7EFA6B52899B1AFA6BB2F9082002FB6F
:1046680003F37A8B02FB03F37B610023BB8436E000
:104678007B8ABB830023FB842AE0FB6B1A687B6977
:10468800591C796113441B787B7600237B8416E0E0
:104698007B7E03F00103002B04D03A88FB681046A8
:1046A800984703E03A8FFB68104698477B7E5B0883
:1046B8007B76BB8B013BBB837B8C01337B847B8C00
:1046C800072B02D8BB8B002BE2D1FB8C0133FB8478
:1046D800FA8C7B8B9A42D0D3BB8C0133BB84BB8CC6
:1046E800FA6BB2F908209342C2DB47E1FB6B1B79F6
:1046F800012B40F043813B7EFA6B52899B1AFA6B7F
:10470800B2F9082002FB03F3FA6BB2F9062002FBA8
:1047180003F37B610023BB844AE00023FB8436E07B
:10472800FB6B1A687B69591C796113441B787B768B
:104738003B88DBB27A7E02FB03F23B8FDBB2797EE9
:10474800C1F5807101FB03F313441B121BB2DBB2EA
:104758001AB23B8803F47F43797E01FB03F13B8F58
:1047680003F47F43787EC0F5807000FB03F30B44AD
:104778001B121BB223F0FF031BB213431BB27B8136
:104788007A89FB6810469847FB8C0133FB84FA8CC6
:104798007B8A9A42C4D3FB6BB3F906301A467B8AEC
:1047A800D31A1A467B6913447B61BB8C0133BB84E3
:1047B800BB8CFA6BB2F908209342AEDBDEE0FB6BF0
:1047C8001B79002B62D13B7EFA6B52899B1AFA6BDC
:1047D800B2F9082002FB03F37A8B02FB03F37B6137
:1047E8000023BB8448E0BB883B847B8ABB830023CF
:1047F800FB8437E0FB6B1A687B69591C79611344A9
:104808001B787B7600237B8423E07B7E03F0010307
:10481800002B09D01C4B1B681B68B7F92000B7F99F
:104828001E103A88984708E0174B1B681B68B7F9B1
:104838002000B7F91E103A8F98477B7E5B087B767D
:104848003B8C01333B84BB8B013BBB837B8C0133AB
:104858007B847B8C072B02D8BB8B002BD5D1FB8CA0
:104868000133FB84FA8C7B8B9A42C3D3FB8B0133D5
:10487800FB83BB8C0133BB84BB8CFA6BB2F9082079
:104888009342B0DB7AE000BFFC020020FB6B1B798F
:10489800012B73D13B7EFA6B52899B1AFA6BB2F9E2
:1048A800082002FB03F3FA6BB2F9062002FB03F3BC
:1048B8007B610023BB8457E0BB883B840023FB84D7
:1048C8003EE0FB6B1A687B69591C796113441B78BD
:1048D8007B763B88DBB27A7E02FB03F23B8FDBB24E
:1048E800797EC1F5807101FB03F313441B121BB2DF
:1048F800DBB21AB23B8803F47F43797E01FB03F1F4
:104908003B8F03F47F43787EC0F5807000FB03F390
:104918000B441B121BB223F0FF031BB213431BB241
:104928007B81184B1B681B68B7F92000B7F91E106C
:104938007A8998473B8C01333B84FB8C0133FB8499
:10494800FA8C7B8A9A42BCD3FB6BB3F906301A46C1
:104958007B8AD31A1A467B6913447B61FB8B01332C
:10496800FB83BB8C0133BB84BB8CFA6BB2F9082088
:104978009342A1DB02E000BF00E000BF2837BD463C
:10498800B0BD00BFFC020020B0B58EB002AF7860A9
:104998007B681B897B837B685B893B837B689B89FE
:1049A800FB827B68DB89BB827B681B7DFB747B6831
:1049B8005B68DB883B827B685B681B89FB817B6863
:1049C800DB8ABB817B681B8B7B817B681B683B62B6
:1049D8003B6AFB617B685B681B68002B00F0088101
:1049E8003B6A002B00F00681B7F91420B7F918309C
:1049F800D31A7A685268B2F908209342C0F2FC8050
:104A08000123BB853B6AFB6109E0FB691B780A2B24
:104A180002D1BB8D0133BB85FB690133FB61FB69A7
:104A28001B78002BF1D10023FB84FB7C03F03003BF
:104A3800002B1FD0BA8A3B8BD31A9BB201339BB28F
:104A4800FB84FA8CFB89B98D11FB03F39BB2D31A53
:104A58009BB2FB84FA8CBB8D013B99B27B8911FB1D
:104A680003F39BB2D31A9BB2FB84B7F92630002B11
:104A7800C0F2C480FB7C03F01003002B03D0B7F90D
:104A880026305B10FB84FA8C3B8B13449BB2FB846F
:104A98000023FB853B6AFB6100237B8533E0FB69D0
:104AA8001B789AB27B685B685B899A4207D3FB697B
:104AB8001B789AB27B685B689B899A4203D9FB6929
:104AC8000133FB611FE0FB8D0133FB857B685B686D
:104AD8001B69002B0DD07B685B681B69FA6912782B
:104AE80011467A68526852898A1A13441B789BB215
:104AF80000E03B8ABA8913449AB27B8D13447B85C4
:104B0800FB690133FB61FB691B78002B03D0FB6950
:104B18001B780A2BC3D1BB897A8DD31A7B85FA8A75
:104B28007B8BD31A9BB201339BB23B853A8D7B8D2D
:104B3800D31A9BB23B85B7F92830002B60DBFB7C8E
:104B480003F00103002B02D000233B8508E0FB7C27
:104B580003F00203002B03D0B7F928305B103B8524
:104B68003A8D7B8B13449BB23B8531E03B6A5A1CE0
:104B78003A621B787B727B7A002B43D07B681D8A54
:104B88007B685B8A7A685268B7F92640B7F92810BB
:104B9800787A019200932B462246FFF729FC7B681E
:104BA8005B681B69002B0BD07B685B681B697A7A92
:104BB800796849684989521A13441B789BB200E006
:104BC8003B8ABA8913449AB23B8D13449BB23B8506
:104BD8003B6A1B780A2BC9D13B6A01333B62FA89CD
:104BE8007B8913449AB2FB8C13449BB2FB844FE736
:104BF80000BF08E000BF06E000BF04E000BF02E01D
:104C080000BF00E000BF3037BD46B0BD80B485B0FE
:104C180000AF78607B685B68BB600023FB7316E0BD
:104C28007B685A68FB7B5B011344BB60BB681B78DD
:104C380003F00103002B07D0BB681B7803F00203C5
:104C4800002B01D0BB6808E0FB7B0133FB737B685A
:104C58001B78FA7B9A42E3D3002318461437BD46E3
:104C68005DF8047B704780B485B000AF78600B4670
:104C7800FB701346BB707B685B68BB600023FB73EB
:104C880020E07B685A68FB7B5B011344BB60BB6810
:104C98001B7803F00103002B11D1BB681B7803F0CC
:104CA8000203002B0BD0BB681B7EFA789A4206D110
:104CB800BB685B7EBA789A4201D1BB6808E0FB7B8F
:104CC8000133FB737B681B78FA7B9A42D9D30023A4
:104CD80018461437BD465DF8047B704780B489B028
:104CE80000AF78605B4B1B685B897B83594B1B6803
:104CF8009B893B83574B1B681B7AFB757B681B782A
:104D0800BB820023FB839AE07B685A68FB8B5B01BC
:104D180013443B613B691B78FB733B695B787B778A
:104D2800FB7B03F00103002B40F08380FB7B03F047
:104D38000203002B7DD0FB7B03F00803002B78D007
:104D4800FB7B03F04003002B73D1FB7D002B47D086
:104D5800B7F91A30B3F1FF3F42D07B7F03F040032D
:104D6800002B07D17B7F43F005037B777B7F03F024
:104D780067037B777B7F23F020037B773B69B3F95D
:104D88000830B7F91A209A4225DB3B69B3F90C3091
:104D9800B7F91A209A421EDC3B69B3F90A30B7F911
:104DA80018209A4217DB3B69B3F90E30B7F918207F
:104DB8009A4210DC7B7F43F020037B777B7F03F0F4
:104DC8004003002B07D17B7F23F004037B777B7F95
:104DD80043F002037B777B7F43F040037B7728E037
:104DE8007B7F03F04003002B23D07B7F03F020035D
:104DF800002B0DD07B7F03F00203002B03D07B7FB9
:104E080063F07F037B777B7F43F008037B7703E0C6
:104E18007B7F43F010037B777B7F03F04003002BFD
:104E280003D07B7F43F001037B777B7F23F046032E
:104E38007B773B697A7F5A70FB8B0133FB83FA8B54
:104E4800BB8A9A42FFF460AF00BF2437BD465DF8C5
:104E5800047B7047FC02002080B586B000AF786004
:104E68007B681B78BB820023FB8235E07B685A682D
:104E7800FB8A5B0113443B613B691B78FB733B690D
:104E88005B78BB73FB7B03F00103002B21D1FB7B19
:104E980003F00203002B1CD0FB7B03F02003002B44
:104EA80004D03B695B68396978689847FB7B03F0F5
:104EB8000803002B0DD097F90F30002B09DABB7BC4
:104EC80003F04103002B04D03B695B6839697868BB
:104ED8009847FB8A0133FB82FA8ABB8A9A42C5D378
:104EE80000BF1837BD4680BD80B586B000AF78607A
:104EF800224B00225A60214B02221A707B681B78D1
:104F0800BB820023FB8230E07B685A68FB8A5B0126
:104F18001344FB60FB681B78FB74FB7C03F0010304
:104F2800002B1FD1FB7C03F00203002B1AD0FB6877
:104F38009B7E002B16D0114A07F10C035360FB68C7
:104F48001A7E0E4B5A70FB685A7E0C4B9A70FB689F
:104F58009A7E0A4BDA707B681B6B08489847FB6897
:104F680000229A76FB8A0133FB82FA8ABB8A9A422C
:104F7800CAD300BF1837BD4680BD00BF000300205C
:104F8800B0B584B002AF0446084611461A46234617
:104F9800FB800346BB800B467B8013463B807B88A7
:104FA800013B9BB21CB2BB699A1CBA611B88B7F95A
:104FB8000420B7F90410B7F90600009313462246F7
:104FC800FFF720F9BB8801339BB219B23B88013B3C
:104FD8009BB21CB2BB699A1CBA611B88B7F9062040
:104FE800B7F9060000932346FFF70CF9BB699A1C32
:104FF800BA611B88B7F90040B7F90220B7F9001069
:10500800B7F9060000932346FFF7FCF83B88013BFD
:105018009BB21CB2BB699A1CBA611B88B7F9022003
:10502800B7F90410B7F9020000932346FFF7EAF82E
:10503800FB8801339BB218B2BB8801339BB219B20B
:105048007B88023B9BB21CB2BB8801339BB21DB26A
:10505800BB699A1CBA611B8800932B462246FFF74E
:10506800D1F8FB8801339BB218B2BB8802339BB2DC
:1050780019B2FB8801339BB21CB23B88023B9BB23E
:105088001DB2BB699A1CBA611B8800932B46224645
:10509800FFF7B8F8FB8801339BB218B23B88013B95
:1050A8009BB219B27B88013B9BB21CB23B88013B87
:1050B8009BB21DB2BB699A1CBA611B8800932B4630
:1050C8002246FFF79FF87B88013B9BB218B2BB884A
:1050D80001339BB219B27B88013B9BB21CB23B885F
:1050E800023B9BB21DB2BB699A1CBA611B88009334
:1050F8002B462246FFF786F8FB8802339BB218B28C
:10510800BB8802339BB219B27B88033B9BB21CB2AB
:10511800BB8802339BB21DB2BB699A1CBA611B885B
:1051280000932B462246FFF76DF8FB8802339BB2AB
:1051380018B2BB8803339BB219B2FB8802339BB207
:105148001CB23B88033B9BB21DB2BB699A1CBA6177
:105158001B8800932B462246FFF754F8FB8802333E
:105168009BB218B23B88023B9BB219B27B88023BC8
:105178009BB21CB23B88023B9BB21DB2BB699A1C16
:10518800BA611B8800932B462246FFF73BF87B88C1
:10519800023B9BB218B2BB8802339BB219B27B8820
:1051A800023B9BB21AB23B88033B9BB21CB2BB6961
:1051B8001B8800932346FFF725F800BF0837BD4634
:1051C800B0BD80B584B000AF786039600223FB724F
:1051D80002233B723B681B7E7B723B685B7EBB7223
:1051E8003B68FB607B681B6B07F108021046984719
:1051F80000BF1037BD4680BD80B584B000AF786071
:1052080039600323FB7202233B723B681B7E7B726F
:105218003B685B7EBB723B68FB607B681B6B07F17E
:1052280008021046984700BF1037BD4680BD0000F1
:1052380080B483B000AF03463960FB71FB79022B61
:1052480010D80B4B1A68FB790933DB0013443A6812
:105258005A60074B1A68FB790933DB0013440322B1
:105268001A7200E000BF0C37BD465DF8047B70473A
:10527800FC02002080B483B000AF0346FB71FB79C9
:10528800022B1ED8124B1A68FB790933DB00134432
:105298001B7A03F00103002B14D00D4B1A68F9791F
:1052A8000B4B1868FB790933DB0003441B7A43F086
:1052B8000203D8B201F10903DB00134402461A7253
:1052C80000E000BF0C37BD465DF8047B704700BFA7
:1052D800FC02002080B582B000AF594B1B6893F8E0
:1052E800483003F00103002B0AD0554B1B68544A81
:1052F800126892F8482022F00102D2B283F84820BE
:105308004F4B1B681A694E4B1B685B699A4271D0F8
:105318004B4B1B681B69002B6CD0494B1B68484AD8
:10532800126852699A61464B1B68454A12681269AD
:105338005A61434B1B689B69002B45D0404B1B6847
:105348009B699B7D03F00203002B3DD03C4B1B68FF
:105358009B691B7A03F00803002B35D0384B1B6878
:105368009B69B3F90E20364B1B685B69B3F90E30A5
:105378009A4223D1324B1B689B69B3F91220304BF8
:105388001B685B69B3F912309A4217D12C4B1B6822
:105398009B69B3F910202A4B1B685B69B3F910307D
:1053A8009A420BD1264B1B689B69B3F91420244BF6
:1053B8001B685B69B3F914309A4205D0204B1B680F
:1053C8009B69184600F0E0FA1D4B1B685B691C4A94
:1053D80012685269127A22F04002D2B21A72184B3D
:1053E8001B685B69164A12685269127A42F02802F1
:1053F800D2B21A72124B1B685B69002B1BD0104B80
:105408001B685B697B607B681B7A03F02003002BB9
:1054180002D0786800F064FB7B681B7A03F008030D
:10542800002B08D07868FFF759FC7868FFF714FD5F
:105438007868FFF759FD00BF0837BD4680BD00BF3B
:10544800FC02002080B483B000AF0346FB800B460B
:10545800BB801346FB70094B1B68FA885A81074BBF
:105468001B68BA889A81054B1B68FA781A7200BFC4
:105478000C37BD465DF8047B704700BFFC02002076
:1054880080B586B000AFF860B9603B601346FB7129
:1054980000233B61FB68002B05D0BB68002B02D0C2
:1054A800FB79002B02D14FF0FF3373E00023FB752B
:1054B8000DE0FB7D5B01BA6813443B613B69032245
:1054C8001A703B690022DA61FB7D0133FB75FA7DB6
:1054D800FB799A42EDD3FB68FA791A70FB68BA68CF
:1054E8005A60FB6802221A72FB6800225A81FB6824
:1054F8004EF67D729A81FB680022DA81FB680022F1
:105508001A82FEF759FF03469BB2013B9BB21AB2BF
:10551800FB685A82FEF75EFF03469BB2013B9BB2D3
:105528001AB2FB689A82FB683A681A63FB6803221E
:105538009A75FB6800229A61184B1B68002B06D0ED
:10554800164B1B6803F12C02FB68DA6102E0FB686A
:105558000022DA61FB68022283F82020FB6802221D
:1055680083F82120FB68112283F82220FB684FF67C
:10557800FF729A84FB681F22DA84FB684FF6FF7279
:105588001A85FB6848F210425A85FB680F2283F897
:105598002C20002318461837BD4680BDFC02002089
:1055A80080B483B000AF78607B68002B13D07B6831
:1055B8001B7A43F02803DAB27B681A727B681B7A7D
:1055C80023F04003DAB27B681A72074B1B687A68CB
:1055D8001A61002301E04FF0FF3318460C37BD462F
:1055E8005DF8047B704700BFFC02002090B589B0CD
:1055F80002AFF860084611461A4603467B810B46FF
:105608003B811346FB80FEF7D7FE03469BB2013B66
:105618009BB2FB82FEF7DEFE03469BB2013B9BB2C8
:10562800BB82FB68002B00F0D080FB681B7A03F07C
:105638000203002B00F0C980B7F90A30002B03DB06
:10564800B7F90830002B02DA4FF0FF33BFE0B7F9A3
:105658000620B7F916309A4205DCB7F92820B7F9C1
:1056680014309A4202DD4FF0FF33B0E0FA887B89AC
:10567800D31A9BB27B82B7F91230092B02DC4FF0A8
:10568800FF33A4E03A8D3B89D31A9BB27B82B7F9EA
:105698001230092B02DC4FF0FF3398E0FB687A895F
:1056A800DA81FB683A891A82FB68FA885A82FB68B1
:1056B8003A8D9A82FB681B7A03F00803002B00F0EE
:1056C8008280454B1B685A69FB689A427BD1FB680C
:1056D800B3F91030002B12D0FB68B3F910309BB22D
:1056E800013B9BB219B23C4B1B68B3F84630B7F983
:1056F800162000930B4600210020FEF7CBFCFB6828
:10570800B3F914309BB201339BB27B82B7F91220F4
:10571800B7F914309A420EDC2F4B1B68B3F84630A9
:10572800B7F91400B7F91620B7F912100093034619
:105738000020FEF7AFFCFB68B3F90E30002B15D044
:10574800FB68B3F91010FB68B3F90E309BB2013B4C
:105758009BB21AB2FB68B3F914001F4B1B68B3F86D
:105768004630009303460020FEF794FCFB68B3F92B
:1057780012309BB201339BB27B82B7F91220B7F982
:1057880016309A4211DCFB68B3F91010FB68B3F9C4
:105798001440114B1B68B3F84630B7F91620B7F917
:1057A800120000932346FEF775FCFB681B7A23F072
:1057B8004003DAB2FB681A72FB681B7A43F02003D5
:1057C800DAB2FB681A72002301E04FF0FF33184683
:1057D8001C37BD4690BD00BFFC02002080B483B0DA
:1057E80000AF78600B467B807B68002B11D07B680C
:1057F8001B7A03F00203002B0BD07B687A889A810E
:105808007B681B7A43F02003DAB27B681A720023A4
:1058180001E04FF0FF3318460C37BD465DF8047BB6
:10582800704780B483B000AF78600B46FB707B682C
:10583800002B36D07B681B7A03F00203002B30D094
:10584800FB7803F00103002B07D07B689B7D43F0B6
:105858000103DAB27B689A7506E07B689B7D23F0CA
:105868000103DAB27B689A75FB7803F00203002B18
:1058780007D07B689B7D43F00203DAB27B689A7598
:1058880006E07B689B7D23F00203DAB27B689A7599
:105898007B681B7A43F02003DAB27B681A72002314
:1058A80001E04FF0FF3318460C37BD465DF8047B26
:1058B800704780B483B000AF786039607B68002B94
:1058C8005AD07B681B7A03F00203002B54D07B6804
:1058D800B3F90E203B681A807B68B3F910203B6847
:1058E8005A807B68B3F912203B689A807B68B3F9C9
:1058F80014203B68DA807B689B7D03F00103002B52
:1059080023D03B68B3F900309BB203339BB21AB281
:105918003B681A803B68B3F902309BB203339BB2F1
:105928001AB23B685A803B68B3F904309BB2033B18
:105938009BB21AB23B689A803B68B3F906309BB2B7
:10594800033B9BB21AB23B68DA807B689B7D03F00D
:105958000203002B0ED03B68B3F902309AB27B6881
:1059680093F82C309BB213449BB201339BB21AB20A
:105978003B685A80002301E04FF0FF3318460C378C
:10598800BD465DF8047B704790B58FB002AF786074
:105998007B68002B00F09B807B681B7A03F0020376
:1059A800002B00F094807B68DB89FB857B681B8A71
:1059B800BB857B685B8A7B857B689B8A3B857B682C
:1059C8009B7D03F00103002B0FD0FB8D03339BB2AB
:1059D800FB85BB8D03339BB2BB857B8D033B9BB2A1
:1059E8007B853B8D033B9BB23B853C4B1B685A69CF
:1059F8007B689A4206D17B68DB8CFB837B689B8C37
:105A0800BB8305E07B685B8DFB837B681B8DBB8359
:105A18007B6893F82C309AB2BB8D13449BB2013B40
:105A28009BB21CB2FB8BB7F92A20B7F92C10B7F937
:105A38002E0000932346FEF72DFB7B689B69FB60D5
:105A48007B68DB693B61FB8D03339BB21BB2BB8276
:105A5800BB8DFB827B8D3B837B6893F82C309AB29D
:105A6800BB8D13449BB2013B9BB21BB27B837B680B
:105A780093F8223087F820307B6893F920301BB2E6
:105A88007B847B6893F921301BB2BB8407F10C033C
:105A98001846FEF779FF7B6893F82C309AB2BB8DD5
:105AA80013449BB219B27B6893F82C309AB2BB8D21
:105AB80013449BB21CB249F61353B7F92A20B7F91D
:105AC8002E0000932346FEF79DFB002301E04FF0D4
