:020000040800F2
:10000000000005202182000875820008798200081E
:100010007D820008818200088582000800000000BF
:1000200000000000000000000000000089820008BD
:100030008D8200080000000091820008958200086F
:1000400071820008718200087182000871820008C4
:1000500071820008718200087182000871820008B4
:1000600071820008718200087182000871820008A4
:100070007182000871820008718200087182000894
:100080007182000871820008718200087182000884
:10009000718200087182000871820008A582000840
:1000A0007182000871820008718200087182000864
:1000B00071820008B58300089983000871820008E6
:1000C0007182000871820008718200087182000844
:1000D0007182000871820008718200087182000834
:1000E000D5820008718200087182000871820008C0
:1000F0007182000871820008718200087182000814
:100100007182000871820008718200087182000803
:1001100071820008718200087182000871820008F3
:10012000E5820008198300087182000871820008C6
:1001300071820008718200087182000871820008D3
:100140007182000871820008718200081184000821
:1001500071820008718200084D83000871820008D6
:1001600071820008718200087182000871820008A3
:10017000718200087182000871820008000000008E
:100180007182000871820008718200087182000883
:100190007182000871820008718200087182000873
:1001A000718200085183000875830008718200087D
:1001B000D1830008718200087182000871820008F2
:0801C000718200087182000841
:1001D00010B5054C237833B9044B13B10448AFF381
:1001E00000800123237010BDB00600200000000035
:1001F000A0A4010808B5034B1BB103490348AFF3A2
:10020000008008BD00000000B4060020A0A4010882
:10021000034613F8012B002AFBD1181A0138704746
:1002200001F0FF01102A2BDB10F0070F08D010F8A7
:10023000013B013A8B422DD010F0070F42B3F6D1AB
:10024000F0B441EA012141EA014122F007047FF0C4
:1002500000070023F0E80256083C85EA010586EA1B
:10026000010685FA47F5A3FA87F586FA47F6A5FA57
:1002700087F68EB9EED1F0BC01F0FF0102F0070263
:1002800032B110F8013B013A83EA010313B1F8D10E
:100290000020704701387047002D06BF35460338EF
:1002A000073815F0010F07D1013015F4807F02BF28
:1002B000013015F4C03F0130F0BC0138704700BF79
:1002C00081F0004102E000BF83F0004330B54FEA07
:1002D00041044FEA430594EA050F08BF90EA020F74
:1002E0001FBF54EA000C55EA020C7FEA645C7FEA07
:1002F000655C00F0E2804FEA5454D4EB5555B8BF2A
:100300006D420CDD2C4480EA020281EA030382EA9A
:10031000000083EA010180EA020281EA0303362D2C
:1003200088BF30BD11F0004F4FEA01314FF4801CFF
:100330004CEA113102D0404261EB410113F0004F11
:100340004FEA03334CEA133302D0524263EB4303C8
:1003500094EA050F00F0A780A4F10104D5F1200E66
:100360000DDB02FA0EFC22FA05F2801841F10001C1
:1003700003FA0EF2801843FA05F359410EE0A5F195
:1003800020050EF1200E012A03FA0EFC28BF4CF0C6
:10039000020C43FA05F3C01851EBE37101F000457C
:1003A00007D54FF0000EDCF1000C7EEB00006EEB89
:1003B0000101B1F5801F1BD3B1F5001F0CD3490813
:1003C0005FEA30004FEA3C0C04F101044FEA44526A
:1003D00012F5800F80F09A80BCF1004F08BF5FEAF1
:1003E000500C50F1000041EB045141EA050130BDD1
:1003F0005FEA4C0C404141EB010111F4801FA4F174
:100400000104E9D191F0000F04BF01460020B1FAC8
:1004100081F308BF2033A3F10B03B3F120020CDA00
:100420000C3208DD02F1140CC2F10C0201FA0CF0DE
:1004300021FA02F10CE002F11402D8BFC2F1200C43
:1004400001FA02F120FA0CFCDCBF41EA0C019040F9
:10045000E41AA2BF01EB0451294330BD6FEA040442
:100460001F3C1CDA0C340EDC04F11404C4F120022D
:1004700020FA04F001FA02F340EA030021FA04F33F
:1004800045EA030130BDC4F10C04C4F1200220FA96
:1004900002F001FA04F340EA0300294630BD21FAD4
:1004A00004F0294630BD94F0000F83F4801306BF9A
:1004B00081F480110134013D4EE77FEA645C18BF8E
:1004C0007FEA655C29D094EA050F08BF90EA020F25
:1004D00005D054EA000C04BF1946104630BD91EA1D
:1004E000030F1EBF0021002030BD5FEA545C05D120
:1004F0004000494128BF41F0004130BD14F580045F
:100500003CBF01F5801130BD01F0004545F0FE41D2
:1005100041F470014FF0000030BD7FEA645C1ABF07
:10052000194610467FEA655C1CBF0B46024650EA3E
:10053000013406BF52EA033591EA030F41F400216A
:1005400030BD00BF90F0000F04BF0021704730B5F0
:100550004FF4806404F132044FF000054FF00001C5
:1005600050E700BF90F0000F04BF0021704730B586
:100570004FF4806404F1320410F0004548BF40425B
:100580004FF000013EE700BF42004FEAE2014FEAB0
:1005900031014FEA02701FBF12F07F4393F07F4F8B
:1005A00081F06051704792F0000F14BF93F07F4FBD
:1005B000704730B54FF4607401F0004521F0004100
:1005C00020E700BF50EA010208BF704730B54FF086
:1005D00000050AE050EA010208BF704730B511F08B
:1005E000004502D5404261EB41014FF4806404F1C3
:1005F00032045FEA915C3FF4DCAE4FF003025FEA45
:10060000DC0C18BF03325FEADC0C18BF033202EBCC
:10061000DC02C2F1200300FA03FC20FA02F001FA26
:1006200003FE40EA0E0021FA02F11444C1E600BFC5
:1006300070B54FF0FF0C4CF4E06C1CEA11541DBF78
:100640001CEA135594EA0C0F95EA0C0F00F0DEF843
:100650002C4481EA030621EA4C5123EA4C5350EA28
:10066000013518BF52EA033541F4801143F4801379
:1006700038D0A0FB02CE4FF00005E1FB02E506F00A
:100680000042E0FB03E54FF00006E1FB03569CF05F
:10069000000F18BF4EF0010EA4F1FF04B6F5007F65
:1006A00064F5407404D25FEA4E0E6D4146EB0606D7
:1006B00042EAC62141EA55514FEAC52040EA5E5060
:1006C0004FEACE2EB4F1FD0C88BFBCF5E06F1ED80A
:1006D000BEF1004F08BF5FEA500E50F1000041EB41
:1006E000045170BD06F0004646EA010140EA0200EE
:1006F00081EA0301B4EB5C04C2BFD4EB0C0541EA10
:10070000045170BD41F480114FF0000E013C00F324
:10071000AB8014F1360FDEBF002001F0004170BD48
:10072000C4F10004203C35DA0C341BDC04F1140461
:10073000C4F1200500FA05F320FA04F001FA05F2ED
:1007400040EA020001F0004221F0004110EBD370BA
:1007500021FA04F642EB06015EEA430E08BF20EAE6
:10076000D37070BDC4F10C04C4F1200500FA04F389
:1007700020FA05F001FA04F240EA020001F000411B
:1007800010EBD37041F100015EEA430E08BF20EA8E
:10079000D37070BDC4F1200500FA05F24EEA020ED6
:1007A00020FA04F301FA05F243EA020321FA04F005
:1007B00001F0004121FA04F220EA020000EBD370BC
:1007C0005EEA430E08BF20EAD37070BD94F0000FBC
:1007D0000FD101F00046400041EB010111F4801FF0
:1007E00008BF013CF7D041EA060195F0000F18BFA1
:1007F000704703F00046520043EB030313F4801FDD
:1008000008BF013DF7D043EA0603704794EA0C0F96
:100810000CEA135518BF95EA0C0F0CD050EA4106AC
:1008200018BF52EA4306D1D181EA030101F0004129
:100830004FF0000070BD50EA410606BF1046194651
:1008400052EA430619D094EA0C0F02D150EA01365D
:1008500013D195EA0C0F05D152EA03361CBF10469E
:1008600019460AD181EA030101F0004141F0FE413D
:1008700041F470014FF0000070BD41F0FE4141F4C1
:10088000780170BD70B54FF0FF0C4CF4E06C1CEAC1
:1008900011541DBF1CEA135594EA0C0F95EA0C0F76
:1008A00000F0A7F8A4EB050481EA030E52EA033531
:1008B0004FEA013100F088804FEA03334FF0805552
:1008C00045EA131343EA12634FEA022245EA11157F
:1008D00045EA10654FEA00260EF000419D4208BF30
:1008E000964244F1FD0404F5407402D25B084FEADD
:1008F0003202B61A65EB03055B084FEA32024FF489
:1009000080104FF4002CB6EB020E75EB030E22BFE5
:10091000B61A754640EA0C005B084FEA3202B6EBA5
:10092000020E75EB030E22BFB61A754640EA5C0054
:100930005B084FEA3202B6EB020E75EB030E22BFE4
:10094000B61A754640EA9C005B084FEA3202B6EBE5
:10095000020E75EB030E22BFB61A754640EADC00A4
:1009600055EA060E18D04FEA051545EA16754FEA06
:1009700006164FEAC30343EA52734FEAC2025FEA24
:100980001C1CC0D111F4801F0BD141EA00014FF0B3
:1009900000004FF0004CB6E711F4801F04BF014384
:1009A0000020B4F1FD0C88BFBCF5E06F3FF6AFAEA0
:1009B000B5EB030C04BFB6EB020C5FEA500C50F130
:1009C000000041EB045170BD0EF0004E4EEA1131B3
:1009D00014EB5C04C2BFD4EB0C0541EA045170BDBA
:1009E00041F480114FF0000E013C90E645EA060EFE
:1009F0008DE60CEA135594EA0C0F08BF95EA0C0F2C
:100A00003FF43BAF94EA0C0F0AD150EA01347FF473
:100A100034AF95EA0C0F7FF425AF104619462CE74A
:100A200095EA0C0F06D152EA03353FF4FDAE1046AD
:100A3000194622E750EA410618BF52EA43067FF4FE
:100A4000C5AE50EA41047FF40DAF52EA43057FF48E
:100A5000EBAE12E74FF0FF3C06E000BF4FF0010C99
:100A600002E000BF4FF0010C4DF804CD4FEA410CFD
:100A70007FEA6C5C4FEA430C18BF7FEA6C5C1BD0CA
:100A800001B050EA410C0CBF52EA430C91EA030F4B
:100A900002BF90EA020F0020704710F1000F91EAA8
:100AA000030F58BF994208BF90422CBFD8176FEA76
:100AB000E37040F0010070474FEA410C7FEA6C5C44
:100AC00002D150EA013C07D14FEA430C7FEA6C5C4B
:100AD000D6D152EA033CD3D05DF8040B704700BF77
:100AE0008446104662468C461946634600E000BFC5
:100AF00001B5FFF7B7FF002848BF10F1000F01BD97
:100B00004DF808EDFFF7F4FF0CBF012000205DF861
:100B100008FB00BF4DF808EDFFF7EAFF34BF0120E6
:100B200000205DF808FB00BF4DF808EDFFF7E0FF7F
:100B300094BF012000205DF808FB00BF4DF808EDD0
:100B4000FFF7CEFF94BF012000205DF808FB00BF37
:100B50004DF808EDFFF7C4FF34BF012000205DF819
:100B600008FB00BF4FEA410C7FEA6C5C02D150EAFF
:100B7000013C0AD14FEA430C7FEA6C5C02D152EA95
:100B8000033C02D14FF0000070474FF00100704766
:100B90004FEA410212F5001215D211D56FF47873A5
:100BA000B3EB625212D94FEAC12343F0004343EA48
:100BB000505311F0004F23FA02F018BF4042704723
:100BC0004FF00000704750EA013005D111F00040AD
:100BD00008BF6FF0004070474FF00000704700BF43
:100BE0004A0011D212F5001211D20DD56FF47873AC
:100BF000B3EB62520ED44FEAC12343F0004343EA01
:100C0000505323FA02F070474FF00000704750EA4B
:100C1000013002D14FF0FF3070474FF000007047B5
:100C20004FEA4102B2F1E04324BFB3F5001CDCF10E
:100C3000FE5C0DD901F0004C4FEAC0024CEA507046
:100C4000B2F1004F40EB830008BF20F00100704775
:100C500011F0804F21D113F13872BCBF01F0004078
:100C6000704741F480114FEA5252C2F11802C2F1AA
:100C7000200C10FA0CF320FA02F018BF40F001002B
:100C80004FEAC1234FEAD32303FA0CFC40EA0C00DD
:100C900023FA02F34FEA4303CCE77FEA625307D11A
:100CA00050EA01331EBF4FF0FE4040F44000704751
:100CB00001F0004040F0FE4040F40000704700BFEB
:100CC00053B94AB9002908BF00281CBF4FF0FF31B3
:100CD0004FF0FF3000F07AB9ADF1080C6DE904CEA9
:100CE00000F006F8DDF804E0DDE9022304B0704707
:100CF0002DE9F0478C460D460446089E002B51D145
:100D00008A4217466DD9B2FA82FEBEF1000F0BD0AF
:100D1000CEF1200C01FA0EF520FA0CFC02FA0EF7C7
:100D20004CEA050C00FA0EF44FEA174A250CBCFBFE
:100D3000FAF81FFA87F90AFB18CC45EA0C4508FBBC
:100D400009F3AB420AD9ED1908F1FF3280F0238193
:100D5000AB4240F22081A8F102083D44ED1AA4B252
:100D6000B5FBFAF00AFB105544EA054400FB09F90B
:100D7000A14509D9E41900F1FF3380F00A81A145AA
:100D800040F2078102383C44A4EB090440EA0840E1
:100D90000021002E61D024FA0EF400233460736029
:100DA000BDE8F0878B4207D9002E54D0002186E899
:100DB00021000846BDE8F087B3FA83F1002940F02E
:100DC0008E80AB4202D3824200F2FA80841A65EB35
:100DD00003050120AC46002E3FD086E81010BDE888
:100DE000F08712B90127B7FBF2F7B7FA87FEBEF119
:100DF000000F34D1EB1B3A0C1FFA87FC0121B3FB27
:100E0000F2F8250C02FB183345EA03450CFB08F306
:100E1000AB4207D9ED1908F1FF3002D2AB4200F224
:100E2000D1808046ED1AA3B2B5FBF2F002FB10555B
:100E300043EA05440CFB00FCA44507D9E41900F182
:100E4000FF3302D2A44500F2B8801846A4EB0C048C
:100E500040EA08409DE731463046BDE8F087CEF1D4
:100E6000200405FA0EF307FA0EF720FA04F83A0CFC
:100E700025FA04F448EA0308B4FBF2F14FEA1845F6
:100E800002FB11441FFA87FC45EA044501FB0CF301
:100E9000AB4200FA0EF409D9ED1901F1FF3080F0F0
:100EA0008A80AB4240F2878002393D44EB1A1FFA38
:100EB00088F5B3FBF2F002FB103345EA034500FB73
:100EC0000CF3AB4207D9ED1900F1FF386FD2AB42FA
:100ED0006DD902383D44EB1A40EA01418FE7C1F178
:100EE000200722FA07F88B4005FA01F448EA0303C9
:100EF00020FA07FE4FEA134CFD404EEA040EB5FB04
:100F0000FCF94FEA1E440CFB19551FFA83F844EA1A
:100F1000054509FB08F4AC4202FA01F200FA01FAB5
:100F200008D9ED1809F1FF3043D2AC4241D9A9F1FB
:100F300002091D442D1B1FFA8EFEB5FBFCF00CFBB5
:100F400010554EEA054400FB08F8A04507D9E418FF
:100F500000F1FF3529D2A04527D902381C4440EAC8
:100F60000940A4EB0804A0FB02894C45C6464D4647
:100F700015D312D056B1BAEB0E0364EB050404FA94
:100F800007F7CB401F43CC40376074600021BDE8B9
:100F9000F0871846F8E69046E0E6C245EAD2B8EB9C
:100FA000020E69EB03050138E4E72846D7E740461F
:100FB00091E78146BEE7014678E702383C4445E7C1
:100FC000084608E7A8F102083D442BE7704700BF38
:100FD000074B82B0421C064A1B6818BF01300193C0
:100FE000019B1368DB03FCD50138FAD102B07047CE
:100FF00010E000E0484B2DE9F043144605468846D2
:10100000DFF81CE104F10E070EF1200C07CB1B8862
:101010002060A3816160A260764610370EF1100E49
:101020000FCE664547F8100C47F80C1C47F8082C03
:1010300047F8043CF0D1394B04F13606BEE8030012
:101040003860796007CBC4F836005FEA4800716009
:10105000B2605ED004F142022B1D04F146018D42C4
:1010600038BF9A4244D30B2842D96B4213F0030392
:101070003BD02A78012B84F8422047D06A78032B92
:1010800084F843203FD1A9781A46452684F84410B5
:10109000A0EB030E03F142074FF0000C2B44AEF11E
:1010A00004012744890801314FEA81080CF1010C41
:1010B00053F8049B614547F8049BF7D8C64506EBF7
:1010C000080102EB08030DD05A1CEF5C4E1C824253
:1010D000675407D20233AA5C02319842A25501D963
:1010E000EB5C63544230BDE8F0831A464226CFE7FA
:1010F00041342A1815F8013B954204F8013FF9D113
:101100004230BDE8F08302224426C1E71A46432656
:10111000BEE74220BDE8F083ECA40108E0A401088A
:10112000B8A40108490058D000F142032DE9F0416C
:1011300000F14604151DAB4238BFA2423FD30B2934
:101140003DD95B4213F0030337D090F84240012BA6
:10115000147032D090F84340032B547039D190F87A
:1011600044501C469570A1EB030E03F14206002784
:101170001344AEF104050644AD0801354FEA850875
:10118000013756F804CBBD4243F804CBF8D8C64526
:1011900004EB08031BD018445C1C90F842508C42AE
:1011A000D55414D2023390F843509942155512D9B0
:1011B00090F84410D154BDE8F0811C46D3E741308B
:1011C000114410F8013F02F8013B8A42F9D1BDE811
:1011D000F0810224C7E7BDE8F0817047B84B1A7868
:1011E000002A41D0B74A2DE9F04F046800258BB0A2
:1011F00094421D7040F0FC821F2940F0F982027B6E
:10120000C37BD0F804A0D0F808B00992282B00F2D4
:101210007182DFE813F033006F026F021F026F026A
:101220006F026F026F026F026F026F026F026F0236
:101230006F026F026F026F026F0209026F026F028C
:101240006F026F026F026F026F02C60133006F02FE
:101250006F026F026F026F026F026F02D9006F029E
:1012600088006F026F026B01974A1368591A0029B0
:10127000116014BF6FF001000D2070470D23934ED5
:10128000934D08930023934A934C0792013A934F4E
:101290000692013ADFF848820592013A0492013A37
:1012A0000392013A0292013A0192013A0092ABEBA9
:1012B0000303002153224FF0550C00984FF0420ECB
:1012C00088F800C04FEA1A2902704FEA1A480198BC
:1012D0004FEA1A6C80F800E04FEA132E0298027071
:1012E0001A0C039880F800A04FEA136A049880F85B
:1012F0000090059880F80080069880F800C0079854
:10130000037087F800E0227085F800A0317031B1D9
:10131000099BDB0903D1BBF1000F40F06C820898F8
:101320000BB0BDE8F08F5B466D490020082B28BF4D
:1013300008235A1C03F1030903F1040803F1050C07
:101340000A4403F1060E03F1080503F10B060092AF
:101350009A1C0795DF1D0A4408960F4403F10905FE
:10136000019209EB010203F10A0403F10C06029257
:1013700008EB010206970C4403920CEB0102DFF824
:1013800068C16F1804920EEB01020E4403EB0108D2
:1013900005924FF0100E079A0A440792089A0870B7
:1013A00008710A4448708CF800001546C87103F1B2
:1013B0000D01FF224FF00F0008914A4908700CF808
:1013C000022C81F804E072E7827DC37D43EA0223A8
:1013D0000C2B28BF0C23002B00F0898240490022EF
:1013E000012B0A7032D0022B4A7001F101012DD07D
:1013F000032B4A7001F1010128D00820042B01F1D0
:101400000101087022D0052B4A7001F101011DD0A5
:10141000062B4A7001F1010118D01020072B01F1B1
:101420000101087012D0082B4A700FD0294A0221FE
:10143000092B11700AD0294900220A2B0A7005D005
:1014400001200C2B4870014408BF4A705B452448BA
:1014500028BF5B465A1C03F1030903F1040803F19A
:10146000050C024403F1060EDF1D03F1080600928D
:101470009A1C03F10B0103F10905024403F10A046C
:10148000089103F10C01019209EB0002044402925D
:1014900008EB000203EB000803920CEB000204923D
:1014A0000EEB000205923A182F18069232180E1809
:1014B0000792089A0244154603F10D020892F6E6D7
:1014C0000000002055534243D00600200C0068C0A5
:1014D0000B0068C0080068C00A0068C0090068C046
:1014E000000068C0020068C0050068C0847C437CBE
:1014F0002404057DC27C44EA0364817DC37D2C43C2
:1015000043EA012344EA0224E218B2F5805F00F2C4
:101510001A81BBEB033F00F093810527B94C0BF117
:101520000402B94927700BEB070C03924FF0000837
:10153000B64B0BF102000BF103090BF1060E0BF198
:1015400007050BF108060BF109070BF10A044FF030
:1015500024020A700BF10C01AD4A1F441C4482F8AE
:1015600000800BF101020BEB03081A440092C21831
:10157000019209EB03020292039A1A4403920CEBC4
:10158000030204920EEB03020592EA180692F21887
:10159000CE1807920BF10B02D5180BF10D0308932F
:1015A000CEE05B4699480321042B28BF04235A1C34
:1015B00003F1080603F1040803EB0109024407964E
:1015C000804403F1050C00929A1C017003F1060E91
:1015D000024403F1090703F10A0403F10B05019228
:1015E000DA1D03F10C06CDF80C800244014481445D
:1015F000844406928644079A0744044405440244FE
:10160000064403EB00084FF00000079203F10D02BF
:10161000CDF8089008927F4ACDF810C0CDF814E0BC
:1016200010705070087042E6827CC37C43EA02234B
:10163000242B28BF2423002B00F05981764C581E00
:101640007649621E044412F8010FA24201F8010F0C
:10165000F9D1FBE6724B714A03F1140013F8011F34
:10166000984202F8011FF9D15B46664A6D49142B76
:101670001078674A28BF14230870127803F10B040E
:1016800003F10801154603F10109604A03F102085C
:10169000089403F1030C644C03F1040E07915F1DE1
:1016A000257009EB020403F10A01079D009408EB81
:1016B000020403F1090003F10C0601940CEB02048F
:1016C0001544164402940EEB020403EB020807953E
:1016D0000394BC189F1D0494BC18DF1D0594BC180E
:1016E000871806948C180899114403F10D020D46D1
:1016F0000892DCE5099B1B0642D40D234A4E4B4D54
:1017000008934B4B4B4C0793013B4B4F0693013BCC
:10171000DFF8F8800593013B0493013B0393013B01
:101720000293013B0193013B009336494FF0050EB4
:10173000354B202281F800E000211A70344B1970DB
:101740005B460121B6E505272E4C0BF104022E491C
:1017500027700BEB070C03924FF000082B4B0BF19B
:1017600002000BF103090BF1060E0BF107050BF15B
:1017700008060BF109070BF10A044FF02102E8E615
:101780000BF10202214B0BF103090BF1050C019245
:101790000BF101020BF1060E0BF107071A440BF1D6
:1017A00008060BF109050BF10A0400920BF10B017D
:1017B000019A0BF10C000BEB03081C441A44019234
:1017C00009EB030202920BF104021A4403920CEBA0
:1017D000030204920EEB03020592FA18EF18CD18DB
:1017E0000692F218C6180BF10D03079208939CE7B6
:1017F0004FF0FF3094E5114B6FF00100C3F800B0DB
:101800008EE500BFD4060020CC060020000068C092
:10181000CD060020010068C0FCA40108FFFF67C0DE
:101820001FA50108020068C00C0068C00B0068C05A
:10183000080068C00A0068C0090068C0D00600201F
:10184000082B59D94FF4004221034C48A3F1080555
:1018500006F0A6FB38B935B104F108012A0348485F
:10186000090306F09DFB002848D00421454F434E54
:10187000012539700BEB0103434F0BF1050933448C
:101880000BF1060E3D704F4603930BEB0500BB19A1
:101890000BF107073044DFF8FCC004930EEB06039E
:1018A0004FF002080BF108040BF103020593BB197A
:1018B0008CF8008032440BF1090C00900BF102000F
:1018C0000693A319304465460BF10C01029207936D
:1018D0000BF10A040BF10B020BF10D03AF190BEB2B
:1018E00006083444951901900E44089328E70D2208
:1018F000264E274D0892C6E4002B39D10BF1020386
:101900001E4E0BF103090BF1050C01930BF10103C2
:101910000BF1060E0BF1070733440BF108040BF132
:101920000A020BF1090500930BF10B01019B0BF16E
:101930000C000BEB06083344019309EB06030293FA
:101940000BF10403334403930CEB060304930EEBF7
:1019500006030593BB19AF198D190693A3191446F5
:1019600007930BF10D033444064408935B469EE451
:1019700021035A46014806F013FB74E7000068C0D3
:10198000008068C0CC060020CD0600200C0068C096
:101990000B0068C0D4060020014B01221A7070476A
:1019A000000000200020704708B506F0D5F900209F
:1019B00008BD00BFF8B50D4616461F4606F028FCC8
:1019C0000028FBD18FB10446C5EB063601E0A742E3
:1019D0000BD04FF48052711928460134154406F09B
:1019E000DFFA0028F3D00120F8BD0020F8BD00BFC9
:1019F00070B50C4616461D4606F00AFC0028FBD1C1
:101A0000280308D02146084B204411F8012B8142BD
:101A100003F8012FF9D12A463103044806F03EFBB2
:101A2000003018BF012070BDFFFF5FC0000060C024
:101A3000012908B50DD005D3032908D101230020C1
:101A4000136008BD06F0E4FB0028FBD108BD0420AC
:101A500008BD4FF480530020136008BDC1EB011195
:101A6000024B03EB811323F810207047000020C0C5
:101A70000F4A30B4136813F00103FBD10D494FF046
:101A800040440D4D022015609363D463136450638A
:101A900051649368064943F03F039360136843F031
:101AA000010313600B68DB07FCD430BC704700BF38
:101AB00000B002401001E001000103000E4A70B4C2
:101AC000136813F00103FBD10C4902240C4E0D4D99
:101AD00016609063D5631364546351649368064938
:101AE00043F03F039360136843F0010313600B68F6
:101AF000DB07FCD470BC704700B002401001E0016D
:101B000000010300000040C0F0B51A4DBDF814609C
:101B10002C6814F00104FBD1171A5B1A4FF4F07E05
:101B2000821A0137013311FB0E01134843EA0743C0
:101B300002F2DF1200EB4101104FDFF844E0022017
:101B40003C70C5F800E0AE63E9632A6468636B64C7
:101B5000AB68084A43F03F03AB602B6843F00103D6
:101B60002B601368DB07FCD43878003018BF0120E5
:101B70004042F0BD00B00240000020C0E00600205E
:101B8000000103002DE9F041244DBDF818C02C6878
:101B900014F00104FBD14FF4F077214EDFF884E01C
:101BA000994211FB0707DFF880808EF8004006EBB2
:101BB00047064FF00207C5F800806F63C5F838C0CC
:101BC000EE631ED0904224D15B1A40F2DF12013343
:101BD0002A6443F480336B64104B99681A4641F0D1
:101BE0003F019960196841F0010119601368DB0732
:101BF000FCD49EF80000003018BF01204042BDE830
:101C0000F081131A2C6401331B0443F001036B644D
:101C1000E2E74FF0FF30BDE8F08100BF00B00240C6
:101C2000000020C0E006002000010300124AF0B4CA
:101C3000136813F00103FBD1104D4FF040441049DD
:101C4000022015600F4FD1600F4E1049104DD76123
:101C500056615562D46313645063516493680649B6
:101C600043F03F039360136843F0010313600B6874
:101C7000DB07FCD4F0BC704700B00240000102005A
:101C8000000020C00200018F000040C01001E001F0
:101C9000020001FF38B590F8302090F82F1202F1C1
:101CA000180390F82E52DBB245EA0125012B08D922
:101CB000EB2A06D04AF65520854214BF03200220A5
:101CC00038BD4AF6552304469D4244D090F83C1056
:101CD00090F83B3090F83D2043EA0123591E194209
:101CE00037D1B2B3B3F5805F33D1531E1342E1D184
:101CF00094F83F2094F83E3053EA0223DAD094F867
:101D00004030013B012BD5D894F8422094F8413063
:101D100053EA0223CED094F8442094F8433043EAA7
:101D200002237F2B0CD8B4F8521094F8512094F869
:101D3000503042EA012243EA0223B3F5803FB9D38F
:101D400094F8472094F8463053EA0223B2D000209A
:101D500038BD032038BD08220C49823013F0A8FF9B
:101D600060B194F83C1094F83B3094F83D2043EA7D
:101D70000123591E194202D0022038BD38BD002A65
:101D8000FAD0B3F5805FB0D0F6E700BFB4A5010884
:101D9000C26A8A422DD070B5C37804460D4600F160
:101DA00030066BB92A46314601236078FFF702FE00
:101DB00000281ABF4FF0FF3501200020E56270BDFA
:101DC000012340783146FFF713FE80B9E16A236AA8
:101DD000A269CB1AE0709342E4D2A378022BE1D13E
:101DE0000A44012331466078FFF702FEDAE701205A
:101DF00070BD0020704700BFF8B5C37804465BB9DA
:101E00002378032B24D0002260781146FFF710FEC0
:101E1000003018BF0120F8BD00F13005C26A01236F
:101E200040782946FFF7E4FD80B9E16A236AA26998
:101E3000CB1AE0709342E3D2A378022BE0D10A449C
:101E4000012329466078FFF7D3FDD9E70120F8BDCB
:101E50002579012DD7D104F1300700264FF48052A7
:101E60000021384613F03EFFE368304622693946C8
:101E70001F0A63F307004FEA122E62F307064FF0C2
:101E8000550C67F30F201F0C6EF30F261B0E4FEA45
:101E9000124E67F31740120EE76963F31F606EF38B
:101EA00017462B46013762F31F664FF0AA0EC4F89F
:101EB0001C023A460848094DC4F81402C4F81862D6
:101EC000E76284F82EC284F82FE225636078FFF77A
:101ED0008FFD0023237196E7727241615252614176
:101EE0002DE9F84F002305680B6065B32C4601E02F
:101EF0003A2B03D014F8013B202BF9D83A2B1ED0F3
:101F0000C84B1C6814B30C6002F0FE05237853B96B
:101F10000023237018466370FFF746FDC6071AD5E5
:101F20000320BDE8F88F6078FFF73CFDC707EFD4CA
:101F30009DB310F004000CD00A20BDE8F88FAB1C54
:101F40009C4200F058810B20BDE8F88F0C20BDE8C2
:101F5000F88FBDE8F88F0DB14107EDD400224FF0A6
:101F6000FF3704F130060123E270E7623146607802
:101F7000FFF720FD834660B9E0622046FFF78AFE46
:101F800002280DD0042805D001286BD90D20BDE80A
:101F9000F88FE7620120BDE8F88F2846BDE8F88F8A
:101FA000B4F8188294F81732B4F8F80143EA082319
:101FB00094F8F75194F81682B4F8089245EA00258F
:101FC000B4F828A248EA032894F8071294F82722C4
:101FD00094F8F63141EA092142EA0A2294F806927D
:101FE00094F826A253EA052549EA01294AEA022A79
:101FF00024D1B9F1000F40F0CD80B8F1000F40F0CE
:10200000E380BAF1000FC1D04FF0FF350023AA459D
:10201000E370E5620AD03146012352466078FFF74B
:10202000C9FC002840F0FB80C4F82CA02046FFF734
:1020300031FE012816D90428A8D1ABE76A1C84F820
:1020400003B0E76209D001232A4631466078FFF7E2
:10205000B1FC002840F0D580E5622046FFF71AFE6B
:102060000128C6D894F83C2094F83B3043EA022378
:10207000B3F5805F8AD194F8473094F8462052EA4D
:10208000032209D1B4F8561094F8553094F854202E
:1020900043EA012342EA032294F84000A261431E6E
:1020A000A070E16A012B3FF671AF94F83DE002FBAE
:1020B00000F61FFA8EF36381002B3FF467AF0EF139
:1020C000FF3313EA0E0F7FF461AF94F8423094F8B7
:1020D000415045EA03256B0625817FF457AF94F8FC
:1020E000440094F8433053EA002309D1B4F8527005
:1020F00094F8510094F8503040EA072043EA002356
:1021000094F83F7094F83E0050EA07203FF43EAF49
:1021100000EBD5173744BB42FFF438AFDB1BDFF8C9
:102120000CC1B3FBFEF303F1FF3EE6453FF62EAFD5
:102130004FF6F57E734500F28A8040F6F57E7345D2
:1021400076D8023308440F44E16163612062A762DC
:10215000002D3FF41BAF03EB430503F001033044B4
:10216000012103EB5503606203F6FF73B2EB133FEB
:10217000FFF40CAF4FF0FF3380222361E360227144
:10218000294A00202170138801339BB21380E38019
:10219000BDE8F88F4FF0FF350023A945E370E562F5
:1021A00008D001234A4631466078FFF703FC70BB34
:1021B000C4F82C902046FFF76DFD01287FF652AF42
:1021C000B8F1000F3FF41DAF4FF0FF350023A845D5
:1021D000E370E56208D00123424631466078FFF79C
:1021E000E9FBD0B9C4F82C802046FFF753FD012845
:1021F0003FF607AF36E72B78302B7FF4A4AE0460B0
:102200007EE6E762B9F1000F3FF4F7AEC2E7E562A0
:10221000B8F1000F3FF4F5AED6E7E562F1E6E5620E
:10222000B8E600BFD8060020DC060020F4FFFF0F50
:10223000023308440F44E16163612062A762002D0C
:102240003FF4A4AE30445B00022160628CE7084496
:1022500094F85B6002330F44206294F85A00636183
:1022600050EA0620A762E1617FF490AE002D7FF472
:102270008DAEB4F85E609B0094F85D5094F85C00FD
:1022800003F6FF7345EA0625B2EB133F40EA05204B
:102290006062FFF47BAE94F861504FF0FF3294F827
:1022A00060308020226143EA0523E2602071012B27
:1022B00001D0032164E701312046FFF769FD0028C2
:1022C000F7D194F82F124AF6552294F82E32207145
:1022D00043EA01239342ECD1618E94F8312094F8C3
:1022E000303042EA0122154943EA02238B42E0D111
:1022F000B4F8161294F8152294F8143242EA012226
:102300000F4943EA02238B42D3D194F819220321C7
:1023100094F81D32B4F81A52B4F81E0242EA0525A8
:1023200094F8182243EA002094F81C3242EA05226D
:1023300043EA00232261E36022E700BF5252614179
:10234000727241612DE9F84F057804460E46174632
:10235000022D00F09880032D5ED0012D02D00220C6
:10236000BDE8F88F01EB510A036AC26A03EB1A3920
:10237000914500F02381C37800F13008002B40F034
:10238000A880C346414601234A466078FFF712FB06
:10239000002840F0EE80C4F82C9016F001060AF1F7
:1023A0000108CAF30B0A00F0EA801BF80A30012189
:1023B00003F00F0343EA07130BF80A30256AE26AB9
:1023C00005EB1835E170AA4200F00581012359465A
:1023D0006078FFF70DFB002840F0C880E16A236AAF
:1023E000A269CB1AE070934203D2A378022B00F0CB
:1023F000EB8001232A4659466078FFF7DBFA002874
:1024000040F0B780C8F30B03E5629B44002E00F058
:10241000C480C7F30717C7E0036AC26A03EB9129B8
:10242000914500F0CE80C37800F13008002B40F0D9
:1024300083804546414601234A466078FFF7BAFA51
:10244000002840F09680C4F82C9040F6FC7327F0EA
:1024500070470022012103EA86061046AB195B880B
:102460001B0403F070431F433B0A67F3070263F347
:102470000F223B0C3F0E63F3174267F31F62AA5112
:10248000E170BDE8F88F056AC26A05EBD125954277
:1024900000F09180C37800F13008002B34D1C146A0
:1024A000414601232A466078FFF784FA002860D16C
:1024B000E56240F6FE73C7F307210122002003EA1C
:1024C000460609EB060309F806705970E270BDE88C
:1024D000F88F2B4640784146C346FFF789FA00281B
:1024E00044D1E16A236AA269CB1AE0709342BFF437
:1024F00048AFA378022B7FF444AF0A442B464146F1
:102500006078FFF775FA3DE7012340784146C14600
:10251000FFF76EFA50BBE16A236AA269CB1AE0703A
:102520009342BCD2A378022BB9D10A44012341467D
:102530006078FFF75DFAB3E70123407841464546EE
:10254000FFF756FA90B9E16A236AA269CB1AE070E4
:102550009342BFF46EAFA378022B7FF46AAF0A44B4
:10256000012341466078FFF743FA63E70120BDE8A5
:10257000F88F4FF0FF330120E362BDE8F88F0BF8CE
:102580000A700123256AE26A05EB1835E370AA4256
:102590007FF41CAFC8F30B039B449BF80030C7F3D8
:1025A000032223F00F07174301238BF8007000204C
:1025B000E370BDE8F88F00F130097AE700F1300BE5
:1025C000EBE600F1300540E70A4401235946607804
:1025D000FFF70EFA0DE7C8F30B039B4419E700BFA2
:1025E00001290AD92DE9F84F05680C4682466B6926
:1025F000994204D30220BDE8F88F0220704782B1CF
:10260000012AF7D99342F5D9114628464FF0FF32F7
:10261000FFF798FE002840F09380DAF800607369B5
:1026200000E02E46A342E5D93778022F68D0032F69
:1026300000F08880012FDDD104EB5409336AF26A7F
:1026400003EB1938904512D0F37806F1300B002BCC
:1026500040F0BB805946012342467078FFF7AAF943
:10266000002840F092804246336AC6F82C80C9F3B5
:102670000B0109F1010903EB19373144974291F835
:1026800030B00ED0F37806F13008002B40F0DA803D
:10269000414601233A467078FFF78CF9002874D13F
:1026A000F762C9F30B09E3074E4496F830704BEA22
:1026B00007274CBF3F09C7F30B07002F00F0BF806F
:1026C000012F97D0012C95D96B69A34292D921464D
:1026D00000222846FFF736FE90BB6A692B69911EDF
:1026E0008B4205D22979013341F001012B61297117
:1026F000BA4240F2A480DAF800603C46736991E780
:10270000376AF26A07EBD427974200F09280F37899
:1027100006F13008002B72D101233A464146707809
:10272000FFF748F988BBF76240F6FE7303EA4403FB
:1027300008EB030218F80370537847EA0327BCE755
:10274000BDE8F88F376AF26A07EB9427974273D097
:10275000F37806F13008F3B901233A464146707820
:10276000FFF728F988B9F76240F6FC7303EA84039F
:1027700008EB030218F803705188537843EA0123E9
:1027800047EA032727F0704797E74FF0FF33012010
:10279000F362BDE8F88F012370784146FFF728F90E
:1027A00080B9F16A336AB269CB1AF0709342D3D21E
:1027B000B378022BD0D10A44012341467078FFF749
:1027C00017F9C9E70120BDE8F88F3B4670785946F4
:1027D000FFF70EF90028F5D1F16A336AB269CB1A16
:1027E000F0709342BFF436AFB378022B7FF432AF70
:1027F0000A443B4659467078FFF7FAF82AE7012366
:1028000070784146FFF7F4F80028DBD1F16A336AAB
:10281000B269CB1AF0709342BFF47EAFB378022B4B
:102820007FF47AAF0A44012341467078FFF7E0F85D
:1028300072E706F1300877E706F1300894E70020E8
:10284000BDE8F88F012370784146FFF7D1F80028E2
:10285000B8D1F16A336AB269CB1AF0709342BFF40F
:1028600017AFB378022B7FF413AF0A44012341461C
:102870007078FFF7BDF80BE7012969D92DE9F84316
:102880004369994208D2037804460D46022B46D08C
:10289000032B5FD0012B02D00120BDE8F88301EBB0
:1028A0005108016AC26A01EB1837974210D0C1780B
:1028B00000F13006002940F0B680314601233A4647
:1028C0006078FFF777F800283DD13A46216AE76241
:1028D000C8F30B0308F1010801EB183723449742B2
:1028E00093F830900DD0E37804F13006002B40F0DF
:1028F000B980314601233A466078FFF75BF810BB98
:10290000E762C8F30B08EB07444494F8300049EA47
:1029100000204CBF0009C0F30B00BDE8F883076A34
:10292000C26A07EBD127974200F09980C37800F183
:102930003006002B43D1B046314601233A46607839
:10294000FFF738F868B34FF0FF30E062BDE8F88376
:1029500001207047076AC26A07EB912797427BD034
:10296000C37800F13006002B41D1B0463146012337
:102970003A466078FFF71EF80028E4D1E76240F697
:10298000FC7101EA850108EB010218F80100537897
:10299000518843EA012340EA032020F07040BDE85B
:1029A000F883E76240F6FE7101EA450108EB010396
:1029B00018F801005B7840EA0320BDE8F8830123A2
:1029C00040783146B046FFF713F840BBE16A236A0E
:1029D000A269CB1AE0709342ADD2A378022BAAD1A0
:1029E0000A44012331466078FFF702F8A4E7012387
:1029F00040783146B046FEF7FBFF80B9E16A236AB2
:102A0000A269CB1AE0709342AFD2A378022BACD16B
:102A10000A44012331466078FEF7EAFFA6E74FF04B
:102A2000FF30BDE8F88340783146FEF7E1FF00282B
:102A3000F5D1E16A236AA269CB1AE0709342BFF430
:102A40003CAFA378022B7FF438AF0A440123314610
:102A50006078FEF7CDFF30E700F130088FE700F136
:102A600030089FE7012360783146FEF7C1FF002858
:102A7000D5D1E16A236AA269CB1AE0709342BFF410
:102A800038AFA378022B7FF434AF0A4401233146D8
:102A90006078FEF7ADFF2CE72DE9F04F834683B059
:102AA0008A46D0F80080002940F0B380D8F80C7036
:102AB0000FB3D8F814309F4228BF0127D8F8103040
:102AC000F3B1D8F814303C46CDF804A001349C4250
:102AD0001BD3012F14D9DBF8005002246B69A342E9
:102AE00017D92E78022E19D0032E42D0012E73D082
:102AF00001231C460EE0D8F810300127002BE0D14E
:102B00000024204603B0BDE8F08F012CDBF8005014
:102B1000E4D80124204603B0BDE8F08F2E6AEA6AAB
:102B200006EBD426964200F02881EB7805F13009B7
:102B3000002B40F0E2800123324649466878FEF7D8
:102B400039FF002841D1EE6240F6FE7303EA4403E8
:102B500009EB030219F80330527843EA0223002BF1
:102B600000F06881012BC4D0A742C9D0D8F8143036
:102B7000ACE72E6AEA6A06EB9426964200F00081E2
:102B8000EB7805F13009BBB1012368784946FEF7BF
:102B90002FFF002840F0EB80E96A2B6AAA69CB1A64
:102BA000E870934208D2AB78022B05D10A44012386
:102BB00049466878FEF71CFF01233246494668788B
:102BC000FEF7F8FE002800F086804FF0FF34204624
:102BD000EC6203B0BDE8F08F04EB540A2B6AEA6A9A
:102BE00003EB1A39914500F0D280EB78002B40F0CE
:102BF0009E8005F130030093009901234A466878CE
:102C0000FEF7D8FE002800F0BE804FF0FF33EB62E5
:102C10006FE74046FFF730FE012804467FF679AFA4
:102C2000013000F0A480D8F814309C42FFF472AF59
:102C3000D8F81020002A3FF463AF0AF10104DBF852
:102C40000000A34298BF02242146FFF715FE012889
:102C500000F0C580411C00F0C280002840F0C18017
:102C6000002C00F0E380012C7FF653AFD8F814302D
:102C7000A3427FF64EAF4FF0FF3221464046FFF7AA
:102C800061FB80B9BAF1000F0DD0BAF1010F7FF6E8
:102C900040AFD8F814309A45BFF43BAF51462246B6
:102CA0004046FFF74FFB00285ED1D8F81430D8F823
:102CB0001020023BC8F80C409A4202D8013AC8F8EA
:102CC000102098F80430204643F0010388F80430BF
:102CD00003B0BDE8F08FEE6240F6FC7303EA8403B4
:102CE00009EB030119F8033048884A7842EA0022C8
:102CF00043EA022323F0704331E701236878494611
:102D0000FEF776FE002832D1E96A2B6AAA69CB1A4F
:102D1000E8709342BFF40FAFAB78022B7FF40BAF98
:102D20000A44012349466878FEF762FE03E705F18D
:102D300030036878194600933346FEF759FE0028A1
:102D400059D1E96A2B6AAA69CB1AE8709342BFF499
:102D500053AFAB78022B7FF44FAF0A443346009950
:102D60006878FEF745FE47E701287FF4D2AE4FF0C2
:102D7000FF34204603B0BDE8F08F05F13009E3E6EB
:102D800005F13009A8E74A462B6AC5F82C90CAF32A
:102D90000B010AF1010A294403EB1A3691F830308D
:102DA000964200930DD0EB7805F1300933BB4946CC
:102DB000012332466878FEF7FDFD00287FF405AF59
:102DC000EE62CAF30B0A009A554495F8303042EA95
:102DD0000323E2074CBF1B09C3F30B03BFE6044602
:102DE00098E6D8F80C70D8F81430012F20D99F42FB
:102DF00028BF574667E64FF0FF337AE6012368782D
:102E00004946FEF7F5FD0028B1D1E96A2B6AAA69A7
:102E1000CB1AE8709342CAD2AB78022BC7D10A44CE
:102E2000012349466878FEF7E3FDC0E7D8F814307F
:102E3000574648E6DDF804A018E700BF2DE9F04F3B
:102E40000023846883B007460361D0F800808CB902
:102E500098F80030022B08D8B8F80830002B40F062
:102E6000B280022003B0BDE8F08FD8F82430002BE8
:102E7000F2D01C46B8F80A30002B40F000814546DD
:102E800040F6FC7B012CECD96B69A342E9D92B7885
:102E9000022B46D0032B6ED0012BE2D104EB540A57
:102EA000296AEA6A01EB1A36964210D0E97805F1F0
:102EB0003009002940F0AA8049460123324668784B
:102EC000FEF778FD002877D13246296AEE62CAF310
:102ED0000B030AF101062B4401EB163993F830304D
:102EE000914501930FD0EB7805F1300A002B40F0AB
:102EF000D480514601234A466878FEF75BFD0028DE
:102F00005AD1C5F82C90C6F30B06019A354495F8B2
:102F1000303042EA0323E2074CBF1C09C3F30B0421
:102F20001FE02E6AEA6A06EBD426964200F0A480DF
:102F3000EB7805F13009002B6FD101233246494669
:102F40006878FEF737FD002836D1EE6240F6FE7352
:102F500003EA440409EB040319F804405B7844EAEB
:102F60000324012C7FF67DAFD8F81430A3427FF6FE
:102F700078AF3D6886E72E6AEA6A06EB94269642A9
:102F800077D0EB7805F130094BBB01233246494637
:102F90006878FEF70FFD78B9EE620BEA840409EB5E
:102FA000040219F804405188537843EA012344EAA3
:102FB000032424F07044D4E74FF0FF330120EB6288
:102FC00003B0BDE8F08FD8F82430BB617C61002BE2
:102FD0003FF447AF08F130030020FB6142E70123D3
:102FE00068784946FEF704FDA8B9E96A2B6AAA6920
:102FF000CB1AE8709342C8D2AB78022BC5D10A44F1
:10300000012349466878FEF7F3FCBEE76878494635
:10301000FEF7EEFCD0B1012024E701236878494691
:10302000FEF7E6FC0028F6D1E96A2B6AAA69CB1AFA
:10303000E870934281D2AB78022B7FF47EAF0A44D2
:10304000012349466878FEF7D3FC76E7E96A2B6AE4
:10305000AA69CB1AE8709342BFF42EAFAB78022B6B
:103060007FF42AAF0A44012349466878FEF7C0FC82
:1030700022E705F1300990E705F1300966E7D8F855
:103080001420A11E023A914205D2D8F8282001FB53
:103090000323BB619AE70023FBE7012368785146CD
:1030A000FEF7A6FC0028B6D1E96A2B6AAA69CB1AFA
:1030B000E8709342BFF41DAFAB78022B7FF419AFD9
:1030C0000A44012351466878FEF792FC11E700BFDD
:1030D0002DE9F04F89B004460668FFF7AFFE83463E
:1030E000002840F09380D4F818A006F13009F26A65
:1030F000DFF8DC825746BA4213D0F378002B61D157
:1031000001233A4649467078FEF754FC40B14FF02F
:10311000FF33F3624FF0010B584609B0BDE8F08F62
:10312000F762E0690378E52B03D0B3FA83F35B0918
:1031300033B3A569BA46BD420ED0F37806F1300725
:10314000002B7AD1394601232A467078FEF732FCEB
:1031500000286CD1E069F5622022002112F0C2FD46
:1031600004F12003E269012403CB1060584651604A
:1031700019889B7811819372F47009B0BDE8F08FC3
:10318000256905F120024245019206D9A3614FF05D
:10319000070B584609B0BDE8F08FA369002BF6D0A5
:1031A000C2F30B0A226811460292BAF1000F21D035
:1031B00030313A461F460B46039153440199E3616F
:1031C000216198E7012349467078FEF711FC002839
:1031D000A0D1F16A336AB269CB1AF07093428FD2F0
:1031E000B378022B8CD10A44012349467078FEF74C
:1031F000FFFB85E701336169A36151B9029A019828
:103200001289B2EB501F34D8A161C0E70428BED0A8
:1032100082E70298019D4289013A12EA15322FD0C5
:1032200001463A461F46303103910B46C5E74FF041
:10323000FF334FF0010BF3626EE7524601237078C3
:103240003946FEF7D5FB00287FF464AFF16A336A94
:10325000B269CB1AF0709342BFF474AFB378022B0B
:103260007FF470AF0A44012339467078FEF7C0FB43
:1032700068E702993A461F46303103910B469CE7B6
:10328000FFF7FAFA0128049053D9421C3FF442AFE9
:1032900001460298436999424ED361692046FFF77F
:1032A000FBFB049000283FF472AF012841D0431C7F
:1032B0003FF430AF029BDB78002B63D1029B3033AD
:1032C0000393029A049953690239023B059199428A
:1032D00049D253891146059F4FF4805207938B6A58
:1032E000002103981D46079B07FB0357029B069787
:1032F0001F46069BFB6212F0F5FC079B002B60D07B
:103300000027029D03E001376B899F420AD2069A8B
:10331000012303993A446878FEF76AFB0028F2D04B
:10332000029B5B89BB427FF4F5AE029B049A5B690A
:1033300008E04FF0020BEFE68A1E0592024630329B
:1033400003920A46023B6261059A934209D9029AA6
:103350005389976A059A02FB0377F26A039BA76178
:103360002BE70027F9E70023114657894FF48052D5
:10337000CB6219460398069312F0B4FC069B1FB368
:103380000693BDE7029F3B46FA6A787830331946C8
:1033900003930123FEF72CFB00287FF4BBAEF96AF0
:1033A0003B6ABA69CB1A0297F870934289D2BB780C
:1033B000022B86D10A44012303997878FEF718FB83
:1033C0007FE7049B6361C2E7049B6361C5E700BFBD
:1033D000FFFF1F002DE9F04F85B00B780A46044629
:1033E00000915C2B0168019101D02F2B06D112F8BE
:1033F000013F2F2BFBD05C2BF9D000920023A36060
:10340000009B1B781F2B40F29B8004F120084FF09B
:10341000203300264FF0080ADFF88492C8F8043001
:10342000C8F80030009B5F1E4FF02033C8F807300B
:10343000334617F8015F03F1010B202D1ED92F2D04
:1034400035D05C2D33D02E2D22D0B24520D92A067E
:1034500028D42946484612F0D6FC98B9A5F1610354
:10346000192B01D8203DEDB208F806505B46013615
:1034700017F8015F03F1010B202DE0D8009B5B449E
:1034800000935EBB4FF0060B584605B0BDE8F08FC9
:10349000BAF10B0FF6D02E2DF4D108264FF00B0AFF
:1034A0005B46E5E705F07F057C4B5D5DD1E7009964
:1034B00011F80B208B445C2A02D02F2A40F0E580C3
:1034C0000233009A1A441346194613F8012B2F2A87
:1034D000FAD05C2AF8D00091002ED3D094F8203096
:1034E000E52B00F0CE80202D33D9009B1B78202BBC
:1034F0008CBF0023042384F82B3020462668FFF776
:103500009DFC8346002840F0AB80A76906F1300996
:10351000DFF890A1F26ABA421ED0F378002B6ED188
:1035200001233A4649467078FEF744FA98B14FF0C5
:10353000010B4FF0FF335846F36205B0BDE8F08F42
:103540008023204684F82B3005B0BDE8F04FFFF70C
:1035500075BC0423CFE7F762E069037853B3C57AFB
:1035600005F03F03A371C37A1B0705D40B22414624
:1035700012F09EFB002859D025692035554509D900
:10358000002394F82B20A361510700F184804FF0B1
:10359000050B79E7A7696FB1C5F30B0223684ABB36
:1035A00001376169A76141B91989B1EB551F21D86C
:1035B0000023A36194F82B20E6E75889013810EA2C
:1035C000153017D1184603920293FFF755F90128D9
:1035D00052D9471C41D0029B59698842E8D202392E
:1035E000871E60618F42039A49D25889996A07FB06
:1035F0000017A761303325611344E3618AE7012393
:1036000049467078FEF7F4F938BBF16A336AB2695B
:10361000CB1AF070934283D2B378022B80D10A4444
:10362000012349467078FEF7E3F979E794F82B30E7
:103630005B073FF529AFEA06A9D5019922690B4638
:103640000978C2F30B02303303291344D87E9A7EE3
:1036500042EA002209D0A260D9E64FF0010B13E73D
:10366000042894F82B208FD00EE7597D1B7D43EA68
:10367000012342EA0342EEE74FF0020B04E717464C
:10368000B7E7052384F820302DE7CDF800B0002EF1
:103690003FF4F8AE22E74FF0040BF5E634A501083D
:1036A00004A60108FFFF1F0010B582B00190009131
:1036B00011B30C4601E03A2B03D014F8013B202B48
:1036C000F9D83A2B14D00F4B196809B100200870B3
:1036D000019909B100200870196012B9104602B0B2
:1036E00010BD002201A96846FEF7FAFB02B010BD2A
:1036F00011F8023B8C4202D00B2002B010BD302BDF
:10370000E1D0F9E7D80600202DE9F0478EB001910D
:1037100080B102F03F070446154602A901A83A46C7
:10372000FEF7DEFB064650B10023236030460EB0A4
:10373000BDE8F087092630460EB0BDE8F087029B51
:1037400003A801990393FFF745FE80B99DF937302F
:10375000002BC0F2868015F01C0F67D09DF8123048
:1037600013F0110F6AD16D070DD50826DCE715F0AF
:103770001C0F59D0042857D103A847F00807FFF7BA
:10378000A7FC002850D1380770D4DDF80890D9F88C
:103790002C200A9B2262636299F80020D97E9D7ECC
:1037A000032A45EA012555D0A5604FF0000ED88BBD
:1037B00004F1280A5A7F714693F81C8042EA0023DC
:1037C000B9F806205046C4F8009048EA0328A280C1
:1037D00027744FF48052C4F80C8084F811E0C4F8C8
:1037E0001CE0C4F814E012F07DFAB9069ED5B8F1D9
:1037F000000F9BD0B9F80A70C4F814803F03474506
:1038000079D229464846FFF737F801280546A8EB44
:10381000070815D9421C00F08E80474580F08B8048
:10382000D4F80090EDE7062006467DE79DF81230BB
:10383000D90654D4AA0706D5DB0704D5072673E7B3
:10384000A061022670E72807DDF808909FD547F0B1
:1038500040079CE7597D1A7D42EA012245EA02456C
:10386000A2E715F01C0FDED106265DE70A9A344B5D
:10387000DDF80890C2F80E300A9AC2F816300A9B9A
:1038800099F80020D97E9D7E032A45EA01252BD098
:1038900020210022D9720A9B9A76DA7699F80010D4
:1038A00003291ED00A9900220123CA6189F8033036
:1038B000002DCCD003A82946D9F82C80FEF790FE25
:1038C0000028B1D141460298FEF762FA013DDDF8C9
:1038D0000890C9F80C500028B9D0064624E7042601
:1038E00022E71A755A75DDE7597D1A7D42EA0122F1
:1038F00045EA0245CCE7A561C8F30B03002B3FF472
:1039000015AF0298023D4369023B9D4211D24389A3
:10391000826A05FB032262B102EB18325146012391
:10392000E2614078FEF746F800283FF4FFAE01263A
:10393000FAE60226F8E66B1CA561DDD1F7E700BFC9
:10394000000021502DE9F04F002483B01C6018B115
:1039500004680CB125782DB94FF00908404603B032
:10396000BDE8F08F8688E588AE42F5D105466078DF
:10397000894616469A46FEF715F8C107ECD495F825
:103980001180B8F1000FE9D12B7CDA0705D44FF094
:103990000708404603B0BDE8F08F6B69EF68FF1A77
:1039A000B74228BF3746002FD8D02A46CDF800802E
:1039B00052F828BB90463AE0BBF80A20013A12EAD6
:1039C000133243D1002B5CD1A86801287CD9431C59
:1039D00052D0A861DBF814300238023B984273D20F
:1039E000BBF80A30DBF8286000FB0366002E6BD0C2
:1039F0003C0B16442CD011199BF801009942494602
:103A000088BF9C1A32462346FDF7D4FFA0BB95F928
:103A10001030002B49DB2403DAF800203F1B6B69D0
:103A2000A14422442344CAF800206B6149D0C3F367
:103A30000B010029C0D0C1F5805448464144BC4226
:103A400028BF3C46224612F042F9E5E7A869C1E7E3
:103A5000EA6996420BD095F91030002B18DB012350
:103A6000324641469BF80100FDF7A4FF20B9696981
:103A7000EE61C1F30B01DEE74FF0010885F811801C
:103A80006CE7A96928680192FEF7F6FE019A9CE7A7
:103A9000012341469BF80100FDF7AAFF0028EBD166
:103AA0002B7C03F07F032B74D9E7E869801B8442E9
:103AB000B1D909EB00304FF48052414612F007F9BA
:103AC000A9E7DDF8008049E74FF0020885F811808A
:103AD00044E700BF2DE9F04F9946002383B0C9F8B1
:103AE000003028B10368044613B116461A7822B98B
:103AF0000927384603B0BDE8F08F8088DA88904205
:103B0000F6D158780091FDF74DFF10F0010F0099A4
:103B1000EED1677C002FECD1227C900704D40727DC
:103B2000384603B0BDE8F08F6369F34228BFDE4337
:103B3000002E00F081802246884652F828BB8DE88E
:103B400084004FE0BBF80AA00AF1FF3A1AEA133AE0
:103B50000DD1002B68D1A06800287FD0012800F08B
:103B60009980431C5DD0A368A06103B9A06094F95B
:103B70001030002B64DBA769DBF81430023F023BF6
:103B80009F4280F08780BBF80A30DBF8281007FBE3
:103B90000317002F7ED0350B574437D00AEB0502B0
:103BA00041469BF801009A423A4688BFA3EB0A05BA
:103BB0002B46FDF71DFF002833D1E169C91B8D425B
:103BC0005CD82D036369A844E2682B44D9F800103F
:103BD0009A42294438BF1A46761BC9F80010E260A1
:103BE000636127D0C3F30B000028ABD0C0F580552C
:103BF000009B4146B542184428BF35462A4612F07C
:103C000066F8237C63F07F032374DBE7E369606974
:103C10009F4202D0E368984225D3C0F30B00E761CE
:103C2000E4E70127677464E7A1692046FEF734FFE3
:103C3000002893D1019F227C42F04002227458E771
:103C40000123E26900999BF80100FDF7D1FE0028ED
:103C5000E7D1237C03F07F0323748CE75146204691
:103C6000FEF71AFFE4E701233A4600999BF80100AA
:103C7000FDF7A0FE0028D4D16069CEE708EB013142
:103C80004FF48052009812F022F8237C03F07F0357
:103C9000237496E7022767742BE700BF30B1F8B5AD
:103CA00003680BB11A781AB90920F8BD09207047CA
:103CB0008188DA889142F7D104465878FDF772FE80
:103CC000C007F1D4237C25685A0645D5190654D47B
:103CD000266AEA6A964211D0EB7805F13007002B8C
:103CE00058D13946012332466878FDF763FE20B18A
:103CF0004FF0FF330120EB62F8BDEE62636ADA7ABF
:103D000042F02002DA72A2682168C2F307209A7694
:103D1000D8760978032956D0E26800212C4F08464E
:103D2000160A62F30701C3F81670170C987466F34D
:103D30000F21120E0126D87467F31741284662F34B
:103D40001F61D961EE70FEF757F8237C23F0400322
:103D500023740028D0D12568002DA5D02B78002B06
:103D6000A2D0A288EB889A429ED16878FDF71AFE0D
:103D700010F0010098D12060F8BD0123E26904F140
:103D800028016878FDF734FED8B9237C03F07F035F
:103D900023749DE7012368783946FDF729FE80B931
:103DA000E96A2B6AAA69CB1AE870934299D2AB7878
:103DB000022B96D10A44012339466878FDF718FE94
:103DC0008FE70120F8BD120C110A1A755975A3E787
:103DD00000002150002800F0AA8202462DE9F04F91
:103DE000054699B001E03A2B03D012F8013B202B95
:103DF000F9D83A2B1BD0C24B1C6804B3237863B9A3
:103E00000023237018466370FDF7CEFDC60740F10E
:103E10000E81032019B0BDE8F08F6078FDF7C2FD78
:103E2000C307EDD4470740F1C2800A20F2E7AB1C7C
:103E30009A4200F092810B2019B0BDE8F08F0C205F
:103E400019B0BDE8F08FE762B9F1000F00F01482FD
:103E50004FF0FF370023B945E370E7620AD0012332
:103E60004A4631466078FDF7A5FD002840F0038200
:103E7000C4F82C902046FDF70DFF012800F2FC81CC
:103E800094F83C2094F83B3043EA0223B3F5805F7A
:103E900040F0EA8094F8473094F8462052EA032232
:103EA00009D1B4F8561094F8553094F8542043EAE8
:103EB000012342EA032294F84070A2617B1EA7709E
:103EC000E16A012B00F2D08094F83DC002FB07F7B5
:103ED0001FFA8CF36381002B00F0C6800CF1FF33D6
:103EE00013EA0C0F40F0C08094F8423094F841601F
:103EF00046EA03267006268140F0B68094F8440016
:103F000094F8433053EA002309D1B4F852E094F80E
:103F1000510094F8503040EA0E2043EA002394F810
:103F20003FE094F83E0050EA0E2000F09D8000EB48
:103F3000D61EBE449E4500F29780A3EB0E03DFF829
:103F4000C881B3FBFCF303F1FF3CC44500F28C8055
:103F50004FF6F57C634500F2008240F6F57C634540
:103F600000F2EB81023308448E44E1616361206218
:103F7000C4F828E0002E77D003EB430603F00103DA
:103F80003844012103EB5603606203F6FF73B2EB82
:103F9000133F69D34FF0FF3380222361E360227126
:103FA000584A2170138801339BB21380E38018AE06
:103FB000294646F8584D3046FFF70CFA00287FF4A2
:103FC00029AF9DF93330002B50DB9DF80E30D90717
:103FD00001D507201EE7099A2178D07E957E032916
:103FE00045EA002500F0B280DA0648D4029FDDF8E9
:103FF0002080FA6A90450ED0FB7807F13009002B3B
:1040000040F0D3804946012342467878FDF7D2FC40
:1040100070BBC7F82C80099AE52101231170FB7051
:10402000002D40F0A0802046FDF7E6FEF2E610F0FD
:1040300004027FF4FAAE4FF0FF3704F13006E2706D
:104040000123E76231466078FDF7B4FCA8B9E0626D
:1040500001902046FDF71EFE022800F0C7800428CC
:1040600009D001287FF60CAF0D20D3E60620D1E65B
:104070004FF0FF33FB620120CCE6E762FBE70DA8BF
:104080000D940F95FEF7DAFE00287FF4C3AEDDF83D
:104090004CB00D9FBBF1000F2FD007F13008DFF8B7
:1040A0006C90FA6A5A4510D0FB78002B64D101233A
:1040B0005A4641467878FDF77DFC20B14FF0FF333A
:1040C0000120FB62A6E6C7F82CB0149B1A78A2B1B7
:1040D000DB7AE52A18BF2E2A03F03F038DF83A3029
:1040E00006D00F2B04D023F02003082B7FF471AFF0
:1040F000119B03F1200ACA450AD90023139375E7DF
:10410000D8060020DC060020F4FFFF0FFFFF1F0091
:10411000DDF84CB0BBF1000FEFD0CAF30B020D9BE2
:10412000002A5DD10BF1010B1299CDF84CB000299A
:1041300040F0DB801A89B2EB5A1FDED93033CDF85C
:1041400044A01493BBF1000FABD142E7517D127D27
:1041500042EA012245EA024546E72B78302B7FF4FC
:104160006AAE154647E6294630460022FEF738FA81
:1041700000287FF44FAE56E7012341467878FDF7DB
:1041800037FC00287FF477AFF96A3B6ABA69CB1A2B
:10419000F87093428BD2BB78022B88D10A4401235A
:1041A00041467878FDF724FC81E701237878494679
:1041B000FDF71EFC00287FF45EAFF96A3B6ABA691E
:1041C000CB1AF8709342BFF41DAFBB78022B7FF47B
:1041D00019AF0A44012349467878FDF709FC11E735
:1041E0003033CDF844A0134414935AE7B4F8F8A13F
:1041F00094F8F721B4F80892B4F8188242EA0A2237
:10420000B4F828B294F807E294F8170294F8271249
:104210004EEA092E94F8F6A140EA082041EA0B2163
:1042200094F8069294F816825AEA022A94F826B272
:1042300049EA0E29019B48EA00284BEA012B3FF48A
:1042400003AEBAF1FF3FE370E7620AD001235246A2
:1042500031466078FDF7AEFB00287FF4F4ADC4F87A
:104260002CA02046FDF716FD01287FF609AEB9F116
:10427000000F01D0ECE5E762B8F1000F1FD1BBF1F0
:10428000000F3FF4F1AE4FF0FF370023BB45E37062
:10429000E7620AD0314601235A466078FDF78AFB6F
:1042A00000287FF4EAAEC4F82CB02046FDF7F2FCFB
:1042B00001287FF6E5AD04287FF4D6AEDBE64FF0AB
:1042C000FF370023B845E370E76208D00123424678
:1042D00031466078FDF76EFB58BBC4F82C80204651
:1042E000FDF7D8FC0128CAD8CAE55A89013A12EA72
:1042F0001A327FF423AF18460193FEF7BDFA012866
:1043000019D9431C3FF4B7AE019B5A699042BFF4E0
:10431000F4AE023A811E12909142BFF45AAEB3F845
:104320000AB09A6A01FB0B2BCDF84CB006E70B20C4
:104330007047E762A3E702206CE5023308448E442D
:10434000E16163612062C4F828E0002E3FF48CAE86
:1043500038445B000221606217E6084494F85B7001
:1043600002338E44206294F85A00636150EA0720B9
:10437000C4F828E0E1617FF477AE002E7FF474AEDC
:10438000B4F85E709B0094F85D6094F85C0003F6EE
:10439000FF7346EA0726B2EB133F40EA062060624D
:1043A000FFF462AE94F861604FF0FF3294F8603031
:1043B0008020226143EA0623E2602071012B01D0B4
:1043C0000321EDE501312046FDF7E2FC0028F7D19D
:1043D00094F82F124AF6552294F82E32207143EAAF
:1043E00001239342ECD1618E94F8312094F830305F
:1043F00042EA0122144943EA02238B42E0D1B4F895
:10440000161294F8152294F8143242EA01220F4948
:1044100043EA02238B42D3D194F81922032194F862
:104420001D32B4F81A62B4F81E0242EA062694F865
:10443000182243EA002094F81C3242EA062243EA9A
:1044400000232261E360ABE5525261417272416127
:10445000002800F0A7802DE9F04F144697B0884659
:104460001E46024601E03A2B03D012F8013B202BF6
:10447000F9D83A2B11D0A04B1B680BB100221A704F
:104480009E4B0020804508BF9846FDF78DFAC30774
:104490000AD5032017B0BDE8F08F831C9A427AD06A
:1044A0000B2017B0BDE8F08F10F0040503D00A20F0
:1044B00017B0BDE8F08FD8F804301193002B59D015
:1044C0005A1EB2F5004F52D30123119398F80130D0
:1044D0005A1E012A57D94FF0010A5346D8F808202E
:1044E000511EB1F5004F52D212F07F0F18BF4FF49A
:1044F00000720692D8F80C70B7F1807F45D87A1E0A
:104500003A4242D13F0B0193330B0793002C47D023
:10451000B3FA83F25209002A42D10DF1580E104627
:10452000012198F800904EF8102D7246FDF780FAA0
:10453000002845D119F008030F93019B42D0202297
:10454000DDF8488005900D9201220992B8F17F0FA5
:1045500034D9802F3A4628BF802219F002010B91EE
:1045600040F01F8119F0010F3AD1132092E71A424F
:10457000AAD1ABE711AA03212846FDF759FA002872
:10458000A2D1119B9CE79A46A8E70027BBE74FF40E
:1045900000720692AEE70378302B3FF46CAF7FE7F2
:1045A000112077E70B20704740F6F571884200F242
:1045B000C1821AB97F00802F40F28B800E2069E7FC
:1045C000012067E7129A3F2AF8D9A2F13F085F223B
:1045D0000D924022CDF8488009923F220592B5E71E
:1045E0001199DFF81C91484201F1FF3CC1440A9047
:1045F000002A6FD15FEA183100F08C83032940F262
:1046000083830F2940F27C833F2940F27583FF2981
:1046100040F26D83B1F5007F35BF4FF400714FF468
:10462000806120274027049157E00230022140009A
:104630000191069900F6FF70DDF824B0C1F3D311A3
:1046400008910121029102210E91010B0391089919
:1046500001EB0B0003990AFB01000A990C906044DE
:1046600008400C99401A0199032900F09580B0FB8D
:10467000FAFE0AFB1E0131B101380E990BF1010B54
:104680000291B0FBFAFE03997144039104980599D5
:10469000411A0C980144884590D302990398A8EBDD
:1046A00001010AFB10110898091AB1FBF7F10491F6
:1046B0000199032963D0022940F034824FF6F57145
:1046C000049888427FF670AFE2B97F00402F00F275
:1046D00009833A4611011746049140F6F57EB8FB6E
:1046E000F7F07045A1D8012100EB4000084401918A
:1046F000C84003309DE700BFD8060020C0A50108D0
:10470000000021500B9900293FF458AF002A41D1F5
:104710005FEA584100F0FC82012900F0058303297B
:1047200040F20083072940F2FB820F2940F2F68213
:10473000202934BF2027402741F207001D49B8FB3C
:10474000F7FE4FEA8E0C7144DFF86CE0604471456F
:104750004FEA103003903FF631AF39011198DDF880
:1047600034B00491212100F1FF3C0E9141420A91A5
:1047700000210891202102910321019167E74FF662
:10478000F571049888421BD8002A7FF417AF7A0885
:104790003FF414AF1746CFE70299834401440291D6
:1047A00074E719F0010F7FF41BAFDFF81090C144DC
:1047B000ACE700BF0A00FFFFFFFFFE0F0000215023
:1047C0004FF4805200212046069311F08BFA029B91
:1047D00000211020C3F3072C9DF80830CB4A8E46E9
:1047E000A373069B677384F80FC02374E172207370
:1047F000B8F5803F657484F812E003CA1388927894
:10480000206061602381A27280F04182C8F3072397
:1048100084F813802375BE4B4FF0000CF8229DF8EE
:104820001410A361019B2177032B627584F81DC0CE
:1048300084F81EC084F81FC000F0A3814FEA19233A
:1048400003998022B34D84F828304FEA194384F845
:1048500027904FEA196984F82930C1F30723A1751D
:104860004FF05508E375292384F8242084F8263076
:1048700084F82A904FF0AA0984F8FE8184F8FF9109
:104880000FCDC4F82B006046B5F800C0AD78C4F871
:104890002F102146C4F83320C4F837300123059A7D
:1048A000A4F83BC084F83D50FDF7A2F800287FF43F
:1048B00087AE994A002120464FF0FF0932408846D2
:1048C00011F010FA019B012B14BF4B464346029393
:1048D000019B032B00F04B816FF0070384F80190DC
:1048E00084F8029023709DF80830E370039D079BC5
:1048F0005A4621460020AB4228BF2B461E469B4409
:10490000FDF776F84FF48052014600287FF458AE48
:10491000204611F0E7F9AD1BE9D108F10108D045B7
:10492000D6D1089B019A032A08BF3B461E46079B27
:104930005A4621460020B34228BF33461D469B44B9
:10494000FDF756F800287FF43BAE761BEFD1019AB5
:10495000032A00F0C481129BB3F5803F80F0BC8134
:10496000022A134614BF0123042301930F9D002D37
:1049700040F0C380129B284613AA01211595149379
:10498000FDF756F800287FF41BAE139E4FF63E430A
:10499000B3EBD60F80F09D81B3EB161F80F09681AC
:1049A000B3EB561F80F08F81B3EB961F80F08881A8
:1049B000B3EBD61F34BF4FF0FF0A4FF0800A4FF41D
:1049C00080520021204611F08DF93F2E04F5DF734F
:1049D00040F284800020514A14A903940290A2FB63
:1049E000060204913F2152090592049850F8042BC5
:1049F000642A049000F25B8100F05881059800FB66
:104A000002F2571880F05981BE42C0F05681002A48
:104A100063D043487D1E19721033A0FB010E02982B
:104A200003F8042C0130A1EB0E0802900EEB580E97
:104A30003B484FEA5E1EA0FB05409DF80440A5EBF5
:104A4000000C03F80C4C00EB5C00CEEB8E1C400914
:104A5000A1EB0C0CC0EB80180CF1010CA5EB0805C8
:104A6000B0FBFAF9BEFBFAF84FEA990B0AFB18E41F
:104A70004FEA980E01352BF03F0B0AFB19002EF080
:104A80003F0E03F8099C45EA0B0503F80B0C4CEAB2
:104A90000E0E080C03F80A5C0D0A03F80EEC4FEA40
:104AA000116E394603F8075C170A03F80D8C150CD4
:104AB000002918BF8E424FEA126203F80F4C03F828
:104AC000060C03F805EC03F8037C03F8025C03F81A
:104AD000012C02D90298032887D9039C5523AA20C8
:104AE0000022214684F8FE31012384F8FF0110469C
:104AF000FCF77EFF00287FF463AD002211461046CC
:104B0000FCF796FF003018BF0120C3E4F8A50108A8
:104B10003F00FF00E4A5010800F0FFFF1F85EB51F7
:104B20000541100440F6F572049991423FF646ADF6
:104B3000012201924FF48052002120460A939DF8F1
:104B4000185011F0CFF8029B00201021774AC3F3D0
:104B5000072C9DF808306773A373069B84F80FC079
:104B6000C3F3072E0A9BE0722374217340E64FF0D3
:104B7000FF326FF070436FF0070162602160A36045
:104B8000B4E64FEA1923039A2925DFF8B08184F8A7
:104B900044304FEA1943114684F8242084F8453004
:104BA000130A84F84250120C84F825300B0E04F1DD
:104BB000470584F8439084F82730802384F8262022
:104BC0004FEA196984F840300295594D84F84690AF
:104BD0004FF002092563029DC4F82C90B8E80F003D
:104BE000C4F847006046B8F800E098F802C04FF0FB
:104BF000AA0869602146AA60EB600123A5F810E0CD
:104C000085F812C04FF05505059A84F8FE5184F8D6
:104C1000FF81FCF7EDFE054600287FF4D1AC059A34
:104C2000012321460632FCF7E3FE29464FF4805269
:104C3000204611F057F8049BAE46C4F8EC91591E7B
:104C40003C483D4B4FF055090A0A61F3070E4FEA05
:104C5000114C206062F30F2E090E059A28466CF362
:104C6000174EC4F8E43184F8FE91073261F31F6EE9
:104C700084F8FF8121460123C4F8E8E1FCF7B8FE7F
:104C8000099A284601232146FCF7B2FE11E64FEAB5
:104C9000182284F820804FEA18434FEA186884F8F5
:104CA000212084F8223084F82380B4E53246571856
:104CB000BE4202D38F42BFF4ACAE721A3746A8E6AA
:104CC0004FF0400A7BE64FF0200A78E64FF0100ADA
:104CD00075E64FF0080A72E60623019346E60C23B8
:104CE000019343E60B9900297FF412AD63E44FF47E
:104CF000807110270491F0E4802108270491ECE4EE
:104D0000402104270491E8E4202102270491E4E4EF
:104D1000012711E5102101270491DEE410270BE59E
:104D2000082709E5042707E5022705E5F8A5010896
:104D3000010006005252614172724161D0A5010822
:104D4000F8B504460E46294817466168284B0840C6
:104D500003433343636001F0CFF9054607E0A369DD
:104D6000DB0640D401F0C8F9401B0A283BD8A369F0
:104D70009A07F4D5A76201F0BFF9054607E0A369D9
:104D8000D80630D401F0B8F9401B0A282BD8A36903
:104D90005F06F4D56168154A164B0A4013431E435B
:104DA000666001F0A9F9054607E0A369DA061AD49E
:104DB00001F0A2F9401B0A2815D8A3695907F4D5B8
:104DC000656A01F099F9064604E001F095F9801B47
:104DD0000A2808D8A3699B06F7D5E369E8B243F02F
:104DE0002003E361F8BDFF20F8BD00BF0080007C18
:104DF0000020018000240182864B40228648196BE6
:104E000092FAA2F241F0040130B4196382B01B6B34
:104E100003F004030193019B0368002A00F0F7806C
:104E2000B2FA82F20321520001FA02F2D2431A408E
:104E3000402393FAA3F32BB1B3FA83F302215B006F
:104E400001FA03F31343744980220B6092FAA2F231
:104E50000B68002A00F0D880B2FA82F203215200D7
:104E600001FA02F2D2431A40802393FAA3F32BB142
:104E7000B3FA83F302215B0001FA03F31A43664994
:104E800040230A6093FAA3F38A68002B00F0B980EC
:104E9000B3FA83F303215B0001FA03F3DB431A4007
:104EA0005D4980238A6093FAA3F38A68002B00F09F
:104EB000A580B3FA83F303215B0001FA03F3DB431C
:104EC0005549134040228B604B6892FAA2F223F0BE
:104ED000C0034B60CB68002A00F08D80B2FA82F2EA
:104EE0000321520001FA02F2D2431A40402393FAFE
:104EF000A3F32BB10121B3FA83F38B4001FA03F33F
:104F0000134345498022CB6092FAA2F2CB68002A73
:104F10006ED0B2FA82F20321520001FA02F2D243B9
:104F20001A40802393FAA3F32BB10121B3FA83F340
:104F30008B4001FA03F3134337494022CB6092FAC6
:104F4000A2F20B6A002A50D0B2FA82F20F2192002C
:104F500001FA02F2D2431A40402393FAA3F32BB191
:104F6000B3FA83F303219B0001FA03F313432A49A5
:104F700080220B6292FAA2F20B6A002A32D0B2FAB5
:104F800082F20F21920001FA02F2D2431A408023EA
:104F900093FAA3F32BB1B3FA83F303219B0001FA35
:104FA00003F313431C491B4A02240B620120516C7A
:104FB00040F20115194B21435164526C224000927A
:104FC000009A1A6A22F011021A629D611C629860AE
:104FD0001A6A42F011021A621A6802431A6002B099
:104FE00030BC70474FF0FF32D0E74FF0FF32B2E7EE
:104FF0004FF0FF3294E74FF0FF3276E74FF0FF3388
:105000005EE74FF0FF334AE74FF0FF322BE74FF0F8
:10501000FF320CE700380240000802400004014063
:10502000F0B585B0FFF7E8FE384B1B78013BDBB2EB
:10503000052B69D8364A52F82360013E354B4FF4B0
:10504000001435494FF0000E586C42F20F75334A88
:1050500040F2F31740F001005864586C00F0010072
:1050600003900398086820F0010008604C60402419
:10507000C1F828E0CE620E68294846F001060E60AD
:10508000196C41F004011964196C01F004010291DA
:105090000299116821F0010111609562D762D1680F
:1050A00041F00101D160116841F00101116080F807
:1050B0001E434FF080420260196C40F6C31641F067
:1050C000020119641B6C03F002030193019BD2F8E7
:1050D000003423F00103C2F80034C2F82854C2F8A7
:1050E0002C64D2F80C3443F00103C2F80C34D2F82B
:1050F000003443F00103C2F8003480F81D434FF040
:105100000053036005B0F0BD2C2697E70D0000208A
:10511000FCA60108003802400000014000080040E1
:1051200000E100E00138C0B2052830B482B01FD8D9
:10513000104B53F8200001380F4A4FF400150F4B65
:105140000024516C41F001015164526C02F00102E3
:105150000192019A1A6822F001021A605D609C6255
:10516000D8621A6842F001021A6002B030BC70477F
:105170002C20E1E7FCA601080038024000000140B5
:105180003C493D4B086B1A4640F48000F0B508637B
:1051900085B0096B01F4800101910199196821F032
:1051A00001011960136813F00103FBD1334840F289
:1051B0009457DFF8E8E020248168314E41F03D014A
:1051C000304D8160C2F800E057609660D56011688C
:1051D0002D4841F00101116080F838434FF0807292
:1051E000426024490122294C086B92FAA2F240F055
:1051F00001000863096B01F0010103910399216823
:10520000002A34D0B2FA82F20320520000FA02F2ED
:10521000D2431140012292FAA2F222B1B2FA82F2F2
:105220000323520093400B43124A184900204FF0C9
:1052300000774FF480350B60516C154B41F4807151
:10524000144E154C5164526C02F480720292029A10
:105250009A6822F001029A605F609E60586318614C
:1052600065609A6842F001029A6005B0F0BD4FF0A7
:10527000FF32CEE700380240106402400064024072
:105280004C2001401C08002000E100E0000002402A
:10529000002001400003001A002301401005020015
:1052A0000D4B40F294500D4A996810B421F0010161
:1052B0000B4C99601460506011685DF8044B41F02C
:1052C000010111601A6822F020021A609A6842F007
:1052D00001029A60704700BF002001401064024044
:1052E000100502003E493F4B086B1A4640F480000F
:1052F000F0B5086385B0096B01F480010191019953
:10530000196821F001011960136813F00103FBD142
:10531000354840F29457DFF8F0E020248168334E9E
:1053200041F47461324D8160C2F800E057609660CC
:10533000D56011682F4841F00101116080F83943B0
:105340004FF00072426026494FF480622A4C086B8D
:1053500092FAA2F240F020000863096B01F02001EC
:10536000039103992168002A36D0B2FA82F2032011
:10537000520000FA02F2D24311404FF4806292FAD6
:10538000A2F222B1B2FA82F20323520093400B43FD
:10539000134A19494FF00076082500240B604FF49A
:1053A0008030516C154B41F48061154F5164526C43
:1053B000144902F480620292029A9A6822F0010271
:1053C0009A605E609F605D631C6148609A6842F00D
:1053D00001029A6005B0F0BD4FF0FF32CCE700BF8C
:1053E0000038024028640240006402404C22014020
:1053F000082E002000E100E00014024000220140DD
:105400000003001A002301401005020408B5FFF74D
:10541000B7FEBDE80840FFF765BF00BF0D4B40F287
:1054200094500D4A996810B421F001010B4C996019
:105430001460506011685DF8044B41F00101116087
:105440001A6822F020021A609A6842F001029A60FB
:10545000704700BF0022014028640240100502048A
:105460009F4B02229F48196B92FAA2F241F480717D
:1054700010B4196387B01B6B03F480730593059B0D
:105480000368002A00F02881B2FA82F20321520058
:1054900001FA02F2D2431A40022393FAA3F32BB18A
:1054A0000121B3FA83F38B4001FA03F31A438D49C8
:1054B00002230A6093FAA3F38A68002B00F00981A3
:1054C000B3FA83F303215B0001FA03F3DB431340D8
:1054D000844A83494FF4003493604FF4006350686A
:1054E00093FAA3F320F0020050609461086B40F43B
:1054F00080700863096B01F480710491049912684B
:10550000002B00F0E380B3FA83F303215B0001FA80
:1055100003F3DB43134073494FF400620B6092FACC
:10552000A2F28B68002A00F0CE80B2FA82F2032148
:10553000520001FA02F2D2431A404FF4006393FA88
:10554000A3F32BB1B3FA83F303215B0001FA03F356
:105550001A43634963484FF4704393FAA3F382609C
:10556000A0F568404A6C42F480424A644A6C02F4F6
:1055700080420392039A026922F4704223B1B3FA83
:1055800083F3082101FA03F313435749574A4FF4B1
:1055900000640B61E0201368554923431360D3680E
:1055A0002343D360546181F828034FF480734B6028
:1055B00002F57C424F484023116B93FAA3F341F06C
:1055C00040011163126B02F040020292029A0268DB
:1055D000002B75D0B3FA83F303215B0001FA03F3C8
:1055E000DB431340434940220B6092FAA2F28B68DE
:1055F000002A62D0B2FA82F20321520001FA02F2CA
:10560000D2431A40402393FAA3F32BB1B3FA83F3A6
:1056100003215B0001FA03F31343364940228B60F8
:1056200092FAA2F2CB68002A44D0B2FA82F20321A5
:10563000520001FA02F2D2431A40402393FAA3F334
:105640002BB10121B3FA83F38B4001FA03F31A4320
:10565000234928484FF4706393FAA3F3C260A0F57E
:1056600060404A6C42F480424A644A6C02F48042D0
:105670000192019AC26822F4706223B1B3FA83F3F3
:10568000062101FA03F313431749184A4024CB605B
:10569000E020136816492343136093682343936003
:1056A000546181F817034FF400030B6007B05DF8F5
:1056B000044B70474FF0FF32BEE74FF0FF32A0E7D8
:1056C0004FF0FF338DE74FF0FF3235E74FF0FF33F8
:1056D00020E74FF0FF33FAE64FF0FF32DBE600BF82
:1056E000003802400020024000380140003C0140E8
:1056F00000E100E0001802409B4A9C489C49134688
:10570000F0B5146887B024F080541460D2F8884053
:1057100020400143C2F88810D2F88C1021F44031A7
:1057200041F48031C2F88C10116841F08051116051
:105730001A689200FCD51C6B00268E484AF62A2C6B
:1057400044F010048C4A8D494FF4805E1C63082598
:105750001C6B8B4F04F010040594059C046824F422
:1057600040740460046844F400740460846824F4A1
:1057700040748460846844F400748460046A24F48F
:1057800070240462046A44F4602404621C6B7D4843
:1057900044F040041C631C6B04F040040494049C1B
:1057A000146824F040741460146844F000741460A9
:1057B000946824F040749460946844F00074946099
:1057C000546A24F470245462546A44F46024546289
:1057D0001A6B42F480721A631A6B02F4807203929D
:1057E000039A0C6804400C600C683C430C608A68A7
:1057F000654C02408A608868644A3843644F886018
:10580000486A044063484C624C6A22434A621A6BFD
:1058100042F400721A631A6B02F400720292029A46
:10582000046804F04074046004683C4304608468C5
:1058300004F0407484608268574C3A43574F82604A
:10584000026A066242F22026026A42F0EE320262E8
:10585000426A02F470224262426A1443504A44622D
:10586000186B40F4806018631C6B04F4806401942E
:10587000019814683C401460146844EA0C041460F5
:105880009068484C384090609768474847EA0C0752
:105890004FF47F0C9760176A07F470471762176A16
:1058A0003C43424F14620C6824F040740C600C6856
:1058B00044F080740C60146824F0C0041460146810
:1058C00044F040041460FF24C1F818E040F2054E93
:1058D000956102255A6C364942F080625A645B6CCD
:1058E000344A03F080630093009B334B86614FF48E
:1058F000887687604FF04047C16020210261436194
:10590000C0F82CC00CF18B7CC26B2C4B0CF1360C0C
:1059100042F00F02C263426B42F006024263C3F8D8
:1059200004C0ACF57A0C264AACF12A0CC3F808C0C6
:105930001D615C61C3F81CE09F62DA621E631A6835
:10594000204C42F001021A60436A43F001034362B3
:10595000836943F00103836184F859134FF00073A6
:10596000A36007B0F0BD00BF003802403F80FF8F4A
:105970000030005000100240001802400020024099
:10598000000028A8FFFFC3030FF00F00E00EE0EEB9
:10599000AAAAAAA800240240EEEEE0EEC000FFFF93
:1059A00000280240EE0EEEEE0068014009002800DB
:1059B0000B0035001B0115021D01350284680140F2
:1059C000C303C00300E100E09B4B9C4A986B9C49D9
:1059D00040F00100DFF8ACC22DE9F041986388B0D7
:1059E000986B43F6F078DFF8A0E2002700F00100A2
:1059F0004FF0204543F2D20607900798186B40F00D
:105A000004001863186B00F00400069006981068F4
:105A100020F0C0001060106840F0800010609068B6
:105A200020F0C0009060906840F080009060106AA4
:105A300020F470401062106A40F4404010621A6B0B
:105A400042F008021A631A6B02F008020592059AE6
:105A50000C6804EA0C040C600C6844EA0E040C6048
:105A60008868784C00EA0C00DFF820C288608A68F9
:105A7000754842EA0E0241F6541E8A600A6A22F014
:105A8000FF020A620A6A42F0CC020A624A6A1440C1
:105A90006E4A4C624C6A20434862196B41F0100117
:105AA0001963196B01F0100104910499116801EA5E
:105AB00008011160146844EA0C0414609068644C96
:105AC00000EA0800DFF8C88190609168614841EA07
:105AD0000C01DFF8C0C19160116A0C405E4914628C
