:020000040800F2
:10000000000005202D3400087F34000881340008EA
:10001000833400088534000887340008000000009D
:10002000000000000000000000000000893400080B
:100030008B340008000000008D3400089134000863
:100040007D3400087D3400087D3400087D340008CC
:100050007D3400087D3400087D3400087D340008BC
:100060007D3400087D3400087D3400087D340008AC
:100070007D3400087D3400087D3400087D3400089C
:100080007D3400087D3400087D3400087D3400088C
:100090007D3400087D3400087D340008A134000858
:1000A0007D3400087D3400087D3400087D3400086C
:1000B0007D340008C1350008A53500087D340008EE
:1000C0007D3400087D3400087D3400087D3400084C
:1000D0007D3400087D3400087D3400087D3400083C
:1000E000D13400087D3400087D3400087D340008D8
:1000F0007D3400087D3400087D3400087D3400081C
:100100007D3400087D3400087D3400087D3400080B
:100110007D3400087D3400087D3400087D340008FB
:10012000ED340008253500087D3400087D340008D2
:100130007D3400087D3400087D3400087D340008DB
:100140007D3400087D3400087D3400087D340008CB
:100150007D3400087D3400087D3400087D340008BB
:100160007D3400087D3400087D3400087D340008AB
:100170007D3400087D3400087D3400080000000054
:100180007D3400087D3400087D3400087D3400088B
:100190007D3400087D3400087D3400087D3400087B
:1001A0007D3400085D350008813500087D34000885
:1001B0007D3400087D3400087D3400087D3400085B
:0801C0007D3400087D340008C5
:1001C80010B5054C237833B9044B13B10448AFF389
:1001D80000800123237010BD4005002000000000AE
:1001E800D0DB000808B5034B1BB103490348AFF344
:1001F800008008BD0000000044050020D0DB000896
:10020800034613F8012B002AFBD1181A013870474E
:1002180081F0004102E000BF83F0004330B54FEAAF
:1002280041044FEA430594EA050F08BF90EA020F1C
:100238001FBF54EA000C55EA020C7FEA645C7FEAAF
:10024800655C00F0E2804FEA5454D4EB5555B8BFD2
:100258006D420CDD2C4480EA020281EA030382EA43
:10026800000083EA010180EA020281EA0303362DD5
:1002780088BF30BD11F0004F4FEA01314FF4801CA8
:100288004CEA113102D0404261EB410113F0004FBA
:100298004FEA03334CEA133302D0524263EB430371
:1002A80094EA050F00F0A780A4F10104D5F1200E0F
:1002B8000DDB02FA0EFC22FA05F2801841F100016A
:1002C80003FA0EF2801843FA05F359410EE0A5F13E
:1002D80020050EF1200E012A03FA0EFC28BF4CF06F
:1002E800020C43FA05F3C01851EBE37101F0004525
:1002F80007D54FF0000EDCF1000C7EEB00006EEB32
:100308000101B1F5801F1BD3B1F5001F0CD34908BB
:100318005FEA30004FEA3C0C04F101044FEA445212
:1003280012F5800F80F09A80BCF1004F08BF5FEA99
:10033800500C50F1000041EB045141EA050130BD79
:100348005FEA4C0C404141EB010111F4801FA4F11C
:100358000104E9D191F0000F04BF01460020B1FA71
:1003680081F308BF2033A3F10B03B3F120020CDAA9
:100378000C3208DD02F1140CC2F10C0201FA0CF087
:1003880021FA02F10CE002F11402D8BFC2F1200CEC
:1003980001FA02F120FA0CFCDCBF41EA0C019040A2
:1003A800E41AA2BF01EB0451294330BD6FEA0404EB
:1003B8001F3C1CDA0C340EDC04F11404C4F12002D6
:1003C80020FA04F001FA02F340EA030021FA04F3E8
:1003D80045EA030130BDC4F10C04C4F1200220FA3F
:1003E80002F001FA04F340EA0300294630BD21FA7D
:1003F80004F0294630BD94F0000F83F4801306BF43
:1004080081F480110134013D4EE77FEA645C18BF36
:100418007FEA655C29D094EA050F08BF90EA020FCD
:1004280005D054EA000C04BF1946104630BD91EAC5
:10043800030F1EBF0021002030BD5FEA545C05D1C8
:100448004000494128BF41F0004130BD14F5800407
:100458003CBF01F5801130BD01F0004545F0FE417B
:1004680041F470014FF0000030BD7FEA645C1ABFB0
:10047800194610467FEA655C1CBF0B46024650EAE7
:10048800013406BF52EA033591EA030F41F4002113
:1004980030BD00BF90F0000F04BF0021704730B599
:1004A8004FF4806404F132044FF000054FF000016E
:1004B80050E700BF90F0000F04BF0021704730B52F
:1004C8004FF4806404F1320410F0004548BF404204
:1004D8004FF000013EE700BF42004FEAE2014FEA59
:1004E80031014FEA02701FBF12F07F4393F07F4F34
:1004F80081F06051704792F0000F14BF93F07F4F66
:10050800704730B54FF4607401F0004521F00041A8
:1005180020E700BF50EA010208BF704730B54FF02E
:1005280000050AE050EA010208BF704730B511F033
:10053800004502D5404261EB41014FF4806404F16B
:1005480032045FEA915C3FF4DCAE4FF003025FEAED
:10055800DC0C18BF03325FEADC0C18BF033202EB75
:10056800DC02C2F1200300FA03FC20FA02F001FACF
:1005780003FE40EA0E0021FA02F11444C1E600BF6E
:1005880070B54FF0FF0C4CF4E06C1CEA11541DBF21
:100598001CEA135594EA0C0F95EA0C0F00F0DEF8EC
:1005A8002C4481EA030621EA4C5123EA4C5350EAD1
:1005B800013518BF52EA033541F4801143F4801322
:1005C80038D0A0FB02CE4FF00005E1FB02E506F0B3
:1005D8000042E0FB03E54FF00006E1FB03569CF008
:1005E800000F18BF4EF0010EA4F1FF04B6F5007F0E
:1005F80064F5407404D25FEA4E0E6D4146EB060680
:1006080042EAC62141EA55514FEAC52040EA5E5008
:100618004FEACE2EB4F1FD0C88BFBCF5E06F1ED8B2
:10062800BEF1004F08BF5FEA500E50F1000041EBE9
:10063800045170BD06F0004646EA010140EA020096
:1006480081EA0301B4EB5C04C2BFD4EB0C0541EAB8
:10065800045170BD41F480114FF0000E013C00F3CD
:10066800AB8014F1360FDEBF002001F0004170BDF1
:10067800C4F10004203C35DA0C341BDC04F114040A
:10068800C4F1200500FA05F320FA04F001FA05F296
:1006980040EA020001F0004221F0004110EBD37063
:1006A80021FA04F642EB06015EEA430E08BF20EA8F
:1006B800D37070BDC4F10C04C4F1200500FA04F332
:1006C80020FA05F001FA04F240EA020001F00041C4
:1006D80010EBD37041F100015EEA430E08BF20EA37
:1006E800D37070BDC4F1200500FA05F24EEA020E7F
:1006F80020FA04F301FA05F243EA020321FA04F0AE
:1007080001F0004121FA04F220EA020000EBD37064
:100718005EEA430E08BF20EAD37070BD94F0000F64
:100728000FD101F00046400041EB010111F4801F98
:1007380008BF013CF7D041EA060195F0000F18BF49
:10074800704703F00046520043EB030313F4801F85
:1007580008BF013DF7D043EA0603704794EA0C0F3F
:100768000CEA135518BF95EA0C0F0CD050EA410655
:1007780018BF52EA4306D1D181EA030101F00041D2
:100788004FF0000070BD50EA410606BF10461946FA
:1007980052EA430619D094EA0C0F02D150EA013606
:1007A80013D195EA0C0F05D152EA03361CBF104647
:1007B80019460AD181EA030101F0004141F0FE41E6
:1007C80041F470014FF0000070BD41F0FE4141F46A
:1007D800780170BD70B54FF0FF0C4CF4E06C1CEA6A
:1007E80011541DBF1CEA135594EA0C0F95EA0C0F1F
:1007F80000F0A7F8A4EB050481EA030E52EA0335DA
:100808004FEA013100F088804FEA03334FF08055FA
:1008180045EA131343EA12634FEA022245EA111527
:1008280045EA10654FEA00260EF000419D4208BFD8
:10083800964244F1FD0404F5407402D25B084FEA85
:100848003202B61A65EB03055B084FEA32024FF431
:1008580080104FF4002CB6EB020E75EB030E22BF8E
:10086800B61A754640EA0C005B084FEA3202B6EB4E
:10087800020E75EB030E22BFB61A754640EA5C00FD
:100888005B084FEA3202B6EB020E75EB030E22BF8D
:10089800B61A754640EA9C005B084FEA3202B6EB8E
:1008A800020E75EB030E22BFB61A754640EADC004D
:1008B80055EA060E18D04FEA051545EA16754FEAAF
:1008C80006164FEAC30343EA52734FEAC2025FEACD
:1008D8001C1CC0D111F4801F0BD141EA00014FF05C
:1008E80000004FF0004CB6E711F4801F04BF01432D
:1008F8000020B4F1FD0C88BFBCF5E06F3FF6AFAE49
:10090800B5EB030C04BFB6EB020C5FEA500C50F1D8
:10091800000041EB045170BD0EF0004E4EEA11315B
:1009280014EB5C04C2BFD4EB0C0541EA045170BD62
:1009380041F480114FF0000E013C90E645EA060EA6
:100948008DE60CEA135594EA0C0F08BF95EA0C0FD4
:100958003FF43BAF94EA0C0F0AD150EA01347FF41C
:1009680034AF95EA0C0F7FF425AF104619462CE7F3
:1009780095EA0C0F06D152EA03353FF4FDAE104656
:10098800194622E750EA410618BF52EA43067FF4A7
:10099800C5AE50EA41047FF40DAF52EA43057FF437
:1009A800EBAE12E74FF0FF3C06E000BF4FF0010C42
:1009B80002E000BF4FF0010C4DF804CD4FEA410CA6
:1009C8007FEA6C5C4FEA430C18BF7FEA6C5C1BD073
:1009D80001B050EA410C0CBF52EA430C91EA030FF4
:1009E80002BF90EA020F0020704710F1000F91EA51
:1009F800030F58BF994208BF90422CBFD8176FEA1F
:100A0800E37040F0010070474FEA410C7FEA6C5CEC
:100A180002D150EA013C07D14FEA430C7FEA6C5CF3
:100A2800D6D152EA033CD3D05DF8040B704700BF1F
:100A38008446104662468C461946634600E000BF6D
:100A480001B5FFF7B7FF002848BF10F1000F01BD3F
:100A58004DF808EDFFF7F4FF0CBF012000205DF80A
:100A680008FB00BF4DF808EDFFF7EAFF34BF01208F
:100A780000205DF808FB00BF4DF808EDFFF7E0FF28
:100A880094BF012000205DF808FB00BF4DF808ED79
:100A9800FFF7CEFF94BF012000205DF808FB00BFE0
:100AA8004DF808EDFFF7C4FF34BF012000205DF8C2
:100AB80008FB00BF4FEA410C7FEA6C5C02D150EAA8
:100AC800013C0AD14FEA430C7FEA6C5C02D152EA3E
:100AD800033C02D14FF0000070474FF0010070470F
:100AE8004FEA410212F5001215D211D56FF478734E
:100AF800B3EB625212D94FEAC12343F0004343EAF1
:100B0800505311F0004F23FA02F018BF40427047CB
:100B18004FF00000704750EA013005D111F0004055
:100B280008BF6FF0004070474FF00000704700BFEB
:100B38004A0011D212F5001211D20DD56FF4787354
:100B4800B3EB62520ED44FEAC12343F0004343EAA9
:100B5800505323FA02F070474FF00000704750EAF4
:100B6800013002D14FF0FF3070474FF0000070475E
:100B78004FEA4102B2F1E04324BFB3F5001CDCF1B7
:100B8800FE5C0DD901F0004C4FEAC0024CEA5070EF
:100B9800B2F1004F40EB830008BF20F0010070471E
:100BA80011F0804F21D113F13872BCBF01F0004021
:100BB800704741F480114FEA5252C2F11802C2F153
:100BC800200C10FA0CF320FA02F018BF40F00100D4
:100BD8004FEAC1234FEAD32303FA0CFC40EA0C0086
:100BE80023FA02F34FEA4303CCE77FEA625307D1C3
:100BF80050EA01331EBF4FF0FE4040F440007047FA
:100C080001F0004040F0FE4040F40000704700BF93
:100C180082B0094B1B680193019BB0F1FF3F00D0E4
:100C2800013030B1044B1B6813F4803FF9D0013810
:100C3800F7E702B0704700BF10E000E010B4C1EB66
:100C480001118C01034B234423F810205DF8044B59
:100C5800704700BF000020C00D4B1B6813F0010F48
:100C6800FAD10B4B0B4A1A6000229A634FF04041AD
:100C7800D9631A6402225A63074A5A649A6842F08E
:100C88003F029A601A6842F001021A60704700BF7A
:100C980000B00240000103001001E0010C4B1B688A
:100CA80013F0010FFAD10A4B0A4A1A6098630A4AEC
:100CB800DA6300221A6402225A63084A5A649A685C
:100CC80042F03F029A601A6842F001021A607047C7
:100CD80000B0024000010300000040C01001E00124
:100CE80070B41C4C246814F0010FFAD100251A4C7A
:100CF8002570184C194D2560BDF80C50A563C1EB43
:100D0800011675010544164E06EB4505E563851A7F
:100D180005F2DF15256402256563121A01325B1A94
:100D2800013343EA02436364A36843F03F03A360CB
:100D3800236843F001032360064B1B6813F0010F7F
:100D4800FAD1054B1B7813B9002070BC70474FF0DF
:100D5800FF30FAE700B002405E0500200001030002
:100D6800000020C070B4244C246814F0010FFAD19C
:100D78000025224C2570204C214D256002256563F5
:100D8800BDF80C50A563C1EB0116750105441D4E55
:100D980006EB4505E56399421ED0904228D1164AD4
:100DA80040F2DF1010645B1A013343F4803353645C
:100DB800114B9A6842F03F029A601A6842F00102A9
:100DC8001A600D4B1B6813F0010FFAD10B4B1B78FF
:100DD8005BB9002070BC704700232364131A0133E9
:100DE8001B0443F001036364E2E74FF0FF30F1E7CF
:100DF8004FF0FF30EEE700BF00B002405E05002074
:100E080000010300000020C0104B1B6813F0010F05
:100E1800FAD10E4B0E4A1A600E4ADA600E4ADA61AF
:100E28000E4A5A610E4A5A624FF04042DA63002273
:100E38001A6402225A630B4A5A649A6842F03F02C3
:100E48009A601A6842F001021A60704700B00240C6
:100E580000010200000020C00200018F000040C015
:100E6800020001FF1001E001F8B504460E461746DE
:100E7800436823F07F7323F45F3323F47F7323F0F5
:100E88000303434A0A431343436001F0F9FE05464E
:100E980007E00123002B6BD101F0F2FE401B0A286A
:100EA80069D8A36913F0020F07D100233BB9A369DE
:100EB80013F0100FEDD10023ECE70123F6E7A7624A
:100EC80001F0DEFE054607E00123002B55D101F0B5
:100ED800D7FE401B0A2852D8A36913F0400F07D148
:100EE80000233BB9A36913F0100FEDD10023ECE701
:100EF8000123F6E7636823F07F7323F45F3323F459
:100F08007F7323F00303234A32431343636001F0E2
:100F1800B7FE054606E001239BBB01F0B1FE401B6E
:100F28000A2830D8A36913F0040F07D100233BB96E
:100F3800A36913F0100FEED10023EDE70123F6E7C4
:100F4800656AEDB201F09CFE064606E0012353B93E
:100F580001F096FE801B0A2817D8A36913F0200F0A
:100F6800F4D10023F3E7E36943F02003E36100E0F1
:100F7800FF252846F8BDFF25FBE7FF25F9E7FF25F4
:100F8800F7E7FF25F5E7FF25F3E7FF25F1E700BFC2
:100F9800002001800024018282B09D4B1A6B42F030
:100FA80004021A631B6B03F004030193019B994B22
:100FB8001B68402292FAA2F2002A00F00881B2FAD5
:100FC80082F25200032101FA02F223EA02024023CC
:100FD80093FAA3F3002B00F0FC80B3FA83F35B00D1
:100FE800022101FA03F313438A4A1360136880222B
:100FF80092FAA2F2002A00F0EE80B2FA82F25200CF
:10100800032101FA02F223EA0202802393FAA3F3EE
:10101800002B00F0E280B3FA83F35B00022101FAAF
:1010280003F313437B4A13609368402292FAA2F2B7
:10103800002A00F0D480B2FA82F25200032101FAA9
:1010480002F223EA0202402393FAA3F3002B00F0F2
:10105800C880B3FA83F35B00022101FA03F3134358
:101068006C4A93609368802292FAA2F2002A00F0F8
:10107800BA80B2FA82F25200032101FA02F223EA9C
:101088000202802393FAA3F3002B00F0AE80B3FA98
:1010980083F35B00022101FA03F313435D4A936073
:1010A800536823F0C0035360D368402292FAA2F237
:1010B800002A00F09C80B2FA82F25200032101FA61
:1010C80002F223EA0202402393FAA3F3002B00F072
:1010D8009080B3FA83F35B00012101FA03F3134311
:1010E8004C4AD360D368802292FAA2F2002A00F018
:1010F8008280B2FA82F25200032101FA02F223EA54
:101108000202802393FAA3F3002B76D0B3FA83F379
:101118005B00012101FA03F313433E4AD360136ACB
:10112800402292FAA2F2002A69D0B2FA82F2920020
:101138000F2101FA02F223EA0202402393FAA3F3F1
:10114800002B5ED0B3FA83F39B00032101FA03F36B
:101158001343304A1362136A802292FAA2F2002AD9
:1011680051D0B2FA82F292000F2101FA02F223EA78
:101178000202802393FAA3F3002B46D0B3FA83F339
:101188009B00032101FA03F31343224A1362204B05
:101198005A6C42F002025A645B6C03F0020300933B
:1011A800009B1D4B1A6A22F011021A6240F20112CA
:1011B8009A6102221A6201229A601A6A42F01102A6
:1011C8001A621A6842F001021A6002B070472022BF
:1011D800F7E6202303E7202211E720231DE720223A
:1011E8002BE7202337E7202245E7202351E7202259
:1011F80063E720236FE720227DE7202388E720226A
:1012080095E72023A0E72022ADE72023B8E700BF19
:1012180000380240000802400004014082B0013852
:10122800052804D8DFE800F0120507090C0F2D2265
:101238000DE068220BE0D02209E040F2A11206E09E
:1012480040F2124203E040F6230200E034220E4B43
:10125800596C41F0010159645B6C03F0010301937F
:10126800019B0A4B196821F0010119604FF4001124
:10127800596000219962013ADA621A6842F0010263
:101288001A6002B0704700BF0038024000000140F9
:1012980082B0134B1A6C42F004021A641B6C03F000
:1012A80004030193019B0F4B1A6822F001021A6094
:1012B80042F20F729A6240F2F312DA62DA6842F08E
:1012C8000102DA601A6842F001021A60064B4022F5
:1012D80083F81E234FF080421A6002B0704700BFA7
:1012E800003802400008004000E100E082B0134BE3
:1012F8001A6C42F002021A641B6C03F00203019399
:10130800019B0F4B1A6822F001021A6042F20F7219
:101318009A6240F6C312DA62DA6842F00102DA60D1
:101328001A6842F001021A60064B402283F81D2316
:101338004FF000521A6002B0704700BF00380240F8
:101348000004004000E100E008B5FFF725FE054B6A
:1013580093F90000FFF762FFFFF79AFFFFF7C6FF58
:1013680008BD00BF0D00002084B03D4B1A6B42F44D
:1013780080021A631B6B03F480030193019B394AB3
:10138800136823F001031360364B1B6813F0010F39
:10139800FAD1354A936843F03D039360314B334AA1
:1013A8001A6040F294525A60314A9A60314ADA60BF
:1013B8001A6842F001021A602F4B202283F8382362
:1013C8004FF080725A60264B1A6B42F001021A6382
:1013D8001B6B03F001030393039B284B1A6801233B
:1013E80093FAA3F3002B36D0B3FA83F35B000321FF
:1013F80001FA03F322EA0302012393FAA3F3002B71
:101408002BD0B3FA83F35B00032101FA03F31343F0
:101418001A4A1360124B5A6C42F480725A645B6C1D
:1014280003F480730293029B154B9A6822F0010221
:101438009A604FF000725A60124A9A6000225A630A
:101448001A614FF48031104A51609A6842F00102E3
:101458009A6004B070472023C8E72023D3E700BF71
:101468000038024010640240006402401005020087
:101478004C2001406006002000E100E0000002402E
:10148800002001400003001A002301400B4B9A681A
:1014980022F001029A600A4A0A49116040F2945106
:1014A8005160116841F0010111601A6822F02002B0
:1014B8001A609A6842F001029A6070470020014061
:1014C800106402401005020084B03E4B1A6B42F4CF
:1014D80080021A631B6B03F480030193019B3A4A51
:1014E800136823F001031360374B1B6813F0010FD7
:1014F800FAD1364A936843F474639360324B344AA2
:101508001A6040F294525A60324A9A60324ADA605B
:101518001A6842F001021A60304B202283F83923FE
:101528004FF000725A60274B1A6B42F020021A6380
:101538001B6B03F020030393039B294B1A684FF49A
:10154800806393FAA3F3002B38D0B3FA83F35B00DC
:10155800032101FA03F322EA03024FF4806393FAAA
:10156800A3F3002B2CD0B3FA83F35B00032101FA19
:1015780003F313431A4A1360124B5A6C42F4806205
:101588005A645B6C03F480630293029B154B9A6860
:1015980022F001029A604FF000725A60124A9A6073
:1015A80008225A6300221A614FF480310F4A5160B1
:1015B8009A6842F001029A6004B070472023C6E797
:1015C8002023D2E700380240286402400064024029
:1015D800100502044C220140F40B002000E100E059
:1015E80000140240002201400003001A00230140B9
:1015F80008B5FFF7B9FEFFF767FF08BD0B4B9A6800
:1016080022F001029A600A4A0A49116040F2945194
:101618005160116841F0010111601A6822F020023E
:101628001A609A6842F001029A60704700220140ED
:10163800286402401005020486B0A44B1A6B42F4D9
:1016480080721A631B6B03F480730593059BA04B90
:101658001B68022292FAA2F2002A00F01D81B2FA57
:1016680082F25200032101FA02F223EA0202022363
:1016780093FAA3F3002B00F01181B3FA83F35B0014
:10168800012101FA03F31343914A1360926802237C
:1016980093FAA3F3002B00F00381B3FA83F35B0002
:1016A800032101FA03F322EA0303894A936053688A
:1016B80023F0020353604FF400339361834B196B9B
:1016C80041F4807119631B6B03F480730493049BCA
:1016D80012684FF4006393FAA3F3002B00F0E28042
:1016E800B3FA83F35B00032101FA03F322EA03034D
:1016F800774A136093684FF4006292FAA2F2002AC4
:1017080000F0D280B2FA82F25200032101FA02F20A
:1017180023EA02024FF4006393FAA3F3002B00F0CC
:10172800C580B3FA83F35B00032101FA03F3134383
:10173800674A9360654B5A6C42F480425A645B6C0A
:1017480003F480430393039B624B1A6922F47042AB
:101758004FF4704393FAA3F3002B00F0A980B3FA77
:1017680083F3082101FA03F313435A4A13615A4BCE
:101778001A6842F400621A60DA6842F40062DA60B9
:101788004FF400625A61554BE02283F828234FF446
:1017980080725A604D4B1A6B42F040021A631B6B01
:1017A80003F040030293029B4D4B1A68402393FABF
:1017B800A3F3002B7ED0B3FA83F35B00032101FA75
:1017C80003F322EA0303464A13609368402292FA1D
:1017D800A2F2002A70D0B2FA82F25200032101FA72
:1017E80002F223EA0202402393FAA3F3002B65D006
:1017F800B3FA83F35B00032101FA03F31343384A76
:101808009360D368402292FAA2F2002A58D0B2FA22
:1018180082F25200032101FA02F223EA0202402373
:1018280093FAA3F3002B4DD0B3FA83F35B000121A5
:1018380001FA03F313432A4AD360244B5A6C42F447
:1018480080425A645B6C03F480430193019B214BF3
:10185800DA6822F470624FF4706393FAA3F39BB3CF
:10186800B3FA83F3062101FA03F31343194AD36049
:10187800194B1A6842F040021A609A6842F0400216
:101888009A6040225A61154BE02283F817234FF4DF
:1018980000021A6006B070472022E2E62023EEE636
:1018A8002023FCE620231DE720222DE720233AE70A
:1018B800202356E7202380E720228EE7202399E77C
:1018C8002022A6E72023B1E72023CBE700380240F7
:1018D8000020024000380140003C014000E100E0E7
:1018E80000180240F0B486B0984B1A6822F0805273
:1018F8001A60D3F8882096491140964A0A43C3F8DB
:101908008820D3F88C2022F4403242F48032C3F885
:101918008C201A6842F080521A608C4B1B6813F0B6
:10192800005FFAD0894B1A6B42F010021A631A6BE7
:1019380002F010020592059A874A116821F4407155
:101948001160116841F400711160916821F44071CF
:101958009160916841F400719160116A21F47021DD
:101968001162116A41F4602111621A6B42F040025F
:101978001A631A6B02F040020492049A774A1168BB
:1019880021F040711160116841F000711160916897
:1019980021F040719160916841F000719160516A45
:1019A80021F470215162516A41F4602151621A6B2D
:1019B80042F480721A631A6B02F480720392039ADB
:1019C80067490A68674E32400A600C68664D2C43C6
:1019D8000C608868304088608A682A438A60486A50
:1019E800624A02404A62486A614A02434A621A6B82
:1019F80042F400721A631A6B02F400720292029A9D
:101A08005C4A106800F04070106014685A4D2C430E
:101A18001460946804F0407494609068284390605F
:101A2800106A00201062106A40F0EE301062506AAE
:101A380000F470205062546A5048204350621A6B78
:101A480042F480621A631A6B02F480620192019A6E
:101A58004B4A10684B4F3840106015684AF62A26E2
:101A68003543156094683C409460906830439060BA
:101A7800106A00F470401062146A434820431062F0
:101A8800086820F040700860086840F080700860BE
:101A9800106820F0C0001060106840F0400010602E
:101AA8004FF480508861082191615A6C42F080623D
:101AB8005A645B6C03F080630093009B334B42F2E3
:101AC80020229A61324A9A60324ADA6002F1F07250
:101AD80002F588721A6102F5001202325A614FF457
:101AE8007F02DA62DA6B42F00F02DA635A6B42F075
:101AF80006025A63284A29495160A1F57A012A3910
:101B0800916002211161FF21516140F20541D161CB
:101B18004FF0404191622249D1624FF488711163BC
:101B2800116841F0010111605A6A42F001025A62DB
:101B38009A6942F001029A611A4B202283F85923CC
:101B48004FF000729A6006B0F0BC7047003802404F
:101B58003F80FF8F00300050001002400018024004
:101B680000200240FFFFC303000028A80FF00F0069
:101B7800E00EE0EE00240240AAAAAAA8EEEEE0EEEB
:101B880000280240C000FFFFEE0EEEEE00680140A4
:101B9800090028000B003500846801403600150252
:101BA800C303C00300E100E070B588B08F4B9A6BA7
:101BB80042F001029A639A6B02F001020792079AB7
:101BC8001A6B42F004021A631A6B02F004020692BE
:101BD800069A874A116821F0C0011160116841F026
:101BE80080011160916821F0C0019160916841F015
:101BF80080019160116A21F470411162116A41F407
:101C0800404111621A6B42F008021A631A6B02F023
:101C180008020592059A774A1168774E314011609B
:101C28001468764D2C431460906830409060916839
:101C380029439160116A21F0FF011162116A41F094
:101C4800CC011162506A6E4901405162506A6D4977
:101C5800014351621A6B42F010021A631A6B02F0C8
:101C680010020492049A684A116843F6F0763140EB
:101C78001160146805F1286505F500452C431460CA
:101C8800906830409060916829439160106A5F497C
:101C980001401162106A5E4901431162516A0021D4
:101CA8005162516A41F0CC3151621A6B42F0200204
:101CB8001A631A6B02F020020392039A554A1168BC
:101CC800554E314011601468544D2C43146090688F
:101CD80030409060916829439160116A01F07F411A
:101CE8001162106A4E4901431162516AC1F30B0136
:101CF8005162506A4B49014351621A6B42F04002EB
:101D08001A631A6B02F040020292029A464A11685C
:101D1800464E314011601468454D2C43146090685C
:101D280030409060916829439160116A01F0FF2169
:101D38001162116A41F0CC111162506A3D490140AB
:101D48005162506A3C49014351621A6B42F0800269
:101D58001A631B6B03F080030193019B374B1A68CE
:101D680022F44C621A601A6842F408621A609A688F
:101D780022F44C629A609A6842F408629A60196A7E
:101D88002F4A0A401A62196A2E4A0A431A622E4BCF
:101D980041F654121A602D4A9A6011221A612A4B90
:101DA8009B6913F0200FFAD10120FEF731FF1222B0
:101DB800254B1A61244B9B6913F0200FFAD1F322AB
:101DC800214B1A61204B9B6913F0200FFAD1204A4E
:101DD8001D4B1A611C4B9B6913F0200FFAD140F67A
:101DE8000642194B5A6108B070BD00BF0038024066
:101DF80000080240000C0240F0FFC00F0A002AA0B1
:101E080000F0FF00CC0C00CC0010024000FFFF0FD8
:101E1800CC0000C00014024000F03F00AA0A80AACB
:101E2800CCCCCC0000C0CCCC00180240F0F0FC3F79
:101E38000A0A0280F0FFFF0F0C0000C0001C0240DD
:101E4800FF0F0FFF00C0C000400100A06163110137
:101E58001440040082B0224B1A6B42F400021A6349
:101E68001B6B03F400030193019B1E4B1B6813F0CB
:101E7800010FFAD11B4B1C4A1A6000229A631B4AB5
:101E8800DA6302225A631A4A5A649A6842F03F0295
:101E98009A601A6842F001021A60124B1B6813F02C
:101EA800010FFAD10F4B104A1A6000229A63A2F16F
:101EB8007F52DA6302225A630D4A5A649A6842F0E2
:101EC8003F029A601A6842F001021A60094B202208
:101ED80083F85A234FF080629A6002B0704700BFBF
:101EE8000038024000B0024000010300000020C09A
:101EF8001001E00100E100E082B07C4B1A6B42F077
:101F080080021A631B6B03F080030193019B784BDB
:101F18001B68802292FAA2F2002A00F0CF80B2FA5F
:101F280082F25200032101FA02F223EA020280231C
:101F380093FAA3F3002B00F0C380B3FA83F35B009A
:101F4800022101FA03F31343694A136013684FF43B
:101F5800807292FAA2F2002A00F0B480B2FA82F2F9
:101F68005200032101FA02F223EA02024FF48073BD
:101F780093FAA3F3002B00F0A780B3FA83F35B0076
:101F8800022101FA03F31343594A1360936880222C
:101F980092FAA2F2002A00F09980B2FA82F2520074
:101FA800032101FA02F223EA0202802393FAA3F33F
:101FB800002B00F08D80B3FA83F35B00022101FA55
:101FC80003F313434A4A936093684FF4807292FA7A
:101FD800A2F2002A7ED0B2FA82F25200032101FA5C
:101FE80002F223EA02024FF4807393FAA3F3002B60
:101FF80072D0B3FA83F35B00022101FA03F31343AF
:102008003B4A9360536843F4C0735360136A802259
:1020180092FAA2F2002A61D0B2FA82F292000F215B
:1020280001FA02F223EA0202802393FAA3F3002BB7
:1020380056D0B3FA83F39B00042101FA03F3134348
:102048002B4A1362536A012292FAA2F2002A49D05B
:10205800B2FA82F292000F2101FA02F223EA020296
:10206800012393FAA3F3002B3ED0B3FA83F39B002A
:10207800042101FA03F313431D4A53621B4B1A6CE4
:1020880042F400021A641A6C02F400020092009AE8
:102098001A6A42F400021A621A6A22F400021A62E8
:1020A800A3F5EE33134A1A615A6842F000725A6077
:1020B8001A6842F001021A6002B07047202230E725
:1020C80020233CE720224BE7202358E7202266E71D
:1020D800202372E7202280E720238CE720229DE737
:1020E8002023A8E72022B5E72023C0E700380240D4
:1020F800001C02403227914082B0394A136843F4E9
:1021080080331360364B1B6813F4003FFAD0344B0E
:102118005A6834491140344A0A435A601A6842F0EE
:1021280080721A602E4B1B6813F0007FFAD02C4B7C
:102138001A6C42F080521A641B6C03F080530193AE
:10214800019B2A4A136843F480331360274B5B686A
:1021580013F4803FFAD0254A136843F40033136020
:10216800224B5B6813F4003FFAD0214A136823F02E
:102178000F0343F0060313601D4B1B6803F00F03A6
:10218800062BF9D1164A936823F0F00393609368FD
:1021980023F0030343F002039360114B9B6803F0A1
:1021A8000C03082BF9D10E4A936823F4E05343F447
:1021B800A0539360936823F4604343F4004393600F
:1021C8000C4B0D4A5A60F0210C4A82F82310002269
:1021D8009A6007221A600A4A0A4B1A6002B07047CE
:1021E800003802400080BCFF1964400000700040C5
:1021F800003C024010E000E03F0D030000ED00E06D
:1022080000C2EB0B10000020244B5B6913F4003F65
:1022180013D1BFF34F8FBFF36F8F204B0022C3F84A
:102228005022BFF34F8FBFF36F8F5A6942F40032C9
:102238005A61BFF34F8FBFF36F8F184B5B6913F46D
:10224800803F2AD110B4154B0022C3F88420BFF375
:102258004F8FD3F88040C4F34E300FE01A4643F650
:10226800E07303EA401343EA82730C49C1F8603211
:10227800531E002AF2D1431E18B11846C4F3C902EE
:10228800EDE7BFF34F8F4B6943F480334B61BFF3E6
:102298004F8FBFF36F8F5DF8044B704700ED00E080
:1022A8002DE9F04F83B0FFF7AFFFFFF725FFFFF7EA
:1022B8007BFCFFF717FBFFF7CDFDFFF745F8FFF7AE
:1022C800BBF9FFF719FEFEF7C7FC4FF488734FF40C
:1022D800F072B549B54802F0EBF9B549012002F0B2
:1022E80039FF012002F044FFB249002002F032FF1A
:1022F800002002F03DFF002002F052FA03F060FED9
:1023080006F008FE00F09CFFFFF772F94FF0000995
:10231800CA464FF0FF384D464C460123019346E22A
:102328004AF655520621A44803F0DCFC53E2BBF1FF
:10233800FF3F00F05A82A14B1B78A14AD35C012BC6
:1023480000F0F1819F4B1B78032B00F0D88100200F
:10235800FEF7A4FC9C4B1B6813F0010FFAD19B4BB2
:1023680093F800A0BBF5ED7F1BDA994B1B78994ACF
:10237800D35C13B9BBF1FF3F11D0974A1488ABEB7C
:10238800040424EAE47413B9BBF1FF3F2AD0924B4A
:102398001D88A5EB0B0525EAE57500229CE00024C5
:1023A800F1E7ABF5ED73B3F5F07F0DD2884B1B78F1
:1023B800884AD35C13B9BBF1FF3F15D0864B1C8804
:1023C800ABEB04040025E8E7814B1B78814AD35C1A
:1023D80013B9BBF1FF3F0BD07F4B1C88ABEB040458
:1023E8000025DAE70025D8E700254FF4ED74D4E797
:1023F80000254FF46D74D0E7EF2B40F39280EF2364
:102408008FE077238DE000238EE0C3F1FE0390E098
:10241800EF2B00F3C180002BC0F2C080002F40F0EA
:10242800BF80C3F1FE03B0F5F07F09DAC3EB0313F5
:102438004FEA831EAEF17F5E40F2FF732EF8103034
:10244800664B1B78002B46D0012B00F0DD80022B59
:1024580000F00581032B00F02981614B5B5CDBB246
:1024680007EE903AB8EE677A5E4B5B5CDBB207EE3C
:10247800903AF8EEE77A67EE877A9FED5B7A67EE37
:10248800877A5A4BB3F9003007EE103AB8EEC77A9C
:1024980037EE277A564B1978564B03EB8103D3ED69
:1024A800006AC7EE267AFDEEE77A17EE903AEF2B30
:1024B80000DDEF23002BC0F22081C3F1FE03B0F54D
:1024C800F07F08DAC3EB03139901A1F17F514BF6B2
:1024D800BA2321F810300132C4F5F0739A4280F221
:1024E8001281A1183E4B5B5C4348B0F900000344DD
:1024F80007EE903AB8EEE77A404B18783D4B03EB7D
:102508008003D3ED006AC7EE267AFDEEE77A17EE70
:10251800903A2C48007800287FF46EAF772B3FF76D
:1025280070AF002BFFF66FAF00287FF46EAFC3F1DA
:102538008603A818B0F5F07F09DAC3EB03134FEA56
:10254800831EAEF17F5E4FF4FC632EF810301D4BF6
:102558001F78022F3FF474AF224B5B5C284EB6F90C
:1025680000C0634407EE903AB8EEE77A254B93F83B
:1025780000C0204B03EB8C03D3ED006AC7EE267A2C
:10258800FDEEE77A17EE903A002F7FF441AF772BF4
:102598007FF741AF77233EE7EF233CE700233DE792
:1025A800C3F1FE033FE700BF450C000810410020BF
:1025B800E90C00086D0D0008484000206C0500205B
:1025C800F4DB00086805002000B002400D00002080
:1025D8006F05002024DC0008040000206A050020A4
:1025E80060060020F40B00200000803B0000002063
:1025F80002000020A0DC0008720500200E00002068
:10260800760500200F000020AD4B5B5CDBB207EEC7
:10261800903AB8EE677AAB4B5B5CDBB207EE903A68
:10262800F8EEE77A77EE877AB6EE007A67EE877A81
:10263800A54BB3F9003007EE103AB8EEC77A37EE7B
:10264800277AA24B1978A24B03EB8103D3ED006ADA
:10265800C7EE267AFDEEE77A17EE903A27E7984B11
:102668005B5CDBB207EE903AF8EE677A964BB3F90B
:10267800003007EE103AB8EEC77A77EE277A914B1A
:102688005B5CDBB207EE103AB8EEC77A37EEC77A72
:102698008E4B19788E4B03EB8103D3ED006AC7EE9E
:1026A800267AFDEEE77A17EE903A00E7854B5B5CF9
:1026B800DBB207EE903AF8EE677A834BB3F9003055
:1026C80007EE103AB8EEC77A77EE277A7C4B5B5C58
:1026D800DBB207EE103AB8EEC77A37EEC77A7B4B13
:1026E80019787B4B03EB8103D3ED006AC7EE267A9A
:1026F800FDEEE77A17EE903AD9E60023DDE6754B52
:102708001B78002B78D1744B1B78744AD35C012B4F
:1027180000F09D80BBF1FF3F05D049F666620621B7
:102728006F4803F0DFFA6C4B1B786C4AD35C012BC3
:1027380000F096806B4B1B786B4AD35C012B03D05F
:10274800FEF7A4FEFEF75AFF664B1B78664AD35C79
:10275800012B00F08A80654B1B78002B40F03082FB
:102768005C4B1B78002B40F07582614B1B78002B6B
:1027780040F076825F4B5F6AC7F34E07019BBB420E
:102788000CD05C4B1E68C6F3001606F0BDFB002893
:1027980040F06C82304605F097F9019703F00AF98A
:1027A800FEF732FB544B1B6813F0010FFAD1534B61
:1027B8001B78002BC8D0524B1B78002BC4D00023A9
:1027C8004F4A13704D4A137001F02EFA8346B0F148
:1027D800FF3F3FF4A5AD404B1B78404AD35C002B2C
:1027E8003FF4A9AD012B3FF4A2AD022B9BD1BBF165
:1027F800FF3F7FF4A0AD96E70020FEF74FFA3E4B6F
:102808001B6813F0010FFAD13E4B187800F074FDE5
:1028180000200EE0C1F1FE03C3EB03139A01A2F1FD
:102828007F524BF6BA2322F8103001318E45F1DA87
:102838000130B0F5F07FBFF666AF334B13F800E018
:10284800BEF1EF0F01DD4FF0EF0E0021EEE708209B
:1028580005F00EF9002005F037F94FF0FF3B62E76D
:10286800BBF1FF3F7FF470AF64E7284B1B78002B68
:1028780040F0888000F0E0FE00284FD1234B1B7801
:10288800002B3FF468AF224B1B78994500F0B880C5
:10289800291B0029B8BF49425246C1F5F0712046AC
:1028A80001F09EFA8046B0F1FF3F00F09880184B87
:1028B80093F80090174B1A88174B1A600123B1E060
:1028C80060060020F40B0020000000200200002019
:1028D800A0DC00086B0500206F05002024DC000840
:1028E800484000206C050020F4DB0008A805002003
:1028F800600500200004014000B002405C05002093
:102908005D050020690500208C1100206D05002060
:102918000D0000200400002008000020B749B84836
:1029280000F092FEB74B1B78032BA7D0B64B1B7851
:10293800002BA3D1B14B1B88642B9FD9B3F5BE7F65
:102948009CD2AF4B1B88322B98D9DB2B96D801220F
:10295800AE4B1A70AE4B1A88AE4B1A6006F0F4FDF7
:10296800291B0029B8BF494253465246C1F5F071A8
:10297800204601F035FA804600F05EFE0028FBD1C3
:10298800D1467BE700F058FE00283FF477AF9B4F15
:1029980039469B4800F058FE3B88653B9BB2B3F52F
:1029A8008B7F3FF66BAF964B1B88322B7FF666AF5B
:1029B800DB2B3FF663AF0022944B1A7006F00DFE36
:1029C80003F0F8FA06F078F8082005F051F801202D
:1029D80005F07AF800F030FE0028FBD14EE703201E
:1029E80005F046F88C4B1B78994504D2012005F078
:1029F8006BF8002316E0002005F066F8002311E0CC
:102A0800864B1B785BB9864B1B7843B9854B1B7883
:102A18002BB9854B1B7813B9844B1B7893B306F0FD
:102A280093FD0123002B3FF496AE404601F076F962
:102A380008F1FF31774B1B68C21A0F469142A8BFB5
:102A4800174627EAE777984204D0A3EB000EBEF1B9
:102A5800000F19DDA3EB000B40F2DF1EF345A8BF02
:102A6800F346914213DAA0EB08030133694A136075
:102A78000020FEF713F96E4B1B6813F0010FFAD113
:102A880000222EE00023CDE74FF0000BE9E71B1AE8
:102A9800B3F5F07FECDB00F2DF105E4B1860E7E780
:102AA800EF2B41DDEF233FE077233DE000233DE0BE
:102AB800C3F1FE033EE0EF2B6FDC002B6FDBBEF1B2
:102AC800000F6ED1C3F1FE03B1F5F07F08DAC3EB56
:102AD80003139801A0F17F5040F2FF7320F81130E2
:102AE8000132B2F5F07F5FDAD01980455CDD514BD9
:102AF800195C514BB3F900300B4407EE903AB8EE2D
:102B0800E77A4E4B19784E4B03EB8103D3ED006AFD
:102B1800C7EE267AFDEEE77A17EE903A394909783A
:102B28000029BDD1772BBFDC002BBFDB0029BFD12B
:102B3800C3F1860302EB0B01B1F5F07F09DAC3EBB1
:102B480003134FEA831EAEF17F5E4FF4FC632EF849
:102B580011302C4B93F800E0BEF1020FC0D0394B76
:102B6800185C394BB3F90030034407EE903AB8EEDD
:102B7800E77A364B1878324B03EB8003D3ED006AC3
:102B8800C7EE267AFDEEE77A17EE903ABEF1000F0F
:102B980091D1772B91DD77238FE7EF238DE7002302
:102BA8008DE7C3F1FE038FE70023204A13701E4A06
:102BB80013701C4A13701A4A1370184A1370CAE526
:102BC80000F03AFD98B10D4FDFF834B03946584659
:102BD80000F03AFD0122BBF90010B7F9000002F03D
:102BE800DDFA04F045FC0022194B1A70B8E5002202
:102BF8004FF0FF31084602F0D1FAF2E776130020D1
:102C080078130020680500206A0500206D05002063
:102C180004000020080000200D0000207905002095
:102C28007A05002074050020780500206E05002034
:102C380000B002403C260020720500200E00002053
:102C4800A0DC00087C130020760500200F0000207F
:102C5800A805002004F0BCFC0022074B1A7084E58C
:102C680004F016FF0022054B1A7083E5304605F084
:102C780085FF019792E500BF6B05002060050020E5
:102C8800014B1868704700BF6405002000210B46FF
:102C980000E00133B3F5F07F06D2C25CD2B29142B4
:102CA800F7D2C15CC9B2F4E708467047FF21002398
:102CB80000E00133B3F5F07F06D2C25CD2B2914294
:102CC800F7D9C15CC9B2F4E70846704738B505467C
:102CD800FFF7DCFF04462846FFF7E8FF201AC0B2DA
:102CE80038BD00000022134602E0C15C0A440133EB
:102CF800B3F5F07FF9D3034BA3FB0232C2F30720ED
:102D0800704700BF898888882DE9F04F2DED048B26
:102D180085B000AF834679601646984697F84830E4
:102D2800BB6002EB0803013BFB60DFED7A8A60EED3
:102D3800288ADB000833ADEB030D6D46ADEB030DC0
:102D4800EA4640F22123984505D0734B3B60DFF8F3
:102D5800DC91002431E0714B3B60DFF8D491F8E757
:102D68009FED6F7A41E0DFED6E7A45E0630067EE34
:102D7800096A27EE806A36EEC66A1BF8042006EE5A
:102D8800902AF8EEE66A66EE866A05EBC402C2EDA2
:102D9800006A013367EE897A27EE007A77EE877A40
:102DA8001BF8042000EE102AB8EEC00A60EE277A5D
:102DB80005EB8303C3ED007A0134B4425CD207EE1D
:102DC800904AB8EE678A28EE688AB0EE480A08F09A
:102DD80037F8B0EE409AB0EE480A07F0EBFF4445EA
:102DE800BED209EBC40393ED007A4445BBD2E3009D
:102DF80004334B44D3ED007ABB68002B18BFB4F5FD
:102E0800F07FB3D2630067EE096A27EE806A76EE38
:102E1800C66A1BF8042006EE102AB8EE466A414A34
:102E280002EB8402D2ED005A26EE256A66EE866A27
:102E380005EBC402C2ED006A013367EE897A27EE1A
:102E4800007A77EE877A1BF8042007EE102AB8EE8E
:102E5800477A65EE875A67EEA57A05EB8303C3EDDB
:102E6800007AA9E7730005EBC60100220A60013366
:102E780005EB83031A600136FB689E42F2D32A4CA5
:102E8800012300222946204607F07AF9FB682A46E2
:102E98003968284607F054FE01231A462946204679
:102EA80007F06EF9002128E0CA0009EB0203D3ED10
:102EB800007A131D4B44D3ED006A4B00A81890ED1F
:102EC800007A27EE877A01339B00EC1894ED006AAC
:102ED80026EE866A37EE467A524482ED007A94ED01
:102EE800007A67EE877A90ED007A66EE876A77EE69
:102EF800A67A5344C3ED007A01314145D4D3424602
:102F08007968504607F0E6FE1437BD46BDEC048BE1
:102F1800BDE8F08FDB0FC940D0FE0008D01E0108C5
:102F280000000000D03E01087C050020C0DC00083D
:102F3800C8ED000810B52DED028BADF5935D86B098
:102F480000220EE0835CDBB205A98B540DF67821D4
:102F580001EB820107EE903AF8EE677AC1ED007A4C
:102F68000132B2F5F07FEDD34FF4F07306E00DF6C1
:102F7800782202EB8302002111600133B3F5007F50
:102F8800F5D30DF6782400237DAA2146534806F090
:102F9800AFFD4FF4807221467DA807F09BFE002309
:102FA800236003AB04AA4FF48071204606F060FB4F
:102FB800DDED047AF5EE407AF1EE10FA00F08A8041
:102FC800474B41F278226A44D258FF2A41D0002A5E
:102FD8004FD107EE902AB8EE678ADFED427A28EEE5
:102FE800278A531C08EE903AF8EE688A68EEA78A9A
:102FF8000023009340F221234FF4F072F0EE680AA8
:10300800B0EE480A7DA905A8FFF77EFE344C41F2D0
:1030180078236B44234404AA40F221217DA806F0BA
:1030280027FB78EEC88A41F278236B441B5907EED8
:10303800903AF8EE677A67EEA88ADFED2B7A88EE89
:10304800A70A38EE000A0DF5935D06B0BDEC028BB9
:1030580010BD531E08EE103AB8EE488ADFED218AFB
:1030680028EE288A07EE902AF8EE677A67EEA88A93
:10307800BEE7501E0DF6782303EB800393ED007A2C
:10308800531C0DF6782101EB8301D1ED007AB4EEE3
:10309800E77AF1EE10FA0EDD07EE900AB8EE678ACD
:1030A800DFED108A28EE288A07EE902AF8EE677A74
:1030B80067EEA88A9CE707EE902AB8EE678ADFEDEC
:1030C800097A28EE278A07EE103AF8EE478A68EE62
:1030D800A78A8DE79FED050AB5E700BF8C0500209C
:1030E80094EDFFFF0000003B004008440000000092
:1030F80010B582B00446FFF71DFFF7EE007A87EEA1
:10310800807A17EE100AFDF7E7F941EC100B0AF088
:103118006FF851EC100BFDF72BFD07EE100ADFEDF1
:103128002A6AC6EE877AFCEEE77AF8EE677A67EEE7
:10313800877A17EE900AFDF7CFF941EC100B0AF0E9
:103148005FF951EC100BFDF7F3FCB0F5F07F01D9F6
:103158004FF4F0709FED1D7A002208E0A35CDBB20B
:1031680007EE903AF8EEE77A37EE277A0132904286
:10317800F4D807EE900AB8EE676AC7EE066A00222E
:10318800114600E0013290420CD9A35CDBB207EE95
:10319800903AF8EEE77AF4EEE76AF1EE10FAF1D534
:1031A8000131EFE707EE901AF8EE677A9FED087A9B
:1031B80067EE877A87EE867AFCEEC77ACDED017ADC
:1031C8009DF8040002B010BD0000F04300000000AC
:1031D8000000C84200B583B0DFED176A002210E096
:1031E800835CDBB207EE903AB8EE677A835CDBB2B9
:1031F80007EE903AF8EE677A67EE277A76EEA76AD6
:103208000132B2F5F07FEBD3DFED0C7A86EEA70A38
:10321800B5EEC00AF1EE10FA0ADB0AF0B7F9FCEED7
:10322800C07ACDED017A9DF8040003B05DF804FB87
:103238009FED010AF3E700BF000000000000F04323
:1032480008B54FF40071044806F064FB4FF4806140
:10325800024806F077FA08BD8C0500207C0500209E
:1032680008B5012811D02048012910D0022911D011
:10327800032916D004291BD0052920D0062925D0DA
:1032880007292AD09FED190A08BD1948ECE7FFF76E
:1032980051FE08BDFFF72CFF07EE900AB8EE670A4B
:1032A80008BDFFF797FF07EE900AB8EE670A08BD5A
:1032B800FFF7ECFC07EE900AB8EE670A08BDFFF7C7
:1032C800F5FC07EE900AB8EE670A08BDFFF7FEFCAA
:1032D80007EE900AB8EE670A08BDFFF703FD07EE90
:1032E800900AB8EE670A08BDCE0D00200000000065
:1032F8003A0800200000000010B5ADF51B6D01284C
:1033080002D04148002306E04048FBE7C15C0DF2CB
:103318008C72D1540133B3F5F07FF7D34FF4F073C7
:1033280004E000210DF28C72D1540133B3F5087F0B
:10333800F7D9012300934FF4F07340F22122F6EEFF
:10334800000A9FED330A03A90DF28C70FFF7DCFC2D
:10335800002424E003AB03EB840393ED007ADFED54
:103368002D7A77EE277A17EE900AFDF7B5F841EC3B
:10337800100B0AF08BF80022274B51EC100BFDF7CD
:10338800FFF80022254BFCF747FF1DA3D3E90023D4
:10339800FDF720FAFDF7CCFB214B18550134B4F5A5
:1033A800F07F28D2002CD5D003AB03EB8403D3EDF8
:1033B800007A9FED187A77EE877A77EEA77A17EE7C
:1033C800900AFDF789F841EC100B0AF05FF800222B
:1033D800114B51EC100BFDF7D3F800220F4BFCF703
:1033E8001BFF07A3D3E90023FDF7F4F9FDF7A0FBC2
:1033F8000B4B1855D2E70DF51B6D10BDAFF30080D0
:10340800000000403333C33FF40B00206006002067
:1034180000000000BD3786350000244000804E4083
:103428008C110020DFF834D0002103E00C4B5B58EE
:10343800435004310B480C4B42189A42F6D30B4ABE
:1034480002E0002342F8043B094B9A42F9D300F00A
:10345800C1F808F02BF8FEF723FF7047000005209D
:1034680040570308000000204005002040050020C8
:10347800B4450020FEE77047FEE7FEE7FEE7FEE7FB
:103488007047704770470000024A136801331360A1
:10349800704700BF6405002008B54022074B5A61F9
:1034A800FFF7EEFB064B1B68C31AB3F5FA7F04D986
:1034B8000122044B1A70024B186008BD003C014001
:1034C800A4050020600500204FF40062034B5A61F8
:1034D800034A536983F0020353617047003C01407B
:1034E800002002400A4A136823F001031360084BC6
:1034F8001B6813F0010FFAD1064B1A68C2F3401289
:1035080005490A709A6842F03D029A60704700BF08
:1035180010640240006402405C0500200A4A1368F7
:1035280023F001031360084B1B6813F0010FFAD155
:10353800064B1A68C2F3C02205490A709A6842F419
:1035480074629A60704700BF2864024000640240B9
:103558005D050020064B5A6B22F006025A63DA6BAF
:1035680042F00F02DA630122024B1A70704700BF63
:10357800006801405F050020064B1A6822F480723B
:103588001A609A6842F03F029A600122024B1A7050
:10359800704700BF00B002405E0500200122044BC6
:1035A8001A70044A136923F001031361704700BFBE
:1035B800A8050020000800400122044B1A70044AA4
:1035C800136923F001031361704700BF6B050020E6
:1035D8000004004010B40F4AD2F8883043F4700356
:1035E800C2F888300C4B196841F0010119600020BD
:1035F80098601C680949214019600949596019688F
:1036080021F480211960D8604FF0006393605DF861
:10361800044B704700ED00E000380240FFFFF6FE63
:103628001030002408B5024670210248FDF71CFC42
:1036380008BD00BF005C004008B50220FFF7F2FF9C
:10364800052800D9002008BD70B506460D460320A0
:10365800FFF7E8FF000200F470640420FFF7E2FFC0
:1036680000B2044334800520FFF7DCFF000200F4B9
:1036780070640620FFF7D6FF00B204432C8070BDAB
:103688002DE9F04F8DB01546062814BF4FF0000EF7
:103698004FF0010E052914BF002201221EEA020F75
:1036A8001CD001268DF8246002228DF82520B84A06
:1036B8000A9266220B920CAA12E9070085E8070015
:1036C80006AA07CA83E8070003AB93E80700169B1E
:1036D80083E8070030460DB0BDE8F08F042914BF19
:1036E800002601261EEA060F0AD001268DF824605E
:1036F80005228DF82520A74A0A9269220B92DAE75B
:10370800032914BF002701271EEA070F0AD0012644
:103718008DF824600A228DF825209F4A0A926E228D
:103728000B92C8E7052814BF4FF0000E4FF0010EAA
:1037380016EA0E0F14D000228DF8242002268DF8E8
:103748002560934A0A9266220B9201228DF818206E
:1037580005228DF819208F4A079269220892AAE754
:1037680017EA0E0F0AD001268DF8246005228DF87D
:103778002520884A0A9269220B929CE7022914BFE5
:103788004FF0000C4FF0010C1EEA0C0F0AD0012676
:103798008DF824600A228DF825207F4A0A926E222D
:1037A8000B9288E7042814BF4FF000084FF0010877
:1037B80017EA080F0AD001268DF8246002228DF836
:1037C8002520734A0A9266220B9274E71CEA080FB6
:1037D8000AD001268DF8246004228DF825206F4A2E
:1037E8000A9268220B9266E7012914BF4FF0000A7B
:1037F8004FF0010A18EA0A0F0AD001268DF8246052
:1038080008228DF82520664A0A9268220B9252E710
:10381800B1FA81F94FEA591918EA090F1ED00022A6
:103828008DF8242005228DF825205A4A0A9269220B
:103838000B9201228DF8182002218DF81910544995
:103848000791662108918DF80C2017228DF80D201C
:10385800544A0492FD22059203262CE7032814BF3C
:103868004FF0000B4FF0010B1CEA0B0F0AD001269A
:103878008DF8246002228DF82520454A0A92662296
:103888000B9218E71AEA0B0F0AD001268DF824606C
:1038980004228DF82520414A0A9268220B920AE7F1
:1038A80019EA0B0F15D000228DF8242005228DF877
:1038B8002520384A0A9269220B9201228DF8182095
:1038C80017228DF81920374A0792FD2208920226FE
:1038D800F1E6022814BF0024012400941AEA040F18
:1038E8000AD001268DF8246002228DF82520284A66
:1038F8000A9266220B92DEE6009C19EA040F15D0A4
:1039080000228DF824200A228DF82520224A0A92C6
:103918006E220B9201228DF8182017228DF819209B
:10392800204A0792FD2208920226C4E6012814BF05
:1039380000240124019419EA040F15D000228DF8FF
:10394800242005228DF82520124A0A9269220B921A
:1039580001228DF8182006228DF81920124A0792A4
:10396800662208920226A6E6062914BF0021012134
:103978001EEA010F1AD000228DF8242002228DF8A9
:103988002520034A0A9266220B92012693E600BF7D
:10399800304801085C4F010878460108BC4D010811
:1039A80098520108C84901080051010818EA010F96
:1039B8000BD000228DF8242005228DF825208B4A73
:1039C8000A9269220B92012675E61BEA010F0BD0B9
:1039D80000228DF824200A228DF82520844A0A9294
:1039E8006E220B92012666E612EA080F14D0002216
:1039F8008DF8242005228DF825207C4A0A92692218
:103A08000B9201228DF8182002268DF81960794A48
:103A18000792662208924EE612EA0B0F0BD000229C
:103A28008DF8242005228DF82520704A0A926922F3
:103A38000B9201263FE600990A420BD000228DF82E
:103A480024200A228DF82520694A0A926E220B92B8
:103A5800012630E616EA0B0F0BD000228DF8242041
:103A680002228DF82520634A0A9266220B920126CB
:103A780021E6009A16420BD000228DF82420042259
:103A88008DF825205C4A0A9268220B92012612E6DC
:103A9800019A16420BD000228DF8242008228DF8B6
:103AA8002520564A0A9268220B92012603E6B0FAAC
:103AB80080F0400906421ED000228DF824201721EC
:103AC8008DF825104E490A91FD210B918DF818208B
:103AD80002228DF81920474A07926622089201228D
:103AE8008DF80C2005228DF80D20404A0492692299
:103AF80005920326DFE5009A17420BD000228DF8C5
:103B0800242002228DF825203A4A0A9266220B9236
:103B18000126D0E5019A17420BD000228DF8242007
:103B280004228DF82520344A0A9268220B92012635
:103B3800C1E5074215D000228DF8242017228DF800
:103B480025202F4A0A92FD220B9201228DF8182077
:103B580005228DF81920254A079269220892022623
:103B6800A9E5019A1CEA020F0BD000228DF8242047
:103B780002228DF825201F4A0A9266220B920126FE
:103B880099E51CEA000F15D000228DF82420172291
:103B98008DF825201A4A0A92FD220B9201228DF8EF
:103BA80018200A228DF81920114A07926E220892CD
:103BB800022680E51AEA000F15D000228DF824208D
:103BC80006228DF825200F4A0A9266220B920122BE
:103BD8008DF8182005228DF81920044A07926922C9
:103BE8000892022667E54FF0FF3074E55C4F010844
:103BF8007846010830480108BC4D01089852010870
:103C0800C84901080051010890FBF1F301FB1303B7
:103C18000BB1C91A08447047172801D0662000E084
:103C2800EA20013840087047354B1B78354AD35C89
:103C380083B9354A354B1B783549CB5CF3B1012B39
:103C480033D0022B36D1012340F293518B4254DCFE
:103C580030B437E02F4AEDE7013040F293539842F1
:103C68000EDC431ED35CDBB22B4909788B42F3D8B8
:103C7800135CDBB29942EFD2013870470120ECE7C0
:103C88004FF0FF307047013340F293518B420EDC06
:103C9800591E515CC9B2204800788142F3D9D15CE1
:103CA800C9B28842EFD3581E70470123ECE74FF0A2
:103CB800FF3070474FF0FF307047013340F29351A7
:103CC8008B4217DC1D46591E5418515CC9B2124864
:103CD8000078814203D9D15CC9B2884207D22178E1
:103CE800C9B28842E9D3515DC9B28842E5D2581EAB
:103CF80030BC70474FF0FF30FAE74FF0FF307047A5
:103D08007005002028DC00086006002071050020EE
:103D180038DC0008F40B00200C00002070B4294B9C
:103D28001B78294AD35C7BB9284A294B1B78294937
:103D3800CB5CD3B1012B29D0022B3ED003460028FF
:103D48003DDB581070BC7047234AEEE701338342CD
:103D5800F4DAD11811F8014C204909788C42F5D8C9
:103D6800D45CA142F2D2581EECE70123EFE70133FD
:103D78008342E3DAD11811F8014C184909788C42CA
:103D8800F5D9D45CA142F2D3581EDBE70123EFE753
:103D980001338342D2DA1D46D11811F8014C0F497C
:103DA80009788C4202D9D65CB14204D28C42EFD851
:103DB800545DA142ECD2581EC4E70123E9E7431C35
:103DC800BFE700BF7005002028DC00083C26002063
:103DD8007105002038DC00087C1300200C0000204E
:103DE8002DE9F04F2DED028BADF5E94D8DB002AF09
:103DF800934228D01E4615468B46F86047F2844306
:103E0800FB18009347F29043FB1847F29C42BA18FC
:103E180031462846FFF734FC3861B0F1FF3F00F027
:103E2800398400237B61F5E31A18C44CA55CC44CA3
:103E3800E554C44CA45CC44AD45401338B42F3D334
:103E4800396100F027BC0023F8E7BC4EFB681E442C
:103E5800BB4DEAE3C7F808D047F29D43FB1893F837
:103E680000A05046FFF7D8FE034678605344013B54
:103E780007EE903AF8EE677A07EE10AAB8EEC77A1E
:103E8800C7EE876A16EE900AFCF726FB41EC100B8A
:103E980009F032FA51EC100BFCF74AFE04460BEB22
:103EA80040094FEA89030A3323F00703ADEB030DFA
:103EB8000DF1080847F2A443FB181B68B3FBFAF39B
:103EC8004B44013B9B000A3323F00703ADEB030D82
:103ED80002A8337806EE103A0BF1FF33F35C06EED6
:103EE800903A002310E0F8EE467A47F29D42BA185D
:103EF800127807EE102AB8EEC77A67EE277A08EB31
:103F08008302C2ED007A0133A342ECD3002314E00C
:103F18001A19F15C07EE101AB8EE477A47F29D417C
:103F28007918097807EE901AF8EEE77A67EE877A3B
:103F380008EB8202C2ED007A01335B45E8D3002228
:103F480013E00BEB04031344F8EE667A47F29D4145
:103F58007918097807EE101AB8EEC77A67EE277A4B
:103F680008EB8303C3ED007A0132A242E9D347F29A
:103F7800A043FB181B6847F2A442BA18128847F2FC
:103F88009D4179180978CDF80490009047F278405F
:103F9800381806F093F94B4642F2DC72BA184146DB
:103FA80047F27840381806F0A3F947F29D43FB180A
:103FB8001B787A6803FB042A0AF1320A03FB0BF424
:103FC800D7F808D06AE004EB8302F8EE667AC2ED0F
:103FD800007A01334345F6D300230BE003EB0802D4
:103FE800F15C07EE901A04EB8202F8EE677AC2EDF4
:103FF800007A01335B45F1D30BEB080306E004EBD1
:104008008302F8EE477AC2ED007A01335345F6D3BE
:1040180047F2A043FB181B6847F29D42BA18127872
:1040280047F2A44179180988CDF804A0009047F216
:104038006C40381806F0ACFB534642F2DC72BA18F2
:10404800214647F26C40381806F0C0FB47F29D4302
:10405800FB181C78A04408F1FF3807EE908AF8EEA8
:10406800677A07EE104AB8EEC77AC7EE876A16EE87
:10407800900AFCF731FA41EC100B09F03DF951ECCC
:10408800100B10EE102A0B46FCF7C8F8FCF750FD91
:10409800BAFBF4F4241A00F1320ACD463B69012B2D
:1040A80049D047F29043FB181B78012B4ED0C7F834
:1040B80008D047F29143FB1893F800904846FFF761
:1040C800ABFD8046494604EB4000FFF79DFD0646E0
:1040D80047F29843FB1819684318013B9B000A33C1
:1040E80023F00703ADEB030D02AA42F21473FB1889
:1040F80003EB8A03D3F800C004EB0A03013B42F246
:104108001470381800EB8303D3F800E000207A60BD
:10411800CDE002EB0A0342F21471791801EB830334
:10412800D3ED007AFCEEE77A17EE903AAB54013201
:10413800A242EED36BE20022FAE700BF600600203D
:104148003C260020F40B00207C130020C7F808D080
:1041580047F29143FB1893F800904846FFF75CFD3F
:10416800034678604B44013B07EE903AF8EE677AD5
:1041780007EE109AB8EEC78A87EE887A17EE100A0B
:10418800FCF7AAF941EC100B09F0B6F851EC100B4A
:10419800FCF7CEFC064604EB400847F29843FB18B0
:1041A8001A68B2FBF9F34344013B9B000A3323F03E
:1041B8000703ADEB030D0DF1080E42F21473FB1863
:1041C80003EB8A03D3ED006A04EB0A00431E42F2B4
:1041D8001471791801EB830393ED007A00210CE048
:1041E800AAEB0103013B68EE267A42F2147CBC4438
:1041F8000CEB8303C3ED007A0131B142F0D3002107
:104208000DE001EB0A0342F2147CBC440CEB83037F
:10421800D3ED007A68EE277AC3ED007A0131A14226
:10422800EFD300210AE00B1868EE077A42F2147CFB
:10423800BC440CEB8303C3ED007A0131B142F2D3E5
:1042480047F29443FB181B68CDF80480CDF800E0D2
:1042580092B2494647F27840381806F02FF8AAEB90
:104268000601434607F1440242F21470381800EB85
:10427800810147F27840381806F03AF847F291433E
:10428800FB181B787A6803FB062606F10A0803FB6D
:1042980004F4D7F808D05FE0AAEB0003013B42F230
:1042A8001472BA1802EB8303C3F800C0013040450A
:1042B800F2D37A6809E004EB0A0342F21470381862
:1042C80000EB8303C3F800E00134B442F3D347F2B0
:1042D8009443FB181B68019600924A4689B247F23C
:1042E8006C40381806F054FAAAEB0801334607F177
:1042F800440242F21470381800EB810147F26C4016
:10430800381806F063FA47F29143FB181C78A0446A
:1043180008F1FF3807EE908AF8EE677A07EE104A40
:10432800B8EEC77AC7EE876A16EE900AFCF7D4F89B
:1043380041EC100B08F0E0FF51EC100B10EE102AC6
:104348000B46FBF76BFFFCF7F3FB8046B6FBF4F478
:10435800241A0A34D7F808D03B69022B46D047F212
:104368008443FB181B78012B42D0C7F808D047F2CA
:104378008543FB1893F800A05046FFF74DFC06460E
:10438800514604EB4000FFF73FFC814647F28C435F
:10439800FB1819684318013B9B000A3323F00703F5
:1043A800ADEB030D02AA07F11C0303EB8803D3F856
:1043B80000C004EB0803013B07F11C0000EB83037A
:1043C800D3F800E000207A60BDE002EB080307F1B3
:1043D8001C0101EB8303D3ED007AFCEEE77A17EEBC
:1043E800903AAB540132A242EFD310E10022FAE72F
:1043F800C7F808D047F28543FB1893F800A0504649
:10440800FFF70AFC034678605344013B07EE903AF5
:10441800F8EE677A07EE10AAB8EEC78A87EE887AB0
:1044280017EE100AFCF758F841EC100B08F064FF7F
:1044380051EC100BFCF77CFB064604EB400947F2F5
:104448008C43FB181A68B2FBFAF34B44013B9B0000
:104458000A3323F00703ADEB030D0DF1080E07F146
:104468001C0303EB8803D3ED006A04EB0800431E2A
:1044780007F11C0101EB830393ED007A00219446B8
:104488000BE0A8EB0103013B68EE267A07F11C025A
:1044980002EB8303C3ED007A0131B142F1D300216D
:1044A8000CE001EB080307F11C0202EB8303D3EDD8
:1044B800007A68EE277AC3ED007A0131A142F0D381
:1044C800002109E00B1868EE077A07F11C0202EBDD
:1044D8008303C3ED007A0131B142F3D347F2884335
:1044E800FB181B68CDF80490CDF800E01FFA8CF299
:1044F800514647F27840381805F0E0FEA8EB06016F
:104508004B4642F21472BA1807F11C0000EB810105
:1045180047F27840381805F0EBFE47F28543FB1860
:104528001B787A6803FB062003FB04F4D7F808D04D
:104538005BE0A8EB0003013B07F11C0202EB8303DD
:10454800C3F800C00130B042F3D37A6808E004EB46
:10455800080307F11C0000EB8303C3F800E00134F3
:104568004C45F4D347F28843FB181B68CDF80490F8
:104578000092524689B247F26C40381806F008F9A2
:10458800A8EB06014B4642F21472BA1807F11C0058
:1045980000EB810147F26C40381806F017F947F232
:1045A8008543FB181C782644013E07EE906AF8EE16
:1045B800677A07EE104AB8EEC77AC7EE876A16EE32
:1045C800900AFBF789FF41EC100B08F095FE51ECBF
:1045D800100B10EE102A0B46FBF720FEFCF7A8FA8A
:1045E800B9FBF4F4241AD7F808D000220DE0131808
:1045F80042F21471791801EB8303D3ED007AFCEED3
:10460800E77A17EE903AAB540132A242EFD37B69B6
:1046180001337B617B69012B3BD87B69002B3FF41D
:1046280014AC214EFB681E44204D47F29C43FB18F6
:104638001B78012B3FF40EACE94647F29D43FB186B
:104648001C782046FFF7E8FA804621460BEB40002D
:10465800FFF7DAFA824683000A3323F00703ADEB4B
:10466800030D02AC47F2A443FB181B680344013B4B
:104678009B000A3323F00703ADEB030D02A8337840
:1046880006EE903A0BF1FF33F35C07EE103A002385
:10469800A0E43C61386907F5E9472C37BD46BDEC15
:1046A800028BBDE8F08F00BFF40B00207C130020C4
:1046B80001608280C38004210184418492B2043A5B
:1046C80092B2013A12B282849BB2043B9BB2013B84
:1046D8001BB2C3848283C383012380F8403080F8EF
:1046E80041300023C36283864386C3860387C3633E
:1046F80045F65D42A0F846204FF6FF72A0F842202A
:10470800A0F8443003614361836108E003F10902C2
:1047180000EBC2020021516011720133DBB2022B9F
:10472800F4D9024B18600120704700BFAC05002087
:104738002DE9F04383B00646884691461D46BDF8EC
:104748002870824201DB81461646454502DB2B462E
:1047580045469846114B1B6893F8582012F0020FF3
:1047680017D05C6D00974346324629464846A04715
:1047780078B903B0BDE8F083084B1B681B683A465C
:10478800294620469847013424B2A642F4DA013576
:104798002DB2A845EDDB4C46F7E700BFAC0500207D
:1047A80000B583B0074B1B689A88013ADB88013B48
:1047B80000901BB212B200210846FFF7B9FF03B000
:1047C8005DF804FBAC0500202DE9F04F87B00646E4
:1047D8000F4615461C46BDF8403003933C4B1B68FA
:1047E80093F8502012F0020F28D1AA1B12B2E31B33
:1047F8001BB282EAE27AAAEBE27A0FFA8AF883EA33
:10480800E37BABEBE37B0FFA8BF9002A22DD012275
:104818000492002B22DD012305934FEA69054FEA34
:1048280068042B4B1B681B68039A39463046984727
:10483800C84530DA0024DDF814803BE0D3F84C801A
:10484800039B009323462A46C0470028CDD107B0D2
:10485800BDE8F08F4FF0FF320492DAE74FF0FF33F4
:104868000593DAE74E4436B2194B1B681B68039A66
:1048780039463046984701352DB24545E7DA5C445C
:10488800A3B21CB2A045EDDCA3EB0A0424B2059B3D
:104898001F443FB2E6E70025DDF81090EDE74744F6
:1048A8003FB20B4B1B681B68039A39463046984742
:1048B800013424B24C45CADA5544ABB21DB2A945FD
:1048C800EDDCA3EB0B052DB2049B1E4436B2E6E7E4
:1048D800AC0500202DE9F04182B080460F4616460F
:1048E8001C46BDF8205000950B46FFF76DFF00955C
:1048F8002346324621464046FFF766FF0095234689
:10490800424639464046FFF75FFF00952346324648
:1049180039463046FFF758FF02B0BDE8F081000085
:10492800024B1B68B3F90400704700BFAC050020B8
:10493800024B1B68B3F90600704700BFAC050020A6
:104948002DE9F04F87B0BDF840400094DDF8448071
:10495800A0F1B0054C2D28D8DFE805F0352727272A
:1049680027332727272727272727272727272727C3
:1049780031272727272727272727272727272727B5
:1049880027272927272727272D27272727272727A7
:104998002F27272727272727272727272727272797
:1049A80027273727272727272B0004460EE0992497
:1049B8000CE081240AE09A2408E0842406E08E248E
:1049C80004E0E62402E0F82400E09424A5B2B8F854
:1049D8000A008542C0F01181B8F80C60B54200F2B7
:1049E8000C811FFA82FBB8F90650AEB20496002E6D
:1049F80000F003814FEAD60A16F0070F01D00AF13A
:104A0800010AD8F8106016B1271AF65D04960193CA
:104A180016460591A24B1B6893F8602012F0020F0E
:104A28000ED198F80430002B40F0E580241AB8F92C
:104A3800083003FB04F303FB0AF300220392CFE0E0
:104A4800DD6D049A08460A4492B2013AB8F8083073
:104A58005B449BB2013B1BB212B23146A8470746E2
:104A680098F80430002B3CD1B8F80A30E41AB8F9A9
:104A7800083003FB04F303FB0AF30022029226E04A
:104A88000098B8477608013DADB20134A4B2072CAE
:104A98008CBF00230123002D08BF00232BB116F083
:104AA800010FEDD00198B847ECE709F101091FFAA9
:104AB80089F95B46D14506D2D8F8002003F1010BED
:104AC800D65C0024E3E7029A013292B20292B8F966
:104AD80008200299914280F29080049D4FF00009CD
:104AE800E8E7012B40F08980B8F80A20A21AB8F943
:104AF800083003FB02F2B8F9063003FB02F3002684
:104B0800DDF810B0009DDDF804902AE0D8F8002008
:104B180003F1010AD35C5FFA89F2E8B2C3F5807148
:104B280001FB00F003FB0202C2F3072209F47F4EE7
:104B380005F47F4000FB01F10EFB03131B1223F069
:104B4800FF031BB2134398B2B8470134A4B25346CB
:104B58005C45DBD3B8F90620A2EB0B0213440136FF
:104B6800B6B2B8F90820964247DA0024F0E74C4B71
:104B78001B681B68009A0FFA8BF130B298477F08C0
:104B88000136B6B2013DADB20134A4B2072C8CBFD8
:104B980000230123002D08BF00235BB117F0010F8C
:104BA800E5D03F4B1B681B68019A0FFA8BF130B2B6
:104BB8009847E4E709F101091FFA89F9029BD145F1
:104BC80006D2D8F80020591C0291D75C0024DDE7F2
:104BD8000BF1010B1FFA8BFB039A013292B203927D
:104BE800B8F908200399914207DABDF81460049DCA
:104BF8004FF00009E3E7012B02D007B0BDE8F08FC2
:104C0800241AB8F9083003FB04F405FB04F3002761
:104C18000297DDF810A0009E019F37E0D8F8002029
:104C280003F10109D35CF9B2F2B2C3F5807000FB5D
:104C380002F203FB0121C1F3072107F47F4206F4C6
:104C48007F4E0EFB00F002FB0302121222F0FF025D
:104C580012B20A43124B1B681B6892B20FFA8BF10F
:104C680028B298470135ADB20134A4B24B46544539
:104C7800D4D3B8F90620A2EB0A0213440BF1010BB6
:104C88001FFA8BFB029A013292B20292B8F90820FD
:104C980002999142B1DABDF814500024E7E700BF49
:104CA800AC0500202DE9F04F89B0B0F90830049325
:104CB800B0F90A40B0F90C300593B0F90E1090F82D
:104CC80014A04368B3F906200392B3F908B0B0F909
:104CD8001690B0F91820069207681B6813B30FB333
:104CE8000B1B5B451EDB3A46012500E001321378B9
:104CF80023B10A2BFAD10135ADB2F7E71AF0300F1C
:104D080013D00B1B9BB201339BB21BFB05F29B1A02
:104D18009BB2013DBDF8182015FB02F55B1B1BB2C9
:104D2800002B03DA09B0BDE8F08F00231AF0100F4A
:104D380000D05B10064623441BB2CDF81CB09B463E
:104D48003846002400E001300378002B18BF0A2BF6
:104D580015D099B272685589A942F4D3B2F80CE01B
:104D68007145F0D812693AB15B1BD35C4B4414FA15
:104D780083F4A4B20130E7E7BDF80C30F6E71FFA78
:104D880089F8A4EB08039AB2BDF81040059B1B1BD9
:104D98009BB201339BB29B1A1BB2002BC2DB1AF0E9
:104DA800010F04D11AF0020F02D05B1000E00023BB
:104DB8001C4424B205E0BDF80C10414414FA81F1FA
:104DC8000CB23D780A2D14D00137002DAAD0338AB1
:104DD80072680192728A00925A4621462846FFF765
:104DE800AFFD73681A69002AE5D05B89ED1A515D39
:104DF800E3E70137079B069A13441BFA83F30FFA7C
:104E080083FB9DE710B4416800230278934209D2DE
:104E18005A018C188A5C02F00302032A03D001337A
:104E2800DBB2F2E7002420465DF8044B704770B40B
:104E380006464568002301E00133DBB23478A3421B
:104E48000DD25C0128192C5D04F00304022CF3D167
:104E5800047E8C42F0D1447E9442EDD100E00020E3
:104E680070BC7047F0B52D4B1B68B3F90A60B3F9F5
:104E78000CE01F7A0578002304E042F040016170DD
:104E880001339BB2AB4248D241685A018C188A5C04
:104E9800617802F04B020A2AF1D1002F18BFB6F14F
:104EA800FF3F22D011F0400F03D101F0670141F01C
:104EB800050101F0DF02B4F908C06645DDDBB4F98D
:104EC8000CC06645D9DCB4F90AC0E645D5DBB4F9AF
:104ED8000EC0E645D1DC42F0200211F0400FCCD1E3
:104EE80001F0DB0242F02202C7E711F0400FC6D002
:104EF80011F0200F0ED011F0020F01D041F0800107
:104F080041F0080111F0400F01D041F0010101F01A
:104F1800B901B4E741F01001F4E7F0BDAC05002099
:104F28002DE9F843074690F80080002406E07368EE
:104F380031463846984710E00134A4B244451AD2A5
:104F48007A686301D618D55C96F8019005F00303DA
:104F5800022BF1D115F0200FE9D115F0080FEBD095
:104F680015F0800FE8D019F0410FE5D0736831468D
:104F780038469847E0E7BDE8F883000070B582B08E
:104F88000546134B00245C6002221A70067801E083
:104F98000134A4B2B44219D26A686301D1180191EC
:104FA800D35C03F00303022BF2D18B7E002BEFD0EE
:104FB800074801AA42600A7E42704A7E8270C37026
:104FC8002B6B98470022019B9A76E1E702B070BDEF
:104FD800B00500202DE9F04F87B081460F461446F2
:104FE8009846109D1FFA82FB0BF1FF331BB21A463D
:104FF8002B8800930B460392FFF7E6FB1FFA87FA0C
:105008000AF1010319B21FFA88F6731E18B26B88E9
:105018000093049003464A4602914846FFF7D4FBA2
:10502800AB8800934346224641464846FFF7CCFBEF
:10503800EB880093049B224639462046FFF7C4FBC1
:105048001FFA89F404F101090FFA89F9ABF1020397
:105058001FB22B89009302990B4605973A4648469A
:10506800FFF7B2FB0AF102073FB2A6F102080FFAF6
:1050780088F86B89009343464A4639464846FFF705
:10508800A3FBAB890093DDF810E07346039A7146E1
:105098004846FFF799FBEB8900934346039802467D
:1050A8000299FFF791FB023424B2ABF103022B8A79
:1050B80000933B4612B239462046FFF785FB0AF1BA
:1050C8000301033E36B26B8A00933346224609B287
:1050D8002046FFF779FBAB8A00934346DDF814902E
:1050E8004A4641462046FFF76FFBEB8A009333465A
:1050F8004A4639464846FFF767FB07B0BDE8F08FD8
:1051080000B583B002238DF803308DF800300B7E94
:105118008DF801304B7E8DF802300191036B6846A3
:10512800984703B05DF804FB00B583B003238DF8FE
:10513800033002238DF800300B7E8DF801304B7E52
:105148008DF802300191036B6846984703B05DF80B
:1051580004FB0000022807D8044B1B68093003EB46
:10516800C000416003230372704700BFAC050020F4
:1051780002280FD8084B1A6800F1090302EBC30391
:105188001B7A13F0010F05D0093002EBC00043F081
:1051980002030372704700BFAC050020024B1B6876
:1051A800588199811A727047AC050020002918BFF0
:1051B800002848D0F8B505460C46002A46D00021FC
:1051C80007E048012618032727540020F061013121
:1051D800C9B29142F5D31E462A706C6002232B7225
:1051E80000246C814EF67D73AB81EC812C82FFF735
:1051F80097FB80B201386882FFF79AFB80B20138CA
:10520800A8822E630323AB75AC61124B1B68BBB13C
:105218002C33EB61022385F8203085F821301123E7
:1052280085F822304FF6FF73AB841F22EA842B8562
:1052380048F210436B850F2385F82C300020F8BD09
:105248000023EB61E6E74FF0FF3070474FF0FF3087
:10525800F8BD00BFAC05002050B1037A43F0280325
:1052680023F040030372044B1B6818610020704749
:105278004FF0FF30704700BFAC0500202DE9F04724
:1052880082B00446884617469946BDF928A0FFF71C
:1052980047FB85B2FFF74CFB002C76D0013D2DB2C1
:1052A80086B2013E36B2227A12F0020F70D058EA66
:1052B800070370D45645A8BF4D456FDBA9EB08031B
:1052C8001BB2092B6DDDB9B2AAEB01031BB2092B86
:1052D8006ADDA4F80E802782A4F81290A4F814A01E
:1052E80012F0080F63D0334B1A6853699C4203D0FD
:1052F800002002B0BDE8F087A7B9A18A013109B240
:105308008E421ADAB4F90E3013BB608A013000B24B
:1053180085422DDA237A03F0BF0343F0200323727A
:105328000020E6E74B1EB2F8462000921BB22A4640
:1053380000210846FFF7FCF9DFE71E4B1B68B3F8AE
:105348004630009333462A460020FFF7F1F9D9E7A3
:105358009BB25A1E174B1868B4F91430B4F91010E0
:10536800B0F84600009012B20020FFF7E1F9CCE750
:10537800104B1A68B4F91430B4F91010B2F846207A
:1053880000922A46FFF7D4F9C4E74FF0FF30B0E7A0
:105398004FF0FF30ADE74FF0FF30AAE74FF0FF3096
:1053A800A7E74FF0FF30A4E74FF0FF30A1E7002058
:1053B8009FE700BFAC05002048B1037A13F0020F45
:1053C80008D0818143F020030372002070474FF01A
:1053D800FF3070474FF0FF307047034600B3027A42
:1053E80012F0020F1FD011F0010F0FD0807D40F096
:1053F8000100987511F0020F0DD0997D41F002015E
:10540800997542F020021A7200207047807D20F0C2
:1054180001009875EEE7997D21F002019975F0E792
:105428004FF0FF3070474FF0FF30704730B1027ACD
:1054380012F0020F05D0B0F90E0070474FF0FF30A0
:1054480070474FF0FF30704750B30346027A12F0AE
:10545800020F28D070B4B0F90E500D80B0F910408A
:105468004C80B0F912008880B3F91420CA809E7D60
:1054780016F0010F07D003350D8003344C80033834
:105488008880033ACA809A7D12F0020F0ED093F8F2
:105498002C304A88134401334B80002070BC70477D
:1054A8004FF0FF3070474FF0FF3070470020F5E7AE
:1054B800F0B58DB0CD694B7813F0010F15D013F00E
:1054C800800F40F0A68013F0020F00F0A9802B781F
:1054D80043F001032B700B7843F020030B70042377
:1054E8008B764B7823F001034B700B7813F0200F69
:1054F80000F0E4800C46064613F0080F00F0D68052
:1055080013F0400F03D12B7813F0020F69D00AA9CA
:105518003046FFF799FF238ABDF8282013442381DA
:10552800618ABDF82A3019446181A18A0A4412B2FD
:10553800A281E18A0B441BB2E381B6F914108B42B5
:1055480000F3BC80B6F912309A4200F3B7802146C6
:105558003046FFF7D5FD6B7813F0010F6FD00327A6
:10556800AB88ADF81E306B88ADF81C302B7813F083
:10557800010F09D06B7813F0020F62D06B88ADF879
:105588001E30AB88ADF81C306B7813F0100F62D06A
:105598002289BBB21A44ADF8142062891A44ADF8C6
:1055A8001620A289D21AADF81820E289D31AADF8CC
:1055B8001A302B7C8DF82030EB6804930223ADF869
:1055C8002230ADF824306B690CA840F8243DFFF771
:1055D80069FB237823F04003237021463046FFF708
:1055E800A3FD6B7813F0080F64D113F0010F4AD0B4
:1055F800B4F90800B4F90A10B4F90C20B4F90E3063
:105608002D7815F0010F3CD0344D0095FFF7E2FCE2
:1056180050E001228A760A7842F020020A7052E7A6
:105628002B7813F0010F3FF45CAF23F001032B70CC
:105638000B7843F020030B7005238B7651E7012785
:105648008EE713F0040F9FD02B89ADF81E30EB883E
:10565800ADF81C3098E72089BBB218446189194419
:10566800A289D21AB4F80EE0AEEB0303BDF81EE02F
:10567800CDF800E01BB212B209B200B2FFF758F839
:1056880086E7174DC1E7B4F90800B4F90A10B4F970
:105698000C20B4F90E302E7816F0010F04D02D89A5
:1056A8000095FFF717F905E0ED88F9E76B7813F037
:1056B800100F05D0237823F0200323700DB0F0BD20
:1056C800B1F90E30B1F90C20B1F90A10B4F908009B
:1056D800B5890095FFF72CF8ECE700BF787401084E
:1056E80090740108F0B58DB0CE690B7813F0200FD7
:1056F8000BD00C46054613F0080F66D013F0400F88
:1057080005D1237823F0200323700DB0F0BD0AA93A
:10571800FFF79AFE238ABDF8282013442381618A63
:10572800BDF82A3019446181A18A0A4412B2A281C3
:10573800E18A0B441BB2E381B5F914108B42E4DA19
:10574800B5F912309A42E0DA21462846FFF7D8FC2C
:10575800B789ADF81E707389ADF81C30B4F90E30F6
:10576800B4F90C20B4F90A10B4F908000097FEF750
:10577800DFFFB4F90830ADF81430B4F90A30ADF8E9
:105788001630B4F90C30ADF81830B4F90E30ADF865
:105798001A30B37B8DF820307368049396F90F3074
:1057A800ADF8223096F91030ADF8243033680CA8E3
:1057B80040F8243DFFF776FA237823F0400323705E
:1057C80021462846FFF7B0FC9BE7B1F90E30B1F946
:1057D8000C20B1F90A10B4F90800AD890095FEF75C
:1057E800A7FF8EE700286CD02DE9F0418AB0044667
:1057F800027A12F0020F67D0B0F90E60B0F910808B
:10580800B0F91270827D12F0010F07D0033636B25C
:1058180008F103080FFA88F8033F3FB22C4A1268D0
:105828005269944246D0628DADF81E20228DADF8A3
:105838001C2094F82C301FFA88F52B449BB2013BAE
:10584800BDF81E2000921BB23A4641463046FEF78C
:105858006FFFA3690393E3690493F31CADF8143055
:10586800ADF81680ADF8187094F82C302B449BB224
:10587800013BADF81A3094F822308DF8203094F9B5
:105888002030ADF8223094F92130ADF8243003A847
:10589800FFF708FA94F82C10294409B249F6135373
:1058A80000930B463A463046FEF78EFF00200AB0BA
:1058B800BDE8F081E28CADF81E20A28CADF81C206A
:1058C800B7E74FF0FF3070474FF0FF30EFE700BF0A
:1058D800AC0500202DE9F04182B0B0F90E60B0F9B6
:1058E8001050B0F91270B0F91480037A03F0DF0396
:1058F800037213F0080F4BD00446827D12F0010F9B
:1059080002D013F0400F1AD0A37D13F0020F0BD072
:105918002046FFF767FF94F82C301D4401352DB25F
:10592800237A13F0400F1DD1A389009343463A46CA
:1059380029463046FEF7FCFE2678002318E01B4B6C
:10594800009343463A4629463046FFF743FB033661
:1059580036B203352DB2033F3FB2A8F103080FFA60
:1059680088F8D1E723F0400323721CE001339BB28F
:10597800B34218D260685901425C02F00305022D57
:10598800F4D112F0080FF1D042F060024254EDE772
:10599800074B1B68B3F84630009343463A463146F6
:1059A8003046FEF7C5FE02B0BDE8F081A8740108D4
:1059B800AC05002010B52A4B1B6893F8482012F05C
:1059C800010F03D022F0010283F848201A695869B0
:1059D80082421FD0F2B198615A6178B1837D13F089
:1059E800020F0BD0037A13F0080F07D0B0F90E108E
:1059F800B2F90E3099421AD0FFF7F4FE184B1A6824
:105A080051690B7A23F040030B725269137A43F001
:105A180028031372124B1B685C693CB1237A13F09C
:105A2800200F0FD1237A13F0080F0FD110BD016991
:105A380013699942E0D1B0F91410B2F914309942BF
:105A4800DAD1DBE72046FFF745FFEBE72046FFF713
:105A580009FA2046FFF764FA2046FFF78FFAE5E7D0
:105A6800AC05002068B370B582B00446037A13F021
:105A7800080F02D1002002B070BD23F008030372A2
:105A8800134D2E68B0F91430B0F91220B0F9101087
:105A9800B0F90E00B6F846600096FEF749FE296890
:105AA8004B699C4210D01A7A12F0080F0ED022F0DF
:105AB80040021A724A69137A43F0200313720020D5
:105AC800D9E74FF0FF3070470020D4E70020D2E735
